{
	"my_contracts/FundMe.sol": {
		"FundMe": {
			"abi": [
				{
					"inputs": [],
					"stateMutability": "nonpayable",
					"type": "constructor"
				},
				{
					"inputs": [
						{
							"internalType": "address",
							"name": "_user",
							"type": "address"
						}
					],
					"name": "found",
					"outputs": [
						{
							"internalType": "uint256",
							"name": "",
							"type": "uint256"
						}
					],
					"stateMutability": "view",
					"type": "function"
				},
				{
					"inputs": [],
					"name": "foundContractUser",
					"outputs": [
						{
							"internalType": "address",
							"name": "",
							"type": "address"
						}
					],
					"stateMutability": "view",
					"type": "function"
				},
				{
					"inputs": [],
					"name": "fund",
					"outputs": [],
					"stateMutability": "payable",
					"type": "function"
				},
				{
					"inputs": [],
					"name": "getChainlinkDataFeedLatestAnswer",
					"outputs": [
						{
							"internalType": "int256",
							"name": "",
							"type": "int256"
						}
					],
					"stateMutability": "view",
					"type": "function"
				},
				{
					"inputs": [],
					"name": "getFund",
					"outputs": [],
					"stateMutability": "nonpayable",
					"type": "function"
				},
				{
					"inputs": [],
					"name": "refund",
					"outputs": [],
					"stateMutability": "nonpayable",
					"type": "function"
				},
				{
					"inputs": [
						{
							"internalType": "address",
							"name": "_newOwner",
							"type": "address"
						}
					],
					"name": "transferOwnerShip",
					"outputs": [],
					"stateMutability": "nonpayable",
					"type": "function"
				}
			],
			"devdoc": {
				"kind": "dev",
				"methods": {},
				"version": 1
			},
			"evm": {
				"assembly": "    /* \"my_contracts/FundMe.sol\":337:3859  contract FundMe{... */\n  mstore(0x40, 0x80)\n    /* \"my_contracts/FundMe.sol\":721:733  4 * 10 ** 10 */\n  0x09502f9000\n    /* \"my_contracts/FundMe.sol\":698:733  uint256 MAXMUM_VALUE = 4 * 10 ** 10 */\n  0x01\n  sstore\n    /* \"my_contracts/FundMe.sol\":812:1114  constructor(){... */\n  callvalue\n  dup1\n  iszero\n  tag_1\n  jumpi\n  revert(0x00, 0x00)\ntag_1:\n  pop\n    /* \"my_contracts/FundMe.sol\":843:853  msg.sender */\n  caller\n    /* \"my_contracts/FundMe.sol\":835:840  owner */\n  0x03\n  0x00\n    /* \"my_contracts/FundMe.sol\":835:853  owner = msg.sender */\n  0x0100\n  exp\n  dup2\n  sload\n  dup2\n  0xffffffffffffffffffffffffffffffffffffffff\n  mul\n  not\n  and\n  swap1\n  dup4\n  0xffffffffffffffffffffffffffffffffffffffff\n  and\n  mul\n  or\n  swap1\n  sstore\n  pop\n    /* \"my_contracts/FundMe.sol\":1101:1106  owner */\n  0x03\n  0x00\n  swap1\n  sload\n  swap1\n  0x0100\n  exp\n  swap1\n  div\n  0xffffffffffffffffffffffffffffffffffffffff\n  and\n    /* \"my_contracts/FundMe.sol\":1068:1076  dataFeed */\n  0x02\n  0x00\n    /* \"my_contracts/FundMe.sol\":1068:1107  dataFeed = AggregatorV3Interface(owner) */\n  0x0100\n  exp\n  dup2\n  sload\n  dup2\n  0xffffffffffffffffffffffffffffffffffffffff\n  mul\n  not\n  and\n  swap1\n  dup4\n  0xffffffffffffffffffffffffffffffffffffffff\n  and\n  mul\n  or\n  swap1\n  sstore\n  pop\n    /* \"my_contracts/FundMe.sol\":337:3859  contract FundMe{... */\n  dataSize(sub_0)\n  dup1\n  dataOffset(sub_0)\n  0x00\n  codecopy\n  0x00\n  return\nstop\n\nsub_0: assembly {\n        /* \"my_contracts/FundMe.sol\":337:3859  contract FundMe{... */\n      mstore(0x40, 0x80)\n      jumpi(tag_1, lt(calldatasize, 0x04))\n      shr(0xe0, calldataload(0x00))\n      dup1\n      0x8edd6eb6\n      gt\n      tag_9\n      jumpi\n      dup1\n      0x8edd6eb6\n      eq\n      tag_5\n      jumpi\n      dup1\n      0xb60d4288\n      eq\n      tag_6\n      jumpi\n      dup1\n      0xbea4dfb5\n      eq\n      tag_7\n      jumpi\n      dup1\n      0xdc1f031a\n      eq\n      tag_8\n      jumpi\n      jump(tag_1)\n    tag_9:\n      dup1\n      0x1721681c\n      eq\n      tag_2\n      jumpi\n      dup1\n      0x590e1ae3\n      eq\n      tag_3\n      jumpi\n      dup1\n      0x8863dd1a\n      eq\n      tag_4\n      jumpi\n    tag_1:\n      revert(0x00, 0x00)\n        /* \"my_contracts/FundMe.sol\":2782:2869  function foundContractUser() public view returns(address) {... */\n    tag_2:\n      callvalue\n      dup1\n      iszero\n      tag_10\n      jumpi\n      revert(0x00, 0x00)\n    tag_10:\n      pop\n      tag_11\n      tag_12\n      jump\t// in\n    tag_11:\n      mload(0x40)\n      tag_13\n      swap2\n      swap1\n      tag_14\n      jump\t// in\n    tag_13:\n      mload(0x40)\n      dup1\n      swap2\n      sub\n      swap1\n      return\n        /* \"my_contracts/FundMe.sol\":2389:2769  function refund() external {... */\n    tag_3:\n      callvalue\n      dup1\n      iszero\n      tag_15\n      jumpi\n      revert(0x00, 0x00)\n    tag_15:\n      pop\n      tag_16\n      tag_17\n      jump\t// in\n    tag_16:\n      stop\n        /* \"my_contracts/FundMe.sol\":2904:2999  function transferOwnerShip(address _newOwner) public  isOwner{... */\n    tag_4:\n      callvalue\n      dup1\n      iszero\n      tag_18\n      jumpi\n      revert(0x00, 0x00)\n    tag_18:\n      pop\n      tag_19\n      0x04\n      dup1\n      calldatasize\n      sub\n      dup2\n      add\n      swap1\n      tag_20\n      swap2\n      swap1\n      tag_21\n      jump\t// in\n    tag_20:\n      tag_22\n      jump\t// in\n    tag_19:\n      stop\n        /* \"my_contracts/FundMe.sol\":1685:2369  function getFund() external isOwner{... */\n    tag_5:\n      callvalue\n      dup1\n      iszero\n      tag_23\n      jumpi\n      revert(0x00, 0x00)\n    tag_23:\n      pop\n      tag_24\n      tag_25\n      jump\t// in\n    tag_24:\n      stop\n        /* \"my_contracts/FundMe.sol\":1160:1521  function fund() external payable {... */\n    tag_6:\n      tag_26\n      tag_27\n      jump\t// in\n    tag_26:\n      stop\n        /* \"my_contracts/FundMe.sol\":3034:3381  function getChainlinkDataFeedLatestAnswer() public view returns (int) {... */\n    tag_7:\n      callvalue\n      dup1\n      iszero\n      tag_28\n      jumpi\n      revert(0x00, 0x00)\n    tag_28:\n      pop\n      tag_29\n      tag_30\n      jump\t// in\n    tag_29:\n      mload(0x40)\n      tag_31\n      swap2\n      swap1\n      tag_32\n      jump\t// in\n    tag_31:\n      mload(0x40)\n      dup1\n      swap2\n      sub\n      swap1\n      return\n        /* \"my_contracts/FundMe.sol\":1566:1665  function found(address _user) public view returns(uint256) {... */\n    tag_8:\n      callvalue\n      dup1\n      iszero\n      tag_33\n      jumpi\n      revert(0x00, 0x00)\n    tag_33:\n      pop\n      tag_34\n      0x04\n      dup1\n      calldatasize\n      sub\n      dup2\n      add\n      swap1\n      tag_35\n      swap2\n      swap1\n      tag_21\n      jump\t// in\n    tag_35:\n      tag_36\n      jump\t// in\n    tag_34:\n      mload(0x40)\n      tag_37\n      swap2\n      swap1\n      tag_38\n      jump\t// in\n    tag_37:\n      mload(0x40)\n      dup1\n      swap2\n      sub\n      swap1\n      return\n        /* \"my_contracts/FundMe.sol\":2782:2869  function foundContractUser() public view returns(address) {... */\n    tag_12:\n        /* \"my_contracts/FundMe.sol\":2831:2838  address */\n      0x00\n        /* \"my_contracts/FundMe.sol\":2857:2862  owner */\n      0x03\n      0x00\n      swap1\n      sload\n      swap1\n      0x0100\n      exp\n      swap1\n      div\n      0xffffffffffffffffffffffffffffffffffffffff\n      and\n        /* \"my_contracts/FundMe.sol\":2850:2862  return owner */\n      swap1\n      pop\n        /* \"my_contracts/FundMe.sol\":2782:2869  function foundContractUser() public view returns(address) {... */\n      swap1\n      jump\t// out\n        /* \"my_contracts/FundMe.sol\":2389:2769  function refund() external {... */\n    tag_17:\n        /* \"my_contracts/FundMe.sol\":2503:2515  MAXMUM_VALUE */\n      sload(0x01)\n        /* \"my_contracts/FundMe.sol\":2479:2500  address(this).balance */\n      selfbalance\n        /* \"my_contracts/FundMe.sol\":2479:2515  address(this).balance < MAXMUM_VALUE */\n      lt\n        /* \"my_contracts/FundMe.sol\":2471:2537  require(address(this).balance < MAXMUM_VALUE, \"target is reached\") */\n      tag_41\n      jumpi\n      mload(0x40)\n      0x08c379a000000000000000000000000000000000000000000000000000000000\n      dup2\n      mstore\n      0x04\n      add\n      tag_42\n      swap1\n      tag_43\n      jump\t// in\n    tag_42:\n      mload(0x40)\n      dup1\n      swap2\n      sub\n      swap1\n      revert\n    tag_41:\n        /* \"my_contracts/FundMe.sol\":2583:2597  uint256 amount */\n      0x00\n        /* \"my_contracts/FundMe.sol\":2600:2617  found(msg.sender) */\n      tag_44\n        /* \"my_contracts/FundMe.sol\":2606:2616  msg.sender */\n      caller\n        /* \"my_contracts/FundMe.sol\":2600:2605  found */\n      tag_36\n        /* \"my_contracts/FundMe.sol\":2600:2617  found(msg.sender) */\n      jump\t// in\n    tag_44:\n        /* \"my_contracts/FundMe.sol\":2583:2617  uint256 amount = found(msg.sender) */\n      swap1\n      pop\n        /* \"my_contracts/FundMe.sol\":2645:2646  0 */\n      0x00\n        /* \"my_contracts/FundMe.sol\":2635:2641  amount */\n      dup2\n        /* \"my_contracts/FundMe.sol\":2635:2646  amount != 0 */\n      sub\n        /* \"my_contracts/FundMe.sol\":2627:2674  require(amount != 0,\"there is no fund for you\") */\n      tag_45\n      jumpi\n      mload(0x40)\n      0x08c379a000000000000000000000000000000000000000000000000000000000\n      dup2\n      mstore\n      0x04\n      add\n      tag_46\n      swap1\n      tag_47\n      jump\t// in\n    tag_46:\n      mload(0x40)\n      dup1\n      swap2\n      sub\n      swap1\n      revert\n    tag_45:\n        /* \"my_contracts/FundMe.sol\":2684:2696  bool success */\n      0x00\n        /* \"my_contracts/FundMe.sol\":2727:2737  msg.sender */\n      caller\n        /* \"my_contracts/FundMe.sol\":2719:2743  payable(msg.sender).call */\n      0xffffffffffffffffffffffffffffffffffffffff\n      and\n        /* \"my_contracts/FundMe.sol\":2751:2757  amount */\n      dup3\n        /* \"my_contracts/FundMe.sol\":2719:2762  payable(msg.sender).call{value: amount}(\"\") */\n      mload(0x40)\n      tag_48\n      swap1\n      tag_49\n      jump\t// in\n    tag_48:\n      0x00\n      mload(0x40)\n      dup1\n      dup4\n      sub\n      dup2\n      dup6\n      dup8\n      gas\n      call\n      swap3\n      pop\n      pop\n      pop\n      returndatasize\n      dup1\n      0x00\n      dup2\n      eq\n      tag_52\n      jumpi\n      mload(0x40)\n      swap2\n      pop\n      and(add(returndatasize, 0x3f), not(0x1f))\n      dup3\n      add\n      0x40\n      mstore\n      returndatasize\n      dup3\n      mstore\n      returndatasize\n      0x00\n      0x20\n      dup5\n      add\n      returndatacopy\n      jump(tag_51)\n    tag_52:\n      0x60\n      swap2\n      pop\n    tag_51:\n      pop\n        /* \"my_contracts/FundMe.sol\":2706:2762  (success,) = payable(msg.sender).call{value: amount}(\"\") */\n      pop\n      dup1\n      swap2\n      pop\n      pop\n        /* \"my_contracts/FundMe.sol\":2416:2769  {... */\n      pop\n      pop\n        /* \"my_contracts/FundMe.sol\":2389:2769  function refund() external {... */\n      jump\t// out\n        /* \"my_contracts/FundMe.sol\":2904:2999  function transferOwnerShip(address _newOwner) public  isOwner{... */\n    tag_22:\n        /* \"my_contracts/FundMe.sol\":3803:3808  owner */\n      0x03\n      0x00\n      swap1\n      sload\n      swap1\n      0x0100\n      exp\n      swap1\n      div\n      0xffffffffffffffffffffffffffffffffffffffff\n      and\n        /* \"my_contracts/FundMe.sol\":3789:3808  msg.sender == owner */\n      0xffffffffffffffffffffffffffffffffffffffff\n      and\n        /* \"my_contracts/FundMe.sol\":3789:3799  msg.sender */\n      caller\n        /* \"my_contracts/FundMe.sol\":3789:3808  msg.sender == owner */\n      0xffffffffffffffffffffffffffffffffffffffff\n      and\n      eq\n        /* \"my_contracts/FundMe.sol\":3781:3838  require(msg.sender == owner, \"you don't have permission\") */\n      tag_54\n      jumpi\n      mload(0x40)\n      0x08c379a000000000000000000000000000000000000000000000000000000000\n      dup2\n      mstore\n      0x04\n      add\n      tag_55\n      swap1\n      tag_56\n      jump\t// in\n    tag_55:\n      mload(0x40)\n      dup1\n      swap2\n      sub\n      swap1\n      revert\n    tag_54:\n        /* \"my_contracts/FundMe.sol\":2983:2992  _newOwner */\n      dup1\n        /* \"my_contracts/FundMe.sol\":2975:2980  owner */\n      0x03\n      0x00\n        /* \"my_contracts/FundMe.sol\":2975:2992  owner = _newOwner */\n      0x0100\n      exp\n      dup2\n      sload\n      dup2\n      0xffffffffffffffffffffffffffffffffffffffff\n      mul\n      not\n      and\n      swap1\n      dup4\n      0xffffffffffffffffffffffffffffffffffffffff\n      and\n      mul\n      or\n      swap1\n      sstore\n      pop\n        /* \"my_contracts/FundMe.sol\":2904:2999  function transferOwnerShip(address _newOwner) public  isOwner{... */\n      pop\n      jump\t// out\n        /* \"my_contracts/FundMe.sol\":1685:2369  function getFund() external isOwner{... */\n    tag_25:\n        /* \"my_contracts/FundMe.sol\":3803:3808  owner */\n      0x03\n      0x00\n      swap1\n      sload\n      swap1\n      0x0100\n      exp\n      swap1\n      div\n      0xffffffffffffffffffffffffffffffffffffffff\n      and\n        /* \"my_contracts/FundMe.sol\":3789:3808  msg.sender == owner */\n      0xffffffffffffffffffffffffffffffffffffffff\n      and\n        /* \"my_contracts/FundMe.sol\":3789:3799  msg.sender */\n      caller\n        /* \"my_contracts/FundMe.sol\":3789:3808  msg.sender == owner */\n      0xffffffffffffffffffffffffffffffffffffffff\n      and\n      eq\n        /* \"my_contracts/FundMe.sol\":3781:3838  require(msg.sender == owner, \"you don't have permission\") */\n      tag_59\n      jumpi\n      mload(0x40)\n      0x08c379a000000000000000000000000000000000000000000000000000000000\n      dup2\n      mstore\n      0x04\n      add\n      tag_60\n      swap1\n      tag_56\n      jump\t// in\n    tag_60:\n      mload(0x40)\n      dup1\n      swap2\n      sub\n      swap1\n      revert\n    tag_59:\n        /* \"my_contracts/FundMe.sol\":1807:1819  MAXMUM_VALUE */\n      sload(0x01)\n        /* \"my_contracts/FundMe.sol\":1782:1803  address(this).balance */\n      selfbalance\n        /* \"my_contracts/FundMe.sol\":1782:1819  address(this).balance >= MAXMUM_VALUE */\n      lt\n      iszero\n        /* \"my_contracts/FundMe.sol\":1774:1845  require(address(this).balance >= MAXMUM_VALUE, \"target is not reached\") */\n      tag_62\n      jumpi\n      mload(0x40)\n      0x08c379a000000000000000000000000000000000000000000000000000000000\n      dup2\n      mstore\n      0x04\n      add\n      tag_63\n      swap1\n      tag_64\n      jump\t// in\n    tag_63:\n      mload(0x40)\n      dup1\n      swap2\n      sub\n      swap1\n      revert\n    tag_62:\n        /* \"my_contracts/FundMe.sol\":2222:2232  msg.sender */\n      caller\n        /* \"my_contracts/FundMe.sol\":2214:2242  payable(msg.sender).transfer */\n      0xffffffffffffffffffffffffffffffffffffffff\n      and\n        /* \"my_contracts/FundMe.sol\":2214:2265  payable(msg.sender).transfer(address(this).balance) */\n      0x08fc\n        /* \"my_contracts/FundMe.sol\":2243:2264  address(this).balance */\n      selfbalance\n        /* \"my_contracts/FundMe.sol\":2214:2265  payable(msg.sender).transfer(address(this).balance) */\n      swap1\n      dup2\n      iszero\n      mul\n      swap1\n      mload(0x40)\n      0x00\n      mload(0x40)\n      dup1\n      dup4\n      sub\n      dup2\n      dup6\n      dup9\n      dup9\n      call\n      swap4\n      pop\n      pop\n      pop\n      pop\n      iszero\n      dup1\n      iszero\n      tag_66\n      jumpi\n      returndatacopy(0x00, 0x00, returndatasize)\n      revert(0x00, returndatasize)\n    tag_66:\n      pop\n        /* \"my_contracts/FundMe.sol\":1685:2369  function getFund() external isOwner{... */\n      jump\t// out\n        /* \"my_contracts/FundMe.sol\":1160:1521  function fund() external payable {... */\n    tag_27:\n        /* \"my_contracts/FundMe.sol\":604:618  100 * 10 ** 18 */\n      0x056bc75e2d63100000\n        /* \"my_contracts/FundMe.sol\":1211:1220  msg.value */\n      callvalue\n        /* \"my_contracts/FundMe.sol\":1211:1240  msg.value < MINIMUM_USD_VALUE */\n      lt\n        /* \"my_contracts/FundMe.sol\":1203:1254  require(msg.value < MINIMUM_USD_VALUE, \"it's too \") */\n      tag_68\n      jumpi\n      mload(0x40)\n      0x08c379a000000000000000000000000000000000000000000000000000000000\n      dup2\n      mstore\n      0x04\n      add\n      tag_69\n      swap1\n      tag_70\n      jump\t// in\n    tag_69:\n      mload(0x40)\n      dup1\n      swap2\n      sub\n      swap1\n      revert\n    tag_68:\n        /* \"my_contracts/FundMe.sol\":1505:1514  msg.value */\n      callvalue\n        /* \"my_contracts/FundMe.sol\":1481:1490  funderMap */\n      0x00\n        /* \"my_contracts/FundMe.sol\":1481:1502  funderMap[msg.sender] */\n      0x00\n        /* \"my_contracts/FundMe.sol\":1491:1501  msg.sender */\n      caller\n        /* \"my_contracts/FundMe.sol\":1481:1502  funderMap[msg.sender] */\n      0xffffffffffffffffffffffffffffffffffffffff\n      and\n      0xffffffffffffffffffffffffffffffffffffffff\n      and\n      dup2\n      mstore\n      0x20\n      add\n      swap1\n      dup2\n      mstore\n      0x20\n      add\n      0x00\n      keccak256\n        /* \"my_contracts/FundMe.sol\":1481:1514  funderMap[msg.sender] = msg.value */\n      dup2\n      swap1\n      sstore\n      pop\n        /* \"my_contracts/FundMe.sol\":1160:1521  function fund() external payable {... */\n      jump\t// out\n        /* \"my_contracts/FundMe.sol\":3034:3381  function getChainlinkDataFeedLatestAnswer() public view returns (int) {... */\n    tag_30:\n        /* \"my_contracts/FundMe.sol\":3099:3102  int */\n      0x00\n        /* \"my_contracts/FundMe.sol\":3189:3202  int256 answer */\n      0x00\n        /* \"my_contracts/FundMe.sol\":3325:3333  dataFeed */\n      0x02\n      0x00\n      swap1\n      sload\n      swap1\n      0x0100\n      exp\n      swap1\n      div\n      0xffffffffffffffffffffffffffffffffffffffff\n      and\n        /* \"my_contracts/FundMe.sol\":3325:3349  dataFeed.latestRoundData */\n      0xffffffffffffffffffffffffffffffffffffffff\n      and\n      0xfeaf968c\n        /* \"my_contracts/FundMe.sol\":3325:3351  dataFeed.latestRoundData() */\n      mload(0x40)\n      dup2\n      0xffffffff\n      and\n      0xe0\n      shl\n      dup2\n      mstore\n      0x04\n      add\n      0xa0\n      mload(0x40)\n      dup1\n      dup4\n      sub\n      dup2\n      dup7\n      gas\n      staticcall\n      iszero\n      dup1\n      iszero\n      tag_73\n      jumpi\n      returndatacopy(0x00, 0x00, returndatasize)\n      revert(0x00, returndatasize)\n    tag_73:\n      pop\n      pop\n      pop\n      pop\n      mload(0x40)\n      returndatasize\n      not(0x1f)\n      0x1f\n      dup3\n      add\n      and\n      dup3\n      add\n      dup1\n      0x40\n      mstore\n      pop\n      dup2\n      add\n      swap1\n      tag_74\n      swap2\n      swap1\n      tag_75\n      jump\t// in\n    tag_74:\n        /* \"my_contracts/FundMe.sol\":3141:3351  (... */\n      pop\n      pop\n      pop\n      swap2\n      pop\n      pop\n        /* \"my_contracts/FundMe.sol\":3368:3374  answer */\n      dup1\n        /* \"my_contracts/FundMe.sol\":3361:3374  return answer */\n      swap2\n      pop\n      pop\n        /* \"my_contracts/FundMe.sol\":3034:3381  function getChainlinkDataFeedLatestAnswer() public view returns (int) {... */\n      swap1\n      jump\t// out\n        /* \"my_contracts/FundMe.sol\":1566:1665  function found(address _user) public view returns(uint256) {... */\n    tag_36:\n        /* \"my_contracts/FundMe.sol\":1616:1623  uint256 */\n      0x00\n        /* \"my_contracts/FundMe.sol\":1642:1651  funderMap */\n      0x00\n        /* \"my_contracts/FundMe.sol\":1642:1658  funderMap[_user] */\n      0x00\n        /* \"my_contracts/FundMe.sol\":1652:1657  _user */\n      dup4\n        /* \"my_contracts/FundMe.sol\":1642:1658  funderMap[_user] */\n      0xffffffffffffffffffffffffffffffffffffffff\n      and\n      0xffffffffffffffffffffffffffffffffffffffff\n      and\n      dup2\n      mstore\n      0x20\n      add\n      swap1\n      dup2\n      mstore\n      0x20\n      add\n      0x00\n      keccak256\n      sload\n        /* \"my_contracts/FundMe.sol\":1635:1658  return funderMap[_user] */\n      swap1\n      pop\n        /* \"my_contracts/FundMe.sol\":1566:1665  function found(address _user) public view returns(uint256) {... */\n      swap2\n      swap1\n      pop\n      jump\t// out\n        /* \"#utility.yul\":7:133   */\n    tag_77:\n        /* \"#utility.yul\":44:51   */\n      0x00\n        /* \"#utility.yul\":84:126   */\n      0xffffffffffffffffffffffffffffffffffffffff\n        /* \"#utility.yul\":77:82   */\n      dup3\n        /* \"#utility.yul\":73:127   */\n      and\n        /* \"#utility.yul\":62:127   */\n      swap1\n      pop\n        /* \"#utility.yul\":7:133   */\n      swap2\n      swap1\n      pop\n      jump\t// out\n        /* \"#utility.yul\":139:235   */\n    tag_78:\n        /* \"#utility.yul\":176:183   */\n      0x00\n        /* \"#utility.yul\":205:229   */\n      tag_113\n        /* \"#utility.yul\":223:228   */\n      dup3\n        /* \"#utility.yul\":205:229   */\n      tag_77\n      jump\t// in\n    tag_113:\n        /* \"#utility.yul\":194:229   */\n      swap1\n      pop\n        /* \"#utility.yul\":139:235   */\n      swap2\n      swap1\n      pop\n      jump\t// out\n        /* \"#utility.yul\":241:359   */\n    tag_79:\n        /* \"#utility.yul\":328:352   */\n      tag_115\n        /* \"#utility.yul\":346:351   */\n      dup2\n        /* \"#utility.yul\":328:352   */\n      tag_78\n      jump\t// in\n    tag_115:\n        /* \"#utility.yul\":323:326   */\n      dup3\n        /* \"#utility.yul\":316:353   */\n      mstore\n        /* \"#utility.yul\":241:359   */\n      pop\n      pop\n      jump\t// out\n        /* \"#utility.yul\":365:587   */\n    tag_14:\n        /* \"#utility.yul\":458:462   */\n      0x00\n        /* \"#utility.yul\":496:498   */\n      0x20\n        /* \"#utility.yul\":485:494   */\n      dup3\n        /* \"#utility.yul\":481:499   */\n      add\n        /* \"#utility.yul\":473:499   */\n      swap1\n      pop\n        /* \"#utility.yul\":509:580   */\n      tag_117\n        /* \"#utility.yul\":577:578   */\n      0x00\n        /* \"#utility.yul\":566:575   */\n      dup4\n        /* \"#utility.yul\":562:579   */\n      add\n        /* \"#utility.yul\":553:559   */\n      dup5\n        /* \"#utility.yul\":509:580   */\n      tag_79\n      jump\t// in\n    tag_117:\n        /* \"#utility.yul\":365:587   */\n      swap3\n      swap2\n      pop\n      pop\n      jump\t// out\n        /* \"#utility.yul\":674:791   */\n    tag_81:\n        /* \"#utility.yul\":783:784   */\n      0x00\n        /* \"#utility.yul\":780:781   */\n      0x00\n        /* \"#utility.yul\":773:785   */\n      revert\n        /* \"#utility.yul\":920:1042   */\n    tag_83:\n        /* \"#utility.yul\":993:1017   */\n      tag_122\n        /* \"#utility.yul\":1011:1016   */\n      dup2\n        /* \"#utility.yul\":993:1017   */\n      tag_78\n      jump\t// in\n    tag_122:\n        /* \"#utility.yul\":986:991   */\n      dup2\n        /* \"#utility.yul\":983:1018   */\n      eq\n        /* \"#utility.yul\":973:1036   */\n      tag_123\n      jumpi\n        /* \"#utility.yul\":1032:1033   */\n      0x00\n        /* \"#utility.yul\":1029:1030   */\n      0x00\n        /* \"#utility.yul\":1022:1034   */\n      revert\n        /* \"#utility.yul\":973:1036   */\n    tag_123:\n        /* \"#utility.yul\":920:1042   */\n      pop\n      jump\t// out\n        /* \"#utility.yul\":1048:1187   */\n    tag_84:\n        /* \"#utility.yul\":1094:1099   */\n      0x00\n        /* \"#utility.yul\":1132:1138   */\n      dup2\n        /* \"#utility.yul\":1119:1139   */\n      calldataload\n        /* \"#utility.yul\":1110:1139   */\n      swap1\n      pop\n        /* \"#utility.yul\":1148:1181   */\n      tag_125\n        /* \"#utility.yul\":1175:1180   */\n      dup2\n        /* \"#utility.yul\":1148:1181   */\n      tag_83\n      jump\t// in\n    tag_125:\n        /* \"#utility.yul\":1048:1187   */\n      swap3\n      swap2\n      pop\n      pop\n      jump\t// out\n        /* \"#utility.yul\":1193:1522   */\n    tag_21:\n        /* \"#utility.yul\":1252:1258   */\n      0x00\n        /* \"#utility.yul\":1301:1303   */\n      0x20\n        /* \"#utility.yul\":1289:1298   */\n      dup3\n        /* \"#utility.yul\":1280:1287   */\n      dup5\n        /* \"#utility.yul\":1276:1299   */\n      sub\n        /* \"#utility.yul\":1272:1304   */\n      slt\n        /* \"#utility.yul\":1269:1388   */\n      iszero\n      tag_127\n      jumpi\n        /* \"#utility.yul\":1307:1386   */\n      tag_128\n      tag_81\n      jump\t// in\n    tag_128:\n        /* \"#utility.yul\":1269:1388   */\n    tag_127:\n        /* \"#utility.yul\":1427:1428   */\n      0x00\n        /* \"#utility.yul\":1452:1505   */\n      tag_129\n        /* \"#utility.yul\":1497:1504   */\n      dup5\n        /* \"#utility.yul\":1488:1494   */\n      dup3\n        /* \"#utility.yul\":1477:1486   */\n      dup6\n        /* \"#utility.yul\":1473:1495   */\n      add\n        /* \"#utility.yul\":1452:1505   */\n      tag_84\n      jump\t// in\n    tag_129:\n        /* \"#utility.yul\":1442:1505   */\n      swap2\n      pop\n        /* \"#utility.yul\":1398:1515   */\n      pop\n        /* \"#utility.yul\":1193:1522   */\n      swap3\n      swap2\n      pop\n      pop\n      jump\t// out\n        /* \"#utility.yul\":1528:1604   */\n    tag_85:\n        /* \"#utility.yul\":1564:1571   */\n      0x00\n        /* \"#utility.yul\":1593:1598   */\n      dup2\n        /* \"#utility.yul\":1582:1598   */\n      swap1\n      pop\n        /* \"#utility.yul\":1528:1604   */\n      swap2\n      swap1\n      pop\n      jump\t// out\n        /* \"#utility.yul\":1610:1725   */\n    tag_86:\n        /* \"#utility.yul\":1695:1718   */\n      tag_132\n        /* \"#utility.yul\":1712:1717   */\n      dup2\n        /* \"#utility.yul\":1695:1718   */\n      tag_85\n      jump\t// in\n    tag_132:\n        /* \"#utility.yul\":1690:1693   */\n      dup3\n        /* \"#utility.yul\":1683:1719   */\n      mstore\n        /* \"#utility.yul\":1610:1725   */\n      pop\n      pop\n      jump\t// out\n        /* \"#utility.yul\":1731:1949   */\n    tag_32:\n        /* \"#utility.yul\":1822:1826   */\n      0x00\n        /* \"#utility.yul\":1860:1862   */\n      0x20\n        /* \"#utility.yul\":1849:1858   */\n      dup3\n        /* \"#utility.yul\":1845:1863   */\n      add\n        /* \"#utility.yul\":1837:1863   */\n      swap1\n      pop\n        /* \"#utility.yul\":1873:1942   */\n      tag_134\n        /* \"#utility.yul\":1939:1940   */\n      0x00\n        /* \"#utility.yul\":1928:1937   */\n      dup4\n        /* \"#utility.yul\":1924:1941   */\n      add\n        /* \"#utility.yul\":1915:1921   */\n      dup5\n        /* \"#utility.yul\":1873:1942   */\n      tag_86\n      jump\t// in\n    tag_134:\n        /* \"#utility.yul\":1731:1949   */\n      swap3\n      swap2\n      pop\n      pop\n      jump\t// out\n        /* \"#utility.yul\":1955:2032   */\n    tag_87:\n        /* \"#utility.yul\":1992:1999   */\n      0x00\n        /* \"#utility.yul\":2021:2026   */\n      dup2\n        /* \"#utility.yul\":2010:2026   */\n      swap1\n      pop\n        /* \"#utility.yul\":1955:2032   */\n      swap2\n      swap1\n      pop\n      jump\t// out\n        /* \"#utility.yul\":2038:2156   */\n    tag_88:\n        /* \"#utility.yul\":2125:2149   */\n      tag_137\n        /* \"#utility.yul\":2143:2148   */\n      dup2\n        /* \"#utility.yul\":2125:2149   */\n      tag_87\n      jump\t// in\n    tag_137:\n        /* \"#utility.yul\":2120:2123   */\n      dup3\n        /* \"#utility.yul\":2113:2150   */\n      mstore\n        /* \"#utility.yul\":2038:2156   */\n      pop\n      pop\n      jump\t// out\n        /* \"#utility.yul\":2162:2384   */\n    tag_38:\n        /* \"#utility.yul\":2255:2259   */\n      0x00\n        /* \"#utility.yul\":2293:2295   */\n      0x20\n        /* \"#utility.yul\":2282:2291   */\n      dup3\n        /* \"#utility.yul\":2278:2296   */\n      add\n        /* \"#utility.yul\":2270:2296   */\n      swap1\n      pop\n        /* \"#utility.yul\":2306:2377   */\n      tag_139\n        /* \"#utility.yul\":2374:2375   */\n      0x00\n        /* \"#utility.yul\":2363:2372   */\n      dup4\n        /* \"#utility.yul\":2359:2376   */\n      add\n        /* \"#utility.yul\":2350:2356   */\n      dup5\n        /* \"#utility.yul\":2306:2377   */\n      tag_88\n      jump\t// in\n    tag_139:\n        /* \"#utility.yul\":2162:2384   */\n      swap3\n      swap2\n      pop\n      pop\n      jump\t// out\n        /* \"#utility.yul\":2390:2559   */\n    tag_89:\n        /* \"#utility.yul\":2474:2485   */\n      0x00\n        /* \"#utility.yul\":2508:2514   */\n      dup3\n        /* \"#utility.yul\":2503:2506   */\n      dup3\n        /* \"#utility.yul\":2496:2515   */\n      mstore\n        /* \"#utility.yul\":2548:2552   */\n      0x20\n        /* \"#utility.yul\":2543:2546   */\n      dup3\n        /* \"#utility.yul\":2539:2553   */\n      add\n        /* \"#utility.yul\":2524:2553   */\n      swap1\n      pop\n        /* \"#utility.yul\":2390:2559   */\n      swap3\n      swap2\n      pop\n      pop\n      jump\t// out\n        /* \"#utility.yul\":2565:2732   */\n    tag_90:\n        /* \"#utility.yul\":2705:2724   */\n      0x7461726765742069732072656163686564000000000000000000000000000000\n        /* \"#utility.yul\":2701:2702   */\n      0x00\n        /* \"#utility.yul\":2693:2699   */\n      dup3\n        /* \"#utility.yul\":2689:2703   */\n      add\n        /* \"#utility.yul\":2682:2725   */\n      mstore\n        /* \"#utility.yul\":2565:2732   */\n      pop\n      jump\t// out\n        /* \"#utility.yul\":2738:3104   */\n    tag_91:\n        /* \"#utility.yul\":2880:2883   */\n      0x00\n        /* \"#utility.yul\":2901:2968   */\n      tag_143\n        /* \"#utility.yul\":2965:2967   */\n      0x11\n        /* \"#utility.yul\":2960:2963   */\n      dup4\n        /* \"#utility.yul\":2901:2968   */\n      tag_89\n      jump\t// in\n    tag_143:\n        /* \"#utility.yul\":2894:2968   */\n      swap2\n      pop\n        /* \"#utility.yul\":2977:3070   */\n      tag_144\n        /* \"#utility.yul\":3066:3069   */\n      dup3\n        /* \"#utility.yul\":2977:3070   */\n      tag_90\n      jump\t// in\n    tag_144:\n        /* \"#utility.yul\":3095:3097   */\n      0x20\n        /* \"#utility.yul\":3090:3093   */\n      dup3\n        /* \"#utility.yul\":3086:3098   */\n      add\n        /* \"#utility.yul\":3079:3098   */\n      swap1\n      pop\n        /* \"#utility.yul\":2738:3104   */\n      swap2\n      swap1\n      pop\n      jump\t// out\n        /* \"#utility.yul\":3110:3529   */\n    tag_43:\n        /* \"#utility.yul\":3276:3280   */\n      0x00\n        /* \"#utility.yul\":3314:3316   */\n      0x20\n        /* \"#utility.yul\":3303:3312   */\n      dup3\n        /* \"#utility.yul\":3299:3317   */\n      add\n        /* \"#utility.yul\":3291:3317   */\n      swap1\n      pop\n        /* \"#utility.yul\":3363:3372   */\n      dup2\n        /* \"#utility.yul\":3357:3361   */\n      dup2\n        /* \"#utility.yul\":3353:3373   */\n      sub\n        /* \"#utility.yul\":3349:3350   */\n      0x00\n        /* \"#utility.yul\":3338:3347   */\n      dup4\n        /* \"#utility.yul\":3334:3351   */\n      add\n        /* \"#utility.yul\":3327:3374   */\n      mstore\n        /* \"#utility.yul\":3391:3522   */\n      tag_146\n        /* \"#utility.yul\":3517:3521   */\n      dup2\n        /* \"#utility.yul\":3391:3522   */\n      tag_91\n      jump\t// in\n    tag_146:\n        /* \"#utility.yul\":3383:3522   */\n      swap1\n      pop\n        /* \"#utility.yul\":3110:3529   */\n      swap2\n      swap1\n      pop\n      jump\t// out\n        /* \"#utility.yul\":3535:3709   */\n    tag_92:\n        /* \"#utility.yul\":3675:3701   */\n      0x7468657265206973206e6f2066756e6420666f7220796f750000000000000000\n        /* \"#utility.yul\":3671:3672   */\n      0x00\n        /* \"#utility.yul\":3663:3669   */\n      dup3\n        /* \"#utility.yul\":3659:3673   */\n      add\n        /* \"#utility.yul\":3652:3702   */\n      mstore\n        /* \"#utility.yul\":3535:3709   */\n      pop\n      jump\t// out\n        /* \"#utility.yul\":3715:4081   */\n    tag_93:\n        /* \"#utility.yul\":3857:3860   */\n      0x00\n        /* \"#utility.yul\":3878:3945   */\n      tag_149\n        /* \"#utility.yul\":3942:3944   */\n      0x18\n        /* \"#utility.yul\":3937:3940   */\n      dup4\n        /* \"#utility.yul\":3878:3945   */\n      tag_89\n      jump\t// in\n    tag_149:\n        /* \"#utility.yul\":3871:3945   */\n      swap2\n      pop\n        /* \"#utility.yul\":3954:4047   */\n      tag_150\n        /* \"#utility.yul\":4043:4046   */\n      dup3\n        /* \"#utility.yul\":3954:4047   */\n      tag_92\n      jump\t// in\n    tag_150:\n        /* \"#utility.yul\":4072:4074   */\n      0x20\n        /* \"#utility.yul\":4067:4070   */\n      dup3\n        /* \"#utility.yul\":4063:4075   */\n      add\n        /* \"#utility.yul\":4056:4075   */\n      swap1\n      pop\n        /* \"#utility.yul\":3715:4081   */\n      swap2\n      swap1\n      pop\n      jump\t// out\n        /* \"#utility.yul\":4087:4506   */\n    tag_47:\n        /* \"#utility.yul\":4253:4257   */\n      0x00\n        /* \"#utility.yul\":4291:4293   */\n      0x20\n        /* \"#utility.yul\":4280:4289   */\n      dup3\n        /* \"#utility.yul\":4276:4294   */\n      add\n        /* \"#utility.yul\":4268:4294   */\n      swap1\n      pop\n        /* \"#utility.yul\":4340:4349   */\n      dup2\n        /* \"#utility.yul\":4334:4338   */\n      dup2\n        /* \"#utility.yul\":4330:4350   */\n      sub\n        /* \"#utility.yul\":4326:4327   */\n      0x00\n        /* \"#utility.yul\":4315:4324   */\n      dup4\n        /* \"#utility.yul\":4311:4328   */\n      add\n        /* \"#utility.yul\":4304:4351   */\n      mstore\n        /* \"#utility.yul\":4368:4499   */\n      tag_152\n        /* \"#utility.yul\":4494:4498   */\n      dup2\n        /* \"#utility.yul\":4368:4499   */\n      tag_93\n      jump\t// in\n    tag_152:\n        /* \"#utility.yul\":4360:4499   */\n      swap1\n      pop\n        /* \"#utility.yul\":4087:4506   */\n      swap2\n      swap1\n      pop\n      jump\t// out\n        /* \"#utility.yul\":4512:4659   */\n    tag_94:\n        /* \"#utility.yul\":4613:4624   */\n      0x00\n        /* \"#utility.yul\":4650:4653   */\n      dup2\n        /* \"#utility.yul\":4635:4653   */\n      swap1\n      pop\n        /* \"#utility.yul\":4512:4659   */\n      swap3\n      swap2\n      pop\n      pop\n      jump\t// out\n        /* \"#utility.yul\":4665:4779   */\n    tag_95:\n      pop\n      jump\t// out\n        /* \"#utility.yul\":4785:5183   */\n    tag_96:\n        /* \"#utility.yul\":4944:4947   */\n      0x00\n        /* \"#utility.yul\":4965:5048   */\n      tag_156\n        /* \"#utility.yul\":5046:5047   */\n      0x00\n        /* \"#utility.yul\":5041:5044   */\n      dup4\n        /* \"#utility.yul\":4965:5048   */\n      tag_94\n      jump\t// in\n    tag_156:\n        /* \"#utility.yul\":4958:5048   */\n      swap2\n      pop\n        /* \"#utility.yul\":5057:5150   */\n      tag_157\n        /* \"#utility.yul\":5146:5149   */\n      dup3\n        /* \"#utility.yul\":5057:5150   */\n      tag_95\n      jump\t// in\n    tag_157:\n        /* \"#utility.yul\":5175:5176   */\n      0x00\n        /* \"#utility.yul\":5170:5173   */\n      dup3\n        /* \"#utility.yul\":5166:5177   */\n      add\n        /* \"#utility.yul\":5159:5177   */\n      swap1\n      pop\n        /* \"#utility.yul\":4785:5183   */\n      swap2\n      swap1\n      pop\n      jump\t// out\n        /* \"#utility.yul\":5189:5568   */\n    tag_49:\n        /* \"#utility.yul\":5373:5376   */\n      0x00\n        /* \"#utility.yul\":5395:5542   */\n      tag_159\n        /* \"#utility.yul\":5538:5541   */\n      dup3\n        /* \"#utility.yul\":5395:5542   */\n      tag_96\n      jump\t// in\n    tag_159:\n        /* \"#utility.yul\":5388:5542   */\n      swap2\n      pop\n        /* \"#utility.yul\":5559:5562   */\n      dup2\n        /* \"#utility.yul\":5552:5562   */\n      swap1\n      pop\n        /* \"#utility.yul\":5189:5568   */\n      swap2\n      swap1\n      pop\n      jump\t// out\n        /* \"#utility.yul\":5574:5749   */\n    tag_97:\n        /* \"#utility.yul\":5714:5741   */\n      0x796f7520646f6e27742068617665207065726d697373696f6e00000000000000\n        /* \"#utility.yul\":5710:5711   */\n      0x00\n        /* \"#utility.yul\":5702:5708   */\n      dup3\n        /* \"#utility.yul\":5698:5712   */\n      add\n        /* \"#utility.yul\":5691:5742   */\n      mstore\n        /* \"#utility.yul\":5574:5749   */\n      pop\n      jump\t// out\n        /* \"#utility.yul\":5755:6121   */\n    tag_98:\n        /* \"#utility.yul\":5897:5900   */\n      0x00\n        /* \"#utility.yul\":5918:5985   */\n      tag_162\n        /* \"#utility.yul\":5982:5984   */\n      0x19\n        /* \"#utility.yul\":5977:5980   */\n      dup4\n        /* \"#utility.yul\":5918:5985   */\n      tag_89\n      jump\t// in\n    tag_162:\n        /* \"#utility.yul\":5911:5985   */\n      swap2\n      pop\n        /* \"#utility.yul\":5994:6087   */\n      tag_163\n        /* \"#utility.yul\":6083:6086   */\n      dup3\n        /* \"#utility.yul\":5994:6087   */\n      tag_97\n      jump\t// in\n    tag_163:\n        /* \"#utility.yul\":6112:6114   */\n      0x20\n        /* \"#utility.yul\":6107:6110   */\n      dup3\n        /* \"#utility.yul\":6103:6115   */\n      add\n        /* \"#utility.yul\":6096:6115   */\n      swap1\n      pop\n        /* \"#utility.yul\":5755:6121   */\n      swap2\n      swap1\n      pop\n      jump\t// out\n        /* \"#utility.yul\":6127:6546   */\n    tag_56:\n        /* \"#utility.yul\":6293:6297   */\n      0x00\n        /* \"#utility.yul\":6331:6333   */\n      0x20\n        /* \"#utility.yul\":6320:6329   */\n      dup3\n        /* \"#utility.yul\":6316:6334   */\n      add\n        /* \"#utility.yul\":6308:6334   */\n      swap1\n      pop\n        /* \"#utility.yul\":6380:6389   */\n      dup2\n        /* \"#utility.yul\":6374:6378   */\n      dup2\n        /* \"#utility.yul\":6370:6390   */\n      sub\n        /* \"#utility.yul\":6366:6367   */\n      0x00\n        /* \"#utility.yul\":6355:6364   */\n      dup4\n        /* \"#utility.yul\":6351:6368   */\n      add\n        /* \"#utility.yul\":6344:6391   */\n      mstore\n        /* \"#utility.yul\":6408:6539   */\n      tag_165\n        /* \"#utility.yul\":6534:6538   */\n      dup2\n        /* \"#utility.yul\":6408:6539   */\n      tag_98\n      jump\t// in\n    tag_165:\n        /* \"#utility.yul\":6400:6539   */\n      swap1\n      pop\n        /* \"#utility.yul\":6127:6546   */\n      swap2\n      swap1\n      pop\n      jump\t// out\n        /* \"#utility.yul\":6552:6723   */\n    tag_99:\n        /* \"#utility.yul\":6692:6715   */\n      0x746172676574206973206e6f7420726561636865640000000000000000000000\n        /* \"#utility.yul\":6688:6689   */\n      0x00\n        /* \"#utility.yul\":6680:6686   */\n      dup3\n        /* \"#utility.yul\":6676:6690   */\n      add\n        /* \"#utility.yul\":6669:6716   */\n      mstore\n        /* \"#utility.yul\":6552:6723   */\n      pop\n      jump\t// out\n        /* \"#utility.yul\":6729:7095   */\n    tag_100:\n        /* \"#utility.yul\":6871:6874   */\n      0x00\n        /* \"#utility.yul\":6892:6959   */\n      tag_168\n        /* \"#utility.yul\":6956:6958   */\n      0x15\n        /* \"#utility.yul\":6951:6954   */\n      dup4\n        /* \"#utility.yul\":6892:6959   */\n      tag_89\n      jump\t// in\n    tag_168:\n        /* \"#utility.yul\":6885:6959   */\n      swap2\n      pop\n        /* \"#utility.yul\":6968:7061   */\n      tag_169\n        /* \"#utility.yul\":7057:7060   */\n      dup3\n        /* \"#utility.yul\":6968:7061   */\n      tag_99\n      jump\t// in\n    tag_169:\n        /* \"#utility.yul\":7086:7088   */\n      0x20\n        /* \"#utility.yul\":7081:7084   */\n      dup3\n        /* \"#utility.yul\":7077:7089   */\n      add\n        /* \"#utility.yul\":7070:7089   */\n      swap1\n      pop\n        /* \"#utility.yul\":6729:7095   */\n      swap2\n      swap1\n      pop\n      jump\t// out\n        /* \"#utility.yul\":7101:7520   */\n    tag_64:\n        /* \"#utility.yul\":7267:7271   */\n      0x00\n        /* \"#utility.yul\":7305:7307   */\n      0x20\n        /* \"#utility.yul\":7294:7303   */\n      dup3\n        /* \"#utility.yul\":7290:7308   */\n      add\n        /* \"#utility.yul\":7282:7308   */\n      swap1\n      pop\n        /* \"#utility.yul\":7354:7363   */\n      dup2\n        /* \"#utility.yul\":7348:7352   */\n      dup2\n        /* \"#utility.yul\":7344:7364   */\n      sub\n        /* \"#utility.yul\":7340:7341   */\n      0x00\n        /* \"#utility.yul\":7329:7338   */\n      dup4\n        /* \"#utility.yul\":7325:7342   */\n      add\n        /* \"#utility.yul\":7318:7365   */\n      mstore\n        /* \"#utility.yul\":7382:7513   */\n      tag_171\n        /* \"#utility.yul\":7508:7512   */\n      dup2\n        /* \"#utility.yul\":7382:7513   */\n      tag_100\n      jump\t// in\n    tag_171:\n        /* \"#utility.yul\":7374:7513   */\n      swap1\n      pop\n        /* \"#utility.yul\":7101:7520   */\n      swap2\n      swap1\n      pop\n      jump\t// out\n        /* \"#utility.yul\":7526:7685   */\n    tag_101:\n        /* \"#utility.yul\":7666:7677   */\n      0x6974277320746f6f200000000000000000000000000000000000000000000000\n        /* \"#utility.yul\":7662:7663   */\n      0x00\n        /* \"#utility.yul\":7654:7660   */\n      dup3\n        /* \"#utility.yul\":7650:7664   */\n      add\n        /* \"#utility.yul\":7643:7678   */\n      mstore\n        /* \"#utility.yul\":7526:7685   */\n      pop\n      jump\t// out\n        /* \"#utility.yul\":7691:8056   */\n    tag_102:\n        /* \"#utility.yul\":7833:7836   */\n      0x00\n        /* \"#utility.yul\":7854:7920   */\n      tag_174\n        /* \"#utility.yul\":7918:7919   */\n      0x09\n        /* \"#utility.yul\":7913:7916   */\n      dup4\n        /* \"#utility.yul\":7854:7920   */\n      tag_89\n      jump\t// in\n    tag_174:\n        /* \"#utility.yul\":7847:7920   */\n      swap2\n      pop\n        /* \"#utility.yul\":7929:8022   */\n      tag_175\n        /* \"#utility.yul\":8018:8021   */\n      dup3\n        /* \"#utility.yul\":7929:8022   */\n      tag_101\n      jump\t// in\n    tag_175:\n        /* \"#utility.yul\":8047:8049   */\n      0x20\n        /* \"#utility.yul\":8042:8045   */\n      dup3\n        /* \"#utility.yul\":8038:8050   */\n      add\n        /* \"#utility.yul\":8031:8050   */\n      swap1\n      pop\n        /* \"#utility.yul\":7691:8056   */\n      swap2\n      swap1\n      pop\n      jump\t// out\n        /* \"#utility.yul\":8062:8481   */\n    tag_70:\n        /* \"#utility.yul\":8228:8232   */\n      0x00\n        /* \"#utility.yul\":8266:8268   */\n      0x20\n        /* \"#utility.yul\":8255:8264   */\n      dup3\n        /* \"#utility.yul\":8251:8269   */\n      add\n        /* \"#utility.yul\":8243:8269   */\n      swap1\n      pop\n        /* \"#utility.yul\":8315:8324   */\n      dup2\n        /* \"#utility.yul\":8309:8313   */\n      dup2\n        /* \"#utility.yul\":8305:8325   */\n      sub\n        /* \"#utility.yul\":8301:8302   */\n      0x00\n        /* \"#utility.yul\":8290:8299   */\n      dup4\n        /* \"#utility.yul\":8286:8303   */\n      add\n        /* \"#utility.yul\":8279:8326   */\n      mstore\n        /* \"#utility.yul\":8343:8474   */\n      tag_177\n        /* \"#utility.yul\":8469:8473   */\n      dup2\n        /* \"#utility.yul\":8343:8474   */\n      tag_102\n      jump\t// in\n    tag_177:\n        /* \"#utility.yul\":8335:8474   */\n      swap1\n      pop\n        /* \"#utility.yul\":8062:8481   */\n      swap2\n      swap1\n      pop\n      jump\t// out\n        /* \"#utility.yul\":8487:8592   */\n    tag_103:\n        /* \"#utility.yul\":8523:8530   */\n      0x00\n        /* \"#utility.yul\":8563:8585   */\n      0xffffffffffffffffffff\n        /* \"#utility.yul\":8556:8561   */\n      dup3\n        /* \"#utility.yul\":8552:8586   */\n      and\n        /* \"#utility.yul\":8541:8586   */\n      swap1\n      pop\n        /* \"#utility.yul\":8487:8592   */\n      swap2\n      swap1\n      pop\n      jump\t// out\n        /* \"#utility.yul\":8598:8718   */\n    tag_104:\n        /* \"#utility.yul\":8670:8693   */\n      tag_180\n        /* \"#utility.yul\":8687:8692   */\n      dup2\n        /* \"#utility.yul\":8670:8693   */\n      tag_103\n      jump\t// in\n    tag_180:\n        /* \"#utility.yul\":8663:8668   */\n      dup2\n        /* \"#utility.yul\":8660:8694   */\n      eq\n        /* \"#utility.yul\":8650:8712   */\n      tag_181\n      jumpi\n        /* \"#utility.yul\":8708:8709   */\n      0x00\n        /* \"#utility.yul\":8705:8706   */\n      0x00\n        /* \"#utility.yul\":8698:8710   */\n      revert\n        /* \"#utility.yul\":8650:8712   */\n    tag_181:\n        /* \"#utility.yul\":8598:8718   */\n      pop\n      jump\t// out\n        /* \"#utility.yul\":8724:8865   */\n    tag_105:\n        /* \"#utility.yul\":8780:8785   */\n      0x00\n        /* \"#utility.yul\":8811:8817   */\n      dup2\n        /* \"#utility.yul\":8805:8818   */\n      mload\n        /* \"#utility.yul\":8796:8818   */\n      swap1\n      pop\n        /* \"#utility.yul\":8827:8859   */\n      tag_183\n        /* \"#utility.yul\":8853:8858   */\n      dup2\n        /* \"#utility.yul\":8827:8859   */\n      tag_104\n      jump\t// in\n    tag_183:\n        /* \"#utility.yul\":8724:8865   */\n      swap3\n      swap2\n      pop\n      pop\n      jump\t// out\n        /* \"#utility.yul\":8871:8991   */\n    tag_106:\n        /* \"#utility.yul\":8943:8966   */\n      tag_185\n        /* \"#utility.yul\":8960:8965   */\n      dup2\n        /* \"#utility.yul\":8943:8966   */\n      tag_85\n      jump\t// in\n    tag_185:\n        /* \"#utility.yul\":8936:8941   */\n      dup2\n        /* \"#utility.yul\":8933:8967   */\n      eq\n        /* \"#utility.yul\":8923:8985   */\n      tag_186\n      jumpi\n        /* \"#utility.yul\":8981:8982   */\n      0x00\n        /* \"#utility.yul\":8978:8979   */\n      0x00\n        /* \"#utility.yul\":8971:8983   */\n      revert\n        /* \"#utility.yul\":8923:8985   */\n    tag_186:\n        /* \"#utility.yul\":8871:8991   */\n      pop\n      jump\t// out\n        /* \"#utility.yul\":8997:9138   */\n    tag_107:\n        /* \"#utility.yul\":9053:9058   */\n      0x00\n        /* \"#utility.yul\":9084:9090   */\n      dup2\n        /* \"#utility.yul\":9078:9091   */\n      mload\n        /* \"#utility.yul\":9069:9091   */\n      swap1\n      pop\n        /* \"#utility.yul\":9100:9132   */\n      tag_188\n        /* \"#utility.yul\":9126:9131   */\n      dup2\n        /* \"#utility.yul\":9100:9132   */\n      tag_106\n      jump\t// in\n    tag_188:\n        /* \"#utility.yul\":8997:9138   */\n      swap3\n      swap2\n      pop\n      pop\n      jump\t// out\n        /* \"#utility.yul\":9144:9266   */\n    tag_108:\n        /* \"#utility.yul\":9217:9241   */\n      tag_190\n        /* \"#utility.yul\":9235:9240   */\n      dup2\n        /* \"#utility.yul\":9217:9241   */\n      tag_87\n      jump\t// in\n    tag_190:\n        /* \"#utility.yul\":9210:9215   */\n      dup2\n        /* \"#utility.yul\":9207:9242   */\n      eq\n        /* \"#utility.yul\":9197:9260   */\n      tag_191\n      jumpi\n        /* \"#utility.yul\":9256:9257   */\n      0x00\n        /* \"#utility.yul\":9253:9254   */\n      0x00\n        /* \"#utility.yul\":9246:9258   */\n      revert\n        /* \"#utility.yul\":9197:9260   */\n    tag_191:\n        /* \"#utility.yul\":9144:9266   */\n      pop\n      jump\t// out\n        /* \"#utility.yul\":9272:9415   */\n    tag_109:\n        /* \"#utility.yul\":9329:9334   */\n      0x00\n        /* \"#utility.yul\":9360:9366   */\n      dup2\n        /* \"#utility.yul\":9354:9367   */\n      mload\n        /* \"#utility.yul\":9345:9367   */\n      swap1\n      pop\n        /* \"#utility.yul\":9376:9409   */\n      tag_193\n        /* \"#utility.yul\":9403:9408   */\n      dup2\n        /* \"#utility.yul\":9376:9409   */\n      tag_108\n      jump\t// in\n    tag_193:\n        /* \"#utility.yul\":9272:9415   */\n      swap3\n      swap2\n      pop\n      pop\n      jump\t// out\n        /* \"#utility.yul\":9421:10392   */\n    tag_75:\n        /* \"#utility.yul\":9524:9530   */\n      0x00\n        /* \"#utility.yul\":9532:9538   */\n      0x00\n        /* \"#utility.yul\":9540:9546   */\n      0x00\n        /* \"#utility.yul\":9548:9554   */\n      0x00\n        /* \"#utility.yul\":9556:9562   */\n      0x00\n        /* \"#utility.yul\":9605:9608   */\n      0xa0\n        /* \"#utility.yul\":9593:9602   */\n      dup7\n        /* \"#utility.yul\":9584:9591   */\n      dup9\n        /* \"#utility.yul\":9580:9603   */\n      sub\n        /* \"#utility.yul\":9576:9609   */\n      slt\n        /* \"#utility.yul\":9573:9693   */\n      iszero\n      tag_195\n      jumpi\n        /* \"#utility.yul\":9612:9691   */\n      tag_196\n      tag_81\n      jump\t// in\n    tag_196:\n        /* \"#utility.yul\":9573:9693   */\n    tag_195:\n        /* \"#utility.yul\":9732:9733   */\n      0x00\n        /* \"#utility.yul\":9757:9820   */\n      tag_197\n        /* \"#utility.yul\":9812:9819   */\n      dup9\n        /* \"#utility.yul\":9803:9809   */\n      dup3\n        /* \"#utility.yul\":9792:9801   */\n      dup10\n        /* \"#utility.yul\":9788:9810   */\n      add\n        /* \"#utility.yul\":9757:9820   */\n      tag_105\n      jump\t// in\n    tag_197:\n        /* \"#utility.yul\":9747:9820   */\n      swap6\n      pop\n        /* \"#utility.yul\":9703:9830   */\n      pop\n        /* \"#utility.yul\":9869:9871   */\n      0x20\n        /* \"#utility.yul\":9895:9958   */\n      tag_198\n        /* \"#utility.yul\":9950:9957   */\n      dup9\n        /* \"#utility.yul\":9941:9947   */\n      dup3\n        /* \"#utility.yul\":9930:9939   */\n      dup10\n        /* \"#utility.yul\":9926:9948   */\n      add\n        /* \"#utility.yul\":9895:9958   */\n      tag_107\n      jump\t// in\n    tag_198:\n        /* \"#utility.yul\":9885:9958   */\n      swap5\n      pop\n        /* \"#utility.yul\":9840:9968   */\n      pop\n        /* \"#utility.yul\":10007:10009   */\n      0x40\n        /* \"#utility.yul\":10033:10097   */\n      tag_199\n        /* \"#utility.yul\":10089:10096   */\n      dup9\n        /* \"#utility.yul\":10080:10086   */\n      dup3\n        /* \"#utility.yul\":10069:10078   */\n      dup10\n        /* \"#utility.yul\":10065:10087   */\n      add\n        /* \"#utility.yul\":10033:10097   */\n      tag_109\n      jump\t// in\n    tag_199:\n        /* \"#utility.yul\":10023:10097   */\n      swap4\n      pop\n        /* \"#utility.yul\":9978:10107   */\n      pop\n        /* \"#utility.yul\":10146:10148   */\n      0x60\n        /* \"#utility.yul\":10172:10236   */\n      tag_200\n        /* \"#utility.yul\":10228:10235   */\n      dup9\n        /* \"#utility.yul\":10219:10225   */\n      dup3\n        /* \"#utility.yul\":10208:10217   */\n      dup10\n        /* \"#utility.yul\":10204:10226   */\n      add\n        /* \"#utility.yul\":10172:10236   */\n      tag_109\n      jump\t// in\n    tag_200:\n        /* \"#utility.yul\":10162:10236   */\n      swap3\n      pop\n        /* \"#utility.yul\":10117:10246   */\n      pop\n        /* \"#utility.yul\":10285:10288   */\n      0x80\n        /* \"#utility.yul\":10312:10375   */\n      tag_201\n        /* \"#utility.yul\":10367:10374   */\n      dup9\n        /* \"#utility.yul\":10358:10364   */\n      dup3\n        /* \"#utility.yul\":10347:10356   */\n      dup10\n        /* \"#utility.yul\":10343:10365   */\n      add\n        /* \"#utility.yul\":10312:10375   */\n      tag_105\n      jump\t// in\n    tag_201:\n        /* \"#utility.yul\":10302:10375   */\n      swap2\n      pop\n        /* \"#utility.yul\":10256:10385   */\n      pop\n        /* \"#utility.yul\":9421:10392   */\n      swap3\n      swap6\n      pop\n      swap3\n      swap6\n      swap1\n      swap4\n      pop\n      jump\t// out\n\n    auxdata: 0xa2646970667358221220047544609830e3001e180e1e85c3ca672642a0ebc5ded74df6683562544ca67064736f6c634300081e0033\n}\n",
				"bytecode": {
					"linkReferences": {},
					"object": "60806040526409502f90006001553480156017575f5ffd5b503360035f6101000a81548173ffffffffffffffffffffffffffffffffffffffff021916908373ffffffffffffffffffffffffffffffffffffffff16021790555060035f9054906101000a900473ffffffffffffffffffffffffffffffffffffffff1660025f6101000a81548173ffffffffffffffffffffffffffffffffffffffff021916908373ffffffffffffffffffffffffffffffffffffffff160217905550610a91806100c65f395ff3fe60806040526004361061006f575f3560e01c80638edd6eb61161004d5780638edd6eb6146100db578063b60d4288146100f1578063bea4dfb5146100fb578063dc1f031a146101255761006f565b80631721681c14610073578063590e1ae31461009d5780638863dd1a146100b3575b5f5ffd5b34801561007e575f5ffd5b50610087610161565b6040516100949190610624565b60405180910390f35b3480156100a8575f5ffd5b506100b1610189565b005b3480156100be575f5ffd5b506100d960048036038101906100d4919061066b565b610289565b005b3480156100e6575f5ffd5b506100ef61035b565b005b6100f9610475565b005b348015610106575f5ffd5b5061010f610503565b60405161011c91906106ae565b60405180910390f35b348015610130575f5ffd5b5061014b6004803603810190610146919061066b565b6105a0565b60405161015891906106df565b60405180910390f35b5f60035f9054906101000a900473ffffffffffffffffffffffffffffffffffffffff16905090565b60015447106101cd576040517f08c379a00000000000000000000000000000000000000000000000000000000081526004016101c490610752565b60405180910390fd5b5f6101d7336105a0565b90505f810361021b576040517f08c379a0000000000000000000000000000000000000000000000000000000008152600401610212906107ba565b60405180910390fd5b5f3373ffffffffffffffffffffffffffffffffffffffff168260405161024090610805565b5f6040518083038185875af1925050503d805f811461027a576040519150601f19603f3d011682016040523d82523d5f602084013e61027f565b606091505b5050809150505050565b60035f9054906101000a900473ffffffffffffffffffffffffffffffffffffffff1673ffffffffffffffffffffffffffffffffffffffff163373ffffffffffffffffffffffffffffffffffffffff1614610318576040517f08c379a000000000000000000000000000000000000000000000000000000000815260040161030f90610863565b60405180910390fd5b8060035f6101000a81548173ffffffffffffffffffffffffffffffffffffffff021916908373ffffffffffffffffffffffffffffffffffffffff16021790555050565b60035f9054906101000a900473ffffffffffffffffffffffffffffffffffffffff1673ffffffffffffffffffffffffffffffffffffffff163373ffffffffffffffffffffffffffffffffffffffff16146103ea576040517f08c379a00000000000000000000000000000000000000000000000000000000081526004016103e190610863565b60405180910390fd5b60015447101561042f576040517f08c379a0000000000000000000000000000000000000000000000000000000008152600401610426906108cb565b60405180910390fd5b3373ffffffffffffffffffffffffffffffffffffffff166108fc4790811502906040515f60405180830381858888f19350505050158015610472573d5f5f3e3d5ffd5b50565b68056bc75e2d6310000034106104c0576040517f08c379a00000000000000000000000000000000000000000000000000000000081526004016104b790610933565b60405180910390fd5b345f5f3373ffffffffffffffffffffffffffffffffffffffff1673ffffffffffffffffffffffffffffffffffffffff1681526020019081526020015f2081905550565b5f5f60025f9054906101000a900473ffffffffffffffffffffffffffffffffffffffff1673ffffffffffffffffffffffffffffffffffffffff1663feaf968c6040518163ffffffff1660e01b815260040160a060405180830381865afa15801561056f573d5f5f3e3d5ffd5b505050506040513d601f19601f8201168201806040525081019061059391906109e4565b5050509150508091505090565b5f5f5f8373ffffffffffffffffffffffffffffffffffffffff1673ffffffffffffffffffffffffffffffffffffffff1681526020019081526020015f20549050919050565b5f73ffffffffffffffffffffffffffffffffffffffff82169050919050565b5f61060e826105e5565b9050919050565b61061e81610604565b82525050565b5f6020820190506106375f830184610615565b92915050565b5f5ffd5b61064a81610604565b8114610654575f5ffd5b50565b5f8135905061066581610641565b92915050565b5f602082840312156106805761067f61063d565b5b5f61068d84828501610657565b91505092915050565b5f819050919050565b6106a881610696565b82525050565b5f6020820190506106c15f83018461069f565b92915050565b5f819050919050565b6106d9816106c7565b82525050565b5f6020820190506106f25f8301846106d0565b92915050565b5f82825260208201905092915050565b7f74617267657420697320726561636865640000000000000000000000000000005f82015250565b5f61073c6011836106f8565b915061074782610708565b602082019050919050565b5f6020820190508181035f83015261076981610730565b9050919050565b7f7468657265206973206e6f2066756e6420666f7220796f7500000000000000005f82015250565b5f6107a46018836106f8565b91506107af82610770565b602082019050919050565b5f6020820190508181035f8301526107d181610798565b9050919050565b5f81905092915050565b50565b5f6107f05f836107d8565b91506107fb826107e2565b5f82019050919050565b5f61080f826107e5565b9150819050919050565b7f796f7520646f6e27742068617665207065726d697373696f6e000000000000005f82015250565b5f61084d6019836106f8565b915061085882610819565b602082019050919050565b5f6020820190508181035f83015261087a81610841565b9050919050565b7f746172676574206973206e6f74207265616368656400000000000000000000005f82015250565b5f6108b56015836106f8565b91506108c082610881565b602082019050919050565b5f6020820190508181035f8301526108e2816108a9565b9050919050565b7f6974277320746f6f2000000000000000000000000000000000000000000000005f82015250565b5f61091d6009836106f8565b9150610928826108e9565b602082019050919050565b5f6020820190508181035f83015261094a81610911565b9050919050565b5f69ffffffffffffffffffff82169050919050565b61096f81610951565b8114610979575f5ffd5b50565b5f8151905061098a81610966565b92915050565b61099981610696565b81146109a3575f5ffd5b50565b5f815190506109b481610990565b92915050565b6109c3816106c7565b81146109cd575f5ffd5b50565b5f815190506109de816109ba565b92915050565b5f5f5f5f5f60a086880312156109fd576109fc61063d565b5b5f610a0a8882890161097c565b9550506020610a1b888289016109a6565b9450506040610a2c888289016109d0565b9350506060610a3d888289016109d0565b9250506080610a4e8882890161097c565b915050929550929590935056fea2646970667358221220047544609830e3001e180e1e85c3ca672642a0ebc5ded74df6683562544ca67064736f6c634300081e0033",
					"opcodes": "PUSH1 0x80 PUSH1 0x40 MSTORE PUSH5 0x9502F9000 PUSH1 0x1 SSTORE CALLVALUE DUP1 ISZERO PUSH1 0x17 JUMPI PUSH0 PUSH0 REVERT JUMPDEST POP CALLER PUSH1 0x3 PUSH0 PUSH2 0x100 EXP DUP2 SLOAD DUP2 PUSH20 0xFFFFFFFFFFFFFFFFFFFFFFFFFFFFFFFFFFFFFFFF MUL NOT AND SWAP1 DUP4 PUSH20 0xFFFFFFFFFFFFFFFFFFFFFFFFFFFFFFFFFFFFFFFF AND MUL OR SWAP1 SSTORE POP PUSH1 0x3 PUSH0 SWAP1 SLOAD SWAP1 PUSH2 0x100 EXP SWAP1 DIV PUSH20 0xFFFFFFFFFFFFFFFFFFFFFFFFFFFFFFFFFFFFFFFF AND PUSH1 0x2 PUSH0 PUSH2 0x100 EXP DUP2 SLOAD DUP2 PUSH20 0xFFFFFFFFFFFFFFFFFFFFFFFFFFFFFFFFFFFFFFFF MUL NOT AND SWAP1 DUP4 PUSH20 0xFFFFFFFFFFFFFFFFFFFFFFFFFFFFFFFFFFFFFFFF AND MUL OR SWAP1 SSTORE POP PUSH2 0xA91 DUP1 PUSH2 0xC6 PUSH0 CODECOPY PUSH0 RETURN INVALID PUSH1 0x80 PUSH1 0x40 MSTORE PUSH1 0x4 CALLDATASIZE LT PUSH2 0x6F JUMPI PUSH0 CALLDATALOAD PUSH1 0xE0 SHR DUP1 PUSH4 0x8EDD6EB6 GT PUSH2 0x4D JUMPI DUP1 PUSH4 0x8EDD6EB6 EQ PUSH2 0xDB JUMPI DUP1 PUSH4 0xB60D4288 EQ PUSH2 0xF1 JUMPI DUP1 PUSH4 0xBEA4DFB5 EQ PUSH2 0xFB JUMPI DUP1 PUSH4 0xDC1F031A EQ PUSH2 0x125 JUMPI PUSH2 0x6F JUMP JUMPDEST DUP1 PUSH4 0x1721681C EQ PUSH2 0x73 JUMPI DUP1 PUSH4 0x590E1AE3 EQ PUSH2 0x9D JUMPI DUP1 PUSH4 0x8863DD1A EQ PUSH2 0xB3 JUMPI JUMPDEST PUSH0 PUSH0 REVERT JUMPDEST CALLVALUE DUP1 ISZERO PUSH2 0x7E JUMPI PUSH0 PUSH0 REVERT JUMPDEST POP PUSH2 0x87 PUSH2 0x161 JUMP JUMPDEST PUSH1 0x40 MLOAD PUSH2 0x94 SWAP2 SWAP1 PUSH2 0x624 JUMP JUMPDEST PUSH1 0x40 MLOAD DUP1 SWAP2 SUB SWAP1 RETURN JUMPDEST CALLVALUE DUP1 ISZERO PUSH2 0xA8 JUMPI PUSH0 PUSH0 REVERT JUMPDEST POP PUSH2 0xB1 PUSH2 0x189 JUMP JUMPDEST STOP JUMPDEST CALLVALUE DUP1 ISZERO PUSH2 0xBE JUMPI PUSH0 PUSH0 REVERT JUMPDEST POP PUSH2 0xD9 PUSH1 0x4 DUP1 CALLDATASIZE SUB DUP2 ADD SWAP1 PUSH2 0xD4 SWAP2 SWAP1 PUSH2 0x66B JUMP JUMPDEST PUSH2 0x289 JUMP JUMPDEST STOP JUMPDEST CALLVALUE DUP1 ISZERO PUSH2 0xE6 JUMPI PUSH0 PUSH0 REVERT JUMPDEST POP PUSH2 0xEF PUSH2 0x35B JUMP JUMPDEST STOP JUMPDEST PUSH2 0xF9 PUSH2 0x475 JUMP JUMPDEST STOP JUMPDEST CALLVALUE DUP1 ISZERO PUSH2 0x106 JUMPI PUSH0 PUSH0 REVERT JUMPDEST POP PUSH2 0x10F PUSH2 0x503 JUMP JUMPDEST PUSH1 0x40 MLOAD PUSH2 0x11C SWAP2 SWAP1 PUSH2 0x6AE JUMP JUMPDEST PUSH1 0x40 MLOAD DUP1 SWAP2 SUB SWAP1 RETURN JUMPDEST CALLVALUE DUP1 ISZERO PUSH2 0x130 JUMPI PUSH0 PUSH0 REVERT JUMPDEST POP PUSH2 0x14B PUSH1 0x4 DUP1 CALLDATASIZE SUB DUP2 ADD SWAP1 PUSH2 0x146 SWAP2 SWAP1 PUSH2 0x66B JUMP JUMPDEST PUSH2 0x5A0 JUMP JUMPDEST PUSH1 0x40 MLOAD PUSH2 0x158 SWAP2 SWAP1 PUSH2 0x6DF JUMP JUMPDEST PUSH1 0x40 MLOAD DUP1 SWAP2 SUB SWAP1 RETURN JUMPDEST PUSH0 PUSH1 0x3 PUSH0 SWAP1 SLOAD SWAP1 PUSH2 0x100 EXP SWAP1 DIV PUSH20 0xFFFFFFFFFFFFFFFFFFFFFFFFFFFFFFFFFFFFFFFF AND SWAP1 POP SWAP1 JUMP JUMPDEST PUSH1 0x1 SLOAD SELFBALANCE LT PUSH2 0x1CD JUMPI PUSH1 0x40 MLOAD PUSH32 0x8C379A000000000000000000000000000000000000000000000000000000000 DUP2 MSTORE PUSH1 0x4 ADD PUSH2 0x1C4 SWAP1 PUSH2 0x752 JUMP JUMPDEST PUSH1 0x40 MLOAD DUP1 SWAP2 SUB SWAP1 REVERT JUMPDEST PUSH0 PUSH2 0x1D7 CALLER PUSH2 0x5A0 JUMP JUMPDEST SWAP1 POP PUSH0 DUP2 SUB PUSH2 0x21B JUMPI PUSH1 0x40 MLOAD PUSH32 0x8C379A000000000000000000000000000000000000000000000000000000000 DUP2 MSTORE PUSH1 0x4 ADD PUSH2 0x212 SWAP1 PUSH2 0x7BA JUMP JUMPDEST PUSH1 0x40 MLOAD DUP1 SWAP2 SUB SWAP1 REVERT JUMPDEST PUSH0 CALLER PUSH20 0xFFFFFFFFFFFFFFFFFFFFFFFFFFFFFFFFFFFFFFFF AND DUP3 PUSH1 0x40 MLOAD PUSH2 0x240 SWAP1 PUSH2 0x805 JUMP JUMPDEST PUSH0 PUSH1 0x40 MLOAD DUP1 DUP4 SUB DUP2 DUP6 DUP8 GAS CALL SWAP3 POP POP POP RETURNDATASIZE DUP1 PUSH0 DUP2 EQ PUSH2 0x27A JUMPI PUSH1 0x40 MLOAD SWAP2 POP PUSH1 0x1F NOT PUSH1 0x3F RETURNDATASIZE ADD AND DUP3 ADD PUSH1 0x40 MSTORE RETURNDATASIZE DUP3 MSTORE RETURNDATASIZE PUSH0 PUSH1 0x20 DUP5 ADD RETURNDATACOPY PUSH2 0x27F JUMP JUMPDEST PUSH1 0x60 SWAP2 POP JUMPDEST POP POP DUP1 SWAP2 POP POP POP POP JUMP JUMPDEST PUSH1 0x3 PUSH0 SWAP1 SLOAD SWAP1 PUSH2 0x100 EXP SWAP1 DIV PUSH20 0xFFFFFFFFFFFFFFFFFFFFFFFFFFFFFFFFFFFFFFFF AND PUSH20 0xFFFFFFFFFFFFFFFFFFFFFFFFFFFFFFFFFFFFFFFF AND CALLER PUSH20 0xFFFFFFFFFFFFFFFFFFFFFFFFFFFFFFFFFFFFFFFF AND EQ PUSH2 0x318 JUMPI PUSH1 0x40 MLOAD PUSH32 0x8C379A000000000000000000000000000000000000000000000000000000000 DUP2 MSTORE PUSH1 0x4 ADD PUSH2 0x30F SWAP1 PUSH2 0x863 JUMP JUMPDEST PUSH1 0x40 MLOAD DUP1 SWAP2 SUB SWAP1 REVERT JUMPDEST DUP1 PUSH1 0x3 PUSH0 PUSH2 0x100 EXP DUP2 SLOAD DUP2 PUSH20 0xFFFFFFFFFFFFFFFFFFFFFFFFFFFFFFFFFFFFFFFF MUL NOT AND SWAP1 DUP4 PUSH20 0xFFFFFFFFFFFFFFFFFFFFFFFFFFFFFFFFFFFFFFFF AND MUL OR SWAP1 SSTORE POP POP JUMP JUMPDEST PUSH1 0x3 PUSH0 SWAP1 SLOAD SWAP1 PUSH2 0x100 EXP SWAP1 DIV PUSH20 0xFFFFFFFFFFFFFFFFFFFFFFFFFFFFFFFFFFFFFFFF AND PUSH20 0xFFFFFFFFFFFFFFFFFFFFFFFFFFFFFFFFFFFFFFFF AND CALLER PUSH20 0xFFFFFFFFFFFFFFFFFFFFFFFFFFFFFFFFFFFFFFFF AND EQ PUSH2 0x3EA JUMPI PUSH1 0x40 MLOAD PUSH32 0x8C379A000000000000000000000000000000000000000000000000000000000 DUP2 MSTORE PUSH1 0x4 ADD PUSH2 0x3E1 SWAP1 PUSH2 0x863 JUMP JUMPDEST PUSH1 0x40 MLOAD DUP1 SWAP2 SUB SWAP1 REVERT JUMPDEST PUSH1 0x1 SLOAD SELFBALANCE LT ISZERO PUSH2 0x42F JUMPI PUSH1 0x40 MLOAD PUSH32 0x8C379A000000000000000000000000000000000000000000000000000000000 DUP2 MSTORE PUSH1 0x4 ADD PUSH2 0x426 SWAP1 PUSH2 0x8CB JUMP JUMPDEST PUSH1 0x40 MLOAD DUP1 SWAP2 SUB SWAP1 REVERT JUMPDEST CALLER PUSH20 0xFFFFFFFFFFFFFFFFFFFFFFFFFFFFFFFFFFFFFFFF AND PUSH2 0x8FC SELFBALANCE SWAP1 DUP2 ISZERO MUL SWAP1 PUSH1 0x40 MLOAD PUSH0 PUSH1 0x40 MLOAD DUP1 DUP4 SUB DUP2 DUP6 DUP9 DUP9 CALL SWAP4 POP POP POP POP ISZERO DUP1 ISZERO PUSH2 0x472 JUMPI RETURNDATASIZE PUSH0 PUSH0 RETURNDATACOPY RETURNDATASIZE PUSH0 REVERT JUMPDEST POP JUMP JUMPDEST PUSH9 0x56BC75E2D63100000 CALLVALUE LT PUSH2 0x4C0 JUMPI PUSH1 0x40 MLOAD PUSH32 0x8C379A000000000000000000000000000000000000000000000000000000000 DUP2 MSTORE PUSH1 0x4 ADD PUSH2 0x4B7 SWAP1 PUSH2 0x933 JUMP JUMPDEST PUSH1 0x40 MLOAD DUP1 SWAP2 SUB SWAP1 REVERT JUMPDEST CALLVALUE PUSH0 PUSH0 CALLER PUSH20 0xFFFFFFFFFFFFFFFFFFFFFFFFFFFFFFFFFFFFFFFF AND PUSH20 0xFFFFFFFFFFFFFFFFFFFFFFFFFFFFFFFFFFFFFFFF AND DUP2 MSTORE PUSH1 0x20 ADD SWAP1 DUP2 MSTORE PUSH1 0x20 ADD PUSH0 KECCAK256 DUP2 SWAP1 SSTORE POP JUMP JUMPDEST PUSH0 PUSH0 PUSH1 0x2 PUSH0 SWAP1 SLOAD SWAP1 PUSH2 0x100 EXP SWAP1 DIV PUSH20 0xFFFFFFFFFFFFFFFFFFFFFFFFFFFFFFFFFFFFFFFF AND PUSH20 0xFFFFFFFFFFFFFFFFFFFFFFFFFFFFFFFFFFFFFFFF AND PUSH4 0xFEAF968C PUSH1 0x40 MLOAD DUP2 PUSH4 0xFFFFFFFF AND PUSH1 0xE0 SHL DUP2 MSTORE PUSH1 0x4 ADD PUSH1 0xA0 PUSH1 0x40 MLOAD DUP1 DUP4 SUB DUP2 DUP7 GAS STATICCALL ISZERO DUP1 ISZERO PUSH2 0x56F JUMPI RETURNDATASIZE PUSH0 PUSH0 RETURNDATACOPY RETURNDATASIZE PUSH0 REVERT JUMPDEST POP POP POP POP PUSH1 0x40 MLOAD RETURNDATASIZE PUSH1 0x1F NOT PUSH1 0x1F DUP3 ADD AND DUP3 ADD DUP1 PUSH1 0x40 MSTORE POP DUP2 ADD SWAP1 PUSH2 0x593 SWAP2 SWAP1 PUSH2 0x9E4 JUMP JUMPDEST POP POP POP SWAP2 POP POP DUP1 SWAP2 POP POP SWAP1 JUMP JUMPDEST PUSH0 PUSH0 PUSH0 DUP4 PUSH20 0xFFFFFFFFFFFFFFFFFFFFFFFFFFFFFFFFFFFFFFFF AND PUSH20 0xFFFFFFFFFFFFFFFFFFFFFFFFFFFFFFFFFFFFFFFF AND DUP2 MSTORE PUSH1 0x20 ADD SWAP1 DUP2 MSTORE PUSH1 0x20 ADD PUSH0 KECCAK256 SLOAD SWAP1 POP SWAP2 SWAP1 POP JUMP JUMPDEST PUSH0 PUSH20 0xFFFFFFFFFFFFFFFFFFFFFFFFFFFFFFFFFFFFFFFF DUP3 AND SWAP1 POP SWAP2 SWAP1 POP JUMP JUMPDEST PUSH0 PUSH2 0x60E DUP3 PUSH2 0x5E5 JUMP JUMPDEST SWAP1 POP SWAP2 SWAP1 POP JUMP JUMPDEST PUSH2 0x61E DUP2 PUSH2 0x604 JUMP JUMPDEST DUP3 MSTORE POP POP JUMP JUMPDEST PUSH0 PUSH1 0x20 DUP3 ADD SWAP1 POP PUSH2 0x637 PUSH0 DUP4 ADD DUP5 PUSH2 0x615 JUMP JUMPDEST SWAP3 SWAP2 POP POP JUMP JUMPDEST PUSH0 PUSH0 REVERT JUMPDEST PUSH2 0x64A DUP2 PUSH2 0x604 JUMP JUMPDEST DUP2 EQ PUSH2 0x654 JUMPI PUSH0 PUSH0 REVERT JUMPDEST POP JUMP JUMPDEST PUSH0 DUP2 CALLDATALOAD SWAP1 POP PUSH2 0x665 DUP2 PUSH2 0x641 JUMP JUMPDEST SWAP3 SWAP2 POP POP JUMP JUMPDEST PUSH0 PUSH1 0x20 DUP3 DUP5 SUB SLT ISZERO PUSH2 0x680 JUMPI PUSH2 0x67F PUSH2 0x63D JUMP JUMPDEST JUMPDEST PUSH0 PUSH2 0x68D DUP5 DUP3 DUP6 ADD PUSH2 0x657 JUMP JUMPDEST SWAP2 POP POP SWAP3 SWAP2 POP POP JUMP JUMPDEST PUSH0 DUP2 SWAP1 POP SWAP2 SWAP1 POP JUMP JUMPDEST PUSH2 0x6A8 DUP2 PUSH2 0x696 JUMP JUMPDEST DUP3 MSTORE POP POP JUMP JUMPDEST PUSH0 PUSH1 0x20 DUP3 ADD SWAP1 POP PUSH2 0x6C1 PUSH0 DUP4 ADD DUP5 PUSH2 0x69F JUMP JUMPDEST SWAP3 SWAP2 POP POP JUMP JUMPDEST PUSH0 DUP2 SWAP1 POP SWAP2 SWAP1 POP JUMP JUMPDEST PUSH2 0x6D9 DUP2 PUSH2 0x6C7 JUMP JUMPDEST DUP3 MSTORE POP POP JUMP JUMPDEST PUSH0 PUSH1 0x20 DUP3 ADD SWAP1 POP PUSH2 0x6F2 PUSH0 DUP4 ADD DUP5 PUSH2 0x6D0 JUMP JUMPDEST SWAP3 SWAP2 POP POP JUMP JUMPDEST PUSH0 DUP3 DUP3 MSTORE PUSH1 0x20 DUP3 ADD SWAP1 POP SWAP3 SWAP2 POP POP JUMP JUMPDEST PUSH32 0x7461726765742069732072656163686564000000000000000000000000000000 PUSH0 DUP3 ADD MSTORE POP JUMP JUMPDEST PUSH0 PUSH2 0x73C PUSH1 0x11 DUP4 PUSH2 0x6F8 JUMP JUMPDEST SWAP2 POP PUSH2 0x747 DUP3 PUSH2 0x708 JUMP JUMPDEST PUSH1 0x20 DUP3 ADD SWAP1 POP SWAP2 SWAP1 POP JUMP JUMPDEST PUSH0 PUSH1 0x20 DUP3 ADD SWAP1 POP DUP2 DUP2 SUB PUSH0 DUP4 ADD MSTORE PUSH2 0x769 DUP2 PUSH2 0x730 JUMP JUMPDEST SWAP1 POP SWAP2 SWAP1 POP JUMP JUMPDEST PUSH32 0x7468657265206973206E6F2066756E6420666F7220796F750000000000000000 PUSH0 DUP3 ADD MSTORE POP JUMP JUMPDEST PUSH0 PUSH2 0x7A4 PUSH1 0x18 DUP4 PUSH2 0x6F8 JUMP JUMPDEST SWAP2 POP PUSH2 0x7AF DUP3 PUSH2 0x770 JUMP JUMPDEST PUSH1 0x20 DUP3 ADD SWAP1 POP SWAP2 SWAP1 POP JUMP JUMPDEST PUSH0 PUSH1 0x20 DUP3 ADD SWAP1 POP DUP2 DUP2 SUB PUSH0 DUP4 ADD MSTORE PUSH2 0x7D1 DUP2 PUSH2 0x798 JUMP JUMPDEST SWAP1 POP SWAP2 SWAP1 POP JUMP JUMPDEST PUSH0 DUP2 SWAP1 POP SWAP3 SWAP2 POP POP JUMP JUMPDEST POP JUMP JUMPDEST PUSH0 PUSH2 0x7F0 PUSH0 DUP4 PUSH2 0x7D8 JUMP JUMPDEST SWAP2 POP PUSH2 0x7FB DUP3 PUSH2 0x7E2 JUMP JUMPDEST PUSH0 DUP3 ADD SWAP1 POP SWAP2 SWAP1 POP JUMP JUMPDEST PUSH0 PUSH2 0x80F DUP3 PUSH2 0x7E5 JUMP JUMPDEST SWAP2 POP DUP2 SWAP1 POP SWAP2 SWAP1 POP JUMP JUMPDEST PUSH32 0x796F7520646F6E27742068617665207065726D697373696F6E00000000000000 PUSH0 DUP3 ADD MSTORE POP JUMP JUMPDEST PUSH0 PUSH2 0x84D PUSH1 0x19 DUP4 PUSH2 0x6F8 JUMP JUMPDEST SWAP2 POP PUSH2 0x858 DUP3 PUSH2 0x819 JUMP JUMPDEST PUSH1 0x20 DUP3 ADD SWAP1 POP SWAP2 SWAP1 POP JUMP JUMPDEST PUSH0 PUSH1 0x20 DUP3 ADD SWAP1 POP DUP2 DUP2 SUB PUSH0 DUP4 ADD MSTORE PUSH2 0x87A DUP2 PUSH2 0x841 JUMP JUMPDEST SWAP1 POP SWAP2 SWAP1 POP JUMP JUMPDEST PUSH32 0x746172676574206973206E6F7420726561636865640000000000000000000000 PUSH0 DUP3 ADD MSTORE POP JUMP JUMPDEST PUSH0 PUSH2 0x8B5 PUSH1 0x15 DUP4 PUSH2 0x6F8 JUMP JUMPDEST SWAP2 POP PUSH2 0x8C0 DUP3 PUSH2 0x881 JUMP JUMPDEST PUSH1 0x20 DUP3 ADD SWAP1 POP SWAP2 SWAP1 POP JUMP JUMPDEST PUSH0 PUSH1 0x20 DUP3 ADD SWAP1 POP DUP2 DUP2 SUB PUSH0 DUP4 ADD MSTORE PUSH2 0x8E2 DUP2 PUSH2 0x8A9 JUMP JUMPDEST SWAP1 POP SWAP2 SWAP1 POP JUMP JUMPDEST PUSH32 0x6974277320746F6F200000000000000000000000000000000000000000000000 PUSH0 DUP3 ADD MSTORE POP JUMP JUMPDEST PUSH0 PUSH2 0x91D PUSH1 0x9 DUP4 PUSH2 0x6F8 JUMP JUMPDEST SWAP2 POP PUSH2 0x928 DUP3 PUSH2 0x8E9 JUMP JUMPDEST PUSH1 0x20 DUP3 ADD SWAP1 POP SWAP2 SWAP1 POP JUMP JUMPDEST PUSH0 PUSH1 0x20 DUP3 ADD SWAP1 POP DUP2 DUP2 SUB PUSH0 DUP4 ADD MSTORE PUSH2 0x94A DUP2 PUSH2 0x911 JUMP JUMPDEST SWAP1 POP SWAP2 SWAP1 POP JUMP JUMPDEST PUSH0 PUSH10 0xFFFFFFFFFFFFFFFFFFFF DUP3 AND SWAP1 POP SWAP2 SWAP1 POP JUMP JUMPDEST PUSH2 0x96F DUP2 PUSH2 0x951 JUMP JUMPDEST DUP2 EQ PUSH2 0x979 JUMPI PUSH0 PUSH0 REVERT JUMPDEST POP JUMP JUMPDEST PUSH0 DUP2 MLOAD SWAP1 POP PUSH2 0x98A DUP2 PUSH2 0x966 JUMP JUMPDEST SWAP3 SWAP2 POP POP JUMP JUMPDEST PUSH2 0x999 DUP2 PUSH2 0x696 JUMP JUMPDEST DUP2 EQ PUSH2 0x9A3 JUMPI PUSH0 PUSH0 REVERT JUMPDEST POP JUMP JUMPDEST PUSH0 DUP2 MLOAD SWAP1 POP PUSH2 0x9B4 DUP2 PUSH2 0x990 JUMP JUMPDEST SWAP3 SWAP2 POP POP JUMP JUMPDEST PUSH2 0x9C3 DUP2 PUSH2 0x6C7 JUMP JUMPDEST DUP2 EQ PUSH2 0x9CD JUMPI PUSH0 PUSH0 REVERT JUMPDEST POP JUMP JUMPDEST PUSH0 DUP2 MLOAD SWAP1 POP PUSH2 0x9DE DUP2 PUSH2 0x9BA JUMP JUMPDEST SWAP3 SWAP2 POP POP JUMP JUMPDEST PUSH0 PUSH0 PUSH0 PUSH0 PUSH0 PUSH1 0xA0 DUP7 DUP9 SUB SLT ISZERO PUSH2 0x9FD JUMPI PUSH2 0x9FC PUSH2 0x63D JUMP JUMPDEST JUMPDEST PUSH0 PUSH2 0xA0A DUP9 DUP3 DUP10 ADD PUSH2 0x97C JUMP JUMPDEST SWAP6 POP POP PUSH1 0x20 PUSH2 0xA1B DUP9 DUP3 DUP10 ADD PUSH2 0x9A6 JUMP JUMPDEST SWAP5 POP POP PUSH1 0x40 PUSH2 0xA2C DUP9 DUP3 DUP10 ADD PUSH2 0x9D0 JUMP JUMPDEST SWAP4 POP POP PUSH1 0x60 PUSH2 0xA3D DUP9 DUP3 DUP10 ADD PUSH2 0x9D0 JUMP JUMPDEST SWAP3 POP POP PUSH1 0x80 PUSH2 0xA4E DUP9 DUP3 DUP10 ADD PUSH2 0x97C JUMP JUMPDEST SWAP2 POP POP SWAP3 SWAP6 POP SWAP3 SWAP6 SWAP1 SWAP4 POP JUMP INVALID LOG2 PUSH5 0x6970667358 0x22 SLT KECCAK256 DIV PUSH22 0x44609830E3001E180E1E85C3CA672642A0EBC5DED74D 0xF6 PUSH9 0x3562544CA67064736F PUSH13 0x634300081E0033000000000000 "
				},
				"gasEstimates": {
					"creation": {
						"codeDepositCost": "541000",
						"executionCost": "73345",
						"totalCost": "614345"
					},
					"external": {
						"found(address)": "2894",
						"foundContractUser()": "2516",
						"fund()": "22362",
						"getChainlinkDataFeedLatestAnswer()": "infinite",
						"getFund()": "infinite",
						"refund()": "infinite",
						"transferOwnerShip(address)": "26929"
					},
					"internal": {
						"calculateUsdPrice(uint256)": "infinite"
					}
				},
				"methodIdentifiers": {
					"found(address)": "dc1f031a",
					"foundContractUser()": "1721681c",
					"fund()": "b60d4288",
					"getChainlinkDataFeedLatestAnswer()": "bea4dfb5",
					"getFund()": "8edd6eb6",
					"refund()": "590e1ae3",
					"transferOwnerShip(address)": "8863dd1a"
				}
			},
			"storageLayout": {
				"storage": [
					{
						"astId": 53,
						"contract": "my_contracts/FundMe.sol:FundMe",
						"label": "funderMap",
						"offset": 0,
						"slot": "0",
						"type": "t_mapping(t_address,t_uint256)"
					},
					{
						"astId": 74,
						"contract": "my_contracts/FundMe.sol:FundMe",
						"label": "MAXMUM_VALUE",
						"offset": 0,
						"slot": "1",
						"type": "t_uint256"
					},
					{
						"astId": 77,
						"contract": "my_contracts/FundMe.sol:FundMe",
						"label": "dataFeed",
						"offset": 0,
						"slot": "2",
						"type": "t_contract(AggregatorV3Interface)45"
					},
					{
						"astId": 79,
						"contract": "my_contracts/FundMe.sol:FundMe",
						"label": "owner",
						"offset": 0,
						"slot": "3",
						"type": "t_address"
					}
				],
				"types": {
					"t_address": {
						"encoding": "inplace",
						"label": "address",
						"numberOfBytes": "20"
					},
					"t_contract(AggregatorV3Interface)45": {
						"encoding": "inplace",
						"label": "contract AggregatorV3Interface",
						"numberOfBytes": "20"
					},
					"t_mapping(t_address,t_uint256)": {
						"encoding": "mapping",
						"key": "t_address",
						"label": "mapping(address => uint256)",
						"numberOfBytes": "32",
						"value": "t_uint256"
					},
					"t_uint256": {
						"encoding": "inplace",
						"label": "uint256",
						"numberOfBytes": "32"
					}
				}
			},
			"userdoc": {
				"kind": "user",
				"methods": {},
				"version": 1
			}
		}
	}
}