{
	"my_contracts/FundMe.sol": {
		"FundMe": {
			"abi": [
				{
					"inputs": [
						{
							"internalType": "uint256",
							"name": "_lockTime",
							"type": "uint256"
						}
					],
					"stateMutability": "nonpayable",
					"type": "constructor"
				},
				{
					"inputs": [
						{
							"internalType": "address",
							"name": "_user",
							"type": "address"
						}
					],
					"name": "found",
					"outputs": [
						{
							"internalType": "uint256",
							"name": "",
							"type": "uint256"
						}
					],
					"stateMutability": "view",
					"type": "function"
				},
				{
					"inputs": [],
					"name": "foundContractUser",
					"outputs": [
						{
							"internalType": "address",
							"name": "",
							"type": "address"
						}
					],
					"stateMutability": "view",
					"type": "function"
				},
				{
					"inputs": [],
					"name": "fund",
					"outputs": [],
					"stateMutability": "payable",
					"type": "function"
				},
				{
					"inputs": [],
					"name": "getChainlinkDataFeedLatestAnswer",
					"outputs": [
						{
							"internalType": "int256",
							"name": "",
							"type": "int256"
						}
					],
					"stateMutability": "view",
					"type": "function"
				},
				{
					"inputs": [],
					"name": "getFund",
					"outputs": [],
					"stateMutability": "nonpayable",
					"type": "function"
				},
				{
					"inputs": [],
					"name": "refund",
					"outputs": [],
					"stateMutability": "nonpayable",
					"type": "function"
				},
				{
					"inputs": [
						{
							"internalType": "address",
							"name": "_newOwner",
							"type": "address"
						}
					],
					"name": "transferOwnerShip",
					"outputs": [],
					"stateMutability": "nonpayable",
					"type": "function"
				}
			],
			"devdoc": {
				"kind": "dev",
				"methods": {},
				"version": 1
			},
			"evm": {
				"assembly": "    /* \"my_contracts/FundMe.sol\":372:4769  contract FundMe{... */\n  mstore(0x40, 0x80)\n    /* \"my_contracts/FundMe.sol\":756:768  4 * 10 ** 10 */\n  0x09502f9000\n    /* \"my_contracts/FundMe.sol\":733:768  uint256 MAXMUM_VALUE = 4 * 10 ** 10 */\n  0x01\n  sstore\n    /* \"my_contracts/FundMe.sol\":942:1403  constructor(uint256 _lockTime){... */\n  callvalue\n  dup1\n  iszero\n  tag_1\n  jumpi\n  revert(0x00, 0x00)\ntag_1:\n  pop\n  mload(0x40)\n  sub(codesize, bytecodeSize)\n  dup1\n  bytecodeSize\n  dup4\n  codecopy\n  dup2\n  dup2\n  add\n  0x40\n  mstore\n  dup2\n  add\n  swap1\n  tag_2\n  swap2\n  swap1\n  tag_3\n  jump\t// in\ntag_2:\n    /* \"my_contracts/FundMe.sol\":990:1000  msg.sender */\n  caller\n    /* \"my_contracts/FundMe.sol\":982:987  owner */\n  0x05\n  0x00\n    /* \"my_contracts/FundMe.sol\":982:1000  owner = msg.sender */\n  0x0100\n  exp\n  dup2\n  sload\n  dup2\n  0xffffffffffffffffffffffffffffffffffffffff\n  mul\n  not\n  and\n  swap1\n  dup4\n  0xffffffffffffffffffffffffffffffffffffffff\n  and\n  mul\n  or\n  swap1\n  sstore\n  pop\n    /* \"my_contracts/FundMe.sol\":1248:1253  owner */\n  0x05\n  0x00\n  swap1\n  sload\n  swap1\n  0x0100\n  exp\n  swap1\n  div\n  0xffffffffffffffffffffffffffffffffffffffff\n  and\n    /* \"my_contracts/FundMe.sol\":1215:1223  dataFeed */\n  0x04\n  0x00\n    /* \"my_contracts/FundMe.sol\":1215:1254  dataFeed = AggregatorV3Interface(owner) */\n  0x0100\n  exp\n  dup2\n  sload\n  dup2\n  0xffffffffffffffffffffffffffffffffffffffff\n  mul\n  not\n  and\n  swap1\n  dup4\n  0xffffffffffffffffffffffffffffffffffffffff\n  and\n  mul\n  or\n  swap1\n  sstore\n  pop\n    /* \"my_contracts/FundMe.sol\":1286:1301  block.timestamp */\n  timestamp\n    /* \"my_contracts/FundMe.sol\":1264:1283  deploymentTimestamp */\n  0x02\n    /* \"my_contracts/FundMe.sol\":1264:1301  deploymentTimestamp = block.timestamp */\n  dup2\n  swap1\n  sstore\n  pop\n    /* \"my_contracts/FundMe.sol\":1356:1365  _lockTime */\n  dup1\n    /* \"my_contracts/FundMe.sol\":1345:1353  lockTime */\n  0x03\n    /* \"my_contracts/FundMe.sol\":1345:1365  lockTime = _lockTime */\n  dup2\n  swap1\n  sstore\n  pop\n    /* \"my_contracts/FundMe.sol\":942:1403  constructor(uint256 _lockTime){... */\n  pop\n    /* \"my_contracts/FundMe.sol\":372:4769  contract FundMe{... */\n  jump(tag_6)\n    /* \"#utility.yul\":88:205   */\ntag_8:\n    /* \"#utility.yul\":197:198   */\n  0x00\n    /* \"#utility.yul\":194:195   */\n  0x00\n    /* \"#utility.yul\":187:199   */\n  revert\n    /* \"#utility.yul\":334:411   */\ntag_10:\n    /* \"#utility.yul\":371:378   */\n  0x00\n    /* \"#utility.yul\":400:405   */\n  dup2\n    /* \"#utility.yul\":389:405   */\n  swap1\n  pop\n    /* \"#utility.yul\":334:411   */\n  swap2\n  swap1\n  pop\n  jump\t// out\n    /* \"#utility.yul\":417:539   */\ntag_11:\n    /* \"#utility.yul\":490:514   */\n  tag_19\n    /* \"#utility.yul\":508:513   */\n  dup2\n    /* \"#utility.yul\":490:514   */\n  tag_10\n  jump\t// in\ntag_19:\n    /* \"#utility.yul\":483:488   */\n  dup2\n    /* \"#utility.yul\":480:515   */\n  eq\n    /* \"#utility.yul\":470:533   */\n  tag_20\n  jumpi\n    /* \"#utility.yul\":529:530   */\n  0x00\n    /* \"#utility.yul\":526:527   */\n  0x00\n    /* \"#utility.yul\":519:531   */\n  revert\n    /* \"#utility.yul\":470:533   */\ntag_20:\n    /* \"#utility.yul\":417:539   */\n  pop\n  jump\t// out\n    /* \"#utility.yul\":545:688   */\ntag_12:\n    /* \"#utility.yul\":602:607   */\n  0x00\n    /* \"#utility.yul\":633:639   */\n  dup2\n    /* \"#utility.yul\":627:640   */\n  mload\n    /* \"#utility.yul\":618:640   */\n  swap1\n  pop\n    /* \"#utility.yul\":649:682   */\n  tag_22\n    /* \"#utility.yul\":676:681   */\n  dup2\n    /* \"#utility.yul\":649:682   */\n  tag_11\n  jump\t// in\ntag_22:\n    /* \"#utility.yul\":545:688   */\n  swap3\n  swap2\n  pop\n  pop\n  jump\t// out\n    /* \"#utility.yul\":694:1045   */\ntag_3:\n    /* \"#utility.yul\":764:770   */\n  0x00\n    /* \"#utility.yul\":813:815   */\n  0x20\n    /* \"#utility.yul\":801:810   */\n  dup3\n    /* \"#utility.yul\":792:799   */\n  dup5\n    /* \"#utility.yul\":788:811   */\n  sub\n    /* \"#utility.yul\":784:816   */\n  slt\n    /* \"#utility.yul\":781:900   */\n  iszero\n  tag_24\n  jumpi\n    /* \"#utility.yul\":819:898   */\n  tag_25\n  tag_8\n  jump\t// in\ntag_25:\n    /* \"#utility.yul\":781:900   */\ntag_24:\n    /* \"#utility.yul\":939:940   */\n  0x00\n    /* \"#utility.yul\":964:1028   */\n  tag_26\n    /* \"#utility.yul\":1020:1027   */\n  dup5\n    /* \"#utility.yul\":1011:1017   */\n  dup3\n    /* \"#utility.yul\":1000:1009   */\n  dup6\n    /* \"#utility.yul\":996:1018   */\n  add\n    /* \"#utility.yul\":964:1028   */\n  tag_12\n  jump\t// in\ntag_26:\n    /* \"#utility.yul\":954:1028   */\n  swap2\n  pop\n    /* \"#utility.yul\":910:1038   */\n  pop\n    /* \"#utility.yul\":694:1045   */\n  swap3\n  swap2\n  pop\n  pop\n  jump\t// out\n    /* \"my_contracts/FundMe.sol\":372:4769  contract FundMe{... */\ntag_6:\n  dataSize(sub_0)\n  dup1\n  dataOffset(sub_0)\n  0x00\n  codecopy\n  0x00\n  return\nstop\n\nsub_0: assembly {\n        /* \"my_contracts/FundMe.sol\":372:4769  contract FundMe{... */\n      mstore(0x40, 0x80)\n      jumpi(tag_1, lt(calldatasize, 0x04))\n      shr(0xe0, calldataload(0x00))\n      dup1\n      0x8edd6eb6\n      gt\n      tag_9\n      jumpi\n      dup1\n      0x8edd6eb6\n      eq\n      tag_5\n      jumpi\n      dup1\n      0xb60d4288\n      eq\n      tag_6\n      jumpi\n      dup1\n      0xbea4dfb5\n      eq\n      tag_7\n      jumpi\n      dup1\n      0xdc1f031a\n      eq\n      tag_8\n      jumpi\n      jump(tag_1)\n    tag_9:\n      dup1\n      0x1721681c\n      eq\n      tag_2\n      jumpi\n      dup1\n      0x590e1ae3\n      eq\n      tag_3\n      jumpi\n      dup1\n      0x8863dd1a\n      eq\n      tag_4\n      jumpi\n    tag_1:\n      revert(0x00, 0x00)\n        /* \"my_contracts/FundMe.sol\":3540:3628  function foundContractUser() public view returns(address) {... */\n    tag_2:\n      callvalue\n      dup1\n      iszero\n      tag_10\n      jumpi\n      revert(0x00, 0x00)\n    tag_10:\n      pop\n      tag_11\n      tag_12\n      jump\t// in\n    tag_11:\n      mload(0x40)\n      tag_13\n      swap2\n      swap1\n      tag_14\n      jump\t// in\n    tag_13:\n      mload(0x40)\n      dup1\n      swap2\n      sub\n      swap1\n      return\n        /* \"my_contracts/FundMe.sol\":2929:3527  function refund() external {... */\n    tag_3:\n      callvalue\n      dup1\n      iszero\n      tag_15\n      jumpi\n      revert(0x00, 0x00)\n    tag_15:\n      pop\n      tag_16\n      tag_17\n      jump\t// in\n    tag_16:\n      stop\n        /* \"my_contracts/FundMe.sol\":3663:3758  function transferOwnerShip(address _newOwner) public  isOwner{... */\n    tag_4:\n      callvalue\n      dup1\n      iszero\n      tag_18\n      jumpi\n      revert(0x00, 0x00)\n    tag_18:\n      pop\n      tag_19\n      0x04\n      dup1\n      calldatasize\n      sub\n      dup2\n      add\n      swap1\n      tag_20\n      swap2\n      swap1\n      tag_21\n      jump\t// in\n    tag_20:\n      tag_22\n      jump\t// in\n    tag_19:\n      stop\n        /* \"my_contracts/FundMe.sol\":2133:2909  function getFund() external isOwner{... */\n    tag_5:\n      callvalue\n      dup1\n      iszero\n      tag_23\n      jumpi\n      revert(0x00, 0x00)\n    tag_23:\n      pop\n      tag_24\n      tag_25\n      jump\t// in\n    tag_24:\n      stop\n        /* \"my_contracts/FundMe.sol\":1449:1969  function fund() external payable {... */\n    tag_6:\n      tag_26\n      tag_27\n      jump\t// in\n    tag_26:\n      stop\n        /* \"my_contracts/FundMe.sol\":3793:4140  function getChainlinkDataFeedLatestAnswer() public view returns (int) {... */\n    tag_7:\n      callvalue\n      dup1\n      iszero\n      tag_28\n      jumpi\n      revert(0x00, 0x00)\n    tag_28:\n      pop\n      tag_29\n      tag_30\n      jump\t// in\n    tag_29:\n      mload(0x40)\n      tag_31\n      swap2\n      swap1\n      tag_32\n      jump\t// in\n    tag_31:\n      mload(0x40)\n      dup1\n      swap2\n      sub\n      swap1\n      return\n        /* \"my_contracts/FundMe.sol\":2014:2113  function found(address _user) public view returns(uint256) {... */\n    tag_8:\n      callvalue\n      dup1\n      iszero\n      tag_33\n      jumpi\n      revert(0x00, 0x00)\n    tag_33:\n      pop\n      tag_34\n      0x04\n      dup1\n      calldatasize\n      sub\n      dup2\n      add\n      swap1\n      tag_35\n      swap2\n      swap1\n      tag_21\n      jump\t// in\n    tag_35:\n      tag_36\n      jump\t// in\n    tag_34:\n      mload(0x40)\n      tag_37\n      swap2\n      swap1\n      tag_38\n      jump\t// in\n    tag_37:\n      mload(0x40)\n      dup1\n      swap2\n      sub\n      swap1\n      return\n        /* \"my_contracts/FundMe.sol\":3540:3628  function foundContractUser() public view returns(address) {... */\n    tag_12:\n        /* \"my_contracts/FundMe.sol\":3589:3596  address */\n      0x00\n        /* \"my_contracts/FundMe.sol\":3615:3620  owner */\n      0x05\n      0x00\n      swap1\n      sload\n      swap1\n      0x0100\n      exp\n      swap1\n      div\n      0xffffffffffffffffffffffffffffffffffffffff\n      and\n        /* \"my_contracts/FundMe.sol\":3608:3620  return owner */\n      swap1\n      pop\n        /* \"my_contracts/FundMe.sol\":3540:3628  function foundContractUser() public view returns(address) {... */\n      swap1\n      jump\t// out\n        /* \"my_contracts/FundMe.sol\":2929:3527  function refund() external {... */\n    tag_17:\n        /* \"my_contracts/FundMe.sol\":3043:3055  MAXMUM_VALUE */\n      sload(0x01)\n        /* \"my_contracts/FundMe.sol\":3019:3040  address(this).balance */\n      selfbalance\n        /* \"my_contracts/FundMe.sol\":3019:3055  address(this).balance < MAXMUM_VALUE */\n      lt\n        /* \"my_contracts/FundMe.sol\":3011:3077  require(address(this).balance < MAXMUM_VALUE, \"target is reached\") */\n      tag_41\n      jumpi\n      mload(0x40)\n      0x08c379a000000000000000000000000000000000000000000000000000000000\n      dup2\n      mstore\n      0x04\n      add\n      tag_42\n      swap1\n      tag_43\n      jump\t// in\n    tag_42:\n      mload(0x40)\n      dup1\n      swap2\n      sub\n      swap1\n      revert\n    tag_41:\n        /* \"my_contracts/FundMe.sol\":3136:3144  lockTime */\n      sload(0x03)\n        /* \"my_contracts/FundMe.sol\":3114:3133  deploymentTimestamp */\n      sload(0x02)\n        /* \"my_contracts/FundMe.sol\":3114:3144  deploymentTimestamp + lockTime */\n      tag_44\n      swap2\n      swap1\n      tag_45\n      jump\t// in\n    tag_44:\n        /* \"my_contracts/FundMe.sol\":3095:3110  block.timestamp */\n      timestamp\n        /* \"my_contracts/FundMe.sol\":3095:3144  block.timestamp >= deploymentTimestamp + lockTime */\n      lt\n      iszero\n        /* \"my_contracts/FundMe.sol\":3087:3148  require(block.timestamp >= deploymentTimestamp + lockTime,\"\") */\n      tag_46\n      jumpi\n      mload(0x40)\n      0x08c379a000000000000000000000000000000000000000000000000000000000\n      dup2\n      mstore\n      0x04\n      add\n      tag_47\n      swap1\n      tag_48\n      jump\t// in\n    tag_47:\n      mload(0x40)\n      dup1\n      swap2\n      sub\n      swap1\n      revert\n    tag_46:\n        /* \"my_contracts/FundMe.sol\":3194:3208  uint256 amount */\n      0x00\n        /* \"my_contracts/FundMe.sol\":3211:3228  found(msg.sender) */\n      tag_49\n        /* \"my_contracts/FundMe.sol\":3217:3227  msg.sender */\n      caller\n        /* \"my_contracts/FundMe.sol\":3211:3216  found */\n      tag_36\n        /* \"my_contracts/FundMe.sol\":3211:3228  found(msg.sender) */\n      jump\t// in\n    tag_49:\n        /* \"my_contracts/FundMe.sol\":3194:3228  uint256 amount = found(msg.sender) */\n      swap1\n      pop\n        /* \"my_contracts/FundMe.sol\":3256:3257  0 */\n      0x00\n        /* \"my_contracts/FundMe.sol\":3246:3252  amount */\n      dup2\n        /* \"my_contracts/FundMe.sol\":3246:3257  amount != 0 */\n      sub\n        /* \"my_contracts/FundMe.sol\":3238:3285  require(amount != 0,\"there is no fund for you\") */\n      tag_50\n      jumpi\n      mload(0x40)\n      0x08c379a000000000000000000000000000000000000000000000000000000000\n      dup2\n      mstore\n      0x04\n      add\n      tag_51\n      swap1\n      tag_52\n      jump\t// in\n    tag_51:\n      mload(0x40)\n      dup1\n      swap2\n      sub\n      swap1\n      revert\n    tag_50:\n        /* \"my_contracts/FundMe.sol\":3295:3307  bool success */\n      0x00\n        /* \"my_contracts/FundMe.sol\":3338:3348  msg.sender */\n      caller\n        /* \"my_contracts/FundMe.sol\":3330:3354  payable(msg.sender).call */\n      0xffffffffffffffffffffffffffffffffffffffff\n      and\n        /* \"my_contracts/FundMe.sol\":3362:3368  amount */\n      dup3\n        /* \"my_contracts/FundMe.sol\":3330:3373  payable(msg.sender).call{value: amount}(\"\") */\n      mload(0x40)\n      tag_53\n      swap1\n      tag_54\n      jump\t// in\n    tag_53:\n      0x00\n      mload(0x40)\n      dup1\n      dup4\n      sub\n      dup2\n      dup6\n      dup8\n      gas\n      call\n      swap3\n      pop\n      pop\n      pop\n      returndatasize\n      dup1\n      0x00\n      dup2\n      eq\n      tag_57\n      jumpi\n      mload(0x40)\n      swap2\n      pop\n      and(add(returndatasize, 0x3f), not(0x1f))\n      dup3\n      add\n      0x40\n      mstore\n      returndatasize\n      dup3\n      mstore\n      returndatasize\n      0x00\n      0x20\n      dup5\n      add\n      returndatacopy\n      jump(tag_56)\n    tag_57:\n      0x60\n      swap2\n      pop\n    tag_56:\n      pop\n        /* \"my_contracts/FundMe.sol\":3317:3373  (success,) = payable(msg.sender).call{value: amount}(\"\") */\n      pop\n      dup1\n      swap2\n      pop\n      pop\n        /* \"my_contracts/FundMe.sol\":3391:3398  success */\n      dup1\n        /* \"my_contracts/FundMe.sol\":3383:3421  require(success, \"transfer is failed\") */\n      tag_58\n      jumpi\n      mload(0x40)\n      0x08c379a000000000000000000000000000000000000000000000000000000000\n      dup2\n      mstore\n      0x04\n      add\n      tag_59\n      swap1\n      tag_60\n      jump\t// in\n    tag_59:\n      mload(0x40)\n      dup1\n      swap2\n      sub\n      swap1\n      revert\n    tag_58:\n        /* \"my_contracts/FundMe.sol\":3519:3520  0 */\n      0x00\n        /* \"my_contracts/FundMe.sol\":3495:3504  funderMap */\n      0x00\n        /* \"my_contracts/FundMe.sol\":3495:3516  funderMap[msg.sender] */\n      0x00\n        /* \"my_contracts/FundMe.sol\":3505:3515  msg.sender */\n      caller\n        /* \"my_contracts/FundMe.sol\":3495:3516  funderMap[msg.sender] */\n      0xffffffffffffffffffffffffffffffffffffffff\n      and\n      0xffffffffffffffffffffffffffffffffffffffff\n      and\n      dup2\n      mstore\n      0x20\n      add\n      swap1\n      dup2\n      mstore\n      0x20\n      add\n      0x00\n      keccak256\n        /* \"my_contracts/FundMe.sol\":3495:3520  funderMap[msg.sender] = 0 */\n      dup2\n      swap1\n      sstore\n      pop\n        /* \"my_contracts/FundMe.sol\":2956:3527  {... */\n      pop\n      pop\n        /* \"my_contracts/FundMe.sol\":2929:3527  function refund() external {... */\n      jump\t// out\n        /* \"my_contracts/FundMe.sol\":3663:3758  function transferOwnerShip(address _newOwner) public  isOwner{... */\n    tag_22:\n        /* \"my_contracts/FundMe.sol\":4562:4567  owner */\n      0x05\n      0x00\n      swap1\n      sload\n      swap1\n      0x0100\n      exp\n      swap1\n      div\n      0xffffffffffffffffffffffffffffffffffffffff\n      and\n        /* \"my_contracts/FundMe.sol\":4548:4567  msg.sender == owner */\n      0xffffffffffffffffffffffffffffffffffffffff\n      and\n        /* \"my_contracts/FundMe.sol\":4548:4558  msg.sender */\n      caller\n        /* \"my_contracts/FundMe.sol\":4548:4567  msg.sender == owner */\n      0xffffffffffffffffffffffffffffffffffffffff\n      and\n      eq\n        /* \"my_contracts/FundMe.sol\":4540:4597  require(msg.sender == owner, \"you don't have permission\") */\n      tag_62\n      jumpi\n      mload(0x40)\n      0x08c379a000000000000000000000000000000000000000000000000000000000\n      dup2\n      mstore\n      0x04\n      add\n      tag_63\n      swap1\n      tag_64\n      jump\t// in\n    tag_63:\n      mload(0x40)\n      dup1\n      swap2\n      sub\n      swap1\n      revert\n    tag_62:\n        /* \"my_contracts/FundMe.sol\":3742:3751  _newOwner */\n      dup1\n        /* \"my_contracts/FundMe.sol\":3734:3739  owner */\n      0x05\n      0x00\n        /* \"my_contracts/FundMe.sol\":3734:3751  owner = _newOwner */\n      0x0100\n      exp\n      dup2\n      sload\n      dup2\n      0xffffffffffffffffffffffffffffffffffffffff\n      mul\n      not\n      and\n      swap1\n      dup4\n      0xffffffffffffffffffffffffffffffffffffffff\n      and\n      mul\n      or\n      swap1\n      sstore\n      pop\n        /* \"my_contracts/FundMe.sol\":3663:3758  function transferOwnerShip(address _newOwner) public  isOwner{... */\n      pop\n      jump\t// out\n        /* \"my_contracts/FundMe.sol\":2133:2909  function getFund() external isOwner{... */\n    tag_25:\n        /* \"my_contracts/FundMe.sol\":4562:4567  owner */\n      0x05\n      0x00\n      swap1\n      sload\n      swap1\n      0x0100\n      exp\n      swap1\n      div\n      0xffffffffffffffffffffffffffffffffffffffff\n      and\n        /* \"my_contracts/FundMe.sol\":4548:4567  msg.sender == owner */\n      0xffffffffffffffffffffffffffffffffffffffff\n      and\n        /* \"my_contracts/FundMe.sol\":4548:4558  msg.sender */\n      caller\n        /* \"my_contracts/FundMe.sol\":4548:4567  msg.sender == owner */\n      0xffffffffffffffffffffffffffffffffffffffff\n      and\n      eq\n        /* \"my_contracts/FundMe.sol\":4540:4597  require(msg.sender == owner, \"you don't have permission\") */\n      tag_67\n      jumpi\n      mload(0x40)\n      0x08c379a000000000000000000000000000000000000000000000000000000000\n      dup2\n      mstore\n      0x04\n      add\n      tag_68\n      swap1\n      tag_64\n      jump\t// in\n    tag_68:\n      mload(0x40)\n      dup1\n      swap2\n      sub\n      swap1\n      revert\n    tag_67:\n        /* \"my_contracts/FundMe.sol\":2255:2267  MAXMUM_VALUE */\n      sload(0x01)\n        /* \"my_contracts/FundMe.sol\":2230:2251  address(this).balance */\n      selfbalance\n        /* \"my_contracts/FundMe.sol\":2230:2267  address(this).balance >= MAXMUM_VALUE */\n      lt\n      iszero\n        /* \"my_contracts/FundMe.sol\":2222:2293  require(address(this).balance >= MAXMUM_VALUE, \"target is not reached\") */\n      tag_70\n      jumpi\n      mload(0x40)\n      0x08c379a000000000000000000000000000000000000000000000000000000000\n      dup2\n      mstore\n      0x04\n      add\n      tag_71\n      swap1\n      tag_72\n      jump\t// in\n    tag_71:\n      mload(0x40)\n      dup1\n      swap2\n      sub\n      swap1\n      revert\n    tag_70:\n        /* \"my_contracts/FundMe.sol\":2352:2360  lockTime */\n      sload(0x03)\n        /* \"my_contracts/FundMe.sol\":2330:2349  deploymentTimestamp */\n      sload(0x02)\n        /* \"my_contracts/FundMe.sol\":2330:2360  deploymentTimestamp + lockTime */\n      tag_73\n      swap2\n      swap1\n      tag_45\n      jump\t// in\n    tag_73:\n        /* \"my_contracts/FundMe.sol\":2311:2326  block.timestamp */\n      timestamp\n        /* \"my_contracts/FundMe.sol\":2311:2360  block.timestamp >= deploymentTimestamp + lockTime */\n      lt\n      iszero\n        /* \"my_contracts/FundMe.sol\":2303:2385  require(block.timestamp >= deploymentTimestamp + lockTime, \"window is not closed\") */\n      tag_74\n      jumpi\n      mload(0x40)\n      0x08c379a000000000000000000000000000000000000000000000000000000000\n      dup2\n      mstore\n      0x04\n      add\n      tag_75\n      swap1\n      tag_76\n      jump\t// in\n    tag_75:\n      mload(0x40)\n      dup1\n      swap2\n      sub\n      swap1\n      revert\n    tag_74:\n        /* \"my_contracts/FundMe.sol\":2762:2772  msg.sender */\n      caller\n        /* \"my_contracts/FundMe.sol\":2754:2782  payable(msg.sender).transfer */\n      0xffffffffffffffffffffffffffffffffffffffff\n      and\n        /* \"my_contracts/FundMe.sol\":2754:2805  payable(msg.sender).transfer(address(this).balance) */\n      0x08fc\n        /* \"my_contracts/FundMe.sol\":2783:2804  address(this).balance */\n      selfbalance\n        /* \"my_contracts/FundMe.sol\":2754:2805  payable(msg.sender).transfer(address(this).balance) */\n      swap1\n      dup2\n      iszero\n      mul\n      swap1\n      mload(0x40)\n      0x00\n      mload(0x40)\n      dup1\n      dup4\n      sub\n      dup2\n      dup6\n      dup9\n      dup9\n      call\n      swap4\n      pop\n      pop\n      pop\n      pop\n      iszero\n      dup1\n      iszero\n      tag_78\n      jumpi\n      returndatacopy(0x00, 0x00, returndatasize)\n      revert(0x00, returndatasize)\n    tag_78:\n      pop\n        /* \"my_contracts/FundMe.sol\":2133:2909  function getFund() external isOwner{... */\n      jump\t// out\n        /* \"my_contracts/FundMe.sol\":1449:1969  function fund() external payable {... */\n    tag_27:\n        /* \"my_contracts/FundMe.sol\":639:653  100 * 10 ** 18 */\n      0x056bc75e2d63100000\n        /* \"my_contracts/FundMe.sol\":1500:1509  msg.value */\n      callvalue\n        /* \"my_contracts/FundMe.sol\":1500:1529  msg.value < MINIMUM_USD_VALUE */\n      lt\n        /* \"my_contracts/FundMe.sol\":1492:1543  require(msg.value < MINIMUM_USD_VALUE, \"it's too \") */\n      tag_80\n      jumpi\n      mload(0x40)\n      0x08c379a000000000000000000000000000000000000000000000000000000000\n      dup2\n      mstore\n      0x04\n      add\n      tag_81\n      swap1\n      tag_82\n      jump\t// in\n    tag_81:\n      mload(0x40)\n      dup1\n      swap2\n      sub\n      swap1\n      revert\n    tag_80:\n        /* \"my_contracts/FundMe.sol\":1890:1898  lockTime */\n      sload(0x03)\n        /* \"my_contracts/FundMe.sol\":1868:1887  deploymentTimestamp */\n      sload(0x02)\n        /* \"my_contracts/FundMe.sol\":1868:1898  deploymentTimestamp + lockTime */\n      tag_83\n      swap2\n      swap1\n      tag_45\n      jump\t// in\n    tag_83:\n        /* \"my_contracts/FundMe.sol\":1850:1865  block.timestamp */\n      timestamp\n        /* \"my_contracts/FundMe.sol\":1850:1898  block.timestamp < deploymentTimestamp + lockTime */\n      lt\n        /* \"my_contracts/FundMe.sol\":1842:1919  require(block.timestamp < deploymentTimestamp + lockTime, \"window is closed\") */\n      tag_84\n      jumpi\n      mload(0x40)\n      0x08c379a000000000000000000000000000000000000000000000000000000000\n      dup2\n      mstore\n      0x04\n      add\n      tag_85\n      swap1\n      tag_86\n      jump\t// in\n    tag_85:\n      mload(0x40)\n      dup1\n      swap2\n      sub\n      swap1\n      revert\n    tag_84:\n        /* \"my_contracts/FundMe.sol\":1953:1962  msg.value */\n      callvalue\n        /* \"my_contracts/FundMe.sol\":1929:1938  funderMap */\n      0x00\n        /* \"my_contracts/FundMe.sol\":1929:1950  funderMap[msg.sender] */\n      0x00\n        /* \"my_contracts/FundMe.sol\":1939:1949  msg.sender */\n      caller\n        /* \"my_contracts/FundMe.sol\":1929:1950  funderMap[msg.sender] */\n      0xffffffffffffffffffffffffffffffffffffffff\n      and\n      0xffffffffffffffffffffffffffffffffffffffff\n      and\n      dup2\n      mstore\n      0x20\n      add\n      swap1\n      dup2\n      mstore\n      0x20\n      add\n      0x00\n      keccak256\n        /* \"my_contracts/FundMe.sol\":1929:1962  funderMap[msg.sender] = msg.value */\n      dup2\n      swap1\n      sstore\n      pop\n        /* \"my_contracts/FundMe.sol\":1449:1969  function fund() external payable {... */\n      jump\t// out\n        /* \"my_contracts/FundMe.sol\":3793:4140  function getChainlinkDataFeedLatestAnswer() public view returns (int) {... */\n    tag_30:\n        /* \"my_contracts/FundMe.sol\":3858:3861  int */\n      0x00\n        /* \"my_contracts/FundMe.sol\":3948:3961  int256 answer */\n      0x00\n        /* \"my_contracts/FundMe.sol\":4084:4092  dataFeed */\n      0x04\n      0x00\n      swap1\n      sload\n      swap1\n      0x0100\n      exp\n      swap1\n      div\n      0xffffffffffffffffffffffffffffffffffffffff\n      and\n        /* \"my_contracts/FundMe.sol\":4084:4108  dataFeed.latestRoundData */\n      0xffffffffffffffffffffffffffffffffffffffff\n      and\n      0xfeaf968c\n        /* \"my_contracts/FundMe.sol\":4084:4110  dataFeed.latestRoundData() */\n      mload(0x40)\n      dup2\n      0xffffffff\n      and\n      0xe0\n      shl\n      dup2\n      mstore\n      0x04\n      add\n      0xa0\n      mload(0x40)\n      dup1\n      dup4\n      sub\n      dup2\n      dup7\n      gas\n      staticcall\n      iszero\n      dup1\n      iszero\n      tag_89\n      jumpi\n      returndatacopy(0x00, 0x00, returndatasize)\n      revert(0x00, returndatasize)\n    tag_89:\n      pop\n      pop\n      pop\n      pop\n      mload(0x40)\n      returndatasize\n      not(0x1f)\n      0x1f\n      dup3\n      add\n      and\n      dup3\n      add\n      dup1\n      0x40\n      mstore\n      pop\n      dup2\n      add\n      swap1\n      tag_90\n      swap2\n      swap1\n      tag_91\n      jump\t// in\n    tag_90:\n        /* \"my_contracts/FundMe.sol\":3900:4110  (... */\n      pop\n      pop\n      pop\n      swap2\n      pop\n      pop\n        /* \"my_contracts/FundMe.sol\":4127:4133  answer */\n      dup1\n        /* \"my_contracts/FundMe.sol\":4120:4133  return answer */\n      swap2\n      pop\n      pop\n        /* \"my_contracts/FundMe.sol\":3793:4140  function getChainlinkDataFeedLatestAnswer() public view returns (int) {... */\n      swap1\n      jump\t// out\n        /* \"my_contracts/FundMe.sol\":2014:2113  function found(address _user) public view returns(uint256) {... */\n    tag_36:\n        /* \"my_contracts/FundMe.sol\":2064:2071  uint256 */\n      0x00\n        /* \"my_contracts/FundMe.sol\":2090:2099  funderMap */\n      0x00\n        /* \"my_contracts/FundMe.sol\":2090:2106  funderMap[_user] */\n      0x00\n        /* \"my_contracts/FundMe.sol\":2100:2105  _user */\n      dup4\n        /* \"my_contracts/FundMe.sol\":2090:2106  funderMap[_user] */\n      0xffffffffffffffffffffffffffffffffffffffff\n      and\n      0xffffffffffffffffffffffffffffffffffffffff\n      and\n      dup2\n      mstore\n      0x20\n      add\n      swap1\n      dup2\n      mstore\n      0x20\n      add\n      0x00\n      keccak256\n      sload\n        /* \"my_contracts/FundMe.sol\":2083:2106  return funderMap[_user] */\n      swap1\n      pop\n        /* \"my_contracts/FundMe.sol\":2014:2113  function found(address _user) public view returns(uint256) {... */\n      swap2\n      swap1\n      pop\n      jump\t// out\n        /* \"#utility.yul\":7:133   */\n    tag_93:\n        /* \"#utility.yul\":44:51   */\n      0x00\n        /* \"#utility.yul\":84:126   */\n      0xffffffffffffffffffffffffffffffffffffffff\n        /* \"#utility.yul\":77:82   */\n      dup3\n        /* \"#utility.yul\":73:127   */\n      and\n        /* \"#utility.yul\":62:127   */\n      swap1\n      pop\n        /* \"#utility.yul\":7:133   */\n      swap2\n      swap1\n      pop\n      jump\t// out\n        /* \"#utility.yul\":139:235   */\n    tag_94:\n        /* \"#utility.yul\":176:183   */\n      0x00\n        /* \"#utility.yul\":205:229   */\n      tag_137\n        /* \"#utility.yul\":223:228   */\n      dup3\n        /* \"#utility.yul\":205:229   */\n      tag_93\n      jump\t// in\n    tag_137:\n        /* \"#utility.yul\":194:229   */\n      swap1\n      pop\n        /* \"#utility.yul\":139:235   */\n      swap2\n      swap1\n      pop\n      jump\t// out\n        /* \"#utility.yul\":241:359   */\n    tag_95:\n        /* \"#utility.yul\":328:352   */\n      tag_139\n        /* \"#utility.yul\":346:351   */\n      dup2\n        /* \"#utility.yul\":328:352   */\n      tag_94\n      jump\t// in\n    tag_139:\n        /* \"#utility.yul\":323:326   */\n      dup3\n        /* \"#utility.yul\":316:353   */\n      mstore\n        /* \"#utility.yul\":241:359   */\n      pop\n      pop\n      jump\t// out\n        /* \"#utility.yul\":365:587   */\n    tag_14:\n        /* \"#utility.yul\":458:462   */\n      0x00\n        /* \"#utility.yul\":496:498   */\n      0x20\n        /* \"#utility.yul\":485:494   */\n      dup3\n        /* \"#utility.yul\":481:499   */\n      add\n        /* \"#utility.yul\":473:499   */\n      swap1\n      pop\n        /* \"#utility.yul\":509:580   */\n      tag_141\n        /* \"#utility.yul\":577:578   */\n      0x00\n        /* \"#utility.yul\":566:575   */\n      dup4\n        /* \"#utility.yul\":562:579   */\n      add\n        /* \"#utility.yul\":553:559   */\n      dup5\n        /* \"#utility.yul\":509:580   */\n      tag_95\n      jump\t// in\n    tag_141:\n        /* \"#utility.yul\":365:587   */\n      swap3\n      swap2\n      pop\n      pop\n      jump\t// out\n        /* \"#utility.yul\":674:791   */\n    tag_97:\n        /* \"#utility.yul\":783:784   */\n      0x00\n        /* \"#utility.yul\":780:781   */\n      0x00\n        /* \"#utility.yul\":773:785   */\n      revert\n        /* \"#utility.yul\":920:1042   */\n    tag_99:\n        /* \"#utility.yul\":993:1017   */\n      tag_146\n        /* \"#utility.yul\":1011:1016   */\n      dup2\n        /* \"#utility.yul\":993:1017   */\n      tag_94\n      jump\t// in\n    tag_146:\n        /* \"#utility.yul\":986:991   */\n      dup2\n        /* \"#utility.yul\":983:1018   */\n      eq\n        /* \"#utility.yul\":973:1036   */\n      tag_147\n      jumpi\n        /* \"#utility.yul\":1032:1033   */\n      0x00\n        /* \"#utility.yul\":1029:1030   */\n      0x00\n        /* \"#utility.yul\":1022:1034   */\n      revert\n        /* \"#utility.yul\":973:1036   */\n    tag_147:\n        /* \"#utility.yul\":920:1042   */\n      pop\n      jump\t// out\n        /* \"#utility.yul\":1048:1187   */\n    tag_100:\n        /* \"#utility.yul\":1094:1099   */\n      0x00\n        /* \"#utility.yul\":1132:1138   */\n      dup2\n        /* \"#utility.yul\":1119:1139   */\n      calldataload\n        /* \"#utility.yul\":1110:1139   */\n      swap1\n      pop\n        /* \"#utility.yul\":1148:1181   */\n      tag_149\n        /* \"#utility.yul\":1175:1180   */\n      dup2\n        /* \"#utility.yul\":1148:1181   */\n      tag_99\n      jump\t// in\n    tag_149:\n        /* \"#utility.yul\":1048:1187   */\n      swap3\n      swap2\n      pop\n      pop\n      jump\t// out\n        /* \"#utility.yul\":1193:1522   */\n    tag_21:\n        /* \"#utility.yul\":1252:1258   */\n      0x00\n        /* \"#utility.yul\":1301:1303   */\n      0x20\n        /* \"#utility.yul\":1289:1298   */\n      dup3\n        /* \"#utility.yul\":1280:1287   */\n      dup5\n        /* \"#utility.yul\":1276:1299   */\n      sub\n        /* \"#utility.yul\":1272:1304   */\n      slt\n        /* \"#utility.yul\":1269:1388   */\n      iszero\n      tag_151\n      jumpi\n        /* \"#utility.yul\":1307:1386   */\n      tag_152\n      tag_97\n      jump\t// in\n    tag_152:\n        /* \"#utility.yul\":1269:1388   */\n    tag_151:\n        /* \"#utility.yul\":1427:1428   */\n      0x00\n        /* \"#utility.yul\":1452:1505   */\n      tag_153\n        /* \"#utility.yul\":1497:1504   */\n      dup5\n        /* \"#utility.yul\":1488:1494   */\n      dup3\n        /* \"#utility.yul\":1477:1486   */\n      dup6\n        /* \"#utility.yul\":1473:1495   */\n      add\n        /* \"#utility.yul\":1452:1505   */\n      tag_100\n      jump\t// in\n    tag_153:\n        /* \"#utility.yul\":1442:1505   */\n      swap2\n      pop\n        /* \"#utility.yul\":1398:1515   */\n      pop\n        /* \"#utility.yul\":1193:1522   */\n      swap3\n      swap2\n      pop\n      pop\n      jump\t// out\n        /* \"#utility.yul\":1528:1604   */\n    tag_101:\n        /* \"#utility.yul\":1564:1571   */\n      0x00\n        /* \"#utility.yul\":1593:1598   */\n      dup2\n        /* \"#utility.yul\":1582:1598   */\n      swap1\n      pop\n        /* \"#utility.yul\":1528:1604   */\n      swap2\n      swap1\n      pop\n      jump\t// out\n        /* \"#utility.yul\":1610:1725   */\n    tag_102:\n        /* \"#utility.yul\":1695:1718   */\n      tag_156\n        /* \"#utility.yul\":1712:1717   */\n      dup2\n        /* \"#utility.yul\":1695:1718   */\n      tag_101\n      jump\t// in\n    tag_156:\n        /* \"#utility.yul\":1690:1693   */\n      dup3\n        /* \"#utility.yul\":1683:1719   */\n      mstore\n        /* \"#utility.yul\":1610:1725   */\n      pop\n      pop\n      jump\t// out\n        /* \"#utility.yul\":1731:1949   */\n    tag_32:\n        /* \"#utility.yul\":1822:1826   */\n      0x00\n        /* \"#utility.yul\":1860:1862   */\n      0x20\n        /* \"#utility.yul\":1849:1858   */\n      dup3\n        /* \"#utility.yul\":1845:1863   */\n      add\n        /* \"#utility.yul\":1837:1863   */\n      swap1\n      pop\n        /* \"#utility.yul\":1873:1942   */\n      tag_158\n        /* \"#utility.yul\":1939:1940   */\n      0x00\n        /* \"#utility.yul\":1928:1937   */\n      dup4\n        /* \"#utility.yul\":1924:1941   */\n      add\n        /* \"#utility.yul\":1915:1921   */\n      dup5\n        /* \"#utility.yul\":1873:1942   */\n      tag_102\n      jump\t// in\n    tag_158:\n        /* \"#utility.yul\":1731:1949   */\n      swap3\n      swap2\n      pop\n      pop\n      jump\t// out\n        /* \"#utility.yul\":1955:2032   */\n    tag_103:\n        /* \"#utility.yul\":1992:1999   */\n      0x00\n        /* \"#utility.yul\":2021:2026   */\n      dup2\n        /* \"#utility.yul\":2010:2026   */\n      swap1\n      pop\n        /* \"#utility.yul\":1955:2032   */\n      swap2\n      swap1\n      pop\n      jump\t// out\n        /* \"#utility.yul\":2038:2156   */\n    tag_104:\n        /* \"#utility.yul\":2125:2149   */\n      tag_161\n        /* \"#utility.yul\":2143:2148   */\n      dup2\n        /* \"#utility.yul\":2125:2149   */\n      tag_103\n      jump\t// in\n    tag_161:\n        /* \"#utility.yul\":2120:2123   */\n      dup3\n        /* \"#utility.yul\":2113:2150   */\n      mstore\n        /* \"#utility.yul\":2038:2156   */\n      pop\n      pop\n      jump\t// out\n        /* \"#utility.yul\":2162:2384   */\n    tag_38:\n        /* \"#utility.yul\":2255:2259   */\n      0x00\n        /* \"#utility.yul\":2293:2295   */\n      0x20\n        /* \"#utility.yul\":2282:2291   */\n      dup3\n        /* \"#utility.yul\":2278:2296   */\n      add\n        /* \"#utility.yul\":2270:2296   */\n      swap1\n      pop\n        /* \"#utility.yul\":2306:2377   */\n      tag_163\n        /* \"#utility.yul\":2374:2375   */\n      0x00\n        /* \"#utility.yul\":2363:2372   */\n      dup4\n        /* \"#utility.yul\":2359:2376   */\n      add\n        /* \"#utility.yul\":2350:2356   */\n      dup5\n        /* \"#utility.yul\":2306:2377   */\n      tag_104\n      jump\t// in\n    tag_163:\n        /* \"#utility.yul\":2162:2384   */\n      swap3\n      swap2\n      pop\n      pop\n      jump\t// out\n        /* \"#utility.yul\":2390:2559   */\n    tag_105:\n        /* \"#utility.yul\":2474:2485   */\n      0x00\n        /* \"#utility.yul\":2508:2514   */\n      dup3\n        /* \"#utility.yul\":2503:2506   */\n      dup3\n        /* \"#utility.yul\":2496:2515   */\n      mstore\n        /* \"#utility.yul\":2548:2552   */\n      0x20\n        /* \"#utility.yul\":2543:2546   */\n      dup3\n        /* \"#utility.yul\":2539:2553   */\n      add\n        /* \"#utility.yul\":2524:2553   */\n      swap1\n      pop\n        /* \"#utility.yul\":2390:2559   */\n      swap3\n      swap2\n      pop\n      pop\n      jump\t// out\n        /* \"#utility.yul\":2565:2732   */\n    tag_106:\n        /* \"#utility.yul\":2705:2724   */\n      0x7461726765742069732072656163686564000000000000000000000000000000\n        /* \"#utility.yul\":2701:2702   */\n      0x00\n        /* \"#utility.yul\":2693:2699   */\n      dup3\n        /* \"#utility.yul\":2689:2703   */\n      add\n        /* \"#utility.yul\":2682:2725   */\n      mstore\n        /* \"#utility.yul\":2565:2732   */\n      pop\n      jump\t// out\n        /* \"#utility.yul\":2738:3104   */\n    tag_107:\n        /* \"#utility.yul\":2880:2883   */\n      0x00\n        /* \"#utility.yul\":2901:2968   */\n      tag_167\n        /* \"#utility.yul\":2965:2967   */\n      0x11\n        /* \"#utility.yul\":2960:2963   */\n      dup4\n        /* \"#utility.yul\":2901:2968   */\n      tag_105\n      jump\t// in\n    tag_167:\n        /* \"#utility.yul\":2894:2968   */\n      swap2\n      pop\n        /* \"#utility.yul\":2977:3070   */\n      tag_168\n        /* \"#utility.yul\":3066:3069   */\n      dup3\n        /* \"#utility.yul\":2977:3070   */\n      tag_106\n      jump\t// in\n    tag_168:\n        /* \"#utility.yul\":3095:3097   */\n      0x20\n        /* \"#utility.yul\":3090:3093   */\n      dup3\n        /* \"#utility.yul\":3086:3098   */\n      add\n        /* \"#utility.yul\":3079:3098   */\n      swap1\n      pop\n        /* \"#utility.yul\":2738:3104   */\n      swap2\n      swap1\n      pop\n      jump\t// out\n        /* \"#utility.yul\":3110:3529   */\n    tag_43:\n        /* \"#utility.yul\":3276:3280   */\n      0x00\n        /* \"#utility.yul\":3314:3316   */\n      0x20\n        /* \"#utility.yul\":3303:3312   */\n      dup3\n        /* \"#utility.yul\":3299:3317   */\n      add\n        /* \"#utility.yul\":3291:3317   */\n      swap1\n      pop\n        /* \"#utility.yul\":3363:3372   */\n      dup2\n        /* \"#utility.yul\":3357:3361   */\n      dup2\n        /* \"#utility.yul\":3353:3373   */\n      sub\n        /* \"#utility.yul\":3349:3350   */\n      0x00\n        /* \"#utility.yul\":3338:3347   */\n      dup4\n        /* \"#utility.yul\":3334:3351   */\n      add\n        /* \"#utility.yul\":3327:3374   */\n      mstore\n        /* \"#utility.yul\":3391:3522   */\n      tag_170\n        /* \"#utility.yul\":3517:3521   */\n      dup2\n        /* \"#utility.yul\":3391:3522   */\n      tag_107\n      jump\t// in\n    tag_170:\n        /* \"#utility.yul\":3383:3522   */\n      swap1\n      pop\n        /* \"#utility.yul\":3110:3529   */\n      swap2\n      swap1\n      pop\n      jump\t// out\n        /* \"#utility.yul\":3535:3715   */\n    tag_108:\n        /* \"#utility.yul\":3583:3660   */\n      0x4e487b7100000000000000000000000000000000000000000000000000000000\n        /* \"#utility.yul\":3580:3581   */\n      0x00\n        /* \"#utility.yul\":3573:3661   */\n      mstore\n        /* \"#utility.yul\":3680:3684   */\n      0x11\n        /* \"#utility.yul\":3677:3678   */\n      0x04\n        /* \"#utility.yul\":3670:3685   */\n      mstore\n        /* \"#utility.yul\":3704:3708   */\n      0x24\n        /* \"#utility.yul\":3701:3702   */\n      0x00\n        /* \"#utility.yul\":3694:3709   */\n      revert\n        /* \"#utility.yul\":3721:3912   */\n    tag_45:\n        /* \"#utility.yul\":3761:3764   */\n      0x00\n        /* \"#utility.yul\":3780:3800   */\n      tag_173\n        /* \"#utility.yul\":3798:3799   */\n      dup3\n        /* \"#utility.yul\":3780:3800   */\n      tag_103\n      jump\t// in\n    tag_173:\n        /* \"#utility.yul\":3775:3800   */\n      swap2\n      pop\n        /* \"#utility.yul\":3814:3834   */\n      tag_174\n        /* \"#utility.yul\":3832:3833   */\n      dup4\n        /* \"#utility.yul\":3814:3834   */\n      tag_103\n      jump\t// in\n    tag_174:\n        /* \"#utility.yul\":3809:3834   */\n      swap3\n      pop\n        /* \"#utility.yul\":3857:3858   */\n      dup3\n        /* \"#utility.yul\":3854:3855   */\n      dup3\n        /* \"#utility.yul\":3850:3859   */\n      add\n        /* \"#utility.yul\":3843:3859   */\n      swap1\n      pop\n        /* \"#utility.yul\":3878:3881   */\n      dup1\n        /* \"#utility.yul\":3875:3876   */\n      dup3\n        /* \"#utility.yul\":3872:3882   */\n      gt\n        /* \"#utility.yul\":3869:3905   */\n      iszero\n      tag_175\n      jumpi\n        /* \"#utility.yul\":3885:3903   */\n      tag_176\n      tag_108\n      jump\t// in\n    tag_176:\n        /* \"#utility.yul\":3869:3905   */\n    tag_175:\n        /* \"#utility.yul\":3721:3912   */\n      swap3\n      swap2\n      pop\n      pop\n      jump\t// out\n        /* \"#utility.yul\":3918:4032   */\n    tag_109:\n      pop\n      jump\t// out\n        /* \"#utility.yul\":4038:4402   */\n    tag_110:\n        /* \"#utility.yul\":4180:4183   */\n      0x00\n        /* \"#utility.yul\":4201:4267   */\n      tag_179\n        /* \"#utility.yul\":4265:4266   */\n      0x00\n        /* \"#utility.yul\":4260:4263   */\n      dup4\n        /* \"#utility.yul\":4201:4267   */\n      tag_105\n      jump\t// in\n    tag_179:\n        /* \"#utility.yul\":4194:4267   */\n      swap2\n      pop\n        /* \"#utility.yul\":4276:4369   */\n      tag_180\n        /* \"#utility.yul\":4365:4368   */\n      dup3\n        /* \"#utility.yul\":4276:4369   */\n      tag_109\n      jump\t// in\n    tag_180:\n        /* \"#utility.yul\":4394:4395   */\n      0x00\n        /* \"#utility.yul\":4389:4392   */\n      dup3\n        /* \"#utility.yul\":4385:4396   */\n      add\n        /* \"#utility.yul\":4378:4396   */\n      swap1\n      pop\n        /* \"#utility.yul\":4038:4402   */\n      swap2\n      swap1\n      pop\n      jump\t// out\n        /* \"#utility.yul\":4408:4827   */\n    tag_48:\n        /* \"#utility.yul\":4574:4578   */\n      0x00\n        /* \"#utility.yul\":4612:4614   */\n      0x20\n        /* \"#utility.yul\":4601:4610   */\n      dup3\n        /* \"#utility.yul\":4597:4615   */\n      add\n        /* \"#utility.yul\":4589:4615   */\n      swap1\n      pop\n        /* \"#utility.yul\":4661:4670   */\n      dup2\n        /* \"#utility.yul\":4655:4659   */\n      dup2\n        /* \"#utility.yul\":4651:4671   */\n      sub\n        /* \"#utility.yul\":4647:4648   */\n      0x00\n        /* \"#utility.yul\":4636:4645   */\n      dup4\n        /* \"#utility.yul\":4632:4649   */\n      add\n        /* \"#utility.yul\":4625:4672   */\n      mstore\n        /* \"#utility.yul\":4689:4820   */\n      tag_182\n        /* \"#utility.yul\":4815:4819   */\n      dup2\n        /* \"#utility.yul\":4689:4820   */\n      tag_110\n      jump\t// in\n    tag_182:\n        /* \"#utility.yul\":4681:4820   */\n      swap1\n      pop\n        /* \"#utility.yul\":4408:4827   */\n      swap2\n      swap1\n      pop\n      jump\t// out\n        /* \"#utility.yul\":4833:5007   */\n    tag_111:\n        /* \"#utility.yul\":4973:4999   */\n      0x7468657265206973206e6f2066756e6420666f7220796f750000000000000000\n        /* \"#utility.yul\":4969:4970   */\n      0x00\n        /* \"#utility.yul\":4961:4967   */\n      dup3\n        /* \"#utility.yul\":4957:4971   */\n      add\n        /* \"#utility.yul\":4950:5000   */\n      mstore\n        /* \"#utility.yul\":4833:5007   */\n      pop\n      jump\t// out\n        /* \"#utility.yul\":5013:5379   */\n    tag_112:\n        /* \"#utility.yul\":5155:5158   */\n      0x00\n        /* \"#utility.yul\":5176:5243   */\n      tag_185\n        /* \"#utility.yul\":5240:5242   */\n      0x18\n        /* \"#utility.yul\":5235:5238   */\n      dup4\n        /* \"#utility.yul\":5176:5243   */\n      tag_105\n      jump\t// in\n    tag_185:\n        /* \"#utility.yul\":5169:5243   */\n      swap2\n      pop\n        /* \"#utility.yul\":5252:5345   */\n      tag_186\n        /* \"#utility.yul\":5341:5344   */\n      dup3\n        /* \"#utility.yul\":5252:5345   */\n      tag_111\n      jump\t// in\n    tag_186:\n        /* \"#utility.yul\":5370:5372   */\n      0x20\n        /* \"#utility.yul\":5365:5368   */\n      dup3\n        /* \"#utility.yul\":5361:5373   */\n      add\n        /* \"#utility.yul\":5354:5373   */\n      swap1\n      pop\n        /* \"#utility.yul\":5013:5379   */\n      swap2\n      swap1\n      pop\n      jump\t// out\n        /* \"#utility.yul\":5385:5804   */\n    tag_52:\n        /* \"#utility.yul\":5551:5555   */\n      0x00\n        /* \"#utility.yul\":5589:5591   */\n      0x20\n        /* \"#utility.yul\":5578:5587   */\n      dup3\n        /* \"#utility.yul\":5574:5592   */\n      add\n        /* \"#utility.yul\":5566:5592   */\n      swap1\n      pop\n        /* \"#utility.yul\":5638:5647   */\n      dup2\n        /* \"#utility.yul\":5632:5636   */\n      dup2\n        /* \"#utility.yul\":5628:5648   */\n      sub\n        /* \"#utility.yul\":5624:5625   */\n      0x00\n        /* \"#utility.yul\":5613:5622   */\n      dup4\n        /* \"#utility.yul\":5609:5626   */\n      add\n        /* \"#utility.yul\":5602:5649   */\n      mstore\n        /* \"#utility.yul\":5666:5797   */\n      tag_188\n        /* \"#utility.yul\":5792:5796   */\n      dup2\n        /* \"#utility.yul\":5666:5797   */\n      tag_112\n      jump\t// in\n    tag_188:\n        /* \"#utility.yul\":5658:5797   */\n      swap1\n      pop\n        /* \"#utility.yul\":5385:5804   */\n      swap2\n      swap1\n      pop\n      jump\t// out\n        /* \"#utility.yul\":5810:5957   */\n    tag_113:\n        /* \"#utility.yul\":5911:5922   */\n      0x00\n        /* \"#utility.yul\":5948:5951   */\n      dup2\n        /* \"#utility.yul\":5933:5951   */\n      swap1\n      pop\n        /* \"#utility.yul\":5810:5957   */\n      swap3\n      swap2\n      pop\n      pop\n      jump\t// out\n        /* \"#utility.yul\":5963:6361   */\n    tag_114:\n        /* \"#utility.yul\":6122:6125   */\n      0x00\n        /* \"#utility.yul\":6143:6226   */\n      tag_191\n        /* \"#utility.yul\":6224:6225   */\n      0x00\n        /* \"#utility.yul\":6219:6222   */\n      dup4\n        /* \"#utility.yul\":6143:6226   */\n      tag_113\n      jump\t// in\n    tag_191:\n        /* \"#utility.yul\":6136:6226   */\n      swap2\n      pop\n        /* \"#utility.yul\":6235:6328   */\n      tag_192\n        /* \"#utility.yul\":6324:6327   */\n      dup3\n        /* \"#utility.yul\":6235:6328   */\n      tag_109\n      jump\t// in\n    tag_192:\n        /* \"#utility.yul\":6353:6354   */\n      0x00\n        /* \"#utility.yul\":6348:6351   */\n      dup3\n        /* \"#utility.yul\":6344:6355   */\n      add\n        /* \"#utility.yul\":6337:6355   */\n      swap1\n      pop\n        /* \"#utility.yul\":5963:6361   */\n      swap2\n      swap1\n      pop\n      jump\t// out\n        /* \"#utility.yul\":6367:6746   */\n    tag_54:\n        /* \"#utility.yul\":6551:6554   */\n      0x00\n        /* \"#utility.yul\":6573:6720   */\n      tag_194\n        /* \"#utility.yul\":6716:6719   */\n      dup3\n        /* \"#utility.yul\":6573:6720   */\n      tag_114\n      jump\t// in\n    tag_194:\n        /* \"#utility.yul\":6566:6720   */\n      swap2\n      pop\n        /* \"#utility.yul\":6737:6740   */\n      dup2\n        /* \"#utility.yul\":6730:6740   */\n      swap1\n      pop\n        /* \"#utility.yul\":6367:6746   */\n      swap2\n      swap1\n      pop\n      jump\t// out\n        /* \"#utility.yul\":6752:6920   */\n    tag_115:\n        /* \"#utility.yul\":6892:6912   */\n      0x7472616e73666572206973206661696c65640000000000000000000000000000\n        /* \"#utility.yul\":6888:6889   */\n      0x00\n        /* \"#utility.yul\":6880:6886   */\n      dup3\n        /* \"#utility.yul\":6876:6890   */\n      add\n        /* \"#utility.yul\":6869:6913   */\n      mstore\n        /* \"#utility.yul\":6752:6920   */\n      pop\n      jump\t// out\n        /* \"#utility.yul\":6926:7292   */\n    tag_116:\n        /* \"#utility.yul\":7068:7071   */\n      0x00\n        /* \"#utility.yul\":7089:7156   */\n      tag_197\n        /* \"#utility.yul\":7153:7155   */\n      0x12\n        /* \"#utility.yul\":7148:7151   */\n      dup4\n        /* \"#utility.yul\":7089:7156   */\n      tag_105\n      jump\t// in\n    tag_197:\n        /* \"#utility.yul\":7082:7156   */\n      swap2\n      pop\n        /* \"#utility.yul\":7165:7258   */\n      tag_198\n        /* \"#utility.yul\":7254:7257   */\n      dup3\n        /* \"#utility.yul\":7165:7258   */\n      tag_115\n      jump\t// in\n    tag_198:\n        /* \"#utility.yul\":7283:7285   */\n      0x20\n        /* \"#utility.yul\":7278:7281   */\n      dup3\n        /* \"#utility.yul\":7274:7286   */\n      add\n        /* \"#utility.yul\":7267:7286   */\n      swap1\n      pop\n        /* \"#utility.yul\":6926:7292   */\n      swap2\n      swap1\n      pop\n      jump\t// out\n        /* \"#utility.yul\":7298:7717   */\n    tag_60:\n        /* \"#utility.yul\":7464:7468   */\n      0x00\n        /* \"#utility.yul\":7502:7504   */\n      0x20\n        /* \"#utility.yul\":7491:7500   */\n      dup3\n        /* \"#utility.yul\":7487:7505   */\n      add\n        /* \"#utility.yul\":7479:7505   */\n      swap1\n      pop\n        /* \"#utility.yul\":7551:7560   */\n      dup2\n        /* \"#utility.yul\":7545:7549   */\n      dup2\n        /* \"#utility.yul\":7541:7561   */\n      sub\n        /* \"#utility.yul\":7537:7538   */\n      0x00\n        /* \"#utility.yul\":7526:7535   */\n      dup4\n        /* \"#utility.yul\":7522:7539   */\n      add\n        /* \"#utility.yul\":7515:7562   */\n      mstore\n        /* \"#utility.yul\":7579:7710   */\n      tag_200\n        /* \"#utility.yul\":7705:7709   */\n      dup2\n        /* \"#utility.yul\":7579:7710   */\n      tag_116\n      jump\t// in\n    tag_200:\n        /* \"#utility.yul\":7571:7710   */\n      swap1\n      pop\n        /* \"#utility.yul\":7298:7717   */\n      swap2\n      swap1\n      pop\n      jump\t// out\n        /* \"#utility.yul\":7723:7898   */\n    tag_117:\n        /* \"#utility.yul\":7863:7890   */\n      0x796f7520646f6e27742068617665207065726d697373696f6e00000000000000\n        /* \"#utility.yul\":7859:7860   */\n      0x00\n        /* \"#utility.yul\":7851:7857   */\n      dup3\n        /* \"#utility.yul\":7847:7861   */\n      add\n        /* \"#utility.yul\":7840:7891   */\n      mstore\n        /* \"#utility.yul\":7723:7898   */\n      pop\n      jump\t// out\n        /* \"#utility.yul\":7904:8270   */\n    tag_118:\n        /* \"#utility.yul\":8046:8049   */\n      0x00\n        /* \"#utility.yul\":8067:8134   */\n      tag_203\n        /* \"#utility.yul\":8131:8133   */\n      0x19\n        /* \"#utility.yul\":8126:8129   */\n      dup4\n        /* \"#utility.yul\":8067:8134   */\n      tag_105\n      jump\t// in\n    tag_203:\n        /* \"#utility.yul\":8060:8134   */\n      swap2\n      pop\n        /* \"#utility.yul\":8143:8236   */\n      tag_204\n        /* \"#utility.yul\":8232:8235   */\n      dup3\n        /* \"#utility.yul\":8143:8236   */\n      tag_117\n      jump\t// in\n    tag_204:\n        /* \"#utility.yul\":8261:8263   */\n      0x20\n        /* \"#utility.yul\":8256:8259   */\n      dup3\n        /* \"#utility.yul\":8252:8264   */\n      add\n        /* \"#utility.yul\":8245:8264   */\n      swap1\n      pop\n        /* \"#utility.yul\":7904:8270   */\n      swap2\n      swap1\n      pop\n      jump\t// out\n        /* \"#utility.yul\":8276:8695   */\n    tag_64:\n        /* \"#utility.yul\":8442:8446   */\n      0x00\n        /* \"#utility.yul\":8480:8482   */\n      0x20\n        /* \"#utility.yul\":8469:8478   */\n      dup3\n        /* \"#utility.yul\":8465:8483   */\n      add\n        /* \"#utility.yul\":8457:8483   */\n      swap1\n      pop\n        /* \"#utility.yul\":8529:8538   */\n      dup2\n        /* \"#utility.yul\":8523:8527   */\n      dup2\n        /* \"#utility.yul\":8519:8539   */\n      sub\n        /* \"#utility.yul\":8515:8516   */\n      0x00\n        /* \"#utility.yul\":8504:8513   */\n      dup4\n        /* \"#utility.yul\":8500:8517   */\n      add\n        /* \"#utility.yul\":8493:8540   */\n      mstore\n        /* \"#utility.yul\":8557:8688   */\n      tag_206\n        /* \"#utility.yul\":8683:8687   */\n      dup2\n        /* \"#utility.yul\":8557:8688   */\n      tag_118\n      jump\t// in\n    tag_206:\n        /* \"#utility.yul\":8549:8688   */\n      swap1\n      pop\n        /* \"#utility.yul\":8276:8695   */\n      swap2\n      swap1\n      pop\n      jump\t// out\n        /* \"#utility.yul\":8701:8872   */\n    tag_119:\n        /* \"#utility.yul\":8841:8864   */\n      0x746172676574206973206e6f7420726561636865640000000000000000000000\n        /* \"#utility.yul\":8837:8838   */\n      0x00\n        /* \"#utility.yul\":8829:8835   */\n      dup3\n        /* \"#utility.yul\":8825:8839   */\n      add\n        /* \"#utility.yul\":8818:8865   */\n      mstore\n        /* \"#utility.yul\":8701:8872   */\n      pop\n      jump\t// out\n        /* \"#utility.yul\":8878:9244   */\n    tag_120:\n        /* \"#utility.yul\":9020:9023   */\n      0x00\n        /* \"#utility.yul\":9041:9108   */\n      tag_209\n        /* \"#utility.yul\":9105:9107   */\n      0x15\n        /* \"#utility.yul\":9100:9103   */\n      dup4\n        /* \"#utility.yul\":9041:9108   */\n      tag_105\n      jump\t// in\n    tag_209:\n        /* \"#utility.yul\":9034:9108   */\n      swap2\n      pop\n        /* \"#utility.yul\":9117:9210   */\n      tag_210\n        /* \"#utility.yul\":9206:9209   */\n      dup3\n        /* \"#utility.yul\":9117:9210   */\n      tag_119\n      jump\t// in\n    tag_210:\n        /* \"#utility.yul\":9235:9237   */\n      0x20\n        /* \"#utility.yul\":9230:9233   */\n      dup3\n        /* \"#utility.yul\":9226:9238   */\n      add\n        /* \"#utility.yul\":9219:9238   */\n      swap1\n      pop\n        /* \"#utility.yul\":8878:9244   */\n      swap2\n      swap1\n      pop\n      jump\t// out\n        /* \"#utility.yul\":9250:9669   */\n    tag_72:\n        /* \"#utility.yul\":9416:9420   */\n      0x00\n        /* \"#utility.yul\":9454:9456   */\n      0x20\n        /* \"#utility.yul\":9443:9452   */\n      dup3\n        /* \"#utility.yul\":9439:9457   */\n      add\n        /* \"#utility.yul\":9431:9457   */\n      swap1\n      pop\n        /* \"#utility.yul\":9503:9512   */\n      dup2\n        /* \"#utility.yul\":9497:9501   */\n      dup2\n        /* \"#utility.yul\":9493:9513   */\n      sub\n        /* \"#utility.yul\":9489:9490   */\n      0x00\n        /* \"#utility.yul\":9478:9487   */\n      dup4\n        /* \"#utility.yul\":9474:9491   */\n      add\n        /* \"#utility.yul\":9467:9514   */\n      mstore\n        /* \"#utility.yul\":9531:9662   */\n      tag_212\n        /* \"#utility.yul\":9657:9661   */\n      dup2\n        /* \"#utility.yul\":9531:9662   */\n      tag_120\n      jump\t// in\n    tag_212:\n        /* \"#utility.yul\":9523:9662   */\n      swap1\n      pop\n        /* \"#utility.yul\":9250:9669   */\n      swap2\n      swap1\n      pop\n      jump\t// out\n        /* \"#utility.yul\":9675:9845   */\n    tag_121:\n        /* \"#utility.yul\":9815:9837   */\n      0x77696e646f77206973206e6f7420636c6f736564000000000000000000000000\n        /* \"#utility.yul\":9811:9812   */\n      0x00\n        /* \"#utility.yul\":9803:9809   */\n      dup3\n        /* \"#utility.yul\":9799:9813   */\n      add\n        /* \"#utility.yul\":9792:9838   */\n      mstore\n        /* \"#utility.yul\":9675:9845   */\n      pop\n      jump\t// out\n        /* \"#utility.yul\":9851:10217   */\n    tag_122:\n        /* \"#utility.yul\":9993:9996   */\n      0x00\n        /* \"#utility.yul\":10014:10081   */\n      tag_215\n        /* \"#utility.yul\":10078:10080   */\n      0x14\n        /* \"#utility.yul\":10073:10076   */\n      dup4\n        /* \"#utility.yul\":10014:10081   */\n      tag_105\n      jump\t// in\n    tag_215:\n        /* \"#utility.yul\":10007:10081   */\n      swap2\n      pop\n        /* \"#utility.yul\":10090:10183   */\n      tag_216\n        /* \"#utility.yul\":10179:10182   */\n      dup3\n        /* \"#utility.yul\":10090:10183   */\n      tag_121\n      jump\t// in\n    tag_216:\n        /* \"#utility.yul\":10208:10210   */\n      0x20\n        /* \"#utility.yul\":10203:10206   */\n      dup3\n        /* \"#utility.yul\":10199:10211   */\n      add\n        /* \"#utility.yul\":10192:10211   */\n      swap1\n      pop\n        /* \"#utility.yul\":9851:10217   */\n      swap2\n      swap1\n      pop\n      jump\t// out\n        /* \"#utility.yul\":10223:10642   */\n    tag_76:\n        /* \"#utility.yul\":10389:10393   */\n      0x00\n        /* \"#utility.yul\":10427:10429   */\n      0x20\n        /* \"#utility.yul\":10416:10425   */\n      dup3\n        /* \"#utility.yul\":10412:10430   */\n      add\n        /* \"#utility.yul\":10404:10430   */\n      swap1\n      pop\n        /* \"#utility.yul\":10476:10485   */\n      dup2\n        /* \"#utility.yul\":10470:10474   */\n      dup2\n        /* \"#utility.yul\":10466:10486   */\n      sub\n        /* \"#utility.yul\":10462:10463   */\n      0x00\n        /* \"#utility.yul\":10451:10460   */\n      dup4\n        /* \"#utility.yul\":10447:10464   */\n      add\n        /* \"#utility.yul\":10440:10487   */\n      mstore\n        /* \"#utility.yul\":10504:10635   */\n      tag_218\n        /* \"#utility.yul\":10630:10634   */\n      dup2\n        /* \"#utility.yul\":10504:10635   */\n      tag_122\n      jump\t// in\n    tag_218:\n        /* \"#utility.yul\":10496:10635   */\n      swap1\n      pop\n        /* \"#utility.yul\":10223:10642   */\n      swap2\n      swap1\n      pop\n      jump\t// out\n        /* \"#utility.yul\":10648:10807   */\n    tag_123:\n        /* \"#utility.yul\":10788:10799   */\n      0x6974277320746f6f200000000000000000000000000000000000000000000000\n        /* \"#utility.yul\":10784:10785   */\n      0x00\n        /* \"#utility.yul\":10776:10782   */\n      dup3\n        /* \"#utility.yul\":10772:10786   */\n      add\n        /* \"#utility.yul\":10765:10800   */\n      mstore\n        /* \"#utility.yul\":10648:10807   */\n      pop\n      jump\t// out\n        /* \"#utility.yul\":10813:11178   */\n    tag_124:\n        /* \"#utility.yul\":10955:10958   */\n      0x00\n        /* \"#utility.yul\":10976:11042   */\n      tag_221\n        /* \"#utility.yul\":11040:11041   */\n      0x09\n        /* \"#utility.yul\":11035:11038   */\n      dup4\n        /* \"#utility.yul\":10976:11042   */\n      tag_105\n      jump\t// in\n    tag_221:\n        /* \"#utility.yul\":10969:11042   */\n      swap2\n      pop\n        /* \"#utility.yul\":11051:11144   */\n      tag_222\n        /* \"#utility.yul\":11140:11143   */\n      dup3\n        /* \"#utility.yul\":11051:11144   */\n      tag_123\n      jump\t// in\n    tag_222:\n        /* \"#utility.yul\":11169:11171   */\n      0x20\n        /* \"#utility.yul\":11164:11167   */\n      dup3\n        /* \"#utility.yul\":11160:11172   */\n      add\n        /* \"#utility.yul\":11153:11172   */\n      swap1\n      pop\n        /* \"#utility.yul\":10813:11178   */\n      swap2\n      swap1\n      pop\n      jump\t// out\n        /* \"#utility.yul\":11184:11603   */\n    tag_82:\n        /* \"#utility.yul\":11350:11354   */\n      0x00\n        /* \"#utility.yul\":11388:11390   */\n      0x20\n        /* \"#utility.yul\":11377:11386   */\n      dup3\n        /* \"#utility.yul\":11373:11391   */\n      add\n        /* \"#utility.yul\":11365:11391   */\n      swap1\n      pop\n        /* \"#utility.yul\":11437:11446   */\n      dup2\n        /* \"#utility.yul\":11431:11435   */\n      dup2\n        /* \"#utility.yul\":11427:11447   */\n      sub\n        /* \"#utility.yul\":11423:11424   */\n      0x00\n        /* \"#utility.yul\":11412:11421   */\n      dup4\n        /* \"#utility.yul\":11408:11425   */\n      add\n        /* \"#utility.yul\":11401:11448   */\n      mstore\n        /* \"#utility.yul\":11465:11596   */\n      tag_224\n        /* \"#utility.yul\":11591:11595   */\n      dup2\n        /* \"#utility.yul\":11465:11596   */\n      tag_124\n      jump\t// in\n    tag_224:\n        /* \"#utility.yul\":11457:11596   */\n      swap1\n      pop\n        /* \"#utility.yul\":11184:11603   */\n      swap2\n      swap1\n      pop\n      jump\t// out\n        /* \"#utility.yul\":11609:11775   */\n    tag_125:\n        /* \"#utility.yul\":11749:11767   */\n      0x77696e646f7720697320636c6f73656400000000000000000000000000000000\n        /* \"#utility.yul\":11745:11746   */\n      0x00\n        /* \"#utility.yul\":11737:11743   */\n      dup3\n        /* \"#utility.yul\":11733:11747   */\n      add\n        /* \"#utility.yul\":11726:11768   */\n      mstore\n        /* \"#utility.yul\":11609:11775   */\n      pop\n      jump\t// out\n        /* \"#utility.yul\":11781:12147   */\n    tag_126:\n        /* \"#utility.yul\":11923:11926   */\n      0x00\n        /* \"#utility.yul\":11944:12011   */\n      tag_227\n        /* \"#utility.yul\":12008:12010   */\n      0x10\n        /* \"#utility.yul\":12003:12006   */\n      dup4\n        /* \"#utility.yul\":11944:12011   */\n      tag_105\n      jump\t// in\n    tag_227:\n        /* \"#utility.yul\":11937:12011   */\n      swap2\n      pop\n        /* \"#utility.yul\":12020:12113   */\n      tag_228\n        /* \"#utility.yul\":12109:12112   */\n      dup3\n        /* \"#utility.yul\":12020:12113   */\n      tag_125\n      jump\t// in\n    tag_228:\n        /* \"#utility.yul\":12138:12140   */\n      0x20\n        /* \"#utility.yul\":12133:12136   */\n      dup3\n        /* \"#utility.yul\":12129:12141   */\n      add\n        /* \"#utility.yul\":12122:12141   */\n      swap1\n      pop\n        /* \"#utility.yul\":11781:12147   */\n      swap2\n      swap1\n      pop\n      jump\t// out\n        /* \"#utility.yul\":12153:12572   */\n    tag_86:\n        /* \"#utility.yul\":12319:12323   */\n      0x00\n        /* \"#utility.yul\":12357:12359   */\n      0x20\n        /* \"#utility.yul\":12346:12355   */\n      dup3\n        /* \"#utility.yul\":12342:12360   */\n      add\n        /* \"#utility.yul\":12334:12360   */\n      swap1\n      pop\n        /* \"#utility.yul\":12406:12415   */\n      dup2\n        /* \"#utility.yul\":12400:12404   */\n      dup2\n        /* \"#utility.yul\":12396:12416   */\n      sub\n        /* \"#utility.yul\":12392:12393   */\n      0x00\n        /* \"#utility.yul\":12381:12390   */\n      dup4\n        /* \"#utility.yul\":12377:12394   */\n      add\n        /* \"#utility.yul\":12370:12417   */\n      mstore\n        /* \"#utility.yul\":12434:12565   */\n      tag_230\n        /* \"#utility.yul\":12560:12564   */\n      dup2\n        /* \"#utility.yul\":12434:12565   */\n      tag_126\n      jump\t// in\n    tag_230:\n        /* \"#utility.yul\":12426:12565   */\n      swap1\n      pop\n        /* \"#utility.yul\":12153:12572   */\n      swap2\n      swap1\n      pop\n      jump\t// out\n        /* \"#utility.yul\":12578:12683   */\n    tag_127:\n        /* \"#utility.yul\":12614:12621   */\n      0x00\n        /* \"#utility.yul\":12654:12676   */\n      0xffffffffffffffffffff\n        /* \"#utility.yul\":12647:12652   */\n      dup3\n        /* \"#utility.yul\":12643:12677   */\n      and\n        /* \"#utility.yul\":12632:12677   */\n      swap1\n      pop\n        /* \"#utility.yul\":12578:12683   */\n      swap2\n      swap1\n      pop\n      jump\t// out\n        /* \"#utility.yul\":12689:12809   */\n    tag_128:\n        /* \"#utility.yul\":12761:12784   */\n      tag_233\n        /* \"#utility.yul\":12778:12783   */\n      dup2\n        /* \"#utility.yul\":12761:12784   */\n      tag_127\n      jump\t// in\n    tag_233:\n        /* \"#utility.yul\":12754:12759   */\n      dup2\n        /* \"#utility.yul\":12751:12785   */\n      eq\n        /* \"#utility.yul\":12741:12803   */\n      tag_234\n      jumpi\n        /* \"#utility.yul\":12799:12800   */\n      0x00\n        /* \"#utility.yul\":12796:12797   */\n      0x00\n        /* \"#utility.yul\":12789:12801   */\n      revert\n        /* \"#utility.yul\":12741:12803   */\n    tag_234:\n        /* \"#utility.yul\":12689:12809   */\n      pop\n      jump\t// out\n        /* \"#utility.yul\":12815:12956   */\n    tag_129:\n        /* \"#utility.yul\":12871:12876   */\n      0x00\n        /* \"#utility.yul\":12902:12908   */\n      dup2\n        /* \"#utility.yul\":12896:12909   */\n      mload\n        /* \"#utility.yul\":12887:12909   */\n      swap1\n      pop\n        /* \"#utility.yul\":12918:12950   */\n      tag_236\n        /* \"#utility.yul\":12944:12949   */\n      dup2\n        /* \"#utility.yul\":12918:12950   */\n      tag_128\n      jump\t// in\n    tag_236:\n        /* \"#utility.yul\":12815:12956   */\n      swap3\n      swap2\n      pop\n      pop\n      jump\t// out\n        /* \"#utility.yul\":12962:13082   */\n    tag_130:\n        /* \"#utility.yul\":13034:13057   */\n      tag_238\n        /* \"#utility.yul\":13051:13056   */\n      dup2\n        /* \"#utility.yul\":13034:13057   */\n      tag_101\n      jump\t// in\n    tag_238:\n        /* \"#utility.yul\":13027:13032   */\n      dup2\n        /* \"#utility.yul\":13024:13058   */\n      eq\n        /* \"#utility.yul\":13014:13076   */\n      tag_239\n      jumpi\n        /* \"#utility.yul\":13072:13073   */\n      0x00\n        /* \"#utility.yul\":13069:13070   */\n      0x00\n        /* \"#utility.yul\":13062:13074   */\n      revert\n        /* \"#utility.yul\":13014:13076   */\n    tag_239:\n        /* \"#utility.yul\":12962:13082   */\n      pop\n      jump\t// out\n        /* \"#utility.yul\":13088:13229   */\n    tag_131:\n        /* \"#utility.yul\":13144:13149   */\n      0x00\n        /* \"#utility.yul\":13175:13181   */\n      dup2\n        /* \"#utility.yul\":13169:13182   */\n      mload\n        /* \"#utility.yul\":13160:13182   */\n      swap1\n      pop\n        /* \"#utility.yul\":13191:13223   */\n      tag_241\n        /* \"#utility.yul\":13217:13222   */\n      dup2\n        /* \"#utility.yul\":13191:13223   */\n      tag_130\n      jump\t// in\n    tag_241:\n        /* \"#utility.yul\":13088:13229   */\n      swap3\n      swap2\n      pop\n      pop\n      jump\t// out\n        /* \"#utility.yul\":13235:13357   */\n    tag_132:\n        /* \"#utility.yul\":13308:13332   */\n      tag_243\n        /* \"#utility.yul\":13326:13331   */\n      dup2\n        /* \"#utility.yul\":13308:13332   */\n      tag_103\n      jump\t// in\n    tag_243:\n        /* \"#utility.yul\":13301:13306   */\n      dup2\n        /* \"#utility.yul\":13298:13333   */\n      eq\n        /* \"#utility.yul\":13288:13351   */\n      tag_244\n      jumpi\n        /* \"#utility.yul\":13347:13348   */\n      0x00\n        /* \"#utility.yul\":13344:13345   */\n      0x00\n        /* \"#utility.yul\":13337:13349   */\n      revert\n        /* \"#utility.yul\":13288:13351   */\n    tag_244:\n        /* \"#utility.yul\":13235:13357   */\n      pop\n      jump\t// out\n        /* \"#utility.yul\":13363:13506   */\n    tag_133:\n        /* \"#utility.yul\":13420:13425   */\n      0x00\n        /* \"#utility.yul\":13451:13457   */\n      dup2\n        /* \"#utility.yul\":13445:13458   */\n      mload\n        /* \"#utility.yul\":13436:13458   */\n      swap1\n      pop\n        /* \"#utility.yul\":13467:13500   */\n      tag_246\n        /* \"#utility.yul\":13494:13499   */\n      dup2\n        /* \"#utility.yul\":13467:13500   */\n      tag_132\n      jump\t// in\n    tag_246:\n        /* \"#utility.yul\":13363:13506   */\n      swap3\n      swap2\n      pop\n      pop\n      jump\t// out\n        /* \"#utility.yul\":13512:14483   */\n    tag_91:\n        /* \"#utility.yul\":13615:13621   */\n      0x00\n        /* \"#utility.yul\":13623:13629   */\n      0x00\n        /* \"#utility.yul\":13631:13637   */\n      0x00\n        /* \"#utility.yul\":13639:13645   */\n      0x00\n        /* \"#utility.yul\":13647:13653   */\n      0x00\n        /* \"#utility.yul\":13696:13699   */\n      0xa0\n        /* \"#utility.yul\":13684:13693   */\n      dup7\n        /* \"#utility.yul\":13675:13682   */\n      dup9\n        /* \"#utility.yul\":13671:13694   */\n      sub\n        /* \"#utility.yul\":13667:13700   */\n      slt\n        /* \"#utility.yul\":13664:13784   */\n      iszero\n      tag_248\n      jumpi\n        /* \"#utility.yul\":13703:13782   */\n      tag_249\n      tag_97\n      jump\t// in\n    tag_249:\n        /* \"#utility.yul\":13664:13784   */\n    tag_248:\n        /* \"#utility.yul\":13823:13824   */\n      0x00\n        /* \"#utility.yul\":13848:13911   */\n      tag_250\n        /* \"#utility.yul\":13903:13910   */\n      dup9\n        /* \"#utility.yul\":13894:13900   */\n      dup3\n        /* \"#utility.yul\":13883:13892   */\n      dup10\n        /* \"#utility.yul\":13879:13901   */\n      add\n        /* \"#utility.yul\":13848:13911   */\n      tag_129\n      jump\t// in\n    tag_250:\n        /* \"#utility.yul\":13838:13911   */\n      swap6\n      pop\n        /* \"#utility.yul\":13794:13921   */\n      pop\n        /* \"#utility.yul\":13960:13962   */\n      0x20\n        /* \"#utility.yul\":13986:14049   */\n      tag_251\n        /* \"#utility.yul\":14041:14048   */\n      dup9\n        /* \"#utility.yul\":14032:14038   */\n      dup3\n        /* \"#utility.yul\":14021:14030   */\n      dup10\n        /* \"#utility.yul\":14017:14039   */\n      add\n        /* \"#utility.yul\":13986:14049   */\n      tag_131\n      jump\t// in\n    tag_251:\n        /* \"#utility.yul\":13976:14049   */\n      swap5\n      pop\n        /* \"#utility.yul\":13931:14059   */\n      pop\n        /* \"#utility.yul\":14098:14100   */\n      0x40\n        /* \"#utility.yul\":14124:14188   */\n      tag_252\n        /* \"#utility.yul\":14180:14187   */\n      dup9\n        /* \"#utility.yul\":14171:14177   */\n      dup3\n        /* \"#utility.yul\":14160:14169   */\n      dup10\n        /* \"#utility.yul\":14156:14178   */\n      add\n        /* \"#utility.yul\":14124:14188   */\n      tag_133\n      jump\t// in\n    tag_252:\n        /* \"#utility.yul\":14114:14188   */\n      swap4\n      pop\n        /* \"#utility.yul\":14069:14198   */\n      pop\n        /* \"#utility.yul\":14237:14239   */\n      0x60\n        /* \"#utility.yul\":14263:14327   */\n      tag_253\n        /* \"#utility.yul\":14319:14326   */\n      dup9\n        /* \"#utility.yul\":14310:14316   */\n      dup3\n        /* \"#utility.yul\":14299:14308   */\n      dup10\n        /* \"#utility.yul\":14295:14317   */\n      add\n        /* \"#utility.yul\":14263:14327   */\n      tag_133\n      jump\t// in\n    tag_253:\n        /* \"#utility.yul\":14253:14327   */\n      swap3\n      pop\n        /* \"#utility.yul\":14208:14337   */\n      pop\n        /* \"#utility.yul\":14376:14379   */\n      0x80\n        /* \"#utility.yul\":14403:14466   */\n      tag_254\n        /* \"#utility.yul\":14458:14465   */\n      dup9\n        /* \"#utility.yul\":14449:14455   */\n      dup3\n        /* \"#utility.yul\":14438:14447   */\n      dup10\n        /* \"#utility.yul\":14434:14456   */\n      add\n        /* \"#utility.yul\":14403:14466   */\n      tag_129\n      jump\t// in\n    tag_254:\n        /* \"#utility.yul\":14393:14466   */\n      swap2\n      pop\n        /* \"#utility.yul\":14347:14476   */\n      pop\n        /* \"#utility.yul\":13512:14483   */\n      swap3\n      swap6\n      pop\n      swap3\n      swap6\n      swap1\n      swap4\n      pop\n      jump\t// out\n\n    auxdata: 0xa264697066735822122032755c9ea157666355d4445805d6931a0c6f281cb633de1d773f783518e265a564736f6c634300081e0033\n}\n",
				"bytecode": {
					"linkReferences": {},
					"object": "60806040526409502f9000600155348015610018575f5ffd5b50604051610f3b380380610f3b833981810160405281019061003a9190610126565b3360055f6101000a81548173ffffffffffffffffffffffffffffffffffffffff021916908373ffffffffffffffffffffffffffffffffffffffff16021790555060055f9054906101000a900473ffffffffffffffffffffffffffffffffffffffff1660045f6101000a81548173ffffffffffffffffffffffffffffffffffffffff021916908373ffffffffffffffffffffffffffffffffffffffff160217905550426002819055508060038190555050610151565b5f5ffd5b5f819050919050565b610105816100f3565b811461010f575f5ffd5b50565b5f81519050610120816100fc565b92915050565b5f6020828403121561013b5761013a6100ef565b5b5f61014884828501610112565b91505092915050565b610ddd8061015e5f395ff3fe60806040526004361061006f575f3560e01c80638edd6eb61161004d5780638edd6eb6146100db578063b60d4288146100f1578063bea4dfb5146100fb578063dc1f031a146101255761006f565b80631721681c14610073578063590e1ae31461009d5780638863dd1a146100b3575b5f5ffd5b34801561007e575f5ffd5b50610087610161565b604051610094919061079a565b60405180910390f35b3480156100a8575f5ffd5b506100b1610189565b005b3480156100be575f5ffd5b506100d960048036038101906100d491906107e1565b61035c565b005b3480156100e6575f5ffd5b506100ef61042e565b005b6100f961059a565b005b348015610106575f5ffd5b5061010f610679565b60405161011c9190610824565b60405180910390f35b348015610130575f5ffd5b5061014b600480360381019061014691906107e1565b610716565b6040516101589190610855565b60405180910390f35b5f60055f9054906101000a900473ffffffffffffffffffffffffffffffffffffffff16905090565b60015447106101cd576040517f08c379a00000000000000000000000000000000000000000000000000000000081526004016101c4906108c8565b60405180910390fd5b6003546002546101dd9190610913565b42101561021f576040517f08c379a000000000000000000000000000000000000000000000000000000000815260040161021690610969565b60405180910390fd5b5f61022933610716565b90505f810361026d576040517f08c379a0000000000000000000000000000000000000000000000000000000008152600401610264906109d1565b60405180910390fd5b5f3373ffffffffffffffffffffffffffffffffffffffff168260405161029290610a19565b5f6040518083038185875af1925050503d805f81146102cc576040519150601f19603f3d011682016040523d82523d5f602084013e6102d1565b606091505b50508091505080610317576040517f08c379a000000000000000000000000000000000000000000000000000000000815260040161030e90610a77565b60405180910390fd5b5f5f5f3373ffffffffffffffffffffffffffffffffffffffff1673ffffffffffffffffffffffffffffffffffffffff1681526020019081526020015f20819055505050565b60055f9054906101000a900473ffffffffffffffffffffffffffffffffffffffff1673ffffffffffffffffffffffffffffffffffffffff163373ffffffffffffffffffffffffffffffffffffffff16146103eb576040517f08c379a00000000000000000000000000000000000000000000000000000000081526004016103e290610adf565b60405180910390fd5b8060055f6101000a81548173ffffffffffffffffffffffffffffffffffffffff021916908373ffffffffffffffffffffffffffffffffffffffff16021790555050565b60055f9054906101000a900473ffffffffffffffffffffffffffffffffffffffff1673ffffffffffffffffffffffffffffffffffffffff163373ffffffffffffffffffffffffffffffffffffffff16146104bd576040517f08c379a00000000000000000000000000000000000000000000000000000000081526004016104b490610adf565b60405180910390fd5b600154471015610502576040517f08c379a00000000000000000000000000000000000000000000000000000000081526004016104f990610b47565b60405180910390fd5b6003546002546105129190610913565b421015610554576040517f08c379a000000000000000000000000000000000000000000000000000000000815260040161054b90610baf565b60405180910390fd5b3373ffffffffffffffffffffffffffffffffffffffff166108fc4790811502906040515f60405180830381858888f19350505050158015610597573d5f5f3e3d5ffd5b50565b68056bc75e2d6310000034106105e5576040517f08c379a00000000000000000000000000000000000000000000000000000000081526004016105dc90610c17565b60405180910390fd5b6003546002546105f59190610913565b4210610636576040517f08c379a000000000000000000000000000000000000000000000000000000000815260040161062d90610c7f565b60405180910390fd5b345f5f3373ffffffffffffffffffffffffffffffffffffffff1673ffffffffffffffffffffffffffffffffffffffff1681526020019081526020015f2081905550565b5f5f60045f9054906101000a900473ffffffffffffffffffffffffffffffffffffffff1673ffffffffffffffffffffffffffffffffffffffff1663feaf968c6040518163ffffffff1660e01b815260040160a060405180830381865afa1580156106e5573d5f5f3e3d5ffd5b505050506040513d601f19601f820116820180604052508101906107099190610d30565b5050509150508091505090565b5f5f5f8373ffffffffffffffffffffffffffffffffffffffff1673ffffffffffffffffffffffffffffffffffffffff1681526020019081526020015f20549050919050565b5f73ffffffffffffffffffffffffffffffffffffffff82169050919050565b5f6107848261075b565b9050919050565b6107948161077a565b82525050565b5f6020820190506107ad5f83018461078b565b92915050565b5f5ffd5b6107c08161077a565b81146107ca575f5ffd5b50565b5f813590506107db816107b7565b92915050565b5f602082840312156107f6576107f56107b3565b5b5f610803848285016107cd565b91505092915050565b5f819050919050565b61081e8161080c565b82525050565b5f6020820190506108375f830184610815565b92915050565b5f819050919050565b61084f8161083d565b82525050565b5f6020820190506108685f830184610846565b92915050565b5f82825260208201905092915050565b7f74617267657420697320726561636865640000000000000000000000000000005f82015250565b5f6108b260118361086e565b91506108bd8261087e565b602082019050919050565b5f6020820190508181035f8301526108df816108a6565b9050919050565b7f4e487b71000000000000000000000000000000000000000000000000000000005f52601160045260245ffd5b5f61091d8261083d565b91506109288361083d565b92508282019050808211156109405761093f6108e6565b5b92915050565b50565b5f6109545f8361086e565b915061095f82610946565b5f82019050919050565b5f6020820190508181035f83015261098081610949565b9050919050565b7f7468657265206973206e6f2066756e6420666f7220796f7500000000000000005f82015250565b5f6109bb60188361086e565b91506109c682610987565b602082019050919050565b5f6020820190508181035f8301526109e8816109af565b9050919050565b5f81905092915050565b5f610a045f836109ef565b9150610a0f82610946565b5f82019050919050565b5f610a23826109f9565b9150819050919050565b7f7472616e73666572206973206661696c656400000000000000000000000000005f82015250565b5f610a6160128361086e565b9150610a6c82610a2d565b602082019050919050565b5f6020820190508181035f830152610a8e81610a55565b9050919050565b7f796f7520646f6e27742068617665207065726d697373696f6e000000000000005f82015250565b5f610ac960198361086e565b9150610ad482610a95565b602082019050919050565b5f6020820190508181035f830152610af681610abd565b9050919050565b7f746172676574206973206e6f74207265616368656400000000000000000000005f82015250565b5f610b3160158361086e565b9150610b3c82610afd565b602082019050919050565b5f6020820190508181035f830152610b5e81610b25565b9050919050565b7f77696e646f77206973206e6f7420636c6f7365640000000000000000000000005f82015250565b5f610b9960148361086e565b9150610ba482610b65565b602082019050919050565b5f6020820190508181035f830152610bc681610b8d565b9050919050565b7f6974277320746f6f2000000000000000000000000000000000000000000000005f82015250565b5f610c0160098361086e565b9150610c0c82610bcd565b602082019050919050565b5f6020820190508181035f830152610c2e81610bf5565b9050919050565b7f77696e646f7720697320636c6f736564000000000000000000000000000000005f82015250565b5f610c6960108361086e565b9150610c7482610c35565b602082019050919050565b5f6020820190508181035f830152610c9681610c5d565b9050919050565b5f69ffffffffffffffffffff82169050919050565b610cbb81610c9d565b8114610cc5575f5ffd5b50565b5f81519050610cd681610cb2565b92915050565b610ce58161080c565b8114610cef575f5ffd5b50565b5f81519050610d0081610cdc565b92915050565b610d0f8161083d565b8114610d19575f5ffd5b50565b5f81519050610d2a81610d06565b92915050565b5f5f5f5f5f60a08688031215610d4957610d486107b3565b5b5f610d5688828901610cc8565b9550506020610d6788828901610cf2565b9450506040610d7888828901610d1c565b9350506060610d8988828901610d1c565b9250506080610d9a88828901610cc8565b915050929550929590935056fea264697066735822122032755c9ea157666355d4445805d6931a0c6f281cb633de1d773f783518e265a564736f6c634300081e0033",
					"opcodes": "PUSH1 0x80 PUSH1 0x40 MSTORE PUSH5 0x9502F9000 PUSH1 0x1 SSTORE CALLVALUE DUP1 ISZERO PUSH2 0x18 JUMPI PUSH0 PUSH0 REVERT JUMPDEST POP PUSH1 0x40 MLOAD PUSH2 0xF3B CODESIZE SUB DUP1 PUSH2 0xF3B DUP4 CODECOPY DUP2 DUP2 ADD PUSH1 0x40 MSTORE DUP2 ADD SWAP1 PUSH2 0x3A SWAP2 SWAP1 PUSH2 0x126 JUMP JUMPDEST CALLER PUSH1 0x5 PUSH0 PUSH2 0x100 EXP DUP2 SLOAD DUP2 PUSH20 0xFFFFFFFFFFFFFFFFFFFFFFFFFFFFFFFFFFFFFFFF MUL NOT AND SWAP1 DUP4 PUSH20 0xFFFFFFFFFFFFFFFFFFFFFFFFFFFFFFFFFFFFFFFF AND MUL OR SWAP1 SSTORE POP PUSH1 0x5 PUSH0 SWAP1 SLOAD SWAP1 PUSH2 0x100 EXP SWAP1 DIV PUSH20 0xFFFFFFFFFFFFFFFFFFFFFFFFFFFFFFFFFFFFFFFF AND PUSH1 0x4 PUSH0 PUSH2 0x100 EXP DUP2 SLOAD DUP2 PUSH20 0xFFFFFFFFFFFFFFFFFFFFFFFFFFFFFFFFFFFFFFFF MUL NOT AND SWAP1 DUP4 PUSH20 0xFFFFFFFFFFFFFFFFFFFFFFFFFFFFFFFFFFFFFFFF AND MUL OR SWAP1 SSTORE POP TIMESTAMP PUSH1 0x2 DUP2 SWAP1 SSTORE POP DUP1 PUSH1 0x3 DUP2 SWAP1 SSTORE POP POP PUSH2 0x151 JUMP JUMPDEST PUSH0 PUSH0 REVERT JUMPDEST PUSH0 DUP2 SWAP1 POP SWAP2 SWAP1 POP JUMP JUMPDEST PUSH2 0x105 DUP2 PUSH2 0xF3 JUMP JUMPDEST DUP2 EQ PUSH2 0x10F JUMPI PUSH0 PUSH0 REVERT JUMPDEST POP JUMP JUMPDEST PUSH0 DUP2 MLOAD SWAP1 POP PUSH2 0x120 DUP2 PUSH2 0xFC JUMP JUMPDEST SWAP3 SWAP2 POP POP JUMP JUMPDEST PUSH0 PUSH1 0x20 DUP3 DUP5 SUB SLT ISZERO PUSH2 0x13B JUMPI PUSH2 0x13A PUSH2 0xEF JUMP JUMPDEST JUMPDEST PUSH0 PUSH2 0x148 DUP5 DUP3 DUP6 ADD PUSH2 0x112 JUMP JUMPDEST SWAP2 POP POP SWAP3 SWAP2 POP POP JUMP JUMPDEST PUSH2 0xDDD DUP1 PUSH2 0x15E PUSH0 CODECOPY PUSH0 RETURN INVALID PUSH1 0x80 PUSH1 0x40 MSTORE PUSH1 0x4 CALLDATASIZE LT PUSH2 0x6F JUMPI PUSH0 CALLDATALOAD PUSH1 0xE0 SHR DUP1 PUSH4 0x8EDD6EB6 GT PUSH2 0x4D JUMPI DUP1 PUSH4 0x8EDD6EB6 EQ PUSH2 0xDB JUMPI DUP1 PUSH4 0xB60D4288 EQ PUSH2 0xF1 JUMPI DUP1 PUSH4 0xBEA4DFB5 EQ PUSH2 0xFB JUMPI DUP1 PUSH4 0xDC1F031A EQ PUSH2 0x125 JUMPI PUSH2 0x6F JUMP JUMPDEST DUP1 PUSH4 0x1721681C EQ PUSH2 0x73 JUMPI DUP1 PUSH4 0x590E1AE3 EQ PUSH2 0x9D JUMPI DUP1 PUSH4 0x8863DD1A EQ PUSH2 0xB3 JUMPI JUMPDEST PUSH0 PUSH0 REVERT JUMPDEST CALLVALUE DUP1 ISZERO PUSH2 0x7E JUMPI PUSH0 PUSH0 REVERT JUMPDEST POP PUSH2 0x87 PUSH2 0x161 JUMP JUMPDEST PUSH1 0x40 MLOAD PUSH2 0x94 SWAP2 SWAP1 PUSH2 0x79A JUMP JUMPDEST PUSH1 0x40 MLOAD DUP1 SWAP2 SUB SWAP1 RETURN JUMPDEST CALLVALUE DUP1 ISZERO PUSH2 0xA8 JUMPI PUSH0 PUSH0 REVERT JUMPDEST POP PUSH2 0xB1 PUSH2 0x189 JUMP JUMPDEST STOP JUMPDEST CALLVALUE DUP1 ISZERO PUSH2 0xBE JUMPI PUSH0 PUSH0 REVERT JUMPDEST POP PUSH2 0xD9 PUSH1 0x4 DUP1 CALLDATASIZE SUB DUP2 ADD SWAP1 PUSH2 0xD4 SWAP2 SWAP1 PUSH2 0x7E1 JUMP JUMPDEST PUSH2 0x35C JUMP JUMPDEST STOP JUMPDEST CALLVALUE DUP1 ISZERO PUSH2 0xE6 JUMPI PUSH0 PUSH0 REVERT JUMPDEST POP PUSH2 0xEF PUSH2 0x42E JUMP JUMPDEST STOP JUMPDEST PUSH2 0xF9 PUSH2 0x59A JUMP JUMPDEST STOP JUMPDEST CALLVALUE DUP1 ISZERO PUSH2 0x106 JUMPI PUSH0 PUSH0 REVERT JUMPDEST POP PUSH2 0x10F PUSH2 0x679 JUMP JUMPDEST PUSH1 0x40 MLOAD PUSH2 0x11C SWAP2 SWAP1 PUSH2 0x824 JUMP JUMPDEST PUSH1 0x40 MLOAD DUP1 SWAP2 SUB SWAP1 RETURN JUMPDEST CALLVALUE DUP1 ISZERO PUSH2 0x130 JUMPI PUSH0 PUSH0 REVERT JUMPDEST POP PUSH2 0x14B PUSH1 0x4 DUP1 CALLDATASIZE SUB DUP2 ADD SWAP1 PUSH2 0x146 SWAP2 SWAP1 PUSH2 0x7E1 JUMP JUMPDEST PUSH2 0x716 JUMP JUMPDEST PUSH1 0x40 MLOAD PUSH2 0x158 SWAP2 SWAP1 PUSH2 0x855 JUMP JUMPDEST PUSH1 0x40 MLOAD DUP1 SWAP2 SUB SWAP1 RETURN JUMPDEST PUSH0 PUSH1 0x5 PUSH0 SWAP1 SLOAD SWAP1 PUSH2 0x100 EXP SWAP1 DIV PUSH20 0xFFFFFFFFFFFFFFFFFFFFFFFFFFFFFFFFFFFFFFFF AND SWAP1 POP SWAP1 JUMP JUMPDEST PUSH1 0x1 SLOAD SELFBALANCE LT PUSH2 0x1CD JUMPI PUSH1 0x40 MLOAD PUSH32 0x8C379A000000000000000000000000000000000000000000000000000000000 DUP2 MSTORE PUSH1 0x4 ADD PUSH2 0x1C4 SWAP1 PUSH2 0x8C8 JUMP JUMPDEST PUSH1 0x40 MLOAD DUP1 SWAP2 SUB SWAP1 REVERT JUMPDEST PUSH1 0x3 SLOAD PUSH1 0x2 SLOAD PUSH2 0x1DD SWAP2 SWAP1 PUSH2 0x913 JUMP JUMPDEST TIMESTAMP LT ISZERO PUSH2 0x21F JUMPI PUSH1 0x40 MLOAD PUSH32 0x8C379A000000000000000000000000000000000000000000000000000000000 DUP2 MSTORE PUSH1 0x4 ADD PUSH2 0x216 SWAP1 PUSH2 0x969 JUMP JUMPDEST PUSH1 0x40 MLOAD DUP1 SWAP2 SUB SWAP1 REVERT JUMPDEST PUSH0 PUSH2 0x229 CALLER PUSH2 0x716 JUMP JUMPDEST SWAP1 POP PUSH0 DUP2 SUB PUSH2 0x26D JUMPI PUSH1 0x40 MLOAD PUSH32 0x8C379A000000000000000000000000000000000000000000000000000000000 DUP2 MSTORE PUSH1 0x4 ADD PUSH2 0x264 SWAP1 PUSH2 0x9D1 JUMP JUMPDEST PUSH1 0x40 MLOAD DUP1 SWAP2 SUB SWAP1 REVERT JUMPDEST PUSH0 CALLER PUSH20 0xFFFFFFFFFFFFFFFFFFFFFFFFFFFFFFFFFFFFFFFF AND DUP3 PUSH1 0x40 MLOAD PUSH2 0x292 SWAP1 PUSH2 0xA19 JUMP JUMPDEST PUSH0 PUSH1 0x40 MLOAD DUP1 DUP4 SUB DUP2 DUP6 DUP8 GAS CALL SWAP3 POP POP POP RETURNDATASIZE DUP1 PUSH0 DUP2 EQ PUSH2 0x2CC JUMPI PUSH1 0x40 MLOAD SWAP2 POP PUSH1 0x1F NOT PUSH1 0x3F RETURNDATASIZE ADD AND DUP3 ADD PUSH1 0x40 MSTORE RETURNDATASIZE DUP3 MSTORE RETURNDATASIZE PUSH0 PUSH1 0x20 DUP5 ADD RETURNDATACOPY PUSH2 0x2D1 JUMP JUMPDEST PUSH1 0x60 SWAP2 POP JUMPDEST POP POP DUP1 SWAP2 POP POP DUP1 PUSH2 0x317 JUMPI PUSH1 0x40 MLOAD PUSH32 0x8C379A000000000000000000000000000000000000000000000000000000000 DUP2 MSTORE PUSH1 0x4 ADD PUSH2 0x30E SWAP1 PUSH2 0xA77 JUMP JUMPDEST PUSH1 0x40 MLOAD DUP1 SWAP2 SUB SWAP1 REVERT JUMPDEST PUSH0 PUSH0 PUSH0 CALLER PUSH20 0xFFFFFFFFFFFFFFFFFFFFFFFFFFFFFFFFFFFFFFFF AND PUSH20 0xFFFFFFFFFFFFFFFFFFFFFFFFFFFFFFFFFFFFFFFF AND DUP2 MSTORE PUSH1 0x20 ADD SWAP1 DUP2 MSTORE PUSH1 0x20 ADD PUSH0 KECCAK256 DUP2 SWAP1 SSTORE POP POP POP JUMP JUMPDEST PUSH1 0x5 PUSH0 SWAP1 SLOAD SWAP1 PUSH2 0x100 EXP SWAP1 DIV PUSH20 0xFFFFFFFFFFFFFFFFFFFFFFFFFFFFFFFFFFFFFFFF AND PUSH20 0xFFFFFFFFFFFFFFFFFFFFFFFFFFFFFFFFFFFFFFFF AND CALLER PUSH20 0xFFFFFFFFFFFFFFFFFFFFFFFFFFFFFFFFFFFFFFFF AND EQ PUSH2 0x3EB JUMPI PUSH1 0x40 MLOAD PUSH32 0x8C379A000000000000000000000000000000000000000000000000000000000 DUP2 MSTORE PUSH1 0x4 ADD PUSH2 0x3E2 SWAP1 PUSH2 0xADF JUMP JUMPDEST PUSH1 0x40 MLOAD DUP1 SWAP2 SUB SWAP1 REVERT JUMPDEST DUP1 PUSH1 0x5 PUSH0 PUSH2 0x100 EXP DUP2 SLOAD DUP2 PUSH20 0xFFFFFFFFFFFFFFFFFFFFFFFFFFFFFFFFFFFFFFFF MUL NOT AND SWAP1 DUP4 PUSH20 0xFFFFFFFFFFFFFFFFFFFFFFFFFFFFFFFFFFFFFFFF AND MUL OR SWAP1 SSTORE POP POP JUMP JUMPDEST PUSH1 0x5 PUSH0 SWAP1 SLOAD SWAP1 PUSH2 0x100 EXP SWAP1 DIV PUSH20 0xFFFFFFFFFFFFFFFFFFFFFFFFFFFFFFFFFFFFFFFF AND PUSH20 0xFFFFFFFFFFFFFFFFFFFFFFFFFFFFFFFFFFFFFFFF AND CALLER PUSH20 0xFFFFFFFFFFFFFFFFFFFFFFFFFFFFFFFFFFFFFFFF AND EQ PUSH2 0x4BD JUMPI PUSH1 0x40 MLOAD PUSH32 0x8C379A000000000000000000000000000000000000000000000000000000000 DUP2 MSTORE PUSH1 0x4 ADD PUSH2 0x4B4 SWAP1 PUSH2 0xADF JUMP JUMPDEST PUSH1 0x40 MLOAD DUP1 SWAP2 SUB SWAP1 REVERT JUMPDEST PUSH1 0x1 SLOAD SELFBALANCE LT ISZERO PUSH2 0x502 JUMPI PUSH1 0x40 MLOAD PUSH32 0x8C379A000000000000000000000000000000000000000000000000000000000 DUP2 MSTORE PUSH1 0x4 ADD PUSH2 0x4F9 SWAP1 PUSH2 0xB47 JUMP JUMPDEST PUSH1 0x40 MLOAD DUP1 SWAP2 SUB SWAP1 REVERT JUMPDEST PUSH1 0x3 SLOAD PUSH1 0x2 SLOAD PUSH2 0x512 SWAP2 SWAP1 PUSH2 0x913 JUMP JUMPDEST TIMESTAMP LT ISZERO PUSH2 0x554 JUMPI PUSH1 0x40 MLOAD PUSH32 0x8C379A000000000000000000000000000000000000000000000000000000000 DUP2 MSTORE PUSH1 0x4 ADD PUSH2 0x54B SWAP1 PUSH2 0xBAF JUMP JUMPDEST PUSH1 0x40 MLOAD DUP1 SWAP2 SUB SWAP1 REVERT JUMPDEST CALLER PUSH20 0xFFFFFFFFFFFFFFFFFFFFFFFFFFFFFFFFFFFFFFFF AND PUSH2 0x8FC SELFBALANCE SWAP1 DUP2 ISZERO MUL SWAP1 PUSH1 0x40 MLOAD PUSH0 PUSH1 0x40 MLOAD DUP1 DUP4 SUB DUP2 DUP6 DUP9 DUP9 CALL SWAP4 POP POP POP POP ISZERO DUP1 ISZERO PUSH2 0x597 JUMPI RETURNDATASIZE PUSH0 PUSH0 RETURNDATACOPY RETURNDATASIZE PUSH0 REVERT JUMPDEST POP JUMP JUMPDEST PUSH9 0x56BC75E2D63100000 CALLVALUE LT PUSH2 0x5E5 JUMPI PUSH1 0x40 MLOAD PUSH32 0x8C379A000000000000000000000000000000000000000000000000000000000 DUP2 MSTORE PUSH1 0x4 ADD PUSH2 0x5DC SWAP1 PUSH2 0xC17 JUMP JUMPDEST PUSH1 0x40 MLOAD DUP1 SWAP2 SUB SWAP1 REVERT JUMPDEST PUSH1 0x3 SLOAD PUSH1 0x2 SLOAD PUSH2 0x5F5 SWAP2 SWAP1 PUSH2 0x913 JUMP JUMPDEST TIMESTAMP LT PUSH2 0x636 JUMPI PUSH1 0x40 MLOAD PUSH32 0x8C379A000000000000000000000000000000000000000000000000000000000 DUP2 MSTORE PUSH1 0x4 ADD PUSH2 0x62D SWAP1 PUSH2 0xC7F JUMP JUMPDEST PUSH1 0x40 MLOAD DUP1 SWAP2 SUB SWAP1 REVERT JUMPDEST CALLVALUE PUSH0 PUSH0 CALLER PUSH20 0xFFFFFFFFFFFFFFFFFFFFFFFFFFFFFFFFFFFFFFFF AND PUSH20 0xFFFFFFFFFFFFFFFFFFFFFFFFFFFFFFFFFFFFFFFF AND DUP2 MSTORE PUSH1 0x20 ADD SWAP1 DUP2 MSTORE PUSH1 0x20 ADD PUSH0 KECCAK256 DUP2 SWAP1 SSTORE POP JUMP JUMPDEST PUSH0 PUSH0 PUSH1 0x4 PUSH0 SWAP1 SLOAD SWAP1 PUSH2 0x100 EXP SWAP1 DIV PUSH20 0xFFFFFFFFFFFFFFFFFFFFFFFFFFFFFFFFFFFFFFFF AND PUSH20 0xFFFFFFFFFFFFFFFFFFFFFFFFFFFFFFFFFFFFFFFF AND PUSH4 0xFEAF968C PUSH1 0x40 MLOAD DUP2 PUSH4 0xFFFFFFFF AND PUSH1 0xE0 SHL DUP2 MSTORE PUSH1 0x4 ADD PUSH1 0xA0 PUSH1 0x40 MLOAD DUP1 DUP4 SUB DUP2 DUP7 GAS STATICCALL ISZERO DUP1 ISZERO PUSH2 0x6E5 JUMPI RETURNDATASIZE PUSH0 PUSH0 RETURNDATACOPY RETURNDATASIZE PUSH0 REVERT JUMPDEST POP POP POP POP PUSH1 0x40 MLOAD RETURNDATASIZE PUSH1 0x1F NOT PUSH1 0x1F DUP3 ADD AND DUP3 ADD DUP1 PUSH1 0x40 MSTORE POP DUP2 ADD SWAP1 PUSH2 0x709 SWAP2 SWAP1 PUSH2 0xD30 JUMP JUMPDEST POP POP POP SWAP2 POP POP DUP1 SWAP2 POP POP SWAP1 JUMP JUMPDEST PUSH0 PUSH0 PUSH0 DUP4 PUSH20 0xFFFFFFFFFFFFFFFFFFFFFFFFFFFFFFFFFFFFFFFF AND PUSH20 0xFFFFFFFFFFFFFFFFFFFFFFFFFFFFFFFFFFFFFFFF AND DUP2 MSTORE PUSH1 0x20 ADD SWAP1 DUP2 MSTORE PUSH1 0x20 ADD PUSH0 KECCAK256 SLOAD SWAP1 POP SWAP2 SWAP1 POP JUMP JUMPDEST PUSH0 PUSH20 0xFFFFFFFFFFFFFFFFFFFFFFFFFFFFFFFFFFFFFFFF DUP3 AND SWAP1 POP SWAP2 SWAP1 POP JUMP JUMPDEST PUSH0 PUSH2 0x784 DUP3 PUSH2 0x75B JUMP JUMPDEST SWAP1 POP SWAP2 SWAP1 POP JUMP JUMPDEST PUSH2 0x794 DUP2 PUSH2 0x77A JUMP JUMPDEST DUP3 MSTORE POP POP JUMP JUMPDEST PUSH0 PUSH1 0x20 DUP3 ADD SWAP1 POP PUSH2 0x7AD PUSH0 DUP4 ADD DUP5 PUSH2 0x78B JUMP JUMPDEST SWAP3 SWAP2 POP POP JUMP JUMPDEST PUSH0 PUSH0 REVERT JUMPDEST PUSH2 0x7C0 DUP2 PUSH2 0x77A JUMP JUMPDEST DUP2 EQ PUSH2 0x7CA JUMPI PUSH0 PUSH0 REVERT JUMPDEST POP JUMP JUMPDEST PUSH0 DUP2 CALLDATALOAD SWAP1 POP PUSH2 0x7DB DUP2 PUSH2 0x7B7 JUMP JUMPDEST SWAP3 SWAP2 POP POP JUMP JUMPDEST PUSH0 PUSH1 0x20 DUP3 DUP5 SUB SLT ISZERO PUSH2 0x7F6 JUMPI PUSH2 0x7F5 PUSH2 0x7B3 JUMP JUMPDEST JUMPDEST PUSH0 PUSH2 0x803 DUP5 DUP3 DUP6 ADD PUSH2 0x7CD JUMP JUMPDEST SWAP2 POP POP SWAP3 SWAP2 POP POP JUMP JUMPDEST PUSH0 DUP2 SWAP1 POP SWAP2 SWAP1 POP JUMP JUMPDEST PUSH2 0x81E DUP2 PUSH2 0x80C JUMP JUMPDEST DUP3 MSTORE POP POP JUMP JUMPDEST PUSH0 PUSH1 0x20 DUP3 ADD SWAP1 POP PUSH2 0x837 PUSH0 DUP4 ADD DUP5 PUSH2 0x815 JUMP JUMPDEST SWAP3 SWAP2 POP POP JUMP JUMPDEST PUSH0 DUP2 SWAP1 POP SWAP2 SWAP1 POP JUMP JUMPDEST PUSH2 0x84F DUP2 PUSH2 0x83D JUMP JUMPDEST DUP3 MSTORE POP POP JUMP JUMPDEST PUSH0 PUSH1 0x20 DUP3 ADD SWAP1 POP PUSH2 0x868 PUSH0 DUP4 ADD DUP5 PUSH2 0x846 JUMP JUMPDEST SWAP3 SWAP2 POP POP JUMP JUMPDEST PUSH0 DUP3 DUP3 MSTORE PUSH1 0x20 DUP3 ADD SWAP1 POP SWAP3 SWAP2 POP POP JUMP JUMPDEST PUSH32 0x7461726765742069732072656163686564000000000000000000000000000000 PUSH0 DUP3 ADD MSTORE POP JUMP JUMPDEST PUSH0 PUSH2 0x8B2 PUSH1 0x11 DUP4 PUSH2 0x86E JUMP JUMPDEST SWAP2 POP PUSH2 0x8BD DUP3 PUSH2 0x87E JUMP JUMPDEST PUSH1 0x20 DUP3 ADD SWAP1 POP SWAP2 SWAP1 POP JUMP JUMPDEST PUSH0 PUSH1 0x20 DUP3 ADD SWAP1 POP DUP2 DUP2 SUB PUSH0 DUP4 ADD MSTORE PUSH2 0x8DF DUP2 PUSH2 0x8A6 JUMP JUMPDEST SWAP1 POP SWAP2 SWAP1 POP JUMP JUMPDEST PUSH32 0x4E487B7100000000000000000000000000000000000000000000000000000000 PUSH0 MSTORE PUSH1 0x11 PUSH1 0x4 MSTORE PUSH1 0x24 PUSH0 REVERT JUMPDEST PUSH0 PUSH2 0x91D DUP3 PUSH2 0x83D JUMP JUMPDEST SWAP2 POP PUSH2 0x928 DUP4 PUSH2 0x83D JUMP JUMPDEST SWAP3 POP DUP3 DUP3 ADD SWAP1 POP DUP1 DUP3 GT ISZERO PUSH2 0x940 JUMPI PUSH2 0x93F PUSH2 0x8E6 JUMP JUMPDEST JUMPDEST SWAP3 SWAP2 POP POP JUMP JUMPDEST POP JUMP JUMPDEST PUSH0 PUSH2 0x954 PUSH0 DUP4 PUSH2 0x86E JUMP JUMPDEST SWAP2 POP PUSH2 0x95F DUP3 PUSH2 0x946 JUMP JUMPDEST PUSH0 DUP3 ADD SWAP1 POP SWAP2 SWAP1 POP JUMP JUMPDEST PUSH0 PUSH1 0x20 DUP3 ADD SWAP1 POP DUP2 DUP2 SUB PUSH0 DUP4 ADD MSTORE PUSH2 0x980 DUP2 PUSH2 0x949 JUMP JUMPDEST SWAP1 POP SWAP2 SWAP1 POP JUMP JUMPDEST PUSH32 0x7468657265206973206E6F2066756E6420666F7220796F750000000000000000 PUSH0 DUP3 ADD MSTORE POP JUMP JUMPDEST PUSH0 PUSH2 0x9BB PUSH1 0x18 DUP4 PUSH2 0x86E JUMP JUMPDEST SWAP2 POP PUSH2 0x9C6 DUP3 PUSH2 0x987 JUMP JUMPDEST PUSH1 0x20 DUP3 ADD SWAP1 POP SWAP2 SWAP1 POP JUMP JUMPDEST PUSH0 PUSH1 0x20 DUP3 ADD SWAP1 POP DUP2 DUP2 SUB PUSH0 DUP4 ADD MSTORE PUSH2 0x9E8 DUP2 PUSH2 0x9AF JUMP JUMPDEST SWAP1 POP SWAP2 SWAP1 POP JUMP JUMPDEST PUSH0 DUP2 SWAP1 POP SWAP3 SWAP2 POP POP JUMP JUMPDEST PUSH0 PUSH2 0xA04 PUSH0 DUP4 PUSH2 0x9EF JUMP JUMPDEST SWAP2 POP PUSH2 0xA0F DUP3 PUSH2 0x946 JUMP JUMPDEST PUSH0 DUP3 ADD SWAP1 POP SWAP2 SWAP1 POP JUMP JUMPDEST PUSH0 PUSH2 0xA23 DUP3 PUSH2 0x9F9 JUMP JUMPDEST SWAP2 POP DUP2 SWAP1 POP SWAP2 SWAP1 POP JUMP JUMPDEST PUSH32 0x7472616E73666572206973206661696C65640000000000000000000000000000 PUSH0 DUP3 ADD MSTORE POP JUMP JUMPDEST PUSH0 PUSH2 0xA61 PUSH1 0x12 DUP4 PUSH2 0x86E JUMP JUMPDEST SWAP2 POP PUSH2 0xA6C DUP3 PUSH2 0xA2D JUMP JUMPDEST PUSH1 0x20 DUP3 ADD SWAP1 POP SWAP2 SWAP1 POP JUMP JUMPDEST PUSH0 PUSH1 0x20 DUP3 ADD SWAP1 POP DUP2 DUP2 SUB PUSH0 DUP4 ADD MSTORE PUSH2 0xA8E DUP2 PUSH2 0xA55 JUMP JUMPDEST SWAP1 POP SWAP2 SWAP1 POP JUMP JUMPDEST PUSH32 0x796F7520646F6E27742068617665207065726D697373696F6E00000000000000 PUSH0 DUP3 ADD MSTORE POP JUMP JUMPDEST PUSH0 PUSH2 0xAC9 PUSH1 0x19 DUP4 PUSH2 0x86E JUMP JUMPDEST SWAP2 POP PUSH2 0xAD4 DUP3 PUSH2 0xA95 JUMP JUMPDEST PUSH1 0x20 DUP3 ADD SWAP1 POP SWAP2 SWAP1 POP JUMP JUMPDEST PUSH0 PUSH1 0x20 DUP3 ADD SWAP1 POP DUP2 DUP2 SUB PUSH0 DUP4 ADD MSTORE PUSH2 0xAF6 DUP2 PUSH2 0xABD JUMP JUMPDEST SWAP1 POP SWAP2 SWAP1 POP JUMP JUMPDEST PUSH32 0x746172676574206973206E6F7420726561636865640000000000000000000000 PUSH0 DUP3 ADD MSTORE POP JUMP JUMPDEST PUSH0 PUSH2 0xB31 PUSH1 0x15 DUP4 PUSH2 0x86E JUMP JUMPDEST SWAP2 POP PUSH2 0xB3C DUP3 PUSH2 0xAFD JUMP JUMPDEST PUSH1 0x20 DUP3 ADD SWAP1 POP SWAP2 SWAP1 POP JUMP JUMPDEST PUSH0 PUSH1 0x20 DUP3 ADD SWAP1 POP DUP2 DUP2 SUB PUSH0 DUP4 ADD MSTORE PUSH2 0xB5E DUP2 PUSH2 0xB25 JUMP JUMPDEST SWAP1 POP SWAP2 SWAP1 POP JUMP JUMPDEST PUSH32 0x77696E646F77206973206E6F7420636C6F736564000000000000000000000000 PUSH0 DUP3 ADD MSTORE POP JUMP JUMPDEST PUSH0 PUSH2 0xB99 PUSH1 0x14 DUP4 PUSH2 0x86E JUMP JUMPDEST SWAP2 POP PUSH2 0xBA4 DUP3 PUSH2 0xB65 JUMP JUMPDEST PUSH1 0x20 DUP3 ADD SWAP1 POP SWAP2 SWAP1 POP JUMP JUMPDEST PUSH0 PUSH1 0x20 DUP3 ADD SWAP1 POP DUP2 DUP2 SUB PUSH0 DUP4 ADD MSTORE PUSH2 0xBC6 DUP2 PUSH2 0xB8D JUMP JUMPDEST SWAP1 POP SWAP2 SWAP1 POP JUMP JUMPDEST PUSH32 0x6974277320746F6F200000000000000000000000000000000000000000000000 PUSH0 DUP3 ADD MSTORE POP JUMP JUMPDEST PUSH0 PUSH2 0xC01 PUSH1 0x9 DUP4 PUSH2 0x86E JUMP JUMPDEST SWAP2 POP PUSH2 0xC0C DUP3 PUSH2 0xBCD JUMP JUMPDEST PUSH1 0x20 DUP3 ADD SWAP1 POP SWAP2 SWAP1 POP JUMP JUMPDEST PUSH0 PUSH1 0x20 DUP3 ADD SWAP1 POP DUP2 DUP2 SUB PUSH0 DUP4 ADD MSTORE PUSH2 0xC2E DUP2 PUSH2 0xBF5 JUMP JUMPDEST SWAP1 POP SWAP2 SWAP1 POP JUMP JUMPDEST PUSH32 0x77696E646F7720697320636C6F73656400000000000000000000000000000000 PUSH0 DUP3 ADD MSTORE POP JUMP JUMPDEST PUSH0 PUSH2 0xC69 PUSH1 0x10 DUP4 PUSH2 0x86E JUMP JUMPDEST SWAP2 POP PUSH2 0xC74 DUP3 PUSH2 0xC35 JUMP JUMPDEST PUSH1 0x20 DUP3 ADD SWAP1 POP SWAP2 SWAP1 POP JUMP JUMPDEST PUSH0 PUSH1 0x20 DUP3 ADD SWAP1 POP DUP2 DUP2 SUB PUSH0 DUP4 ADD MSTORE PUSH2 0xC96 DUP2 PUSH2 0xC5D JUMP JUMPDEST SWAP1 POP SWAP2 SWAP1 POP JUMP JUMPDEST PUSH0 PUSH10 0xFFFFFFFFFFFFFFFFFFFF DUP3 AND SWAP1 POP SWAP2 SWAP1 POP JUMP JUMPDEST PUSH2 0xCBB DUP2 PUSH2 0xC9D JUMP JUMPDEST DUP2 EQ PUSH2 0xCC5 JUMPI PUSH0 PUSH0 REVERT JUMPDEST POP JUMP JUMPDEST PUSH0 DUP2 MLOAD SWAP1 POP PUSH2 0xCD6 DUP2 PUSH2 0xCB2 JUMP JUMPDEST SWAP3 SWAP2 POP POP JUMP JUMPDEST PUSH2 0xCE5 DUP2 PUSH2 0x80C JUMP JUMPDEST DUP2 EQ PUSH2 0xCEF JUMPI PUSH0 PUSH0 REVERT JUMPDEST POP JUMP JUMPDEST PUSH0 DUP2 MLOAD SWAP1 POP PUSH2 0xD00 DUP2 PUSH2 0xCDC JUMP JUMPDEST SWAP3 SWAP2 POP POP JUMP JUMPDEST PUSH2 0xD0F DUP2 PUSH2 0x83D JUMP JUMPDEST DUP2 EQ PUSH2 0xD19 JUMPI PUSH0 PUSH0 REVERT JUMPDEST POP JUMP JUMPDEST PUSH0 DUP2 MLOAD SWAP1 POP PUSH2 0xD2A DUP2 PUSH2 0xD06 JUMP JUMPDEST SWAP3 SWAP2 POP POP JUMP JUMPDEST PUSH0 PUSH0 PUSH0 PUSH0 PUSH0 PUSH1 0xA0 DUP7 DUP9 SUB SLT ISZERO PUSH2 0xD49 JUMPI PUSH2 0xD48 PUSH2 0x7B3 JUMP JUMPDEST JUMPDEST PUSH0 PUSH2 0xD56 DUP9 DUP3 DUP10 ADD PUSH2 0xCC8 JUMP JUMPDEST SWAP6 POP POP PUSH1 0x20 PUSH2 0xD67 DUP9 DUP3 DUP10 ADD PUSH2 0xCF2 JUMP JUMPDEST SWAP5 POP POP PUSH1 0x40 PUSH2 0xD78 DUP9 DUP3 DUP10 ADD PUSH2 0xD1C JUMP JUMPDEST SWAP4 POP POP PUSH1 0x60 PUSH2 0xD89 DUP9 DUP3 DUP10 ADD PUSH2 0xD1C JUMP JUMPDEST SWAP3 POP POP PUSH1 0x80 PUSH2 0xD9A DUP9 DUP3 DUP10 ADD PUSH2 0xCC8 JUMP JUMPDEST SWAP2 POP POP SWAP3 SWAP6 POP SWAP3 SWAP6 SWAP1 SWAP4 POP JUMP INVALID LOG2 PUSH5 0x6970667358 0x22 SLT KECCAK256 ORIGIN PUSH22 0x5C9EA157666355D4445805D6931A0C6F281CB633DE1D PUSH24 0x3F783518E265A564736F6C634300081E0033000000000000 "
				},
				"gasEstimates": {
					"creation": {
						"codeDepositCost": "709800",
						"executionCost": "infinite",
						"totalCost": "infinite"
					},
					"external": {
						"found(address)": "2894",
						"foundContractUser()": "2516",
						"fund()": "infinite",
						"getChainlinkDataFeedLatestAnswer()": "infinite",
						"getFund()": "infinite",
						"refund()": "infinite",
						"transferOwnerShip(address)": "26929"
					},
					"internal": {
						"calculateUsdPrice(uint256)": "infinite"
					}
				},
				"methodIdentifiers": {
					"found(address)": "dc1f031a",
					"foundContractUser()": "1721681c",
					"fund()": "b60d4288",
					"getChainlinkDataFeedLatestAnswer()": "bea4dfb5",
					"getFund()": "8edd6eb6",
					"refund()": "590e1ae3",
					"transferOwnerShip(address)": "8863dd1a"
				}
			},
			"storageLayout": {
				"storage": [
					{
						"astId": 53,
						"contract": "my_contracts/FundMe.sol:FundMe",
						"label": "funderMap",
						"offset": 0,
						"slot": "0",
						"type": "t_mapping(t_address,t_uint256)"
					},
					{
						"astId": 74,
						"contract": "my_contracts/FundMe.sol:FundMe",
						"label": "MAXMUM_VALUE",
						"offset": 0,
						"slot": "1",
						"type": "t_uint256"
					},
					{
						"astId": 76,
						"contract": "my_contracts/FundMe.sol:FundMe",
						"label": "deploymentTimestamp",
						"offset": 0,
						"slot": "2",
						"type": "t_uint256"
					},
					{
						"astId": 78,
						"contract": "my_contracts/FundMe.sol:FundMe",
						"label": "lockTime",
						"offset": 0,
						"slot": "3",
						"type": "t_uint256"
					},
					{
						"astId": 81,
						"contract": "my_contracts/FundMe.sol:FundMe",
						"label": "dataFeed",
						"offset": 0,
						"slot": "4",
						"type": "t_contract(AggregatorV3Interface)45"
					},
					{
						"astId": 83,
						"contract": "my_contracts/FundMe.sol:FundMe",
						"label": "owner",
						"offset": 0,
						"slot": "5",
						"type": "t_address"
					}
				],
				"types": {
					"t_address": {
						"encoding": "inplace",
						"label": "address",
						"numberOfBytes": "20"
					},
					"t_contract(AggregatorV3Interface)45": {
						"encoding": "inplace",
						"label": "contract AggregatorV3Interface",
						"numberOfBytes": "20"
					},
					"t_mapping(t_address,t_uint256)": {
						"encoding": "mapping",
						"key": "t_address",
						"label": "mapping(address => uint256)",
						"numberOfBytes": "32",
						"value": "t_uint256"
					},
					"t_uint256": {
						"encoding": "inplace",
						"label": "uint256",
						"numberOfBytes": "32"
					}
				}
			},
			"userdoc": {
				"kind": "user",
				"methods": {},
				"version": 1
			}
		}
	}
}