{
	"my_contracts/HelloWorld.sol": {
		"HelloWorld": {
			"abi": [
				{
					"inputs": [
						{
							"internalType": "uint64",
							"name": "_id",
							"type": "uint64"
						}
					],
					"name": "sayHello",
					"outputs": [
						{
							"internalType": "string",
							"name": "",
							"type": "string"
						}
					],
					"stateMutability": "view",
					"type": "function"
				},
				{
					"inputs": [
						{
							"internalType": "string",
							"name": "_str",
							"type": "string"
						},
						{
							"internalType": "uint64",
							"name": "_id",
							"type": "uint64"
						}
					],
					"name": "setHello",
					"outputs": [],
					"stateMutability": "nonpayable",
					"type": "function"
				}
			],
			"devdoc": {
				"kind": "dev",
				"methods": {},
				"version": 1
			},
			"evm": {
				"assembly": "    /* \"my_contracts/HelloWorld.sol\":59:1404  contract HelloWorld{... */\n  mstore(0x40, 0x80)\n    /* \"my_contracts/HelloWorld.sol\":84:111  string str_global = \"Hello\" */\n  mload(0x40)\n  dup1\n  0x40\n  add\n  0x40\n  mstore\n  dup1\n  0x05\n  dup2\n  mstore\n  0x20\n  add\n  0x48656c6c6f000000000000000000000000000000000000000000000000000000\n  dup2\n  mstore\n  pop\n  0x00\n  swap1\n  dup2\n  tag_1\n  swap2\n  swap1\n  tag_2\n  jump\t// in\ntag_1:\n  pop\n    /* \"my_contracts/HelloWorld.sol\":59:1404  contract HelloWorld{... */\n  callvalue\n  dup1\n  iszero\n  tag_3\n  jumpi\n  revert(0x00, 0x00)\ntag_3:\n  pop\n  jump(tag_4)\n    /* \"#utility.yul\":7:106   */\ntag_5:\n    /* \"#utility.yul\":59:65   */\n  0x00\n    /* \"#utility.yul\":93:98   */\n  dup2\n    /* \"#utility.yul\":87:99   */\n  mload\n    /* \"#utility.yul\":77:99   */\n  swap1\n  pop\n    /* \"#utility.yul\":7:106   */\n  swap2\n  swap1\n  pop\n  jump\t// out\n    /* \"#utility.yul\":112:292   */\ntag_6:\n    /* \"#utility.yul\":160:237   */\n  0x4e487b7100000000000000000000000000000000000000000000000000000000\n    /* \"#utility.yul\":157:158   */\n  0x00\n    /* \"#utility.yul\":150:238   */\n  mstore\n    /* \"#utility.yul\":257:261   */\n  0x41\n    /* \"#utility.yul\":254:255   */\n  0x04\n    /* \"#utility.yul\":247:262   */\n  mstore\n    /* \"#utility.yul\":281:285   */\n  0x24\n    /* \"#utility.yul\":278:279   */\n  0x00\n    /* \"#utility.yul\":271:286   */\n  revert\n    /* \"#utility.yul\":298:478   */\ntag_7:\n    /* \"#utility.yul\":346:423   */\n  0x4e487b7100000000000000000000000000000000000000000000000000000000\n    /* \"#utility.yul\":343:344   */\n  0x00\n    /* \"#utility.yul\":336:424   */\n  mstore\n    /* \"#utility.yul\":443:447   */\n  0x22\n    /* \"#utility.yul\":440:441   */\n  0x04\n    /* \"#utility.yul\":433:448   */\n  mstore\n    /* \"#utility.yul\":467:471   */\n  0x24\n    /* \"#utility.yul\":464:465   */\n  0x00\n    /* \"#utility.yul\":457:472   */\n  revert\n    /* \"#utility.yul\":484:804   */\ntag_8:\n    /* \"#utility.yul\":528:534   */\n  0x00\n    /* \"#utility.yul\":565:566   */\n  0x02\n    /* \"#utility.yul\":559:563   */\n  dup3\n    /* \"#utility.yul\":555:567   */\n  div\n    /* \"#utility.yul\":545:567   */\n  swap1\n  pop\n    /* \"#utility.yul\":612:613   */\n  0x01\n    /* \"#utility.yul\":606:610   */\n  dup3\n    /* \"#utility.yul\":602:614   */\n  and\n    /* \"#utility.yul\":633:651   */\n  dup1\n    /* \"#utility.yul\":623:704   */\n  tag_30\n  jumpi\n    /* \"#utility.yul\":689:693   */\n  0x7f\n    /* \"#utility.yul\":681:687   */\n  dup3\n    /* \"#utility.yul\":677:694   */\n  and\n    /* \"#utility.yul\":667:694   */\n  swap2\n  pop\n    /* \"#utility.yul\":623:704   */\ntag_30:\n    /* \"#utility.yul\":751:753   */\n  0x20\n    /* \"#utility.yul\":743:749   */\n  dup3\n    /* \"#utility.yul\":740:754   */\n  lt\n    /* \"#utility.yul\":720:738   */\n  dup2\n    /* \"#utility.yul\":717:755   */\n  sub\n    /* \"#utility.yul\":714:798   */\n  tag_31\n  jumpi\n    /* \"#utility.yul\":770:788   */\n  tag_32\n  tag_7\n  jump\t// in\ntag_32:\n    /* \"#utility.yul\":714:798   */\ntag_31:\n    /* \"#utility.yul\":535:804   */\n  pop\n    /* \"#utility.yul\":484:804   */\n  swap2\n  swap1\n  pop\n  jump\t// out\n    /* \"#utility.yul\":810:951   */\ntag_9:\n    /* \"#utility.yul\":859:863   */\n  0x00\n    /* \"#utility.yul\":882:885   */\n  dup2\n    /* \"#utility.yul\":874:885   */\n  swap1\n  pop\n    /* \"#utility.yul\":905:908   */\n  dup2\n    /* \"#utility.yul\":902:903   */\n  0x00\n    /* \"#utility.yul\":895:909   */\n  mstore\n    /* \"#utility.yul\":939:943   */\n  0x20\n    /* \"#utility.yul\":936:937   */\n  0x00\n    /* \"#utility.yul\":926:944   */\n  keccak256\n    /* \"#utility.yul\":918:944   */\n  swap1\n  pop\n    /* \"#utility.yul\":810:951   */\n  swap2\n  swap1\n  pop\n  jump\t// out\n    /* \"#utility.yul\":957:1050   */\ntag_10:\n    /* \"#utility.yul\":994:1000   */\n  0x00\n    /* \"#utility.yul\":1041:1043   */\n  0x20\n    /* \"#utility.yul\":1036:1038   */\n  0x1f\n    /* \"#utility.yul\":1029:1034   */\n  dup4\n    /* \"#utility.yul\":1025:1039   */\n  add\n    /* \"#utility.yul\":1021:1044   */\n  div\n    /* \"#utility.yul\":1011:1044   */\n  swap1\n  pop\n    /* \"#utility.yul\":957:1050   */\n  swap2\n  swap1\n  pop\n  jump\t// out\n    /* \"#utility.yul\":1056:1163   */\ntag_11:\n    /* \"#utility.yul\":1100:1108   */\n  0x00\n    /* \"#utility.yul\":1150:1155   */\n  dup3\n    /* \"#utility.yul\":1144:1148   */\n  dup3\n    /* \"#utility.yul\":1140:1156   */\n  shl\n    /* \"#utility.yul\":1119:1156   */\n  swap1\n  pop\n    /* \"#utility.yul\":1056:1163   */\n  swap3\n  swap2\n  pop\n  pop\n  jump\t// out\n    /* \"#utility.yul\":1169:1562   */\ntag_12:\n    /* \"#utility.yul\":1238:1244   */\n  0x00\n    /* \"#utility.yul\":1288:1289   */\n  0x08\n    /* \"#utility.yul\":1276:1286   */\n  dup4\n    /* \"#utility.yul\":1272:1290   */\n  mul\n    /* \"#utility.yul\":1311:1408   */\n  tag_37\n    /* \"#utility.yul\":1341:1407   */\n  0xffffffffffffffffffffffffffffffffffffffffffffffffffffffffffffffff\n    /* \"#utility.yul\":1330:1339   */\n  dup3\n    /* \"#utility.yul\":1311:1408   */\n  tag_11\n  jump\t// in\ntag_37:\n    /* \"#utility.yul\":1429:1468   */\n  tag_38\n    /* \"#utility.yul\":1459:1467   */\n  dup7\n    /* \"#utility.yul\":1448:1457   */\n  dup4\n    /* \"#utility.yul\":1429:1468   */\n  tag_11\n  jump\t// in\ntag_38:\n    /* \"#utility.yul\":1417:1468   */\n  swap6\n  pop\n    /* \"#utility.yul\":1501:1505   */\n  dup1\n    /* \"#utility.yul\":1497:1506   */\n  not\n    /* \"#utility.yul\":1490:1495   */\n  dup5\n    /* \"#utility.yul\":1486:1507   */\n  and\n    /* \"#utility.yul\":1477:1507   */\n  swap4\n  pop\n    /* \"#utility.yul\":1550:1554   */\n  dup1\n    /* \"#utility.yul\":1540:1548   */\n  dup7\n    /* \"#utility.yul\":1536:1555   */\n  and\n    /* \"#utility.yul\":1529:1534   */\n  dup5\n    /* \"#utility.yul\":1526:1556   */\n  or\n    /* \"#utility.yul\":1516:1556   */\n  swap3\n  pop\n    /* \"#utility.yul\":1245:1562   */\n  pop\n  pop\n    /* \"#utility.yul\":1169:1562   */\n  swap4\n  swap3\n  pop\n  pop\n  pop\n  jump\t// out\n    /* \"#utility.yul\":1568:1645   */\ntag_13:\n    /* \"#utility.yul\":1605:1612   */\n  0x00\n    /* \"#utility.yul\":1634:1639   */\n  dup2\n    /* \"#utility.yul\":1623:1639   */\n  swap1\n  pop\n    /* \"#utility.yul\":1568:1645   */\n  swap2\n  swap1\n  pop\n  jump\t// out\n    /* \"#utility.yul\":1651:1711   */\ntag_14:\n    /* \"#utility.yul\":1679:1682   */\n  0x00\n    /* \"#utility.yul\":1700:1705   */\n  dup2\n    /* \"#utility.yul\":1693:1705   */\n  swap1\n  pop\n    /* \"#utility.yul\":1651:1711   */\n  swap2\n  swap1\n  pop\n  jump\t// out\n    /* \"#utility.yul\":1717:1859   */\ntag_15:\n    /* \"#utility.yul\":1767:1776   */\n  0x00\n    /* \"#utility.yul\":1800:1853   */\n  tag_42\n    /* \"#utility.yul\":1818:1852   */\n  tag_43\n    /* \"#utility.yul\":1827:1851   */\n  tag_44\n    /* \"#utility.yul\":1845:1850   */\n  dup5\n    /* \"#utility.yul\":1827:1851   */\n  tag_13\n  jump\t// in\ntag_44:\n    /* \"#utility.yul\":1818:1852   */\n  tag_14\n  jump\t// in\ntag_43:\n    /* \"#utility.yul\":1800:1853   */\n  tag_13\n  jump\t// in\ntag_42:\n    /* \"#utility.yul\":1787:1853   */\n  swap1\n  pop\n    /* \"#utility.yul\":1717:1859   */\n  swap2\n  swap1\n  pop\n  jump\t// out\n    /* \"#utility.yul\":1865:1940   */\ntag_16:\n    /* \"#utility.yul\":1908:1911   */\n  0x00\n    /* \"#utility.yul\":1929:1934   */\n  dup2\n    /* \"#utility.yul\":1922:1934   */\n  swap1\n  pop\n    /* \"#utility.yul\":1865:1940   */\n  swap2\n  swap1\n  pop\n  jump\t// out\n    /* \"#utility.yul\":1946:2215   */\ntag_17:\n    /* \"#utility.yul\":2056:2095   */\n  tag_47\n    /* \"#utility.yul\":2087:2094   */\n  dup4\n    /* \"#utility.yul\":2056:2095   */\n  tag_15\n  jump\t// in\ntag_47:\n    /* \"#utility.yul\":2117:2208   */\n  tag_48\n    /* \"#utility.yul\":2166:2207   */\n  tag_49\n    /* \"#utility.yul\":2190:2206   */\n  dup3\n    /* \"#utility.yul\":2166:2207   */\n  tag_16\n  jump\t// in\ntag_49:\n    /* \"#utility.yul\":2158:2164   */\n  dup5\n    /* \"#utility.yul\":2151:2155   */\n  dup5\n    /* \"#utility.yul\":2145:2156   */\n  sload\n    /* \"#utility.yul\":2117:2208   */\n  tag_12\n  jump\t// in\ntag_48:\n    /* \"#utility.yul\":2111:2115   */\n  dup3\n    /* \"#utility.yul\":2104:2209   */\n  sstore\n    /* \"#utility.yul\":2022:2215   */\n  pop\n    /* \"#utility.yul\":1946:2215   */\n  pop\n  pop\n  pop\n  jump\t// out\n    /* \"#utility.yul\":2221:2294   */\ntag_18:\n    /* \"#utility.yul\":2266:2269   */\n  0x00\n    /* \"#utility.yul\":2287:2288   */\n  0x00\n    /* \"#utility.yul\":2280:2288   */\n  swap1\n  pop\n    /* \"#utility.yul\":2221:2294   */\n  swap1\n  jump\t// out\n    /* \"#utility.yul\":2300:2489   */\ntag_19:\n    /* \"#utility.yul\":2377:2409   */\n  tag_52\n  tag_18\n  jump\t// in\ntag_52:\n    /* \"#utility.yul\":2418:2483   */\n  tag_53\n    /* \"#utility.yul\":2476:2482   */\n  dup2\n    /* \"#utility.yul\":2468:2474   */\n  dup5\n    /* \"#utility.yul\":2462:2466   */\n  dup5\n    /* \"#utility.yul\":2418:2483   */\n  tag_17\n  jump\t// in\ntag_53:\n    /* \"#utility.yul\":2353:2489   */\n  pop\n    /* \"#utility.yul\":2300:2489   */\n  pop\n  pop\n  jump\t// out\n    /* \"#utility.yul\":2495:2681   */\ntag_20:\n    /* \"#utility.yul\":2555:2675   */\ntag_55:\n    /* \"#utility.yul\":2572:2575   */\n  dup2\n    /* \"#utility.yul\":2565:2570   */\n  dup2\n    /* \"#utility.yul\":2562:2576   */\n  lt\n    /* \"#utility.yul\":2555:2675   */\n  iszero\n  tag_57\n  jumpi\n    /* \"#utility.yul\":2626:2665   */\n  tag_58\n    /* \"#utility.yul\":2663:2664   */\n  0x00\n    /* \"#utility.yul\":2656:2661   */\n  dup3\n    /* \"#utility.yul\":2626:2665   */\n  tag_19\n  jump\t// in\ntag_58:\n    /* \"#utility.yul\":2599:2600   */\n  0x01\n    /* \"#utility.yul\":2592:2597   */\n  dup2\n    /* \"#utility.yul\":2588:2601   */\n  add\n    /* \"#utility.yul\":2579:2601   */\n  swap1\n  pop\n    /* \"#utility.yul\":2555:2675   */\n  jump(tag_55)\ntag_57:\n    /* \"#utility.yul\":2495:2681   */\n  pop\n  pop\n  jump\t// out\n    /* \"#utility.yul\":2687:3230   */\ntag_21:\n    /* \"#utility.yul\":2788:2790   */\n  0x1f\n    /* \"#utility.yul\":2783:2786   */\n  dup3\n    /* \"#utility.yul\":2780:2791   */\n  gt\n    /* \"#utility.yul\":2777:3223   */\n  iszero\n  tag_60\n  jumpi\n    /* \"#utility.yul\":2822:2860   */\n  tag_61\n    /* \"#utility.yul\":2854:2859   */\n  dup2\n    /* \"#utility.yul\":2822:2860   */\n  tag_9\n  jump\t// in\ntag_61:\n    /* \"#utility.yul\":2906:2935   */\n  tag_62\n    /* \"#utility.yul\":2924:2934   */\n  dup5\n    /* \"#utility.yul\":2906:2935   */\n  tag_10\n  jump\t// in\ntag_62:\n    /* \"#utility.yul\":2896:2904   */\n  dup2\n    /* \"#utility.yul\":2892:2936   */\n  add\n    /* \"#utility.yul\":3089:3091   */\n  0x20\n    /* \"#utility.yul\":3077:3087   */\n  dup6\n    /* \"#utility.yul\":3074:3092   */\n  lt\n    /* \"#utility.yul\":3071:3120   */\n  iszero\n  tag_63\n  jumpi\n    /* \"#utility.yul\":3110:3118   */\n  dup2\n    /* \"#utility.yul\":3095:3118   */\n  swap1\n  pop\n    /* \"#utility.yul\":3071:3120   */\ntag_63:\n    /* \"#utility.yul\":3133:3213   */\n  tag_64\n    /* \"#utility.yul\":3189:3211   */\n  tag_65\n    /* \"#utility.yul\":3207:3210   */\n  dup6\n    /* \"#utility.yul\":3189:3211   */\n  tag_10\n  jump\t// in\ntag_65:\n    /* \"#utility.yul\":3179:3187   */\n  dup4\n    /* \"#utility.yul\":3175:3212   */\n  add\n    /* \"#utility.yul\":3162:3173   */\n  dup3\n    /* \"#utility.yul\":3133:3213   */\n  tag_20\n  jump\t// in\ntag_64:\n    /* \"#utility.yul\":2792:3223   */\n  pop\n  pop\n    /* \"#utility.yul\":2777:3223   */\ntag_60:\n    /* \"#utility.yul\":2687:3230   */\n  pop\n  pop\n  pop\n  jump\t// out\n    /* \"#utility.yul\":3236:3353   */\ntag_22:\n    /* \"#utility.yul\":3290:3298   */\n  0x00\n    /* \"#utility.yul\":3340:3345   */\n  dup3\n    /* \"#utility.yul\":3334:3338   */\n  dup3\n    /* \"#utility.yul\":3330:3346   */\n  shr\n    /* \"#utility.yul\":3309:3346   */\n  swap1\n  pop\n    /* \"#utility.yul\":3236:3353   */\n  swap3\n  swap2\n  pop\n  pop\n  jump\t// out\n    /* \"#utility.yul\":3359:3528   */\ntag_23:\n    /* \"#utility.yul\":3403:3409   */\n  0x00\n    /* \"#utility.yul\":3436:3487   */\n  tag_68\n    /* \"#utility.yul\":3484:3485   */\n  0x00\n    /* \"#utility.yul\":3480:3486   */\n  not\n    /* \"#utility.yul\":3472:3477   */\n  dup5\n    /* \"#utility.yul\":3469:3470   */\n  0x08\n    /* \"#utility.yul\":3465:3478   */\n  mul\n    /* \"#utility.yul\":3436:3487   */\n  tag_22\n  jump\t// in\ntag_68:\n    /* \"#utility.yul\":3432:3488   */\n  not\n    /* \"#utility.yul\":3517:3521   */\n  dup1\n    /* \"#utility.yul\":3511:3515   */\n  dup4\n    /* \"#utility.yul\":3507:3522   */\n  and\n    /* \"#utility.yul\":3497:3522   */\n  swap2\n  pop\n    /* \"#utility.yul\":3410:3528   */\n  pop\n    /* \"#utility.yul\":3359:3528   */\n  swap3\n  swap2\n  pop\n  pop\n  jump\t// out\n    /* \"#utility.yul\":3533:3828   */\ntag_24:\n    /* \"#utility.yul\":3609:3613   */\n  0x00\n    /* \"#utility.yul\":3755:3784   */\n  tag_70\n    /* \"#utility.yul\":3780:3783   */\n  dup4\n    /* \"#utility.yul\":3774:3778   */\n  dup4\n    /* \"#utility.yul\":3755:3784   */\n  tag_23\n  jump\t// in\ntag_70:\n    /* \"#utility.yul\":3747:3784   */\n  swap2\n  pop\n    /* \"#utility.yul\":3817:3820   */\n  dup3\n    /* \"#utility.yul\":3814:3815   */\n  0x02\n    /* \"#utility.yul\":3810:3821   */\n  mul\n    /* \"#utility.yul\":3804:3808   */\n  dup3\n    /* \"#utility.yul\":3801:3822   */\n  or\n    /* \"#utility.yul\":3793:3822   */\n  swap1\n  pop\n    /* \"#utility.yul\":3533:3828   */\n  swap3\n  swap2\n  pop\n  pop\n  jump\t// out\n    /* \"#utility.yul\":3833:5228   */\ntag_2:\n    /* \"#utility.yul\":3950:3987   */\n  tag_72\n    /* \"#utility.yul\":3983:3986   */\n  dup3\n    /* \"#utility.yul\":3950:3987   */\n  tag_5\n  jump\t// in\ntag_72:\n    /* \"#utility.yul\":4052:4070   */\n  0xffffffffffffffff\n    /* \"#utility.yul\":4044:4050   */\n  dup2\n    /* \"#utility.yul\":4041:4071   */\n  gt\n    /* \"#utility.yul\":4038:4094   */\n  iszero\n  tag_73\n  jumpi\n    /* \"#utility.yul\":4074:4092   */\n  tag_74\n  tag_6\n  jump\t// in\ntag_74:\n    /* \"#utility.yul\":4038:4094   */\ntag_73:\n    /* \"#utility.yul\":4118:4156   */\n  tag_75\n    /* \"#utility.yul\":4150:4154   */\n  dup3\n    /* \"#utility.yul\":4144:4155   */\n  sload\n    /* \"#utility.yul\":4118:4156   */\n  tag_8\n  jump\t// in\ntag_75:\n    /* \"#utility.yul\":4203:4270   */\n  tag_76\n    /* \"#utility.yul\":4263:4269   */\n  dup3\n    /* \"#utility.yul\":4255:4261   */\n  dup3\n    /* \"#utility.yul\":4249:4253   */\n  dup6\n    /* \"#utility.yul\":4203:4270   */\n  tag_21\n  jump\t// in\ntag_76:\n    /* \"#utility.yul\":4297:4298   */\n  0x00\n    /* \"#utility.yul\":4321:4325   */\n  0x20\n    /* \"#utility.yul\":4308:4325   */\n  swap1\n  pop\n    /* \"#utility.yul\":4353:4355   */\n  0x1f\n    /* \"#utility.yul\":4345:4351   */\n  dup4\n    /* \"#utility.yul\":4342:4356   */\n  gt\n    /* \"#utility.yul\":4370:4371   */\n  0x01\n    /* \"#utility.yul\":4365:4983   */\n  dup2\n  eq\n  tag_78\n  jumpi\n    /* \"#utility.yul\":5027:5028   */\n  0x00\n    /* \"#utility.yul\":5044:5050   */\n  dup5\n    /* \"#utility.yul\":5041:5118   */\n  iszero\n  tag_79\n  jumpi\n    /* \"#utility.yul\":5093:5102   */\n  dup3\n    /* \"#utility.yul\":5088:5091   */\n  dup8\n    /* \"#utility.yul\":5084:5103   */\n  add\n    /* \"#utility.yul\":5078:5104   */\n  mload\n    /* \"#utility.yul\":5069:5104   */\n  swap1\n  pop\n    /* \"#utility.yul\":5041:5118   */\ntag_79:\n    /* \"#utility.yul\":5144:5211   */\n  tag_80\n    /* \"#utility.yul\":5204:5210   */\n  dup6\n    /* \"#utility.yul\":5197:5202   */\n  dup3\n    /* \"#utility.yul\":5144:5211   */\n  tag_24\n  jump\t// in\ntag_80:\n    /* \"#utility.yul\":5138:5142   */\n  dup7\n    /* \"#utility.yul\":5131:5212   */\n  sstore\n    /* \"#utility.yul\":5000:5222   */\n  pop\n    /* \"#utility.yul\":4335:5222   */\n  jump(tag_77)\n    /* \"#utility.yul\":4365:4983   */\ntag_78:\n    /* \"#utility.yul\":4417:4421   */\n  0x1f\n    /* \"#utility.yul\":4413:4422   */\n  not\n    /* \"#utility.yul\":4405:4411   */\n  dup5\n    /* \"#utility.yul\":4401:4423   */\n  and\n    /* \"#utility.yul\":4451:4488   */\n  tag_81\n    /* \"#utility.yul\":4483:4487   */\n  dup7\n    /* \"#utility.yul\":4451:4488   */\n  tag_9\n  jump\t// in\ntag_81:\n    /* \"#utility.yul\":4510:4511   */\n  0x00\n    /* \"#utility.yul\":4524:4732   */\ntag_82:\n    /* \"#utility.yul\":4538:4545   */\n  dup3\n    /* \"#utility.yul\":4535:4536   */\n  dup2\n    /* \"#utility.yul\":4532:4546   */\n  lt\n    /* \"#utility.yul\":4524:4732   */\n  iszero\n  tag_84\n  jumpi\n    /* \"#utility.yul\":4617:4626   */\n  dup5\n    /* \"#utility.yul\":4612:4615   */\n  dup10\n    /* \"#utility.yul\":4608:4627   */\n  add\n    /* \"#utility.yul\":4602:4628   */\n  mload\n    /* \"#utility.yul\":4594:4600   */\n  dup3\n    /* \"#utility.yul\":4587:4629   */\n  sstore\n    /* \"#utility.yul\":4668:4669   */\n  0x01\n    /* \"#utility.yul\":4660:4666   */\n  dup3\n    /* \"#utility.yul\":4656:4670   */\n  add\n    /* \"#utility.yul\":4646:4670   */\n  swap2\n  pop\n    /* \"#utility.yul\":4715:4717   */\n  0x20\n    /* \"#utility.yul\":4704:4713   */\n  dup6\n    /* \"#utility.yul\":4700:4718   */\n  add\n    /* \"#utility.yul\":4687:4718   */\n  swap5\n  pop\n    /* \"#utility.yul\":4561:4565   */\n  0x20\n    /* \"#utility.yul\":4558:4559   */\n  dup2\n    /* \"#utility.yul\":4554:4566   */\n  add\n    /* \"#utility.yul\":4549:4566   */\n  swap1\n  pop\n    /* \"#utility.yul\":4524:4732   */\n  jump(tag_82)\ntag_84:\n    /* \"#utility.yul\":4760:4766   */\n  dup7\n    /* \"#utility.yul\":4751:4758   */\n  dup4\n    /* \"#utility.yul\":4748:4767   */\n  lt\n    /* \"#utility.yul\":4745:4924   */\n  iszero\n  tag_85\n  jumpi\n    /* \"#utility.yul\":4818:4827   */\n  dup5\n    /* \"#utility.yul\":4813:4816   */\n  dup10\n    /* \"#utility.yul\":4809:4828   */\n  add\n    /* \"#utility.yul\":4803:4829   */\n  mload\n    /* \"#utility.yul\":4861:4909   */\n  tag_86\n    /* \"#utility.yul\":4903:4907   */\n  0x1f\n    /* \"#utility.yul\":4895:4901   */\n  dup10\n    /* \"#utility.yul\":4891:4908   */\n  and\n    /* \"#utility.yul\":4880:4889   */\n  dup3\n    /* \"#utility.yul\":4861:4909   */\n  tag_23\n  jump\t// in\ntag_86:\n    /* \"#utility.yul\":4853:4859   */\n  dup4\n    /* \"#utility.yul\":4846:4910   */\n  sstore\n    /* \"#utility.yul\":4768:4924   */\n  pop\n    /* \"#utility.yul\":4745:4924   */\ntag_85:\n    /* \"#utility.yul\":4970:4971   */\n  0x01\n    /* \"#utility.yul\":4966:4967   */\n  0x02\n    /* \"#utility.yul\":4958:4964   */\n  dup9\n    /* \"#utility.yul\":4954:4968   */\n  mul\n    /* \"#utility.yul\":4950:4972   */\n  add\n    /* \"#utility.yul\":4944:4948   */\n  dup9\n    /* \"#utility.yul\":4937:4973   */\n  sstore\n    /* \"#utility.yul\":4372:4983   */\n  pop\n  pop\n  pop\n    /* \"#utility.yul\":4335:5222   */\ntag_77:\n  pop\n    /* \"#utility.yul\":3925:5228   */\n  pop\n  pop\n  pop\n    /* \"#utility.yul\":3833:5228   */\n  pop\n  pop\n  jump\t// out\n    /* \"my_contracts/HelloWorld.sol\":59:1404  contract HelloWorld{... */\ntag_4:\n  dataSize(sub_0)\n  dup1\n  dataOffset(sub_0)\n  0x00\n  codecopy\n  0x00\n  return\nstop\n\nsub_0: assembly {\n        /* \"my_contracts/HelloWorld.sol\":59:1404  contract HelloWorld{... */\n      mstore(0x40, 0x80)\n      callvalue\n      dup1\n      iszero\n      tag_1\n      jumpi\n      revert(0x00, 0x00)\n    tag_1:\n      pop\n      jumpi(tag_2, lt(calldatasize, 0x04))\n      shr(0xe0, calldataload(0x00))\n      dup1\n      0x782cc363\n      eq\n      tag_3\n      jumpi\n      dup1\n      0xbc520848\n      eq\n      tag_4\n      jumpi\n    tag_2:\n      revert(0x00, 0x00)\n        /* \"my_contracts/HelloWorld.sol\":271:470  function setHello(string memory _str,uint64 _id) public{... */\n    tag_3:\n      tag_5\n      0x04\n      dup1\n      calldatasize\n      sub\n      dup2\n      add\n      swap1\n      tag_6\n      swap2\n      swap1\n      tag_7\n      jump\t// in\n    tag_6:\n      tag_8\n      jump\t// in\n    tag_5:\n      stop\n        /* \"my_contracts/HelloWorld.sol\":476:1254  function sayHello(uint64 _id) public view returns (string memory){... */\n    tag_4:\n      tag_9\n      0x04\n      dup1\n      calldatasize\n      sub\n      dup2\n      add\n      swap1\n      tag_10\n      swap2\n      swap1\n      tag_11\n      jump\t// in\n    tag_10:\n      tag_12\n      jump\t// in\n    tag_9:\n      mload(0x40)\n      tag_13\n      swap2\n      swap1\n      tag_14\n      jump\t// in\n    tag_13:\n      mload(0x40)\n      dup1\n      swap2\n      sub\n      swap1\n      return\n        /* \"my_contracts/HelloWorld.sol\":271:470  function setHello(string memory _str,uint64 _id) public{... */\n    tag_8:\n        /* \"my_contracts/HelloWorld.sol\":365:381  Info memory info */\n      0x00\n        /* \"my_contracts/HelloWorld.sol\":384:411  Info(_id, _str, msg.sender) */\n      mload(0x40)\n      dup1\n      0x60\n      add\n      0x40\n      mstore\n      dup1\n        /* \"my_contracts/HelloWorld.sol\":389:392  _id */\n      dup4\n        /* \"my_contracts/HelloWorld.sol\":384:411  Info(_id, _str, msg.sender) */\n      0xffffffffffffffff\n      and\n      dup2\n      mstore\n      0x20\n      add\n        /* \"my_contracts/HelloWorld.sol\":394:398  _str */\n      dup5\n        /* \"my_contracts/HelloWorld.sol\":384:411  Info(_id, _str, msg.sender) */\n      dup2\n      mstore\n      0x20\n      add\n        /* \"my_contracts/HelloWorld.sol\":400:410  msg.sender */\n      caller\n        /* \"my_contracts/HelloWorld.sol\":384:411  Info(_id, _str, msg.sender) */\n      0xffffffffffffffffffffffffffffffffffffffff\n      and\n      dup2\n      mstore\n      pop\n        /* \"my_contracts/HelloWorld.sol\":365:411  Info memory info = Info(_id, _str, msg.sender) */\n      swap1\n      pop\n        /* \"my_contracts/HelloWorld.sol\":421:426  infos */\n      0x01\n        /* \"my_contracts/HelloWorld.sol\":432:436  info */\n      dup2\n        /* \"my_contracts/HelloWorld.sol\":421:437  infos.push(info) */\n      swap1\n      dup1\n      0x01\n      dup2\n      sload\n      add\n      dup1\n      dup3\n      sstore\n      dup1\n      swap2\n      pop\n      pop\n      0x01\n      swap1\n      sub\n      swap1\n      0x00\n      mstore\n      keccak256(0x00, 0x20)\n      swap1\n      0x03\n      mul\n      add\n      0x00\n      swap1\n      swap2\n      swap1\n      swap2\n      swap1\n      swap2\n      pop\n      0x00\n      dup3\n      add\n      mload\n      dup2\n      0x00\n      add\n      exp(0x0100, 0x00)\n      dup2\n      sload\n      dup2\n      0xffffffffffffffff\n      mul\n      not\n      and\n      swap1\n      dup4\n      0xffffffffffffffff\n      and\n      mul\n      or\n      swap1\n      sstore\n      pop\n      0x20\n      dup3\n      add\n      mload\n      dup2\n      0x01\n      add\n      swap1\n      dup2\n      tag_17\n      swap2\n      swap1\n      tag_18\n      jump\t// in\n    tag_17:\n      pop\n      0x40\n      dup3\n      add\n      mload\n      dup2\n      0x02\n      add\n      exp(0x0100, 0x00)\n      dup2\n      sload\n      dup2\n      0xffffffffffffffffffffffffffffffffffffffff\n      mul\n      not\n      and\n      swap1\n      dup4\n      0xffffffffffffffffffffffffffffffffffffffff\n      and\n      mul\n      or\n      swap1\n      sstore\n      pop\n      pop\n      pop\n        /* \"my_contracts/HelloWorld.sol\":459:463  info */\n      dup1\n        /* \"my_contracts/HelloWorld.sol\":447:451  maps */\n      0x02\n        /* \"my_contracts/HelloWorld.sol\":447:456  maps[_id] */\n      0x00\n        /* \"my_contracts/HelloWorld.sol\":452:455  _id */\n      dup5\n        /* \"my_contracts/HelloWorld.sol\":447:456  maps[_id] */\n      0xffffffffffffffff\n      and\n      0xffffffffffffffff\n      and\n      dup2\n      mstore\n      0x20\n      add\n      swap1\n      dup2\n      mstore\n      0x20\n      add\n      0x00\n      keccak256\n        /* \"my_contracts/HelloWorld.sol\":447:463  maps[_id] = info */\n      0x00\n      dup3\n      add\n      mload\n      dup2\n      0x00\n      add\n      exp(0x0100, 0x00)\n      dup2\n      sload\n      dup2\n      0xffffffffffffffff\n      mul\n      not\n      and\n      swap1\n      dup4\n      0xffffffffffffffff\n      and\n      mul\n      or\n      swap1\n      sstore\n      pop\n      0x20\n      dup3\n      add\n      mload\n      dup2\n      0x01\n      add\n      swap1\n      dup2\n      tag_19\n      swap2\n      swap1\n      tag_18\n      jump\t// in\n    tag_19:\n      pop\n      0x40\n      dup3\n      add\n      mload\n      dup2\n      0x02\n      add\n      exp(0x0100, 0x00)\n      dup2\n      sload\n      dup2\n      0xffffffffffffffffffffffffffffffffffffffff\n      mul\n      not\n      and\n      swap1\n      dup4\n      0xffffffffffffffffffffffffffffffffffffffff\n      and\n      mul\n      or\n      swap1\n      sstore\n      pop\n      swap1\n      pop\n      pop\n        /* \"my_contracts/HelloWorld.sol\":326:470  {... */\n      pop\n        /* \"my_contracts/HelloWorld.sol\":271:470  function setHello(string memory _str,uint64 _id) public{... */\n      pop\n      pop\n      jump\t// out\n        /* \"my_contracts/HelloWorld.sol\":476:1254  function sayHello(uint64 _id) public view returns (string memory){... */\n    tag_12:\n        /* \"my_contracts/HelloWorld.sol\":527:540  string memory */\n      0x60\n        /* \"my_contracts/HelloWorld.sol\":551:567  Info memory info */\n      0x00\n        /* \"my_contracts/HelloWorld.sol\":570:574  maps */\n      0x02\n        /* \"my_contracts/HelloWorld.sol\":570:579  maps[_id] */\n      0x00\n        /* \"my_contracts/HelloWorld.sol\":575:578  _id */\n      dup5\n        /* \"my_contracts/HelloWorld.sol\":570:579  maps[_id] */\n      0xffffffffffffffff\n      and\n      0xffffffffffffffff\n      and\n      dup2\n      mstore\n      0x20\n      add\n      swap1\n      dup2\n      mstore\n      0x20\n      add\n      0x00\n      keccak256\n        /* \"my_contracts/HelloWorld.sol\":551:579  Info memory info = maps[_id] */\n      mload(0x40)\n      dup1\n      0x60\n      add\n      0x40\n      mstore\n      swap1\n      dup2\n      0x00\n      dup3\n      add\n      0x00\n      swap1\n      sload\n      swap1\n      0x0100\n      exp\n      swap1\n      div\n      0xffffffffffffffff\n      and\n      0xffffffffffffffff\n      and\n      0xffffffffffffffff\n      and\n      dup2\n      mstore\n      0x20\n      add\n      0x01\n      dup3\n      add\n      dup1\n      sload\n      tag_21\n      swap1\n      tag_22\n      jump\t// in\n    tag_21:\n      dup1\n      0x1f\n      add\n      0x20\n      dup1\n      swap2\n      div\n      mul\n      0x20\n      add\n      mload(0x40)\n      swap1\n      dup2\n      add\n      0x40\n      mstore\n      dup1\n      swap3\n      swap2\n      swap1\n      dup2\n      dup2\n      mstore\n      0x20\n      add\n      dup3\n      dup1\n      sload\n      tag_23\n      swap1\n      tag_22\n      jump\t// in\n    tag_23:\n      dup1\n      iszero\n      tag_24\n      jumpi\n      dup1\n      0x1f\n      lt\n      tag_25\n      jumpi\n      0x0100\n      dup1\n      dup4\n      sload\n      div\n      mul\n      dup4\n      mstore\n      swap2\n      0x20\n      add\n      swap2\n      jump(tag_24)\n    tag_25:\n      dup3\n      add\n      swap2\n      swap1\n      0x00\n      mstore\n      keccak256(0x00, 0x20)\n      swap1\n    tag_26:\n      dup2\n      sload\n      dup2\n      mstore\n      swap1\n      0x01\n      add\n      swap1\n      0x20\n      add\n      dup1\n      dup4\n      gt\n      tag_26\n      jumpi\n      dup3\n      swap1\n      sub\n      0x1f\n      and\n      dup3\n      add\n      swap2\n    tag_24:\n      pop\n      pop\n      pop\n      pop\n      pop\n      dup2\n      mstore\n      0x20\n      add\n      0x02\n      dup3\n      add\n      0x00\n      swap1\n      sload\n      swap1\n      0x0100\n      exp\n      swap1\n      div\n      0xffffffffffffffffffffffffffffffffffffffff\n      and\n      0xffffffffffffffffffffffffffffffffffffffff\n      and\n      0xffffffffffffffffffffffffffffffffffffffff\n      and\n      dup2\n      mstore\n      pop\n      pop\n      swap1\n      pop\n        /* \"my_contracts/HelloWorld.sol\":687:690  0x0 */\n      0x00\n        /* \"my_contracts/HelloWorld.sol\":669:691  info.add==address(0x0) */\n      0xffffffffffffffffffffffffffffffffffffffff\n      and\n        /* \"my_contracts/HelloWorld.sol\":669:673  info */\n      dup2\n        /* \"my_contracts/HelloWorld.sol\":669:677  info.add */\n      0x40\n      add\n      mload\n        /* \"my_contracts/HelloWorld.sol\":669:691  info.add==address(0x0) */\n      0xffffffffffffffffffffffffffffffffffffffff\n      and\n      sub\n        /* \"my_contracts/HelloWorld.sol\":666:807  if(info.add==address(0x0)) {... */\n      tag_27\n      jumpi\n        /* \"my_contracts/HelloWorld.sol\":714:737  appendSpeak(str_global) */\n      tag_28\n        /* \"my_contracts/HelloWorld.sol\":726:736  str_global */\n      0x00\n        /* \"my_contracts/HelloWorld.sol\":714:737  appendSpeak(str_global) */\n      dup1\n      sload\n      tag_29\n      swap1\n      tag_22\n      jump\t// in\n    tag_29:\n      dup1\n      0x1f\n      add\n      0x20\n      dup1\n      swap2\n      div\n      mul\n      0x20\n      add\n      mload(0x40)\n      swap1\n      dup2\n      add\n      0x40\n      mstore\n      dup1\n      swap3\n      swap2\n      swap1\n      dup2\n      dup2\n      mstore\n      0x20\n      add\n      dup3\n      dup1\n      sload\n      tag_30\n      swap1\n      tag_22\n      jump\t// in\n    tag_30:\n      dup1\n      iszero\n      tag_31\n      jumpi\n      dup1\n      0x1f\n      lt\n      tag_32\n      jumpi\n      0x0100\n      dup1\n      dup4\n      sload\n      div\n      mul\n      dup4\n      mstore\n      swap2\n      0x20\n      add\n      swap2\n      jump(tag_31)\n    tag_32:\n      dup3\n      add\n      swap2\n      swap1\n      0x00\n      mstore\n      keccak256(0x00, 0x20)\n      swap1\n    tag_33:\n      dup2\n      sload\n      dup2\n      mstore\n      swap1\n      0x01\n      add\n      swap1\n      0x20\n      add\n      dup1\n      dup4\n      gt\n      tag_33\n      jumpi\n      dup3\n      swap1\n      sub\n      0x1f\n      and\n      dup3\n      add\n      swap2\n    tag_31:\n      pop\n      pop\n      pop\n      pop\n      pop\n        /* \"my_contracts/HelloWorld.sol\":714:725  appendSpeak */\n      tag_34\n        /* \"my_contracts/HelloWorld.sol\":714:737  appendSpeak(str_global) */\n      jump\t// in\n    tag_28:\n        /* \"my_contracts/HelloWorld.sol\":707:737  return appendSpeak(str_global) */\n      swap2\n      pop\n      pop\n      jump(tag_20)\n        /* \"my_contracts/HelloWorld.sol\":666:807  if(info.add==address(0x0)) {... */\n    tag_27:\n        /* \"my_contracts/HelloWorld.sol\":773:796  appendSpeak(info.world) */\n      tag_36\n        /* \"my_contracts/HelloWorld.sol\":785:789  info */\n      dup2\n        /* \"my_contracts/HelloWorld.sol\":785:795  info.world */\n      0x20\n      add\n      mload\n        /* \"my_contracts/HelloWorld.sol\":773:784  appendSpeak */\n      tag_34\n        /* \"my_contracts/HelloWorld.sol\":773:796  appendSpeak(info.world) */\n      jump\t// in\n    tag_36:\n        /* \"my_contracts/HelloWorld.sol\":766:796  return appendSpeak(info.world) */\n      swap2\n      pop\n      pop\n        /* \"my_contracts/HelloWorld.sol\":476:1254  function sayHello(uint64 _id) public view returns (string memory){... */\n    tag_20:\n      swap2\n      swap1\n      pop\n      jump\t// out\n        /* \"my_contracts/HelloWorld.sol\":1260:1402  function appendSpeak(string memory _str) internal pure returns(string memory){... */\n    tag_34:\n        /* \"my_contracts/HelloWorld.sol\":1323:1336  string memory */\n      0x60\n        /* \"my_contracts/HelloWorld.sol\":1368:1372  _str */\n      dup2\n        /* \"my_contracts/HelloWorld.sol\":1354:1395  string.concat(_str,\" from remix message\") */\n      add(0x20, mload(0x40))\n      tag_38\n      swap2\n      swap1\n      tag_39\n      jump\t// in\n    tag_38:\n      mload(0x40)\n      0x20\n      dup2\n      dup4\n      sub\n      sub\n      dup2\n      mstore\n      swap1\n      0x40\n      mstore\n        /* \"my_contracts/HelloWorld.sol\":1347:1395  return string.concat(_str,\" from remix message\") */\n      swap1\n      pop\n        /* \"my_contracts/HelloWorld.sol\":1260:1402  function appendSpeak(string memory _str) internal pure returns(string memory){... */\n      swap2\n      swap1\n      pop\n      jump\t// out\n        /* \"#utility.yul\":7:82   */\n    tag_40:\n        /* \"#utility.yul\":40:46   */\n      0x00\n        /* \"#utility.yul\":73:75   */\n      0x40\n        /* \"#utility.yul\":67:76   */\n      mload\n        /* \"#utility.yul\":57:76   */\n      swap1\n      pop\n        /* \"#utility.yul\":7:82   */\n      swap1\n      jump\t// out\n        /* \"#utility.yul\":88:205   */\n    tag_41:\n        /* \"#utility.yul\":197:198   */\n      0x00\n        /* \"#utility.yul\":194:195   */\n      0x00\n        /* \"#utility.yul\":187:199   */\n      revert\n        /* \"#utility.yul\":211:328   */\n    tag_42:\n        /* \"#utility.yul\":320:321   */\n      0x00\n        /* \"#utility.yul\":317:318   */\n      0x00\n        /* \"#utility.yul\":310:322   */\n      revert\n        /* \"#utility.yul\":334:451   */\n    tag_43:\n        /* \"#utility.yul\":443:444   */\n      0x00\n        /* \"#utility.yul\":440:441   */\n      0x00\n        /* \"#utility.yul\":433:445   */\n      revert\n        /* \"#utility.yul\":457:574   */\n    tag_44:\n        /* \"#utility.yul\":566:567   */\n      0x00\n        /* \"#utility.yul\":563:564   */\n      0x00\n        /* \"#utility.yul\":556:568   */\n      revert\n        /* \"#utility.yul\":580:682   */\n    tag_45:\n        /* \"#utility.yul\":621:627   */\n      0x00\n        /* \"#utility.yul\":672:674   */\n      0x1f\n        /* \"#utility.yul\":668:675   */\n      not\n        /* \"#utility.yul\":663:665   */\n      0x1f\n        /* \"#utility.yul\":656:661   */\n      dup4\n        /* \"#utility.yul\":652:666   */\n      add\n        /* \"#utility.yul\":648:676   */\n      and\n        /* \"#utility.yul\":638:676   */\n      swap1\n      pop\n        /* \"#utility.yul\":580:682   */\n      swap2\n      swap1\n      pop\n      jump\t// out\n        /* \"#utility.yul\":688:868   */\n    tag_46:\n        /* \"#utility.yul\":736:813   */\n      0x4e487b7100000000000000000000000000000000000000000000000000000000\n        /* \"#utility.yul\":733:734   */\n      0x00\n        /* \"#utility.yul\":726:814   */\n      mstore\n        /* \"#utility.yul\":833:837   */\n      0x41\n        /* \"#utility.yul\":830:831   */\n      0x04\n        /* \"#utility.yul\":823:838   */\n      mstore\n        /* \"#utility.yul\":857:861   */\n      0x24\n        /* \"#utility.yul\":854:855   */\n      0x00\n        /* \"#utility.yul\":847:862   */\n      revert\n        /* \"#utility.yul\":874:1155   */\n    tag_47:\n        /* \"#utility.yul\":957:984   */\n      tag_89\n        /* \"#utility.yul\":979:983   */\n      dup3\n        /* \"#utility.yul\":957:984   */\n      tag_45\n      jump\t// in\n    tag_89:\n        /* \"#utility.yul\":949:955   */\n      dup2\n        /* \"#utility.yul\":945:985   */\n      add\n        /* \"#utility.yul\":1087:1093   */\n      dup2\n        /* \"#utility.yul\":1075:1085   */\n      dup2\n        /* \"#utility.yul\":1072:1094   */\n      lt\n        /* \"#utility.yul\":1051:1069   */\n      0xffffffffffffffff\n        /* \"#utility.yul\":1039:1049   */\n      dup3\n        /* \"#utility.yul\":1036:1070   */\n      gt\n        /* \"#utility.yul\":1033:1095   */\n      or\n        /* \"#utility.yul\":1030:1118   */\n      iszero\n      tag_90\n      jumpi\n        /* \"#utility.yul\":1098:1116   */\n      tag_91\n      tag_46\n      jump\t// in\n    tag_91:\n        /* \"#utility.yul\":1030:1118   */\n    tag_90:\n        /* \"#utility.yul\":1138:1148   */\n      dup1\n        /* \"#utility.yul\":1134:1136   */\n      0x40\n        /* \"#utility.yul\":1127:1149   */\n      mstore\n        /* \"#utility.yul\":917:1155   */\n      pop\n        /* \"#utility.yul\":874:1155   */\n      pop\n      pop\n      jump\t// out\n        /* \"#utility.yul\":1161:1290   */\n    tag_48:\n        /* \"#utility.yul\":1195:1201   */\n      0x00\n        /* \"#utility.yul\":1222:1242   */\n      tag_93\n      tag_40\n      jump\t// in\n    tag_93:\n        /* \"#utility.yul\":1212:1242   */\n      swap1\n      pop\n        /* \"#utility.yul\":1251:1284   */\n      tag_94\n        /* \"#utility.yul\":1279:1283   */\n      dup3\n        /* \"#utility.yul\":1271:1277   */\n      dup3\n        /* \"#utility.yul\":1251:1284   */\n      tag_47\n      jump\t// in\n    tag_94:\n        /* \"#utility.yul\":1161:1290   */\n      swap2\n      swap1\n      pop\n      jump\t// out\n        /* \"#utility.yul\":1296:1604   */\n    tag_49:\n        /* \"#utility.yul\":1358:1362   */\n      0x00\n        /* \"#utility.yul\":1448:1466   */\n      0xffffffffffffffff\n        /* \"#utility.yul\":1440:1446   */\n      dup3\n        /* \"#utility.yul\":1437:1467   */\n      gt\n        /* \"#utility.yul\":1434:1490   */\n      iszero\n      tag_96\n      jumpi\n        /* \"#utility.yul\":1470:1488   */\n      tag_97\n      tag_46\n      jump\t// in\n    tag_97:\n        /* \"#utility.yul\":1434:1490   */\n    tag_96:\n        /* \"#utility.yul\":1508:1537   */\n      tag_98\n        /* \"#utility.yul\":1530:1536   */\n      dup3\n        /* \"#utility.yul\":1508:1537   */\n      tag_45\n      jump\t// in\n    tag_98:\n        /* \"#utility.yul\":1500:1537   */\n      swap1\n      pop\n        /* \"#utility.yul\":1592:1596   */\n      0x20\n        /* \"#utility.yul\":1586:1590   */\n      dup2\n        /* \"#utility.yul\":1582:1597   */\n      add\n        /* \"#utility.yul\":1574:1597   */\n      swap1\n      pop\n        /* \"#utility.yul\":1296:1604   */\n      swap2\n      swap1\n      pop\n      jump\t// out\n        /* \"#utility.yul\":1610:1758   */\n    tag_50:\n        /* \"#utility.yul\":1708:1714   */\n      dup3\n        /* \"#utility.yul\":1703:1706   */\n      dup2\n        /* \"#utility.yul\":1698:1701   */\n      dup4\n        /* \"#utility.yul\":1685:1715   */\n      calldatacopy\n        /* \"#utility.yul\":1749:1750   */\n      0x00\n        /* \"#utility.yul\":1740:1746   */\n      dup4\n        /* \"#utility.yul\":1735:1738   */\n      dup4\n        /* \"#utility.yul\":1731:1747   */\n      add\n        /* \"#utility.yul\":1724:1751   */\n      mstore\n        /* \"#utility.yul\":1610:1758   */\n      pop\n      pop\n      pop\n      jump\t// out\n        /* \"#utility.yul\":1764:2189   */\n    tag_51:\n        /* \"#utility.yul\":1842:1847   */\n      0x00\n        /* \"#utility.yul\":1867:1933   */\n      tag_101\n        /* \"#utility.yul\":1883:1932   */\n      tag_102\n        /* \"#utility.yul\":1925:1931   */\n      dup5\n        /* \"#utility.yul\":1883:1932   */\n      tag_49\n      jump\t// in\n    tag_102:\n        /* \"#utility.yul\":1867:1933   */\n      tag_48\n      jump\t// in\n    tag_101:\n        /* \"#utility.yul\":1858:1933   */\n      swap1\n      pop\n        /* \"#utility.yul\":1956:1962   */\n      dup3\n        /* \"#utility.yul\":1949:1954   */\n      dup2\n        /* \"#utility.yul\":1942:1963   */\n      mstore\n        /* \"#utility.yul\":1994:1998   */\n      0x20\n        /* \"#utility.yul\":1987:1992   */\n      dup2\n        /* \"#utility.yul\":1983:1999   */\n      add\n        /* \"#utility.yul\":2032:2035   */\n      dup5\n        /* \"#utility.yul\":2023:2029   */\n      dup5\n        /* \"#utility.yul\":2018:2021   */\n      dup5\n        /* \"#utility.yul\":2014:2030   */\n      add\n        /* \"#utility.yul\":2011:2036   */\n      gt\n        /* \"#utility.yul\":2008:2120   */\n      iszero\n      tag_103\n      jumpi\n        /* \"#utility.yul\":2039:2118   */\n      tag_104\n      tag_44\n      jump\t// in\n    tag_104:\n        /* \"#utility.yul\":2008:2120   */\n    tag_103:\n        /* \"#utility.yul\":2129:2183   */\n      tag_105\n        /* \"#utility.yul\":2176:2182   */\n      dup5\n        /* \"#utility.yul\":2171:2174   */\n      dup3\n        /* \"#utility.yul\":2166:2169   */\n      dup6\n        /* \"#utility.yul\":2129:2183   */\n      tag_50\n      jump\t// in\n    tag_105:\n        /* \"#utility.yul\":1848:2189   */\n      pop\n        /* \"#utility.yul\":1764:2189   */\n      swap4\n      swap3\n      pop\n      pop\n      pop\n      jump\t// out\n        /* \"#utility.yul\":2209:2549   */\n    tag_52:\n        /* \"#utility.yul\":2265:2270   */\n      0x00\n        /* \"#utility.yul\":2314:2317   */\n      dup3\n        /* \"#utility.yul\":2307:2311   */\n      0x1f\n        /* \"#utility.yul\":2299:2305   */\n      dup4\n        /* \"#utility.yul\":2295:2312   */\n      add\n        /* \"#utility.yul\":2291:2318   */\n      slt\n        /* \"#utility.yul\":2281:2403   */\n      tag_107\n      jumpi\n        /* \"#utility.yul\":2322:2401   */\n      tag_108\n      tag_43\n      jump\t// in\n    tag_108:\n        /* \"#utility.yul\":2281:2403   */\n    tag_107:\n        /* \"#utility.yul\":2439:2445   */\n      dup2\n        /* \"#utility.yul\":2426:2446   */\n      calldataload\n        /* \"#utility.yul\":2464:2543   */\n      tag_109\n        /* \"#utility.yul\":2539:2542   */\n      dup5\n        /* \"#utility.yul\":2531:2537   */\n      dup3\n        /* \"#utility.yul\":2524:2528   */\n      0x20\n        /* \"#utility.yul\":2516:2522   */\n      dup7\n        /* \"#utility.yul\":2512:2529   */\n      add\n        /* \"#utility.yul\":2464:2543   */\n      tag_51\n      jump\t// in\n    tag_109:\n        /* \"#utility.yul\":2455:2543   */\n      swap2\n      pop\n        /* \"#utility.yul\":2271:2549   */\n      pop\n        /* \"#utility.yul\":2209:2549   */\n      swap3\n      swap2\n      pop\n      pop\n      jump\t// out\n        /* \"#utility.yul\":2555:2656   */\n    tag_53:\n        /* \"#utility.yul\":2591:2598   */\n      0x00\n        /* \"#utility.yul\":2631:2649   */\n      0xffffffffffffffff\n        /* \"#utility.yul\":2624:2629   */\n      dup3\n        /* \"#utility.yul\":2620:2650   */\n      and\n        /* \"#utility.yul\":2609:2650   */\n      swap1\n      pop\n        /* \"#utility.yul\":2555:2656   */\n      swap2\n      swap1\n      pop\n      jump\t// out\n        /* \"#utility.yul\":2662:2782   */\n    tag_54:\n        /* \"#utility.yul\":2734:2757   */\n      tag_112\n        /* \"#utility.yul\":2751:2756   */\n      dup2\n        /* \"#utility.yul\":2734:2757   */\n      tag_53\n      jump\t// in\n    tag_112:\n        /* \"#utility.yul\":2727:2732   */\n      dup2\n        /* \"#utility.yul\":2724:2758   */\n      eq\n        /* \"#utility.yul\":2714:2776   */\n      tag_113\n      jumpi\n        /* \"#utility.yul\":2772:2773   */\n      0x00\n        /* \"#utility.yul\":2769:2770   */\n      0x00\n        /* \"#utility.yul\":2762:2774   */\n      revert\n        /* \"#utility.yul\":2714:2776   */\n    tag_113:\n        /* \"#utility.yul\":2662:2782   */\n      pop\n      jump\t// out\n        /* \"#utility.yul\":2788:2925   */\n    tag_55:\n        /* \"#utility.yul\":2833:2838   */\n      0x00\n        /* \"#utility.yul\":2871:2877   */\n      dup2\n        /* \"#utility.yul\":2858:2878   */\n      calldataload\n        /* \"#utility.yul\":2849:2878   */\n      swap1\n      pop\n        /* \"#utility.yul\":2887:2919   */\n      tag_115\n        /* \"#utility.yul\":2913:2918   */\n      dup2\n        /* \"#utility.yul\":2887:2919   */\n      tag_54\n      jump\t// in\n    tag_115:\n        /* \"#utility.yul\":2788:2925   */\n      swap3\n      swap2\n      pop\n      pop\n      jump\t// out\n        /* \"#utility.yul\":2931:3583   */\n    tag_7:\n        /* \"#utility.yul\":3008:3014   */\n      0x00\n        /* \"#utility.yul\":3016:3022   */\n      0x00\n        /* \"#utility.yul\":3065:3067   */\n      0x40\n        /* \"#utility.yul\":3053:3062   */\n      dup4\n        /* \"#utility.yul\":3044:3051   */\n      dup6\n        /* \"#utility.yul\":3040:3063   */\n      sub\n        /* \"#utility.yul\":3036:3068   */\n      slt\n        /* \"#utility.yul\":3033:3152   */\n      iszero\n      tag_117\n      jumpi\n        /* \"#utility.yul\":3071:3150   */\n      tag_118\n      tag_41\n      jump\t// in\n    tag_118:\n        /* \"#utility.yul\":3033:3152   */\n    tag_117:\n        /* \"#utility.yul\":3219:3220   */\n      0x00\n        /* \"#utility.yul\":3208:3217   */\n      dup4\n        /* \"#utility.yul\":3204:3221   */\n      add\n        /* \"#utility.yul\":3191:3222   */\n      calldataload\n        /* \"#utility.yul\":3249:3267   */\n      0xffffffffffffffff\n        /* \"#utility.yul\":3241:3247   */\n      dup2\n        /* \"#utility.yul\":3238:3268   */\n      gt\n        /* \"#utility.yul\":3235:3352   */\n      iszero\n      tag_119\n      jumpi\n        /* \"#utility.yul\":3271:3350   */\n      tag_120\n      tag_42\n      jump\t// in\n    tag_120:\n        /* \"#utility.yul\":3235:3352   */\n    tag_119:\n        /* \"#utility.yul\":3376:3439   */\n      tag_121\n        /* \"#utility.yul\":3431:3438   */\n      dup6\n        /* \"#utility.yul\":3422:3428   */\n      dup3\n        /* \"#utility.yul\":3411:3420   */\n      dup7\n        /* \"#utility.yul\":3407:3429   */\n      add\n        /* \"#utility.yul\":3376:3439   */\n      tag_52\n      jump\t// in\n    tag_121:\n        /* \"#utility.yul\":3366:3439   */\n      swap3\n      pop\n        /* \"#utility.yul\":3162:3449   */\n      pop\n        /* \"#utility.yul\":3488:3490   */\n      0x20\n        /* \"#utility.yul\":3514:3566   */\n      tag_122\n        /* \"#utility.yul\":3558:3565   */\n      dup6\n        /* \"#utility.yul\":3549:3555   */\n      dup3\n        /* \"#utility.yul\":3538:3547   */\n      dup7\n        /* \"#utility.yul\":3534:3556   */\n      add\n        /* \"#utility.yul\":3514:3566   */\n      tag_55\n      jump\t// in\n    tag_122:\n        /* \"#utility.yul\":3504:3566   */\n      swap2\n      pop\n        /* \"#utility.yul\":3459:3576   */\n      pop\n        /* \"#utility.yul\":2931:3583   */\n      swap3\n      pop\n      swap3\n      swap1\n      pop\n      jump\t// out\n        /* \"#utility.yul\":3589:3916   */\n    tag_11:\n        /* \"#utility.yul\":3647:3653   */\n      0x00\n        /* \"#utility.yul\":3696:3698   */\n      0x20\n        /* \"#utility.yul\":3684:3693   */\n      dup3\n        /* \"#utility.yul\":3675:3682   */\n      dup5\n        /* \"#utility.yul\":3671:3694   */\n      sub\n        /* \"#utility.yul\":3667:3699   */\n      slt\n        /* \"#utility.yul\":3664:3783   */\n      iszero\n      tag_124\n      jumpi\n        /* \"#utility.yul\":3702:3781   */\n      tag_125\n      tag_41\n      jump\t// in\n    tag_125:\n        /* \"#utility.yul\":3664:3783   */\n    tag_124:\n        /* \"#utility.yul\":3822:3823   */\n      0x00\n        /* \"#utility.yul\":3847:3899   */\n      tag_126\n        /* \"#utility.yul\":3891:3898   */\n      dup5\n        /* \"#utility.yul\":3882:3888   */\n      dup3\n        /* \"#utility.yul\":3871:3880   */\n      dup6\n        /* \"#utility.yul\":3867:3889   */\n      add\n        /* \"#utility.yul\":3847:3899   */\n      tag_55\n      jump\t// in\n    tag_126:\n        /* \"#utility.yul\":3837:3899   */\n      swap2\n      pop\n        /* \"#utility.yul\":3793:3909   */\n      pop\n        /* \"#utility.yul\":3589:3916   */\n      swap3\n      swap2\n      pop\n      pop\n      jump\t// out\n        /* \"#utility.yul\":3922:4021   */\n    tag_56:\n        /* \"#utility.yul\":3974:3980   */\n      0x00\n        /* \"#utility.yul\":4008:4013   */\n      dup2\n        /* \"#utility.yul\":4002:4014   */\n      mload\n        /* \"#utility.yul\":3992:4014   */\n      swap1\n      pop\n        /* \"#utility.yul\":3922:4021   */\n      swap2\n      swap1\n      pop\n      jump\t// out\n        /* \"#utility.yul\":4027:4196   */\n    tag_57:\n        /* \"#utility.yul\":4111:4122   */\n      0x00\n        /* \"#utility.yul\":4145:4151   */\n      dup3\n        /* \"#utility.yul\":4140:4143   */\n      dup3\n        /* \"#utility.yul\":4133:4152   */\n      mstore\n        /* \"#utility.yul\":4185:4189   */\n      0x20\n        /* \"#utility.yul\":4180:4183   */\n      dup3\n        /* \"#utility.yul\":4176:4190   */\n      add\n        /* \"#utility.yul\":4161:4190   */\n      swap1\n      pop\n        /* \"#utility.yul\":4027:4196   */\n      swap3\n      swap2\n      pop\n      pop\n      jump\t// out\n        /* \"#utility.yul\":4202:4341   */\n    tag_58:\n        /* \"#utility.yul\":4291:4297   */\n      dup3\n        /* \"#utility.yul\":4286:4289   */\n      dup2\n        /* \"#utility.yul\":4281:4284   */\n      dup4\n        /* \"#utility.yul\":4275:4298   */\n      mcopy\n        /* \"#utility.yul\":4332:4333   */\n      0x00\n        /* \"#utility.yul\":4323:4329   */\n      dup4\n        /* \"#utility.yul\":4318:4321   */\n      dup4\n        /* \"#utility.yul\":4314:4330   */\n      add\n        /* \"#utility.yul\":4307:4334   */\n      mstore\n        /* \"#utility.yul\":4202:4341   */\n      pop\n      pop\n      pop\n      jump\t// out\n        /* \"#utility.yul\":4347:4724   */\n    tag_59:\n        /* \"#utility.yul\":4435:4438   */\n      0x00\n        /* \"#utility.yul\":4463:4502   */\n      tag_131\n        /* \"#utility.yul\":4496:4501   */\n      dup3\n        /* \"#utility.yul\":4463:4502   */\n      tag_56\n      jump\t// in\n    tag_131:\n        /* \"#utility.yul\":4518:4589   */\n      tag_132\n        /* \"#utility.yul\":4582:4588   */\n      dup2\n        /* \"#utility.yul\":4577:4580   */\n      dup6\n        /* \"#utility.yul\":4518:4589   */\n      tag_57\n      jump\t// in\n    tag_132:\n        /* \"#utility.yul\":4511:4589   */\n      swap4\n      pop\n        /* \"#utility.yul\":4598:4663   */\n      tag_133\n        /* \"#utility.yul\":4656:4662   */\n      dup2\n        /* \"#utility.yul\":4651:4654   */\n      dup6\n        /* \"#utility.yul\":4644:4648   */\n      0x20\n        /* \"#utility.yul\":4637:4642   */\n      dup7\n        /* \"#utility.yul\":4633:4649   */\n      add\n        /* \"#utility.yul\":4598:4663   */\n      tag_58\n      jump\t// in\n    tag_133:\n        /* \"#utility.yul\":4688:4717   */\n      tag_134\n        /* \"#utility.yul\":4710:4716   */\n      dup2\n        /* \"#utility.yul\":4688:4717   */\n      tag_45\n      jump\t// in\n    tag_134:\n        /* \"#utility.yul\":4683:4686   */\n      dup5\n        /* \"#utility.yul\":4679:4718   */\n      add\n        /* \"#utility.yul\":4672:4718   */\n      swap2\n      pop\n        /* \"#utility.yul\":4439:4724   */\n      pop\n        /* \"#utility.yul\":4347:4724   */\n      swap3\n      swap2\n      pop\n      pop\n      jump\t// out\n        /* \"#utility.yul\":4730:5043   */\n    tag_14:\n        /* \"#utility.yul\":4843:4847   */\n      0x00\n        /* \"#utility.yul\":4881:4883   */\n      0x20\n        /* \"#utility.yul\":4870:4879   */\n      dup3\n        /* \"#utility.yul\":4866:4884   */\n      add\n        /* \"#utility.yul\":4858:4884   */\n      swap1\n      pop\n        /* \"#utility.yul\":4930:4939   */\n      dup2\n        /* \"#utility.yul\":4924:4928   */\n      dup2\n        /* \"#utility.yul\":4920:4940   */\n      sub\n        /* \"#utility.yul\":4916:4917   */\n      0x00\n        /* \"#utility.yul\":4905:4914   */\n      dup4\n        /* \"#utility.yul\":4901:4918   */\n      add\n        /* \"#utility.yul\":4894:4941   */\n      mstore\n        /* \"#utility.yul\":4958:5036   */\n      tag_136\n        /* \"#utility.yul\":5031:5035   */\n      dup2\n        /* \"#utility.yul\":5022:5028   */\n      dup5\n        /* \"#utility.yul\":4958:5036   */\n      tag_59\n      jump\t// in\n    tag_136:\n        /* \"#utility.yul\":4950:5036   */\n      swap1\n      pop\n        /* \"#utility.yul\":4730:5043   */\n      swap3\n      swap2\n      pop\n      pop\n      jump\t// out\n        /* \"#utility.yul\":5049:5229   */\n    tag_60:\n        /* \"#utility.yul\":5097:5174   */\n      0x4e487b7100000000000000000000000000000000000000000000000000000000\n        /* \"#utility.yul\":5094:5095   */\n      0x00\n        /* \"#utility.yul\":5087:5175   */\n      mstore\n        /* \"#utility.yul\":5194:5198   */\n      0x22\n        /* \"#utility.yul\":5191:5192   */\n      0x04\n        /* \"#utility.yul\":5184:5199   */\n      mstore\n        /* \"#utility.yul\":5218:5222   */\n      0x24\n        /* \"#utility.yul\":5215:5216   */\n      0x00\n        /* \"#utility.yul\":5208:5223   */\n      revert\n        /* \"#utility.yul\":5235:5555   */\n    tag_22:\n        /* \"#utility.yul\":5279:5285   */\n      0x00\n        /* \"#utility.yul\":5316:5317   */\n      0x02\n        /* \"#utility.yul\":5310:5314   */\n      dup3\n        /* \"#utility.yul\":5306:5318   */\n      div\n        /* \"#utility.yul\":5296:5318   */\n      swap1\n      pop\n        /* \"#utility.yul\":5363:5364   */\n      0x01\n        /* \"#utility.yul\":5357:5361   */\n      dup3\n        /* \"#utility.yul\":5353:5365   */\n      and\n        /* \"#utility.yul\":5384:5402   */\n      dup1\n        /* \"#utility.yul\":5374:5455   */\n      tag_139\n      jumpi\n        /* \"#utility.yul\":5440:5444   */\n      0x7f\n        /* \"#utility.yul\":5432:5438   */\n      dup3\n        /* \"#utility.yul\":5428:5445   */\n      and\n        /* \"#utility.yul\":5418:5445   */\n      swap2\n      pop\n        /* \"#utility.yul\":5374:5455   */\n    tag_139:\n        /* \"#utility.yul\":5502:5504   */\n      0x20\n        /* \"#utility.yul\":5494:5500   */\n      dup3\n        /* \"#utility.yul\":5491:5505   */\n      lt\n        /* \"#utility.yul\":5471:5489   */\n      dup2\n        /* \"#utility.yul\":5468:5506   */\n      sub\n        /* \"#utility.yul\":5465:5549   */\n      tag_140\n      jumpi\n        /* \"#utility.yul\":5521:5539   */\n      tag_141\n      tag_60\n      jump\t// in\n    tag_141:\n        /* \"#utility.yul\":5465:5549   */\n    tag_140:\n        /* \"#utility.yul\":5286:5555   */\n      pop\n        /* \"#utility.yul\":5235:5555   */\n      swap2\n      swap1\n      pop\n      jump\t// out\n        /* \"#utility.yul\":5561:5702   */\n    tag_61:\n        /* \"#utility.yul\":5610:5614   */\n      0x00\n        /* \"#utility.yul\":5633:5636   */\n      dup2\n        /* \"#utility.yul\":5625:5636   */\n      swap1\n      pop\n        /* \"#utility.yul\":5656:5659   */\n      dup2\n        /* \"#utility.yul\":5653:5654   */\n      0x00\n        /* \"#utility.yul\":5646:5660   */\n      mstore\n        /* \"#utility.yul\":5690:5694   */\n      0x20\n        /* \"#utility.yul\":5687:5688   */\n      0x00\n        /* \"#utility.yul\":5677:5695   */\n      keccak256\n        /* \"#utility.yul\":5669:5695   */\n      swap1\n      pop\n        /* \"#utility.yul\":5561:5702   */\n      swap2\n      swap1\n      pop\n      jump\t// out\n        /* \"#utility.yul\":5708:5801   */\n    tag_62:\n        /* \"#utility.yul\":5745:5751   */\n      0x00\n        /* \"#utility.yul\":5792:5794   */\n      0x20\n        /* \"#utility.yul\":5787:5789   */\n      0x1f\n        /* \"#utility.yul\":5780:5785   */\n      dup4\n        /* \"#utility.yul\":5776:5790   */\n      add\n        /* \"#utility.yul\":5772:5795   */\n      div\n        /* \"#utility.yul\":5762:5795   */\n      swap1\n      pop\n        /* \"#utility.yul\":5708:5801   */\n      swap2\n      swap1\n      pop\n      jump\t// out\n        /* \"#utility.yul\":5807:5914   */\n    tag_63:\n        /* \"#utility.yul\":5851:5859   */\n      0x00\n        /* \"#utility.yul\":5901:5906   */\n      dup3\n        /* \"#utility.yul\":5895:5899   */\n      dup3\n        /* \"#utility.yul\":5891:5907   */\n      shl\n        /* \"#utility.yul\":5870:5907   */\n      swap1\n      pop\n        /* \"#utility.yul\":5807:5914   */\n      swap3\n      swap2\n      pop\n      pop\n      jump\t// out\n        /* \"#utility.yul\":5920:6313   */\n    tag_64:\n        /* \"#utility.yul\":5989:5995   */\n      0x00\n        /* \"#utility.yul\":6039:6040   */\n      0x08\n        /* \"#utility.yul\":6027:6037   */\n      dup4\n        /* \"#utility.yul\":6023:6041   */\n      mul\n        /* \"#utility.yul\":6062:6159   */\n      tag_146\n        /* \"#utility.yul\":6092:6158   */\n      0xffffffffffffffffffffffffffffffffffffffffffffffffffffffffffffffff\n        /* \"#utility.yul\":6081:6090   */\n      dup3\n        /* \"#utility.yul\":6062:6159   */\n      tag_63\n      jump\t// in\n    tag_146:\n        /* \"#utility.yul\":6180:6219   */\n      tag_147\n        /* \"#utility.yul\":6210:6218   */\n      dup7\n        /* \"#utility.yul\":6199:6208   */\n      dup4\n        /* \"#utility.yul\":6180:6219   */\n      tag_63\n      jump\t// in\n    tag_147:\n        /* \"#utility.yul\":6168:6219   */\n      swap6\n      pop\n        /* \"#utility.yul\":6252:6256   */\n      dup1\n        /* \"#utility.yul\":6248:6257   */\n      not\n        /* \"#utility.yul\":6241:6246   */\n      dup5\n        /* \"#utility.yul\":6237:6258   */\n      and\n        /* \"#utility.yul\":6228:6258   */\n      swap4\n      pop\n        /* \"#utility.yul\":6301:6305   */\n      dup1\n        /* \"#utility.yul\":6291:6299   */\n      dup7\n        /* \"#utility.yul\":6287:6306   */\n      and\n        /* \"#utility.yul\":6280:6285   */\n      dup5\n        /* \"#utility.yul\":6277:6307   */\n      or\n        /* \"#utility.yul\":6267:6307   */\n      swap3\n      pop\n        /* \"#utility.yul\":5996:6313   */\n      pop\n      pop\n        /* \"#utility.yul\":5920:6313   */\n      swap4\n      swap3\n      pop\n      pop\n      pop\n      jump\t// out\n        /* \"#utility.yul\":6319:6396   */\n    tag_65:\n        /* \"#utility.yul\":6356:6363   */\n      0x00\n        /* \"#utility.yul\":6385:6390   */\n      dup2\n        /* \"#utility.yul\":6374:6390   */\n      swap1\n      pop\n        /* \"#utility.yul\":6319:6396   */\n      swap2\n      swap1\n      pop\n      jump\t// out\n        /* \"#utility.yul\":6402:6462   */\n    tag_66:\n        /* \"#utility.yul\":6430:6433   */\n      0x00\n        /* \"#utility.yul\":6451:6456   */\n      dup2\n        /* \"#utility.yul\":6444:6456   */\n      swap1\n      pop\n        /* \"#utility.yul\":6402:6462   */\n      swap2\n      swap1\n      pop\n      jump\t// out\n        /* \"#utility.yul\":6468:6610   */\n    tag_67:\n        /* \"#utility.yul\":6518:6527   */\n      0x00\n        /* \"#utility.yul\":6551:6604   */\n      tag_151\n        /* \"#utility.yul\":6569:6603   */\n      tag_152\n        /* \"#utility.yul\":6578:6602   */\n      tag_153\n        /* \"#utility.yul\":6596:6601   */\n      dup5\n        /* \"#utility.yul\":6578:6602   */\n      tag_65\n      jump\t// in\n    tag_153:\n        /* \"#utility.yul\":6569:6603   */\n      tag_66\n      jump\t// in\n    tag_152:\n        /* \"#utility.yul\":6551:6604   */\n      tag_65\n      jump\t// in\n    tag_151:\n        /* \"#utility.yul\":6538:6604   */\n      swap1\n      pop\n        /* \"#utility.yul\":6468:6610   */\n      swap2\n      swap1\n      pop\n      jump\t// out\n        /* \"#utility.yul\":6616:6691   */\n    tag_68:\n        /* \"#utility.yul\":6659:6662   */\n      0x00\n        /* \"#utility.yul\":6680:6685   */\n      dup2\n        /* \"#utility.yul\":6673:6685   */\n      swap1\n      pop\n        /* \"#utility.yul\":6616:6691   */\n      swap2\n      swap1\n      pop\n      jump\t// out\n        /* \"#utility.yul\":6697:6966   */\n    tag_69:\n        /* \"#utility.yul\":6807:6846   */\n      tag_156\n        /* \"#utility.yul\":6838:6845   */\n      dup4\n        /* \"#utility.yul\":6807:6846   */\n      tag_67\n      jump\t// in\n    tag_156:\n        /* \"#utility.yul\":6868:6959   */\n      tag_157\n        /* \"#utility.yul\":6917:6958   */\n      tag_158\n        /* \"#utility.yul\":6941:6957   */\n      dup3\n        /* \"#utility.yul\":6917:6958   */\n      tag_68\n      jump\t// in\n    tag_158:\n        /* \"#utility.yul\":6909:6915   */\n      dup5\n        /* \"#utility.yul\":6902:6906   */\n      dup5\n        /* \"#utility.yul\":6896:6907   */\n      sload\n        /* \"#utility.yul\":6868:6959   */\n      tag_64\n      jump\t// in\n    tag_157:\n        /* \"#utility.yul\":6862:6866   */\n      dup3\n        /* \"#utility.yul\":6855:6960   */\n      sstore\n        /* \"#utility.yul\":6773:6966   */\n      pop\n        /* \"#utility.yul\":6697:6966   */\n      pop\n      pop\n      pop\n      jump\t// out\n        /* \"#utility.yul\":6972:7045   */\n    tag_70:\n        /* \"#utility.yul\":7017:7020   */\n      0x00\n        /* \"#utility.yul\":7038:7039   */\n      0x00\n        /* \"#utility.yul\":7031:7039   */\n      swap1\n      pop\n        /* \"#utility.yul\":6972:7045   */\n      swap1\n      jump\t// out\n        /* \"#utility.yul\":7051:7240   */\n    tag_71:\n        /* \"#utility.yul\":7128:7160   */\n      tag_161\n      tag_70\n      jump\t// in\n    tag_161:\n        /* \"#utility.yul\":7169:7234   */\n      tag_162\n        /* \"#utility.yul\":7227:7233   */\n      dup2\n        /* \"#utility.yul\":7219:7225   */\n      dup5\n        /* \"#utility.yul\":7213:7217   */\n      dup5\n        /* \"#utility.yul\":7169:7234   */\n      tag_69\n      jump\t// in\n    tag_162:\n        /* \"#utility.yul\":7104:7240   */\n      pop\n        /* \"#utility.yul\":7051:7240   */\n      pop\n      pop\n      jump\t// out\n        /* \"#utility.yul\":7246:7432   */\n    tag_72:\n        /* \"#utility.yul\":7306:7426   */\n    tag_164:\n        /* \"#utility.yul\":7323:7326   */\n      dup2\n        /* \"#utility.yul\":7316:7321   */\n      dup2\n        /* \"#utility.yul\":7313:7327   */\n      lt\n        /* \"#utility.yul\":7306:7426   */\n      iszero\n      tag_166\n      jumpi\n        /* \"#utility.yul\":7377:7416   */\n      tag_167\n        /* \"#utility.yul\":7414:7415   */\n      0x00\n        /* \"#utility.yul\":7407:7412   */\n      dup3\n        /* \"#utility.yul\":7377:7416   */\n      tag_71\n      jump\t// in\n    tag_167:\n        /* \"#utility.yul\":7350:7351   */\n      0x01\n        /* \"#utility.yul\":7343:7348   */\n      dup2\n        /* \"#utility.yul\":7339:7352   */\n      add\n        /* \"#utility.yul\":7330:7352   */\n      swap1\n      pop\n        /* \"#utility.yul\":7306:7426   */\n      jump(tag_164)\n    tag_166:\n        /* \"#utility.yul\":7246:7432   */\n      pop\n      pop\n      jump\t// out\n        /* \"#utility.yul\":7438:7981   */\n    tag_73:\n        /* \"#utility.yul\":7539:7541   */\n      0x1f\n        /* \"#utility.yul\":7534:7537   */\n      dup3\n        /* \"#utility.yul\":7531:7542   */\n      gt\n        /* \"#utility.yul\":7528:7974   */\n      iszero\n      tag_169\n      jumpi\n        /* \"#utility.yul\":7573:7611   */\n      tag_170\n        /* \"#utility.yul\":7605:7610   */\n      dup2\n        /* \"#utility.yul\":7573:7611   */\n      tag_61\n      jump\t// in\n    tag_170:\n        /* \"#utility.yul\":7657:7686   */\n      tag_171\n        /* \"#utility.yul\":7675:7685   */\n      dup5\n        /* \"#utility.yul\":7657:7686   */\n      tag_62\n      jump\t// in\n    tag_171:\n        /* \"#utility.yul\":7647:7655   */\n      dup2\n        /* \"#utility.yul\":7643:7687   */\n      add\n        /* \"#utility.yul\":7840:7842   */\n      0x20\n        /* \"#utility.yul\":7828:7838   */\n      dup6\n        /* \"#utility.yul\":7825:7843   */\n      lt\n        /* \"#utility.yul\":7822:7871   */\n      iszero\n      tag_172\n      jumpi\n        /* \"#utility.yul\":7861:7869   */\n      dup2\n        /* \"#utility.yul\":7846:7869   */\n      swap1\n      pop\n        /* \"#utility.yul\":7822:7871   */\n    tag_172:\n        /* \"#utility.yul\":7884:7964   */\n      tag_173\n        /* \"#utility.yul\":7940:7962   */\n      tag_174\n        /* \"#utility.yul\":7958:7961   */\n      dup6\n        /* \"#utility.yul\":7940:7962   */\n      tag_62\n      jump\t// in\n    tag_174:\n        /* \"#utility.yul\":7930:7938   */\n      dup4\n        /* \"#utility.yul\":7926:7963   */\n      add\n        /* \"#utility.yul\":7913:7924   */\n      dup3\n        /* \"#utility.yul\":7884:7964   */\n      tag_72\n      jump\t// in\n    tag_173:\n        /* \"#utility.yul\":7543:7974   */\n      pop\n      pop\n        /* \"#utility.yul\":7528:7974   */\n    tag_169:\n        /* \"#utility.yul\":7438:7981   */\n      pop\n      pop\n      pop\n      jump\t// out\n        /* \"#utility.yul\":7987:8104   */\n    tag_74:\n        /* \"#utility.yul\":8041:8049   */\n      0x00\n        /* \"#utility.yul\":8091:8096   */\n      dup3\n        /* \"#utility.yul\":8085:8089   */\n      dup3\n        /* \"#utility.yul\":8081:8097   */\n      shr\n        /* \"#utility.yul\":8060:8097   */\n      swap1\n      pop\n        /* \"#utility.yul\":7987:8104   */\n      swap3\n      swap2\n      pop\n      pop\n      jump\t// out\n        /* \"#utility.yul\":8110:8279   */\n    tag_75:\n        /* \"#utility.yul\":8154:8160   */\n      0x00\n        /* \"#utility.yul\":8187:8238   */\n      tag_177\n        /* \"#utility.yul\":8235:8236   */\n      0x00\n        /* \"#utility.yul\":8231:8237   */\n      not\n        /* \"#utility.yul\":8223:8228   */\n      dup5\n        /* \"#utility.yul\":8220:8221   */\n      0x08\n        /* \"#utility.yul\":8216:8229   */\n      mul\n        /* \"#utility.yul\":8187:8238   */\n      tag_74\n      jump\t// in\n    tag_177:\n        /* \"#utility.yul\":8183:8239   */\n      not\n        /* \"#utility.yul\":8268:8272   */\n      dup1\n        /* \"#utility.yul\":8262:8266   */\n      dup4\n        /* \"#utility.yul\":8258:8273   */\n      and\n        /* \"#utility.yul\":8248:8273   */\n      swap2\n      pop\n        /* \"#utility.yul\":8161:8279   */\n      pop\n        /* \"#utility.yul\":8110:8279   */\n      swap3\n      swap2\n      pop\n      pop\n      jump\t// out\n        /* \"#utility.yul\":8284:8579   */\n    tag_76:\n        /* \"#utility.yul\":8360:8364   */\n      0x00\n        /* \"#utility.yul\":8506:8535   */\n      tag_179\n        /* \"#utility.yul\":8531:8534   */\n      dup4\n        /* \"#utility.yul\":8525:8529   */\n      dup4\n        /* \"#utility.yul\":8506:8535   */\n      tag_75\n      jump\t// in\n    tag_179:\n        /* \"#utility.yul\":8498:8535   */\n      swap2\n      pop\n        /* \"#utility.yul\":8568:8571   */\n      dup3\n        /* \"#utility.yul\":8565:8566   */\n      0x02\n        /* \"#utility.yul\":8561:8572   */\n      mul\n        /* \"#utility.yul\":8555:8559   */\n      dup3\n        /* \"#utility.yul\":8552:8573   */\n      or\n        /* \"#utility.yul\":8544:8573   */\n      swap1\n      pop\n        /* \"#utility.yul\":8284:8579   */\n      swap3\n      swap2\n      pop\n      pop\n      jump\t// out\n        /* \"#utility.yul\":8584:9979   */\n    tag_18:\n        /* \"#utility.yul\":8701:8738   */\n      tag_181\n        /* \"#utility.yul\":8734:8737   */\n      dup3\n        /* \"#utility.yul\":8701:8738   */\n      tag_56\n      jump\t// in\n    tag_181:\n        /* \"#utility.yul\":8803:8821   */\n      0xffffffffffffffff\n        /* \"#utility.yul\":8795:8801   */\n      dup2\n        /* \"#utility.yul\":8792:8822   */\n      gt\n        /* \"#utility.yul\":8789:8845   */\n      iszero\n      tag_182\n      jumpi\n        /* \"#utility.yul\":8825:8843   */\n      tag_183\n      tag_46\n      jump\t// in\n    tag_183:\n        /* \"#utility.yul\":8789:8845   */\n    tag_182:\n        /* \"#utility.yul\":8869:8907   */\n      tag_184\n        /* \"#utility.yul\":8901:8905   */\n      dup3\n        /* \"#utility.yul\":8895:8906   */\n      sload\n        /* \"#utility.yul\":8869:8907   */\n      tag_22\n      jump\t// in\n    tag_184:\n        /* \"#utility.yul\":8954:9021   */\n      tag_185\n        /* \"#utility.yul\":9014:9020   */\n      dup3\n        /* \"#utility.yul\":9006:9012   */\n      dup3\n        /* \"#utility.yul\":9000:9004   */\n      dup6\n        /* \"#utility.yul\":8954:9021   */\n      tag_73\n      jump\t// in\n    tag_185:\n        /* \"#utility.yul\":9048:9049   */\n      0x00\n        /* \"#utility.yul\":9072:9076   */\n      0x20\n        /* \"#utility.yul\":9059:9076   */\n      swap1\n      pop\n        /* \"#utility.yul\":9104:9106   */\n      0x1f\n        /* \"#utility.yul\":9096:9102   */\n      dup4\n        /* \"#utility.yul\":9093:9107   */\n      gt\n        /* \"#utility.yul\":9121:9122   */\n      0x01\n        /* \"#utility.yul\":9116:9734   */\n      dup2\n      eq\n      tag_187\n      jumpi\n        /* \"#utility.yul\":9778:9779   */\n      0x00\n        /* \"#utility.yul\":9795:9801   */\n      dup5\n        /* \"#utility.yul\":9792:9869   */\n      iszero\n      tag_188\n      jumpi\n        /* \"#utility.yul\":9844:9853   */\n      dup3\n        /* \"#utility.yul\":9839:9842   */\n      dup8\n        /* \"#utility.yul\":9835:9854   */\n      add\n        /* \"#utility.yul\":9829:9855   */\n      mload\n        /* \"#utility.yul\":9820:9855   */\n      swap1\n      pop\n        /* \"#utility.yul\":9792:9869   */\n    tag_188:\n        /* \"#utility.yul\":9895:9962   */\n      tag_189\n        /* \"#utility.yul\":9955:9961   */\n      dup6\n        /* \"#utility.yul\":9948:9953   */\n      dup3\n        /* \"#utility.yul\":9895:9962   */\n      tag_76\n      jump\t// in\n    tag_189:\n        /* \"#utility.yul\":9889:9893   */\n      dup7\n        /* \"#utility.yul\":9882:9963   */\n      sstore\n        /* \"#utility.yul\":9751:9973   */\n      pop\n        /* \"#utility.yul\":9086:9973   */\n      jump(tag_186)\n        /* \"#utility.yul\":9116:9734   */\n    tag_187:\n        /* \"#utility.yul\":9168:9172   */\n      0x1f\n        /* \"#utility.yul\":9164:9173   */\n      not\n        /* \"#utility.yul\":9156:9162   */\n      dup5\n        /* \"#utility.yul\":9152:9174   */\n      and\n        /* \"#utility.yul\":9202:9239   */\n      tag_190\n        /* \"#utility.yul\":9234:9238   */\n      dup7\n        /* \"#utility.yul\":9202:9239   */\n      tag_61\n      jump\t// in\n    tag_190:\n        /* \"#utility.yul\":9261:9262   */\n      0x00\n        /* \"#utility.yul\":9275:9483   */\n    tag_191:\n        /* \"#utility.yul\":9289:9296   */\n      dup3\n        /* \"#utility.yul\":9286:9287   */\n      dup2\n        /* \"#utility.yul\":9283:9297   */\n      lt\n        /* \"#utility.yul\":9275:9483   */\n      iszero\n      tag_193\n      jumpi\n        /* \"#utility.yul\":9368:9377   */\n      dup5\n        /* \"#utility.yul\":9363:9366   */\n      dup10\n        /* \"#utility.yul\":9359:9378   */\n      add\n        /* \"#utility.yul\":9353:9379   */\n      mload\n        /* \"#utility.yul\":9345:9351   */\n      dup3\n        /* \"#utility.yul\":9338:9380   */\n      sstore\n        /* \"#utility.yul\":9419:9420   */\n      0x01\n        /* \"#utility.yul\":9411:9417   */\n      dup3\n        /* \"#utility.yul\":9407:9421   */\n      add\n        /* \"#utility.yul\":9397:9421   */\n      swap2\n      pop\n        /* \"#utility.yul\":9466:9468   */\n      0x20\n        /* \"#utility.yul\":9455:9464   */\n      dup6\n        /* \"#utility.yul\":9451:9469   */\n      add\n        /* \"#utility.yul\":9438:9469   */\n      swap5\n      pop\n        /* \"#utility.yul\":9312:9316   */\n      0x20\n        /* \"#utility.yul\":9309:9310   */\n      dup2\n        /* \"#utility.yul\":9305:9317   */\n      add\n        /* \"#utility.yul\":9300:9317   */\n      swap1\n      pop\n        /* \"#utility.yul\":9275:9483   */\n      jump(tag_191)\n    tag_193:\n        /* \"#utility.yul\":9511:9517   */\n      dup7\n        /* \"#utility.yul\":9502:9509   */\n      dup4\n        /* \"#utility.yul\":9499:9518   */\n      lt\n        /* \"#utility.yul\":9496:9675   */\n      iszero\n      tag_194\n      jumpi\n        /* \"#utility.yul\":9569:9578   */\n      dup5\n        /* \"#utility.yul\":9564:9567   */\n      dup10\n        /* \"#utility.yul\":9560:9579   */\n      add\n        /* \"#utility.yul\":9554:9580   */\n      mload\n        /* \"#utility.yul\":9612:9660   */\n      tag_195\n        /* \"#utility.yul\":9654:9658   */\n      0x1f\n        /* \"#utility.yul\":9646:9652   */\n      dup10\n        /* \"#utility.yul\":9642:9659   */\n      and\n        /* \"#utility.yul\":9631:9640   */\n      dup3\n        /* \"#utility.yul\":9612:9660   */\n      tag_75\n      jump\t// in\n    tag_195:\n        /* \"#utility.yul\":9604:9610   */\n      dup4\n        /* \"#utility.yul\":9597:9661   */\n      sstore\n        /* \"#utility.yul\":9519:9675   */\n      pop\n        /* \"#utility.yul\":9496:9675   */\n    tag_194:\n        /* \"#utility.yul\":9721:9722   */\n      0x01\n        /* \"#utility.yul\":9717:9718   */\n      0x02\n        /* \"#utility.yul\":9709:9715   */\n      dup9\n        /* \"#utility.yul\":9705:9719   */\n      mul\n        /* \"#utility.yul\":9701:9723   */\n      add\n        /* \"#utility.yul\":9695:9699   */\n      dup9\n        /* \"#utility.yul\":9688:9724   */\n      sstore\n        /* \"#utility.yul\":9123:9734   */\n      pop\n      pop\n      pop\n        /* \"#utility.yul\":9086:9973   */\n    tag_186:\n      pop\n        /* \"#utility.yul\":8676:9979   */\n      pop\n      pop\n      pop\n        /* \"#utility.yul\":8584:9979   */\n      pop\n      pop\n      jump\t// out\n        /* \"#utility.yul\":9985:10133   */\n    tag_77:\n        /* \"#utility.yul\":10087:10098   */\n      0x00\n        /* \"#utility.yul\":10124:10127   */\n      dup2\n        /* \"#utility.yul\":10109:10127   */\n      swap1\n      pop\n        /* \"#utility.yul\":9985:10133   */\n      swap3\n      swap2\n      pop\n      pop\n      jump\t// out\n        /* \"#utility.yul\":10139:10529   */\n    tag_78:\n        /* \"#utility.yul\":10245:10248   */\n      0x00\n        /* \"#utility.yul\":10273:10312   */\n      tag_198\n        /* \"#utility.yul\":10306:10311   */\n      dup3\n        /* \"#utility.yul\":10273:10312   */\n      tag_56\n      jump\t// in\n    tag_198:\n        /* \"#utility.yul\":10328:10417   */\n      tag_199\n        /* \"#utility.yul\":10410:10416   */\n      dup2\n        /* \"#utility.yul\":10405:10408   */\n      dup6\n        /* \"#utility.yul\":10328:10417   */\n      tag_77\n      jump\t// in\n    tag_199:\n        /* \"#utility.yul\":10321:10417   */\n      swap4\n      pop\n        /* \"#utility.yul\":10426:10491   */\n      tag_200\n        /* \"#utility.yul\":10484:10490   */\n      dup2\n        /* \"#utility.yul\":10479:10482   */\n      dup6\n        /* \"#utility.yul\":10472:10476   */\n      0x20\n        /* \"#utility.yul\":10465:10470   */\n      dup7\n        /* \"#utility.yul\":10461:10477   */\n      add\n        /* \"#utility.yul\":10426:10491   */\n      tag_58\n      jump\t// in\n    tag_200:\n        /* \"#utility.yul\":10516:10522   */\n      dup1\n        /* \"#utility.yul\":10511:10514   */\n      dup5\n        /* \"#utility.yul\":10507:10523   */\n      add\n        /* \"#utility.yul\":10500:10523   */\n      swap2\n      pop\n        /* \"#utility.yul\":10249:10529   */\n      pop\n        /* \"#utility.yul\":10139:10529   */\n      swap3\n      swap2\n      pop\n      pop\n      jump\t// out\n        /* \"#utility.yul\":10535:10732   */\n    tag_79:\n        /* \"#utility.yul\":10704:10725   */\n      0x2066726f6d2072656d6978206d65737361676500000000000000000000000000\n        /* \"#utility.yul\":10699:10702   */\n      dup2\n        /* \"#utility.yul\":10692:10726   */\n      mstore\n        /* \"#utility.yul\":10535:10732   */\n      pop\n      jump\t// out\n        /* \"#utility.yul\":10738:11280   */\n    tag_39:\n        /* \"#utility.yul\":10961:10964   */\n      0x00\n        /* \"#utility.yul\":10983:11078   */\n      tag_203\n        /* \"#utility.yul\":11074:11077   */\n      dup3\n        /* \"#utility.yul\":11065:11071   */\n      dup5\n        /* \"#utility.yul\":10983:11078   */\n      tag_78\n      jump\t// in\n    tag_203:\n        /* \"#utility.yul\":10976:11078   */\n      swap2\n      pop\n        /* \"#utility.yul\":11088:11226   */\n      tag_204\n        /* \"#utility.yul\":11222:11225   */\n      dup3\n        /* \"#utility.yul\":11088:11226   */\n      tag_79\n      jump\t// in\n    tag_204:\n        /* \"#utility.yul\":11251:11253   */\n      0x13\n        /* \"#utility.yul\":11246:11249   */\n      dup3\n        /* \"#utility.yul\":11242:11254   */\n      add\n        /* \"#utility.yul\":11235:11254   */\n      swap2\n      pop\n        /* \"#utility.yul\":11271:11274   */\n      dup2\n        /* \"#utility.yul\":11264:11274   */\n      swap1\n      pop\n        /* \"#utility.yul\":10738:11280   */\n      swap3\n      swap2\n      pop\n      pop\n      jump\t// out\n\n    auxdata: 0xa264697066735822122097f4f7d756e6dc10cadd69c43a7717446baa3a0538b16f824a871ae28b6d609164736f6c634300081e0033\n}\n",
				"bytecode": {
					"linkReferences": {},
					"object": "60806040526040518060400160405280600581526020017f48656c6c6f0000000000000000000000000000000000000000000000000000008152505f90816100479190610296565b50348015610053575f5ffd5b50610365565b5f81519050919050565b7f4e487b71000000000000000000000000000000000000000000000000000000005f52604160045260245ffd5b7f4e487b71000000000000000000000000000000000000000000000000000000005f52602260045260245ffd5b5f60028204905060018216806100d457607f821691505b6020821081036100e7576100e6610090565b5b50919050565b5f819050815f5260205f209050919050565b5f6020601f8301049050919050565b5f82821b905092915050565b5f600883026101497fffffffffffffffffffffffffffffffffffffffffffffffffffffffffffffffff8261010e565b610153868361010e565b95508019841693508086168417925050509392505050565b5f819050919050565b5f819050919050565b5f61019761019261018d8461016b565b610174565b61016b565b9050919050565b5f819050919050565b6101b08361017d565b6101c46101bc8261019e565b84845461011a565b825550505050565b5f5f905090565b6101db6101cc565b6101e68184846101a7565b505050565b5b81811015610209576101fe5f826101d3565b6001810190506101ec565b5050565b601f82111561024e5761021f816100ed565b610228846100ff565b81016020851015610237578190505b61024b610243856100ff565b8301826101eb565b50505b505050565b5f82821c905092915050565b5f61026e5f1984600802610253565b1980831691505092915050565b5f610286838361025f565b9150826002028217905092915050565b61029f82610059565b67ffffffffffffffff8111156102b8576102b7610063565b5b6102c282546100bd565b6102cd82828561020d565b5f60209050601f8311600181146102fe575f84156102ec578287015190505b6102f6858261027b565b86555061035d565b601f19841661030c866100ed565b5f5b828110156103335784890151825560018201915060208501945060208101905061030e565b86831015610350578489015161034c601f89168261025f565b8355505b6001600288020188555050505b505050505050565b610aa2806103725f395ff3fe608060405234801561000f575f5ffd5b5060043610610034575f3560e01c8063782cc36314610038578063bc52084814610054575b5f5ffd5b610052600480360381019061004d919061060d565b610084565b005b61006e60048036038101906100699190610667565b61022b565b60405161007b91906106f2565b60405180910390f35b5f60405180606001604052808367ffffffffffffffff1681526020018481526020013373ffffffffffffffffffffffffffffffffffffffff168152509050600181908060018154018082558091505060019003905f5260205f2090600302015f909190919091505f820151815f015f6101000a81548167ffffffffffffffff021916908367ffffffffffffffff160217905550602082015181600101908161012c9190610918565b506040820151816002015f6101000a81548173ffffffffffffffffffffffffffffffffffffffff021916908373ffffffffffffffffffffffffffffffffffffffff16021790555050508060025f8467ffffffffffffffff1667ffffffffffffffff1681526020019081526020015f205f820151815f015f6101000a81548167ffffffffffffffff021916908367ffffffffffffffff16021790555060208201518160010190816101dc9190610918565b506040820151816002015f6101000a81548173ffffffffffffffffffffffffffffffffffffffff021916908373ffffffffffffffffffffffffffffffffffffffff160217905550905050505050565b60605f60025f8467ffffffffffffffff1667ffffffffffffffff1681526020019081526020015f206040518060600160405290815f82015f9054906101000a900467ffffffffffffffff1667ffffffffffffffff1667ffffffffffffffff16815260200160018201805461029e9061073f565b80601f01602080910402602001604051908101604052809291908181526020018280546102ca9061073f565b80156103155780601f106102ec57610100808354040283529160200191610315565b820191905f5260205f20905b8154815290600101906020018083116102f857829003601f168201915b50505050508152602001600282015f9054906101000a900473ffffffffffffffffffffffffffffffffffffffff1673ffffffffffffffffffffffffffffffffffffffff1673ffffffffffffffffffffffffffffffffffffffff168152505090505f73ffffffffffffffffffffffffffffffffffffffff16816040015173ffffffffffffffffffffffffffffffffffffffff16036104445761043c5f80546103bb9061073f565b80601f01602080910402602001604051908101604052809291908181526020018280546103e79061073f565b80156104325780601f1061040957610100808354040283529160200191610432565b820191905f5260205f20905b81548152906001019060200180831161041557829003601f168201915b505050505061045a565b915050610455565b610451816020015161045a565b9150505b919050565b60608160405160200161046d9190610a47565b6040516020818303038152906040529050919050565b5f604051905090565b5f5ffd5b5f5ffd5b5f5ffd5b5f5ffd5b5f601f19601f8301169050919050565b7f4e487b71000000000000000000000000000000000000000000000000000000005f52604160045260245ffd5b6104e28261049c565b810181811067ffffffffffffffff82111715610501576105006104ac565b5b80604052505050565b5f610513610483565b905061051f82826104d9565b919050565b5f67ffffffffffffffff82111561053e5761053d6104ac565b5b6105478261049c565b9050602081019050919050565b828183375f83830152505050565b5f61057461056f84610524565b61050a565b9050828152602081018484840111156105905761058f610498565b5b61059b848285610554565b509392505050565b5f82601f8301126105b7576105b6610494565b5b81356105c7848260208601610562565b91505092915050565b5f67ffffffffffffffff82169050919050565b6105ec816105d0565b81146105f6575f5ffd5b50565b5f81359050610607816105e3565b92915050565b5f5f604083850312156106235761062261048c565b5b5f83013567ffffffffffffffff8111156106405761063f610490565b5b61064c858286016105a3565b925050602061065d858286016105f9565b9150509250929050565b5f6020828403121561067c5761067b61048c565b5b5f610689848285016105f9565b91505092915050565b5f81519050919050565b5f82825260208201905092915050565b8281835e5f83830152505050565b5f6106c482610692565b6106ce818561069c565b93506106de8185602086016106ac565b6106e78161049c565b840191505092915050565b5f6020820190508181035f83015261070a81846106ba565b905092915050565b7f4e487b71000000000000000000000000000000000000000000000000000000005f52602260045260245ffd5b5f600282049050600182168061075657607f821691505b60208210810361076957610768610712565b5b50919050565b5f819050815f5260205f209050919050565b5f6020601f8301049050919050565b5f82821b905092915050565b5f600883026107cb7fffffffffffffffffffffffffffffffffffffffffffffffffffffffffffffffff82610790565b6107d58683610790565b95508019841693508086168417925050509392505050565b5f819050919050565b5f819050919050565b5f61081961081461080f846107ed565b6107f6565b6107ed565b9050919050565b5f819050919050565b610832836107ff565b61084661083e82610820565b84845461079c565b825550505050565b5f5f905090565b61085d61084e565b610868818484610829565b505050565b5b8181101561088b576108805f82610855565b60018101905061086e565b5050565b601f8211156108d0576108a18161076f565b6108aa84610781565b810160208510156108b9578190505b6108cd6108c585610781565b83018261086d565b50505b505050565b5f82821c905092915050565b5f6108f05f19846008026108d5565b1980831691505092915050565b5f61090883836108e1565b9150826002028217905092915050565b61092182610692565b67ffffffffffffffff81111561093a576109396104ac565b5b610944825461073f565b61094f82828561088f565b5f60209050601f831160018114610980575f841561096e578287015190505b61097885826108fd565b8655506109df565b601f19841661098e8661076f565b5f5b828110156109b557848901518255600182019150602085019450602081019050610990565b868310156109d257848901516109ce601f8916826108e1565b8355505b6001600288020188555050505b505050505050565b5f81905092915050565b5f6109fb82610692565b610a0581856109e7565b9350610a158185602086016106ac565b80840191505092915050565b7f2066726f6d2072656d6978206d65737361676500000000000000000000000000815250565b5f610a5282846109f1565b9150610a5d82610a21565b6013820191508190509291505056fea264697066735822122097f4f7d756e6dc10cadd69c43a7717446baa3a0538b16f824a871ae28b6d609164736f6c634300081e0033",
					"opcodes": "PUSH1 0x80 PUSH1 0x40 MSTORE PUSH1 0x40 MLOAD DUP1 PUSH1 0x40 ADD PUSH1 0x40 MSTORE DUP1 PUSH1 0x5 DUP2 MSTORE PUSH1 0x20 ADD PUSH32 0x48656C6C6F000000000000000000000000000000000000000000000000000000 DUP2 MSTORE POP PUSH0 SWAP1 DUP2 PUSH2 0x47 SWAP2 SWAP1 PUSH2 0x296 JUMP JUMPDEST POP CALLVALUE DUP1 ISZERO PUSH2 0x53 JUMPI PUSH0 PUSH0 REVERT JUMPDEST POP PUSH2 0x365 JUMP JUMPDEST PUSH0 DUP2 MLOAD SWAP1 POP SWAP2 SWAP1 POP JUMP JUMPDEST PUSH32 0x4E487B7100000000000000000000000000000000000000000000000000000000 PUSH0 MSTORE PUSH1 0x41 PUSH1 0x4 MSTORE PUSH1 0x24 PUSH0 REVERT JUMPDEST PUSH32 0x4E487B7100000000000000000000000000000000000000000000000000000000 PUSH0 MSTORE PUSH1 0x22 PUSH1 0x4 MSTORE PUSH1 0x24 PUSH0 REVERT JUMPDEST PUSH0 PUSH1 0x2 DUP3 DIV SWAP1 POP PUSH1 0x1 DUP3 AND DUP1 PUSH2 0xD4 JUMPI PUSH1 0x7F DUP3 AND SWAP2 POP JUMPDEST PUSH1 0x20 DUP3 LT DUP2 SUB PUSH2 0xE7 JUMPI PUSH2 0xE6 PUSH2 0x90 JUMP JUMPDEST JUMPDEST POP SWAP2 SWAP1 POP JUMP JUMPDEST PUSH0 DUP2 SWAP1 POP DUP2 PUSH0 MSTORE PUSH1 0x20 PUSH0 KECCAK256 SWAP1 POP SWAP2 SWAP1 POP JUMP JUMPDEST PUSH0 PUSH1 0x20 PUSH1 0x1F DUP4 ADD DIV SWAP1 POP SWAP2 SWAP1 POP JUMP JUMPDEST PUSH0 DUP3 DUP3 SHL SWAP1 POP SWAP3 SWAP2 POP POP JUMP JUMPDEST PUSH0 PUSH1 0x8 DUP4 MUL PUSH2 0x149 PUSH32 0xFFFFFFFFFFFFFFFFFFFFFFFFFFFFFFFFFFFFFFFFFFFFFFFFFFFFFFFFFFFFFFFF DUP3 PUSH2 0x10E JUMP JUMPDEST PUSH2 0x153 DUP7 DUP4 PUSH2 0x10E JUMP JUMPDEST SWAP6 POP DUP1 NOT DUP5 AND SWAP4 POP DUP1 DUP7 AND DUP5 OR SWAP3 POP POP POP SWAP4 SWAP3 POP POP POP JUMP JUMPDEST PUSH0 DUP2 SWAP1 POP SWAP2 SWAP1 POP JUMP JUMPDEST PUSH0 DUP2 SWAP1 POP SWAP2 SWAP1 POP JUMP JUMPDEST PUSH0 PUSH2 0x197 PUSH2 0x192 PUSH2 0x18D DUP5 PUSH2 0x16B JUMP JUMPDEST PUSH2 0x174 JUMP JUMPDEST PUSH2 0x16B JUMP JUMPDEST SWAP1 POP SWAP2 SWAP1 POP JUMP JUMPDEST PUSH0 DUP2 SWAP1 POP SWAP2 SWAP1 POP JUMP JUMPDEST PUSH2 0x1B0 DUP4 PUSH2 0x17D JUMP JUMPDEST PUSH2 0x1C4 PUSH2 0x1BC DUP3 PUSH2 0x19E JUMP JUMPDEST DUP5 DUP5 SLOAD PUSH2 0x11A JUMP JUMPDEST DUP3 SSTORE POP POP POP POP JUMP JUMPDEST PUSH0 PUSH0 SWAP1 POP SWAP1 JUMP JUMPDEST PUSH2 0x1DB PUSH2 0x1CC JUMP JUMPDEST PUSH2 0x1E6 DUP2 DUP5 DUP5 PUSH2 0x1A7 JUMP JUMPDEST POP POP POP JUMP JUMPDEST JUMPDEST DUP2 DUP2 LT ISZERO PUSH2 0x209 JUMPI PUSH2 0x1FE PUSH0 DUP3 PUSH2 0x1D3 JUMP JUMPDEST PUSH1 0x1 DUP2 ADD SWAP1 POP PUSH2 0x1EC JUMP JUMPDEST POP POP JUMP JUMPDEST PUSH1 0x1F DUP3 GT ISZERO PUSH2 0x24E JUMPI PUSH2 0x21F DUP2 PUSH2 0xED JUMP JUMPDEST PUSH2 0x228 DUP5 PUSH2 0xFF JUMP JUMPDEST DUP2 ADD PUSH1 0x20 DUP6 LT ISZERO PUSH2 0x237 JUMPI DUP2 SWAP1 POP JUMPDEST PUSH2 0x24B PUSH2 0x243 DUP6 PUSH2 0xFF JUMP JUMPDEST DUP4 ADD DUP3 PUSH2 0x1EB JUMP JUMPDEST POP POP JUMPDEST POP POP POP JUMP JUMPDEST PUSH0 DUP3 DUP3 SHR SWAP1 POP SWAP3 SWAP2 POP POP JUMP JUMPDEST PUSH0 PUSH2 0x26E PUSH0 NOT DUP5 PUSH1 0x8 MUL PUSH2 0x253 JUMP JUMPDEST NOT DUP1 DUP4 AND SWAP2 POP POP SWAP3 SWAP2 POP POP JUMP JUMPDEST PUSH0 PUSH2 0x286 DUP4 DUP4 PUSH2 0x25F JUMP JUMPDEST SWAP2 POP DUP3 PUSH1 0x2 MUL DUP3 OR SWAP1 POP SWAP3 SWAP2 POP POP JUMP JUMPDEST PUSH2 0x29F DUP3 PUSH2 0x59 JUMP JUMPDEST PUSH8 0xFFFFFFFFFFFFFFFF DUP2 GT ISZERO PUSH2 0x2B8 JUMPI PUSH2 0x2B7 PUSH2 0x63 JUMP JUMPDEST JUMPDEST PUSH2 0x2C2 DUP3 SLOAD PUSH2 0xBD JUMP JUMPDEST PUSH2 0x2CD DUP3 DUP3 DUP6 PUSH2 0x20D JUMP JUMPDEST PUSH0 PUSH1 0x20 SWAP1 POP PUSH1 0x1F DUP4 GT PUSH1 0x1 DUP2 EQ PUSH2 0x2FE JUMPI PUSH0 DUP5 ISZERO PUSH2 0x2EC JUMPI DUP3 DUP8 ADD MLOAD SWAP1 POP JUMPDEST PUSH2 0x2F6 DUP6 DUP3 PUSH2 0x27B JUMP JUMPDEST DUP7 SSTORE POP PUSH2 0x35D JUMP JUMPDEST PUSH1 0x1F NOT DUP5 AND PUSH2 0x30C DUP7 PUSH2 0xED JUMP JUMPDEST PUSH0 JUMPDEST DUP3 DUP2 LT ISZERO PUSH2 0x333 JUMPI DUP5 DUP10 ADD MLOAD DUP3 SSTORE PUSH1 0x1 DUP3 ADD SWAP2 POP PUSH1 0x20 DUP6 ADD SWAP5 POP PUSH1 0x20 DUP2 ADD SWAP1 POP PUSH2 0x30E JUMP JUMPDEST DUP7 DUP4 LT ISZERO PUSH2 0x350 JUMPI DUP5 DUP10 ADD MLOAD PUSH2 0x34C PUSH1 0x1F DUP10 AND DUP3 PUSH2 0x25F JUMP JUMPDEST DUP4 SSTORE POP JUMPDEST PUSH1 0x1 PUSH1 0x2 DUP9 MUL ADD DUP9 SSTORE POP POP POP JUMPDEST POP POP POP POP POP POP JUMP JUMPDEST PUSH2 0xAA2 DUP1 PUSH2 0x372 PUSH0 CODECOPY PUSH0 RETURN INVALID PUSH1 0x80 PUSH1 0x40 MSTORE CALLVALUE DUP1 ISZERO PUSH2 0xF JUMPI PUSH0 PUSH0 REVERT JUMPDEST POP PUSH1 0x4 CALLDATASIZE LT PUSH2 0x34 JUMPI PUSH0 CALLDATALOAD PUSH1 0xE0 SHR DUP1 PUSH4 0x782CC363 EQ PUSH2 0x38 JUMPI DUP1 PUSH4 0xBC520848 EQ PUSH2 0x54 JUMPI JUMPDEST PUSH0 PUSH0 REVERT JUMPDEST PUSH2 0x52 PUSH1 0x4 DUP1 CALLDATASIZE SUB DUP2 ADD SWAP1 PUSH2 0x4D SWAP2 SWAP1 PUSH2 0x60D JUMP JUMPDEST PUSH2 0x84 JUMP JUMPDEST STOP JUMPDEST PUSH2 0x6E PUSH1 0x4 DUP1 CALLDATASIZE SUB DUP2 ADD SWAP1 PUSH2 0x69 SWAP2 SWAP1 PUSH2 0x667 JUMP JUMPDEST PUSH2 0x22B JUMP JUMPDEST PUSH1 0x40 MLOAD PUSH2 0x7B SWAP2 SWAP1 PUSH2 0x6F2 JUMP JUMPDEST PUSH1 0x40 MLOAD DUP1 SWAP2 SUB SWAP1 RETURN JUMPDEST PUSH0 PUSH1 0x40 MLOAD DUP1 PUSH1 0x60 ADD PUSH1 0x40 MSTORE DUP1 DUP4 PUSH8 0xFFFFFFFFFFFFFFFF AND DUP2 MSTORE PUSH1 0x20 ADD DUP5 DUP2 MSTORE PUSH1 0x20 ADD CALLER PUSH20 0xFFFFFFFFFFFFFFFFFFFFFFFFFFFFFFFFFFFFFFFF AND DUP2 MSTORE POP SWAP1 POP PUSH1 0x1 DUP2 SWAP1 DUP1 PUSH1 0x1 DUP2 SLOAD ADD DUP1 DUP3 SSTORE DUP1 SWAP2 POP POP PUSH1 0x1 SWAP1 SUB SWAP1 PUSH0 MSTORE PUSH1 0x20 PUSH0 KECCAK256 SWAP1 PUSH1 0x3 MUL ADD PUSH0 SWAP1 SWAP2 SWAP1 SWAP2 SWAP1 SWAP2 POP PUSH0 DUP3 ADD MLOAD DUP2 PUSH0 ADD PUSH0 PUSH2 0x100 EXP DUP2 SLOAD DUP2 PUSH8 0xFFFFFFFFFFFFFFFF MUL NOT AND SWAP1 DUP4 PUSH8 0xFFFFFFFFFFFFFFFF AND MUL OR SWAP1 SSTORE POP PUSH1 0x20 DUP3 ADD MLOAD DUP2 PUSH1 0x1 ADD SWAP1 DUP2 PUSH2 0x12C SWAP2 SWAP1 PUSH2 0x918 JUMP JUMPDEST POP PUSH1 0x40 DUP3 ADD MLOAD DUP2 PUSH1 0x2 ADD PUSH0 PUSH2 0x100 EXP DUP2 SLOAD DUP2 PUSH20 0xFFFFFFFFFFFFFFFFFFFFFFFFFFFFFFFFFFFFFFFF MUL NOT AND SWAP1 DUP4 PUSH20 0xFFFFFFFFFFFFFFFFFFFFFFFFFFFFFFFFFFFFFFFF AND MUL OR SWAP1 SSTORE POP POP POP DUP1 PUSH1 0x2 PUSH0 DUP5 PUSH8 0xFFFFFFFFFFFFFFFF AND PUSH8 0xFFFFFFFFFFFFFFFF AND DUP2 MSTORE PUSH1 0x20 ADD SWAP1 DUP2 MSTORE PUSH1 0x20 ADD PUSH0 KECCAK256 PUSH0 DUP3 ADD MLOAD DUP2 PUSH0 ADD PUSH0 PUSH2 0x100 EXP DUP2 SLOAD DUP2 PUSH8 0xFFFFFFFFFFFFFFFF MUL NOT AND SWAP1 DUP4 PUSH8 0xFFFFFFFFFFFFFFFF AND MUL OR SWAP1 SSTORE POP PUSH1 0x20 DUP3 ADD MLOAD DUP2 PUSH1 0x1 ADD SWAP1 DUP2 PUSH2 0x1DC SWAP2 SWAP1 PUSH2 0x918 JUMP JUMPDEST POP PUSH1 0x40 DUP3 ADD MLOAD DUP2 PUSH1 0x2 ADD PUSH0 PUSH2 0x100 EXP DUP2 SLOAD DUP2 PUSH20 0xFFFFFFFFFFFFFFFFFFFFFFFFFFFFFFFFFFFFFFFF MUL NOT AND SWAP1 DUP4 PUSH20 0xFFFFFFFFFFFFFFFFFFFFFFFFFFFFFFFFFFFFFFFF AND MUL OR SWAP1 SSTORE POP SWAP1 POP POP POP POP POP JUMP JUMPDEST PUSH1 0x60 PUSH0 PUSH1 0x2 PUSH0 DUP5 PUSH8 0xFFFFFFFFFFFFFFFF AND PUSH8 0xFFFFFFFFFFFFFFFF AND DUP2 MSTORE PUSH1 0x20 ADD SWAP1 DUP2 MSTORE PUSH1 0x20 ADD PUSH0 KECCAK256 PUSH1 0x40 MLOAD DUP1 PUSH1 0x60 ADD PUSH1 0x40 MSTORE SWAP1 DUP2 PUSH0 DUP3 ADD PUSH0 SWAP1 SLOAD SWAP1 PUSH2 0x100 EXP SWAP1 DIV PUSH8 0xFFFFFFFFFFFFFFFF AND PUSH8 0xFFFFFFFFFFFFFFFF AND PUSH8 0xFFFFFFFFFFFFFFFF AND DUP2 MSTORE PUSH1 0x20 ADD PUSH1 0x1 DUP3 ADD DUP1 SLOAD PUSH2 0x29E SWAP1 PUSH2 0x73F JUMP JUMPDEST DUP1 PUSH1 0x1F ADD PUSH1 0x20 DUP1 SWAP2 DIV MUL PUSH1 0x20 ADD PUSH1 0x40 MLOAD SWAP1 DUP2 ADD PUSH1 0x40 MSTORE DUP1 SWAP3 SWAP2 SWAP1 DUP2 DUP2 MSTORE PUSH1 0x20 ADD DUP3 DUP1 SLOAD PUSH2 0x2CA SWAP1 PUSH2 0x73F JUMP JUMPDEST DUP1 ISZERO PUSH2 0x315 JUMPI DUP1 PUSH1 0x1F LT PUSH2 0x2EC JUMPI PUSH2 0x100 DUP1 DUP4 SLOAD DIV MUL DUP4 MSTORE SWAP2 PUSH1 0x20 ADD SWAP2 PUSH2 0x315 JUMP JUMPDEST DUP3 ADD SWAP2 SWAP1 PUSH0 MSTORE PUSH1 0x20 PUSH0 KECCAK256 SWAP1 JUMPDEST DUP2 SLOAD DUP2 MSTORE SWAP1 PUSH1 0x1 ADD SWAP1 PUSH1 0x20 ADD DUP1 DUP4 GT PUSH2 0x2F8 JUMPI DUP3 SWAP1 SUB PUSH1 0x1F AND DUP3 ADD SWAP2 JUMPDEST POP POP POP POP POP DUP2 MSTORE PUSH1 0x20 ADD PUSH1 0x2 DUP3 ADD PUSH0 SWAP1 SLOAD SWAP1 PUSH2 0x100 EXP SWAP1 DIV PUSH20 0xFFFFFFFFFFFFFFFFFFFFFFFFFFFFFFFFFFFFFFFF AND PUSH20 0xFFFFFFFFFFFFFFFFFFFFFFFFFFFFFFFFFFFFFFFF AND PUSH20 0xFFFFFFFFFFFFFFFFFFFFFFFFFFFFFFFFFFFFFFFF AND DUP2 MSTORE POP POP SWAP1 POP PUSH0 PUSH20 0xFFFFFFFFFFFFFFFFFFFFFFFFFFFFFFFFFFFFFFFF AND DUP2 PUSH1 0x40 ADD MLOAD PUSH20 0xFFFFFFFFFFFFFFFFFFFFFFFFFFFFFFFFFFFFFFFF AND SUB PUSH2 0x444 JUMPI PUSH2 0x43C PUSH0 DUP1 SLOAD PUSH2 0x3BB SWAP1 PUSH2 0x73F JUMP JUMPDEST DUP1 PUSH1 0x1F ADD PUSH1 0x20 DUP1 SWAP2 DIV MUL PUSH1 0x20 ADD PUSH1 0x40 MLOAD SWAP1 DUP2 ADD PUSH1 0x40 MSTORE DUP1 SWAP3 SWAP2 SWAP1 DUP2 DUP2 MSTORE PUSH1 0x20 ADD DUP3 DUP1 SLOAD PUSH2 0x3E7 SWAP1 PUSH2 0x73F JUMP JUMPDEST DUP1 ISZERO PUSH2 0x432 JUMPI DUP1 PUSH1 0x1F LT PUSH2 0x409 JUMPI PUSH2 0x100 DUP1 DUP4 SLOAD DIV MUL DUP4 MSTORE SWAP2 PUSH1 0x20 ADD SWAP2 PUSH2 0x432 JUMP JUMPDEST DUP3 ADD SWAP2 SWAP1 PUSH0 MSTORE PUSH1 0x20 PUSH0 KECCAK256 SWAP1 JUMPDEST DUP2 SLOAD DUP2 MSTORE SWAP1 PUSH1 0x1 ADD SWAP1 PUSH1 0x20 ADD DUP1 DUP4 GT PUSH2 0x415 JUMPI DUP3 SWAP1 SUB PUSH1 0x1F AND DUP3 ADD SWAP2 JUMPDEST POP POP POP POP POP PUSH2 0x45A JUMP JUMPDEST SWAP2 POP POP PUSH2 0x455 JUMP JUMPDEST PUSH2 0x451 DUP2 PUSH1 0x20 ADD MLOAD PUSH2 0x45A JUMP JUMPDEST SWAP2 POP POP JUMPDEST SWAP2 SWAP1 POP JUMP JUMPDEST PUSH1 0x60 DUP2 PUSH1 0x40 MLOAD PUSH1 0x20 ADD PUSH2 0x46D SWAP2 SWAP1 PUSH2 0xA47 JUMP JUMPDEST PUSH1 0x40 MLOAD PUSH1 0x20 DUP2 DUP4 SUB SUB DUP2 MSTORE SWAP1 PUSH1 0x40 MSTORE SWAP1 POP SWAP2 SWAP1 POP JUMP JUMPDEST PUSH0 PUSH1 0x40 MLOAD SWAP1 POP SWAP1 JUMP JUMPDEST PUSH0 PUSH0 REVERT JUMPDEST PUSH0 PUSH0 REVERT JUMPDEST PUSH0 PUSH0 REVERT JUMPDEST PUSH0 PUSH0 REVERT JUMPDEST PUSH0 PUSH1 0x1F NOT PUSH1 0x1F DUP4 ADD AND SWAP1 POP SWAP2 SWAP1 POP JUMP JUMPDEST PUSH32 0x4E487B7100000000000000000000000000000000000000000000000000000000 PUSH0 MSTORE PUSH1 0x41 PUSH1 0x4 MSTORE PUSH1 0x24 PUSH0 REVERT JUMPDEST PUSH2 0x4E2 DUP3 PUSH2 0x49C JUMP JUMPDEST DUP2 ADD DUP2 DUP2 LT PUSH8 0xFFFFFFFFFFFFFFFF DUP3 GT OR ISZERO PUSH2 0x501 JUMPI PUSH2 0x500 PUSH2 0x4AC JUMP JUMPDEST JUMPDEST DUP1 PUSH1 0x40 MSTORE POP POP POP JUMP JUMPDEST PUSH0 PUSH2 0x513 PUSH2 0x483 JUMP JUMPDEST SWAP1 POP PUSH2 0x51F DUP3 DUP3 PUSH2 0x4D9 JUMP JUMPDEST SWAP2 SWAP1 POP JUMP JUMPDEST PUSH0 PUSH8 0xFFFFFFFFFFFFFFFF DUP3 GT ISZERO PUSH2 0x53E JUMPI PUSH2 0x53D PUSH2 0x4AC JUMP JUMPDEST JUMPDEST PUSH2 0x547 DUP3 PUSH2 0x49C JUMP JUMPDEST SWAP1 POP PUSH1 0x20 DUP2 ADD SWAP1 POP SWAP2 SWAP1 POP JUMP JUMPDEST DUP3 DUP2 DUP4 CALLDATACOPY PUSH0 DUP4 DUP4 ADD MSTORE POP POP POP JUMP JUMPDEST PUSH0 PUSH2 0x574 PUSH2 0x56F DUP5 PUSH2 0x524 JUMP JUMPDEST PUSH2 0x50A JUMP JUMPDEST SWAP1 POP DUP3 DUP2 MSTORE PUSH1 0x20 DUP2 ADD DUP5 DUP5 DUP5 ADD GT ISZERO PUSH2 0x590 JUMPI PUSH2 0x58F PUSH2 0x498 JUMP JUMPDEST JUMPDEST PUSH2 0x59B DUP5 DUP3 DUP6 PUSH2 0x554 JUMP JUMPDEST POP SWAP4 SWAP3 POP POP POP JUMP JUMPDEST PUSH0 DUP3 PUSH1 0x1F DUP4 ADD SLT PUSH2 0x5B7 JUMPI PUSH2 0x5B6 PUSH2 0x494 JUMP JUMPDEST JUMPDEST DUP2 CALLDATALOAD PUSH2 0x5C7 DUP5 DUP3 PUSH1 0x20 DUP7 ADD PUSH2 0x562 JUMP JUMPDEST SWAP2 POP POP SWAP3 SWAP2 POP POP JUMP JUMPDEST PUSH0 PUSH8 0xFFFFFFFFFFFFFFFF DUP3 AND SWAP1 POP SWAP2 SWAP1 POP JUMP JUMPDEST PUSH2 0x5EC DUP2 PUSH2 0x5D0 JUMP JUMPDEST DUP2 EQ PUSH2 0x5F6 JUMPI PUSH0 PUSH0 REVERT JUMPDEST POP JUMP JUMPDEST PUSH0 DUP2 CALLDATALOAD SWAP1 POP PUSH2 0x607 DUP2 PUSH2 0x5E3 JUMP JUMPDEST SWAP3 SWAP2 POP POP JUMP JUMPDEST PUSH0 PUSH0 PUSH1 0x40 DUP4 DUP6 SUB SLT ISZERO PUSH2 0x623 JUMPI PUSH2 0x622 PUSH2 0x48C JUMP JUMPDEST JUMPDEST PUSH0 DUP4 ADD CALLDATALOAD PUSH8 0xFFFFFFFFFFFFFFFF DUP2 GT ISZERO PUSH2 0x640 JUMPI PUSH2 0x63F PUSH2 0x490 JUMP JUMPDEST JUMPDEST PUSH2 0x64C DUP6 DUP3 DUP7 ADD PUSH2 0x5A3 JUMP JUMPDEST SWAP3 POP POP PUSH1 0x20 PUSH2 0x65D DUP6 DUP3 DUP7 ADD PUSH2 0x5F9 JUMP JUMPDEST SWAP2 POP POP SWAP3 POP SWAP3 SWAP1 POP JUMP JUMPDEST PUSH0 PUSH1 0x20 DUP3 DUP5 SUB SLT ISZERO PUSH2 0x67C JUMPI PUSH2 0x67B PUSH2 0x48C JUMP JUMPDEST JUMPDEST PUSH0 PUSH2 0x689 DUP5 DUP3 DUP6 ADD PUSH2 0x5F9 JUMP JUMPDEST SWAP2 POP POP SWAP3 SWAP2 POP POP JUMP JUMPDEST PUSH0 DUP2 MLOAD SWAP1 POP SWAP2 SWAP1 POP JUMP JUMPDEST PUSH0 DUP3 DUP3 MSTORE PUSH1 0x20 DUP3 ADD SWAP1 POP SWAP3 SWAP2 POP POP JUMP JUMPDEST DUP3 DUP2 DUP4 MCOPY PUSH0 DUP4 DUP4 ADD MSTORE POP POP POP JUMP JUMPDEST PUSH0 PUSH2 0x6C4 DUP3 PUSH2 0x692 JUMP JUMPDEST PUSH2 0x6CE DUP2 DUP6 PUSH2 0x69C JUMP JUMPDEST SWAP4 POP PUSH2 0x6DE DUP2 DUP6 PUSH1 0x20 DUP7 ADD PUSH2 0x6AC JUMP JUMPDEST PUSH2 0x6E7 DUP2 PUSH2 0x49C JUMP JUMPDEST DUP5 ADD SWAP2 POP POP SWAP3 SWAP2 POP POP JUMP JUMPDEST PUSH0 PUSH1 0x20 DUP3 ADD SWAP1 POP DUP2 DUP2 SUB PUSH0 DUP4 ADD MSTORE PUSH2 0x70A DUP2 DUP5 PUSH2 0x6BA JUMP JUMPDEST SWAP1 POP SWAP3 SWAP2 POP POP JUMP JUMPDEST PUSH32 0x4E487B7100000000000000000000000000000000000000000000000000000000 PUSH0 MSTORE PUSH1 0x22 PUSH1 0x4 MSTORE PUSH1 0x24 PUSH0 REVERT JUMPDEST PUSH0 PUSH1 0x2 DUP3 DIV SWAP1 POP PUSH1 0x1 DUP3 AND DUP1 PUSH2 0x756 JUMPI PUSH1 0x7F DUP3 AND SWAP2 POP JUMPDEST PUSH1 0x20 DUP3 LT DUP2 SUB PUSH2 0x769 JUMPI PUSH2 0x768 PUSH2 0x712 JUMP JUMPDEST JUMPDEST POP SWAP2 SWAP1 POP JUMP JUMPDEST PUSH0 DUP2 SWAP1 POP DUP2 PUSH0 MSTORE PUSH1 0x20 PUSH0 KECCAK256 SWAP1 POP SWAP2 SWAP1 POP JUMP JUMPDEST PUSH0 PUSH1 0x20 PUSH1 0x1F DUP4 ADD DIV SWAP1 POP SWAP2 SWAP1 POP JUMP JUMPDEST PUSH0 DUP3 DUP3 SHL SWAP1 POP SWAP3 SWAP2 POP POP JUMP JUMPDEST PUSH0 PUSH1 0x8 DUP4 MUL PUSH2 0x7CB PUSH32 0xFFFFFFFFFFFFFFFFFFFFFFFFFFFFFFFFFFFFFFFFFFFFFFFFFFFFFFFFFFFFFFFF DUP3 PUSH2 0x790 JUMP JUMPDEST PUSH2 0x7D5 DUP7 DUP4 PUSH2 0x790 JUMP JUMPDEST SWAP6 POP DUP1 NOT DUP5 AND SWAP4 POP DUP1 DUP7 AND DUP5 OR SWAP3 POP POP POP SWAP4 SWAP3 POP POP POP JUMP JUMPDEST PUSH0 DUP2 SWAP1 POP SWAP2 SWAP1 POP JUMP JUMPDEST PUSH0 DUP2 SWAP1 POP SWAP2 SWAP1 POP JUMP JUMPDEST PUSH0 PUSH2 0x819 PUSH2 0x814 PUSH2 0x80F DUP5 PUSH2 0x7ED JUMP JUMPDEST PUSH2 0x7F6 JUMP JUMPDEST PUSH2 0x7ED JUMP JUMPDEST SWAP1 POP SWAP2 SWAP1 POP JUMP JUMPDEST PUSH0 DUP2 SWAP1 POP SWAP2 SWAP1 POP JUMP JUMPDEST PUSH2 0x832 DUP4 PUSH2 0x7FF JUMP JUMPDEST PUSH2 0x846 PUSH2 0x83E DUP3 PUSH2 0x820 JUMP JUMPDEST DUP5 DUP5 SLOAD PUSH2 0x79C JUMP JUMPDEST DUP3 SSTORE POP POP POP POP JUMP JUMPDEST PUSH0 PUSH0 SWAP1 POP SWAP1 JUMP JUMPDEST PUSH2 0x85D PUSH2 0x84E JUMP JUMPDEST PUSH2 0x868 DUP2 DUP5 DUP5 PUSH2 0x829 JUMP JUMPDEST POP POP POP JUMP JUMPDEST JUMPDEST DUP2 DUP2 LT ISZERO PUSH2 0x88B JUMPI PUSH2 0x880 PUSH0 DUP3 PUSH2 0x855 JUMP JUMPDEST PUSH1 0x1 DUP2 ADD SWAP1 POP PUSH2 0x86E JUMP JUMPDEST POP POP JUMP JUMPDEST PUSH1 0x1F DUP3 GT ISZERO PUSH2 0x8D0 JUMPI PUSH2 0x8A1 DUP2 PUSH2 0x76F JUMP JUMPDEST PUSH2 0x8AA DUP5 PUSH2 0x781 JUMP JUMPDEST DUP2 ADD PUSH1 0x20 DUP6 LT ISZERO PUSH2 0x8B9 JUMPI DUP2 SWAP1 POP JUMPDEST PUSH2 0x8CD PUSH2 0x8C5 DUP6 PUSH2 0x781 JUMP JUMPDEST DUP4 ADD DUP3 PUSH2 0x86D JUMP JUMPDEST POP POP JUMPDEST POP POP POP JUMP JUMPDEST PUSH0 DUP3 DUP3 SHR SWAP1 POP SWAP3 SWAP2 POP POP JUMP JUMPDEST PUSH0 PUSH2 0x8F0 PUSH0 NOT DUP5 PUSH1 0x8 MUL PUSH2 0x8D5 JUMP JUMPDEST NOT DUP1 DUP4 AND SWAP2 POP POP SWAP3 SWAP2 POP POP JUMP JUMPDEST PUSH0 PUSH2 0x908 DUP4 DUP4 PUSH2 0x8E1 JUMP JUMPDEST SWAP2 POP DUP3 PUSH1 0x2 MUL DUP3 OR SWAP1 POP SWAP3 SWAP2 POP POP JUMP JUMPDEST PUSH2 0x921 DUP3 PUSH2 0x692 JUMP JUMPDEST PUSH8 0xFFFFFFFFFFFFFFFF DUP2 GT ISZERO PUSH2 0x93A JUMPI PUSH2 0x939 PUSH2 0x4AC JUMP JUMPDEST JUMPDEST PUSH2 0x944 DUP3 SLOAD PUSH2 0x73F JUMP JUMPDEST PUSH2 0x94F DUP3 DUP3 DUP6 PUSH2 0x88F JUMP JUMPDEST PUSH0 PUSH1 0x20 SWAP1 POP PUSH1 0x1F DUP4 GT PUSH1 0x1 DUP2 EQ PUSH2 0x980 JUMPI PUSH0 DUP5 ISZERO PUSH2 0x96E JUMPI DUP3 DUP8 ADD MLOAD SWAP1 POP JUMPDEST PUSH2 0x978 DUP6 DUP3 PUSH2 0x8FD JUMP JUMPDEST DUP7 SSTORE POP PUSH2 0x9DF JUMP JUMPDEST PUSH1 0x1F NOT DUP5 AND PUSH2 0x98E DUP7 PUSH2 0x76F JUMP JUMPDEST PUSH0 JUMPDEST DUP3 DUP2 LT ISZERO PUSH2 0x9B5 JUMPI DUP5 DUP10 ADD MLOAD DUP3 SSTORE PUSH1 0x1 DUP3 ADD SWAP2 POP PUSH1 0x20 DUP6 ADD SWAP5 POP PUSH1 0x20 DUP2 ADD SWAP1 POP PUSH2 0x990 JUMP JUMPDEST DUP7 DUP4 LT ISZERO PUSH2 0x9D2 JUMPI DUP5 DUP10 ADD MLOAD PUSH2 0x9CE PUSH1 0x1F DUP10 AND DUP3 PUSH2 0x8E1 JUMP JUMPDEST DUP4 SSTORE POP JUMPDEST PUSH1 0x1 PUSH1 0x2 DUP9 MUL ADD DUP9 SSTORE POP POP POP JUMPDEST POP POP POP POP POP POP JUMP JUMPDEST PUSH0 DUP2 SWAP1 POP SWAP3 SWAP2 POP POP JUMP JUMPDEST PUSH0 PUSH2 0x9FB DUP3 PUSH2 0x692 JUMP JUMPDEST PUSH2 0xA05 DUP2 DUP6 PUSH2 0x9E7 JUMP JUMPDEST SWAP4 POP PUSH2 0xA15 DUP2 DUP6 PUSH1 0x20 DUP7 ADD PUSH2 0x6AC JUMP JUMPDEST DUP1 DUP5 ADD SWAP2 POP POP SWAP3 SWAP2 POP POP JUMP JUMPDEST PUSH32 0x2066726F6D2072656D6978206D65737361676500000000000000000000000000 DUP2 MSTORE POP JUMP JUMPDEST PUSH0 PUSH2 0xA52 DUP3 DUP5 PUSH2 0x9F1 JUMP JUMPDEST SWAP2 POP PUSH2 0xA5D DUP3 PUSH2 0xA21 JUMP JUMPDEST PUSH1 0x13 DUP3 ADD SWAP2 POP DUP2 SWAP1 POP SWAP3 SWAP2 POP POP JUMP INVALID LOG2 PUSH5 0x6970667358 0x22 SLT KECCAK256 SWAP8 DELEGATECALL 0xF7 0xD7 JUMP DUPN 0xDC LT 0xCA 0xDD PUSH10 0xC43A7717446BAA3A0538 0xB1 PUSH16 0x824A871AE28B6D609164736F6C634300 ADDMOD 0x1E STOP CALLER "
				},
				"gasEstimates": {
					"creation": {
						"codeDepositCost": "544400",
						"executionCost": "infinite",
						"totalCost": "infinite"
					},
					"external": {
						"sayHello(uint64)": "infinite",
						"setHello(string,uint64)": "infinite"
					},
					"internal": {
						"appendSpeak(string memory)": "infinite"
					}
				},
				"methodIdentifiers": {
					"sayHello(uint64)": "bc520848",
					"setHello(string,uint64)": "782cc363"
				}
			},
			"storageLayout": {
				"storage": [
					{
						"astId": 4,
						"contract": "my_contracts/HelloWorld.sol:HelloWorld",
						"label": "str_global",
						"offset": 0,
						"slot": "0",
						"type": "t_string_storage"
					},
					{
						"astId": 15,
						"contract": "my_contracts/HelloWorld.sol:HelloWorld",
						"label": "infos",
						"offset": 0,
						"slot": "1",
						"type": "t_array(t_struct(Info)11_storage)dyn_storage"
					},
					{
						"astId": 20,
						"contract": "my_contracts/HelloWorld.sol:HelloWorld",
						"label": "maps",
						"offset": 0,
						"slot": "2",
						"type": "t_mapping(t_uint64,t_struct(Info)11_storage)"
					}
				],
				"types": {
					"t_address": {
						"encoding": "inplace",
						"label": "address",
						"numberOfBytes": "20"
					},
					"t_array(t_struct(Info)11_storage)dyn_storage": {
						"base": "t_struct(Info)11_storage",
						"encoding": "dynamic_array",
						"label": "struct HelloWorld.Info[]",
						"numberOfBytes": "32"
					},
					"t_mapping(t_uint64,t_struct(Info)11_storage)": {
						"encoding": "mapping",
						"key": "t_uint64",
						"label": "mapping(uint64 => struct HelloWorld.Info)",
						"numberOfBytes": "32",
						"value": "t_struct(Info)11_storage"
					},
					"t_string_storage": {
						"encoding": "bytes",
						"label": "string",
						"numberOfBytes": "32"
					},
					"t_struct(Info)11_storage": {
						"encoding": "inplace",
						"label": "struct HelloWorld.Info",
						"members": [
							{
								"astId": 6,
								"contract": "my_contracts/HelloWorld.sol:HelloWorld",
								"label": "id",
								"offset": 0,
								"slot": "0",
								"type": "t_uint64"
							},
							{
								"astId": 8,
								"contract": "my_contracts/HelloWorld.sol:HelloWorld",
								"label": "world",
								"offset": 0,
								"slot": "1",
								"type": "t_string_storage"
							},
							{
								"astId": 10,
								"contract": "my_contracts/HelloWorld.sol:HelloWorld",
								"label": "add",
								"offset": 0,
								"slot": "2",
								"type": "t_address"
							}
						],
						"numberOfBytes": "96"
					},
					"t_uint64": {
						"encoding": "inplace",
						"label": "uint64",
						"numberOfBytes": "8"
					}
				}
			},
			"userdoc": {
				"kind": "user",
				"methods": {},
				"version": 1
			}
		}
	}
}