{
	"my_contracts/FundMe.sol": {
		"FundMe": {
			"abi": [
				{
					"inputs": [],
					"stateMutability": "nonpayable",
					"type": "constructor"
				},
				{
					"inputs": [
						{
							"internalType": "address",
							"name": "_user",
							"type": "address"
						}
					],
					"name": "found",
					"outputs": [
						{
							"internalType": "uint256",
							"name": "",
							"type": "uint256"
						}
					],
					"stateMutability": "view",
					"type": "function"
				},
				{
					"inputs": [],
					"name": "foundContractUser",
					"outputs": [
						{
							"internalType": "address",
							"name": "",
							"type": "address"
						}
					],
					"stateMutability": "view",
					"type": "function"
				},
				{
					"inputs": [],
					"name": "fund",
					"outputs": [],
					"stateMutability": "payable",
					"type": "function"
				},
				{
					"inputs": [],
					"name": "getChainlinkDataFeedLatestAnswer",
					"outputs": [
						{
							"internalType": "int256",
							"name": "",
							"type": "int256"
						}
					],
					"stateMutability": "view",
					"type": "function"
				}
			],
			"devdoc": {
				"kind": "dev",
				"methods": {},
				"version": 1
			},
			"evm": {
				"assembly": "    /* \"my_contracts/FundMe.sol\":337:2198  contract FundMe{... */\n  mstore(0x40, 0x80)\n    /* \"my_contracts/FundMe.sol\":461:473  1 * 10 ** 10 */\n  0x02540be400\n    /* \"my_contracts/FundMe.sol\":437:473  uint256 MINIMUM_VALUE = 1 * 10 ** 10 */\n  0x01\n  sstore\n    /* \"my_contracts/FundMe.sol\":540:554  100 * 10 ** 18 */\n  0x056bc75e2d63100000\n    /* \"my_contracts/FundMe.sol\":512:554  uint256 MINIMUM_USD_VALUE = 100 * 10 ** 18 */\n  0x02\n  sstore\n    /* \"my_contracts/FundMe.sol\":627:929  constructor(){... */\n  callvalue\n  dup1\n  iszero\n  tag_1\n  jumpi\n  revert(0x00, 0x00)\ntag_1:\n  pop\n    /* \"my_contracts/FundMe.sol\":658:668  msg.sender */\n  caller\n    /* \"my_contracts/FundMe.sol\":650:655  owner */\n  0x04\n  0x00\n    /* \"my_contracts/FundMe.sol\":650:668  owner = msg.sender */\n  0x0100\n  exp\n  dup2\n  sload\n  dup2\n  0xffffffffffffffffffffffffffffffffffffffff\n  mul\n  not\n  and\n  swap1\n  dup4\n  0xffffffffffffffffffffffffffffffffffffffff\n  and\n  mul\n  or\n  swap1\n  sstore\n  pop\n    /* \"my_contracts/FundMe.sol\":916:921  owner */\n  0x04\n  0x00\n  swap1\n  sload\n  swap1\n  0x0100\n  exp\n  swap1\n  div\n  0xffffffffffffffffffffffffffffffffffffffff\n  and\n    /* \"my_contracts/FundMe.sol\":883:891  dataFeed */\n  0x03\n  0x00\n    /* \"my_contracts/FundMe.sol\":883:922  dataFeed = AggregatorV3Interface(owner) */\n  0x0100\n  exp\n  dup2\n  sload\n  dup2\n  0xffffffffffffffffffffffffffffffffffffffff\n  mul\n  not\n  and\n  swap1\n  dup4\n  0xffffffffffffffffffffffffffffffffffffffff\n  and\n  mul\n  or\n  swap1\n  sstore\n  pop\n    /* \"my_contracts/FundMe.sol\":337:2198  contract FundMe{... */\n  dataSize(sub_0)\n  dup1\n  dataOffset(sub_0)\n  0x00\n  codecopy\n  0x00\n  return\nstop\n\nsub_0: assembly {\n        /* \"my_contracts/FundMe.sol\":337:2198  contract FundMe{... */\n      mstore(0x40, 0x80)\n      jumpi(tag_1, lt(calldatasize, 0x04))\n      shr(0xe0, calldataload(0x00))\n      dup1\n      0x1721681c\n      eq\n      tag_2\n      jumpi\n      dup1\n      0xb60d4288\n      eq\n      tag_3\n      jumpi\n      dup1\n      0xbea4dfb5\n      eq\n      tag_4\n      jumpi\n      dup1\n      0xdc1f031a\n      eq\n      tag_5\n      jumpi\n    tag_1:\n      revert(0x00, 0x00)\n        /* \"my_contracts/FundMe.sol\":1362:1449  function foundContractUser() public view returns(address) {... */\n    tag_2:\n      callvalue\n      dup1\n      iszero\n      tag_6\n      jumpi\n      revert(0x00, 0x00)\n    tag_6:\n      pop\n      tag_7\n      tag_8\n      jump\t// in\n    tag_7:\n      mload(0x40)\n      tag_9\n      swap2\n      swap1\n      tag_10\n      jump\t// in\n    tag_9:\n      mload(0x40)\n      dup1\n      swap2\n      sub\n      swap1\n      return\n        /* \"my_contracts/FundMe.sol\":975:1205  function fund() external payable {... */\n    tag_3:\n      tag_11\n      tag_12\n      jump\t// in\n    tag_11:\n      stop\n        /* \"my_contracts/FundMe.sol\":1483:1830  function getChainlinkDataFeedLatestAnswer() public view returns (int) {... */\n    tag_4:\n      callvalue\n      dup1\n      iszero\n      tag_13\n      jumpi\n      revert(0x00, 0x00)\n    tag_13:\n      pop\n      tag_14\n      tag_15\n      jump\t// in\n    tag_14:\n      mload(0x40)\n      tag_16\n      swap2\n      swap1\n      tag_17\n      jump\t// in\n    tag_16:\n      mload(0x40)\n      dup1\n      swap2\n      sub\n      swap1\n      return\n        /* \"my_contracts/FundMe.sol\":1250:1349  function found(address _user) public view returns(uint256) {... */\n    tag_5:\n      callvalue\n      dup1\n      iszero\n      tag_18\n      jumpi\n      revert(0x00, 0x00)\n    tag_18:\n      pop\n      tag_19\n      0x04\n      dup1\n      calldatasize\n      sub\n      dup2\n      add\n      swap1\n      tag_20\n      swap2\n      swap1\n      tag_21\n      jump\t// in\n    tag_20:\n      tag_22\n      jump\t// in\n    tag_19:\n      mload(0x40)\n      tag_23\n      swap2\n      swap1\n      tag_24\n      jump\t// in\n    tag_23:\n      mload(0x40)\n      dup1\n      swap2\n      sub\n      swap1\n      return\n        /* \"my_contracts/FundMe.sol\":1362:1449  function foundContractUser() public view returns(address) {... */\n    tag_8:\n        /* \"my_contracts/FundMe.sol\":1411:1418  address */\n      0x00\n        /* \"my_contracts/FundMe.sol\":1437:1442  owner */\n      0x04\n      0x00\n      swap1\n      sload\n      swap1\n      0x0100\n      exp\n      swap1\n      div\n      0xffffffffffffffffffffffffffffffffffffffff\n      and\n        /* \"my_contracts/FundMe.sol\":1430:1442  return owner */\n      swap1\n      pop\n        /* \"my_contracts/FundMe.sol\":1362:1449  function foundContractUser() public view returns(address) {... */\n      swap1\n      jump\t// out\n        /* \"my_contracts/FundMe.sol\":975:1205  function fund() external payable {... */\n    tag_12:\n        /* \"my_contracts/FundMe.sol\":1057:1074  MINIMUM_USD_VALUE */\n      sload(0x02)\n        /* \"my_contracts/FundMe.sol\":1026:1054  calculateUsdPrice(msg.value) */\n      tag_27\n        /* \"my_contracts/FundMe.sol\":1044:1053  msg.value */\n      callvalue\n        /* \"my_contracts/FundMe.sol\":1026:1043  calculateUsdPrice */\n      tag_28\n        /* \"my_contracts/FundMe.sol\":1026:1054  calculateUsdPrice(msg.value) */\n      jump\t// in\n    tag_27:\n        /* \"my_contracts/FundMe.sol\":1026:1074  calculateUsdPrice(msg.value) < MINIMUM_USD_VALUE */\n      lt\n        /* \"my_contracts/FundMe.sol\":1018:1088  require(calculateUsdPrice(msg.value) < MINIMUM_USD_VALUE, \"it's too \") */\n      tag_29\n      jumpi\n      mload(0x40)\n      0x08c379a000000000000000000000000000000000000000000000000000000000\n      dup2\n      mstore\n      0x04\n      add\n      tag_30\n      swap1\n      tag_31\n      jump\t// in\n    tag_30:\n      mload(0x40)\n      dup1\n      swap2\n      sub\n      swap1\n      revert\n    tag_29:\n        /* \"my_contracts/FundMe.sol\":1189:1198  msg.value */\n      callvalue\n        /* \"my_contracts/FundMe.sol\":1165:1174  funderMap */\n      0x00\n        /* \"my_contracts/FundMe.sol\":1165:1186  funderMap[msg.sender] */\n      0x00\n        /* \"my_contracts/FundMe.sol\":1175:1185  msg.sender */\n      caller\n        /* \"my_contracts/FundMe.sol\":1165:1186  funderMap[msg.sender] */\n      0xffffffffffffffffffffffffffffffffffffffff\n      and\n      0xffffffffffffffffffffffffffffffffffffffff\n      and\n      dup2\n      mstore\n      0x20\n      add\n      swap1\n      dup2\n      mstore\n      0x20\n      add\n      0x00\n      keccak256\n        /* \"my_contracts/FundMe.sol\":1165:1198  funderMap[msg.sender] = msg.value */\n      dup2\n      swap1\n      sstore\n      pop\n        /* \"my_contracts/FundMe.sol\":975:1205  function fund() external payable {... */\n      jump\t// out\n        /* \"my_contracts/FundMe.sol\":1483:1830  function getChainlinkDataFeedLatestAnswer() public view returns (int) {... */\n    tag_15:\n        /* \"my_contracts/FundMe.sol\":1548:1551  int */\n      0x00\n        /* \"my_contracts/FundMe.sol\":1638:1651  int256 answer */\n      0x00\n        /* \"my_contracts/FundMe.sol\":1774:1782  dataFeed */\n      0x03\n      0x00\n      swap1\n      sload\n      swap1\n      0x0100\n      exp\n      swap1\n      div\n      0xffffffffffffffffffffffffffffffffffffffff\n      and\n        /* \"my_contracts/FundMe.sol\":1774:1798  dataFeed.latestRoundData */\n      0xffffffffffffffffffffffffffffffffffffffff\n      and\n      0xfeaf968c\n        /* \"my_contracts/FundMe.sol\":1774:1800  dataFeed.latestRoundData() */\n      mload(0x40)\n      dup2\n      0xffffffff\n      and\n      0xe0\n      shl\n      dup2\n      mstore\n      0x04\n      add\n      0xa0\n      mload(0x40)\n      dup1\n      dup4\n      sub\n      dup2\n      dup7\n      gas\n      staticcall\n      iszero\n      dup1\n      iszero\n      tag_34\n      jumpi\n      returndatacopy(0x00, 0x00, returndatasize)\n      revert(0x00, returndatasize)\n    tag_34:\n      pop\n      pop\n      pop\n      pop\n      mload(0x40)\n      returndatasize\n      not(0x1f)\n      0x1f\n      dup3\n      add\n      and\n      dup3\n      add\n      dup1\n      0x40\n      mstore\n      pop\n      dup2\n      add\n      swap1\n      tag_35\n      swap2\n      swap1\n      tag_36\n      jump\t// in\n    tag_35:\n        /* \"my_contracts/FundMe.sol\":1590:1800  (... */\n      pop\n      pop\n      pop\n      swap2\n      pop\n      pop\n        /* \"my_contracts/FundMe.sol\":1817:1823  answer */\n      dup1\n        /* \"my_contracts/FundMe.sol\":1810:1823  return answer */\n      swap2\n      pop\n      pop\n        /* \"my_contracts/FundMe.sol\":1483:1830  function getChainlinkDataFeedLatestAnswer() public view returns (int) {... */\n      swap1\n      jump\t// out\n        /* \"my_contracts/FundMe.sol\":1250:1349  function found(address _user) public view returns(uint256) {... */\n    tag_22:\n        /* \"my_contracts/FundMe.sol\":1300:1307  uint256 */\n      0x00\n        /* \"my_contracts/FundMe.sol\":1326:1335  funderMap */\n      0x00\n        /* \"my_contracts/FundMe.sol\":1326:1342  funderMap[_user] */\n      0x00\n        /* \"my_contracts/FundMe.sol\":1336:1341  _user */\n      dup4\n        /* \"my_contracts/FundMe.sol\":1326:1342  funderMap[_user] */\n      0xffffffffffffffffffffffffffffffffffffffff\n      and\n      0xffffffffffffffffffffffffffffffffffffffff\n      and\n      dup2\n      mstore\n      0x20\n      add\n      swap1\n      dup2\n      mstore\n      0x20\n      add\n      0x00\n      keccak256\n      sload\n        /* \"my_contracts/FundMe.sol\":1319:1342  return funderMap[_user] */\n      swap1\n      pop\n        /* \"my_contracts/FundMe.sol\":1250:1349  function found(address _user) public view returns(uint256) {... */\n      swap2\n      swap1\n      pop\n      jump\t// out\n        /* \"my_contracts/FundMe.sol\":1892:2195  function calculateUsdPrice(uint256 _amount) internal view returns(uint256){... */\n    tag_28:\n        /* \"my_contracts/FundMe.sol\":1958:1965  uint256 */\n      0x00\n        /* \"my_contracts/FundMe.sol\":1976:1992  uint256 ethPrice */\n      0x00\n        /* \"my_contracts/FundMe.sol\":2003:2037  getChainlinkDataFeedLatestAnswer() */\n      tag_39\n        /* \"my_contracts/FundMe.sol\":2003:2035  getChainlinkDataFeedLatestAnswer */\n      tag_15\n        /* \"my_contracts/FundMe.sol\":2003:2037  getChainlinkDataFeedLatestAnswer() */\n      jump\t// in\n    tag_39:\n        /* \"my_contracts/FundMe.sol\":1976:2038  uint256 ethPrice = uint256(getChainlinkDataFeedLatestAnswer()) */\n      swap1\n      pop\n        /* \"my_contracts/FundMe.sol\":2180:2187  10 ** 8 */\n      0x05f5e100\n        /* \"my_contracts/FundMe.sol\":2168:2176  ethPrice */\n      dup2\n        /* \"my_contracts/FundMe.sol\":2158:2165  _amount */\n      dup5\n        /* \"my_contracts/FundMe.sol\":2158:2176  _amount * ethPrice */\n      tag_40\n      swap2\n      swap1\n      tag_41\n      jump\t// in\n    tag_40:\n        /* \"my_contracts/FundMe.sol\":2158:2188  _amount * ethPrice / (10 ** 8) */\n      tag_42\n      swap2\n      swap1\n      tag_43\n      jump\t// in\n    tag_42:\n        /* \"my_contracts/FundMe.sol\":2151:2188  return _amount * ethPrice / (10 ** 8) */\n      swap2\n      pop\n      pop\n        /* \"my_contracts/FundMe.sol\":1892:2195  function calculateUsdPrice(uint256 _amount) internal view returns(uint256){... */\n      swap2\n      swap1\n      pop\n      jump\t// out\n        /* \"#utility.yul\":7:133   */\n    tag_44:\n        /* \"#utility.yul\":44:51   */\n      0x00\n        /* \"#utility.yul\":84:126   */\n      0xffffffffffffffffffffffffffffffffffffffff\n        /* \"#utility.yul\":77:82   */\n      dup3\n        /* \"#utility.yul\":73:127   */\n      and\n        /* \"#utility.yul\":62:127   */\n      swap1\n      pop\n        /* \"#utility.yul\":7:133   */\n      swap2\n      swap1\n      pop\n      jump\t// out\n        /* \"#utility.yul\":139:235   */\n    tag_45:\n        /* \"#utility.yul\":176:183   */\n      0x00\n        /* \"#utility.yul\":205:229   */\n      tag_71\n        /* \"#utility.yul\":223:228   */\n      dup3\n        /* \"#utility.yul\":205:229   */\n      tag_44\n      jump\t// in\n    tag_71:\n        /* \"#utility.yul\":194:229   */\n      swap1\n      pop\n        /* \"#utility.yul\":139:235   */\n      swap2\n      swap1\n      pop\n      jump\t// out\n        /* \"#utility.yul\":241:359   */\n    tag_46:\n        /* \"#utility.yul\":328:352   */\n      tag_73\n        /* \"#utility.yul\":346:351   */\n      dup2\n        /* \"#utility.yul\":328:352   */\n      tag_45\n      jump\t// in\n    tag_73:\n        /* \"#utility.yul\":323:326   */\n      dup3\n        /* \"#utility.yul\":316:353   */\n      mstore\n        /* \"#utility.yul\":241:359   */\n      pop\n      pop\n      jump\t// out\n        /* \"#utility.yul\":365:587   */\n    tag_10:\n        /* \"#utility.yul\":458:462   */\n      0x00\n        /* \"#utility.yul\":496:498   */\n      0x20\n        /* \"#utility.yul\":485:494   */\n      dup3\n        /* \"#utility.yul\":481:499   */\n      add\n        /* \"#utility.yul\":473:499   */\n      swap1\n      pop\n        /* \"#utility.yul\":509:580   */\n      tag_75\n        /* \"#utility.yul\":577:578   */\n      0x00\n        /* \"#utility.yul\":566:575   */\n      dup4\n        /* \"#utility.yul\":562:579   */\n      add\n        /* \"#utility.yul\":553:559   */\n      dup5\n        /* \"#utility.yul\":509:580   */\n      tag_46\n      jump\t// in\n    tag_75:\n        /* \"#utility.yul\":365:587   */\n      swap3\n      swap2\n      pop\n      pop\n      jump\t// out\n        /* \"#utility.yul\":593:669   */\n    tag_47:\n        /* \"#utility.yul\":629:636   */\n      0x00\n        /* \"#utility.yul\":658:663   */\n      dup2\n        /* \"#utility.yul\":647:663   */\n      swap1\n      pop\n        /* \"#utility.yul\":593:669   */\n      swap2\n      swap1\n      pop\n      jump\t// out\n        /* \"#utility.yul\":675:790   */\n    tag_48:\n        /* \"#utility.yul\":760:783   */\n      tag_78\n        /* \"#utility.yul\":777:782   */\n      dup2\n        /* \"#utility.yul\":760:783   */\n      tag_47\n      jump\t// in\n    tag_78:\n        /* \"#utility.yul\":755:758   */\n      dup3\n        /* \"#utility.yul\":748:784   */\n      mstore\n        /* \"#utility.yul\":675:790   */\n      pop\n      pop\n      jump\t// out\n        /* \"#utility.yul\":796:1014   */\n    tag_17:\n        /* \"#utility.yul\":887:891   */\n      0x00\n        /* \"#utility.yul\":925:927   */\n      0x20\n        /* \"#utility.yul\":914:923   */\n      dup3\n        /* \"#utility.yul\":910:928   */\n      add\n        /* \"#utility.yul\":902:928   */\n      swap1\n      pop\n        /* \"#utility.yul\":938:1007   */\n      tag_80\n        /* \"#utility.yul\":1004:1005   */\n      0x00\n        /* \"#utility.yul\":993:1002   */\n      dup4\n        /* \"#utility.yul\":989:1006   */\n      add\n        /* \"#utility.yul\":980:986   */\n      dup5\n        /* \"#utility.yul\":938:1007   */\n      tag_48\n      jump\t// in\n    tag_80:\n        /* \"#utility.yul\":796:1014   */\n      swap3\n      swap2\n      pop\n      pop\n      jump\t// out\n        /* \"#utility.yul\":1101:1218   */\n    tag_50:\n        /* \"#utility.yul\":1210:1211   */\n      0x00\n        /* \"#utility.yul\":1207:1208   */\n      0x00\n        /* \"#utility.yul\":1200:1212   */\n      revert\n        /* \"#utility.yul\":1347:1469   */\n    tag_52:\n        /* \"#utility.yul\":1420:1444   */\n      tag_85\n        /* \"#utility.yul\":1438:1443   */\n      dup2\n        /* \"#utility.yul\":1420:1444   */\n      tag_45\n      jump\t// in\n    tag_85:\n        /* \"#utility.yul\":1413:1418   */\n      dup2\n        /* \"#utility.yul\":1410:1445   */\n      eq\n        /* \"#utility.yul\":1400:1463   */\n      tag_86\n      jumpi\n        /* \"#utility.yul\":1459:1460   */\n      0x00\n        /* \"#utility.yul\":1456:1457   */\n      0x00\n        /* \"#utility.yul\":1449:1461   */\n      revert\n        /* \"#utility.yul\":1400:1463   */\n    tag_86:\n        /* \"#utility.yul\":1347:1469   */\n      pop\n      jump\t// out\n        /* \"#utility.yul\":1475:1614   */\n    tag_53:\n        /* \"#utility.yul\":1521:1526   */\n      0x00\n        /* \"#utility.yul\":1559:1565   */\n      dup2\n        /* \"#utility.yul\":1546:1566   */\n      calldataload\n        /* \"#utility.yul\":1537:1566   */\n      swap1\n      pop\n        /* \"#utility.yul\":1575:1608   */\n      tag_88\n        /* \"#utility.yul\":1602:1607   */\n      dup2\n        /* \"#utility.yul\":1575:1608   */\n      tag_52\n      jump\t// in\n    tag_88:\n        /* \"#utility.yul\":1475:1614   */\n      swap3\n      swap2\n      pop\n      pop\n      jump\t// out\n        /* \"#utility.yul\":1620:1949   */\n    tag_21:\n        /* \"#utility.yul\":1679:1685   */\n      0x00\n        /* \"#utility.yul\":1728:1730   */\n      0x20\n        /* \"#utility.yul\":1716:1725   */\n      dup3\n        /* \"#utility.yul\":1707:1714   */\n      dup5\n        /* \"#utility.yul\":1703:1726   */\n      sub\n        /* \"#utility.yul\":1699:1731   */\n      slt\n        /* \"#utility.yul\":1696:1815   */\n      iszero\n      tag_90\n      jumpi\n        /* \"#utility.yul\":1734:1813   */\n      tag_91\n      tag_50\n      jump\t// in\n    tag_91:\n        /* \"#utility.yul\":1696:1815   */\n    tag_90:\n        /* \"#utility.yul\":1854:1855   */\n      0x00\n        /* \"#utility.yul\":1879:1932   */\n      tag_92\n        /* \"#utility.yul\":1924:1931   */\n      dup5\n        /* \"#utility.yul\":1915:1921   */\n      dup3\n        /* \"#utility.yul\":1904:1913   */\n      dup6\n        /* \"#utility.yul\":1900:1922   */\n      add\n        /* \"#utility.yul\":1879:1932   */\n      tag_53\n      jump\t// in\n    tag_92:\n        /* \"#utility.yul\":1869:1932   */\n      swap2\n      pop\n        /* \"#utility.yul\":1825:1942   */\n      pop\n        /* \"#utility.yul\":1620:1949   */\n      swap3\n      swap2\n      pop\n      pop\n      jump\t// out\n        /* \"#utility.yul\":1955:2032   */\n    tag_54:\n        /* \"#utility.yul\":1992:1999   */\n      0x00\n        /* \"#utility.yul\":2021:2026   */\n      dup2\n        /* \"#utility.yul\":2010:2026   */\n      swap1\n      pop\n        /* \"#utility.yul\":1955:2032   */\n      swap2\n      swap1\n      pop\n      jump\t// out\n        /* \"#utility.yul\":2038:2156   */\n    tag_55:\n        /* \"#utility.yul\":2125:2149   */\n      tag_95\n        /* \"#utility.yul\":2143:2148   */\n      dup2\n        /* \"#utility.yul\":2125:2149   */\n      tag_54\n      jump\t// in\n    tag_95:\n        /* \"#utility.yul\":2120:2123   */\n      dup3\n        /* \"#utility.yul\":2113:2150   */\n      mstore\n        /* \"#utility.yul\":2038:2156   */\n      pop\n      pop\n      jump\t// out\n        /* \"#utility.yul\":2162:2384   */\n    tag_24:\n        /* \"#utility.yul\":2255:2259   */\n      0x00\n        /* \"#utility.yul\":2293:2295   */\n      0x20\n        /* \"#utility.yul\":2282:2291   */\n      dup3\n        /* \"#utility.yul\":2278:2296   */\n      add\n        /* \"#utility.yul\":2270:2296   */\n      swap1\n      pop\n        /* \"#utility.yul\":2306:2377   */\n      tag_97\n        /* \"#utility.yul\":2374:2375   */\n      0x00\n        /* \"#utility.yul\":2363:2372   */\n      dup4\n        /* \"#utility.yul\":2359:2376   */\n      add\n        /* \"#utility.yul\":2350:2356   */\n      dup5\n        /* \"#utility.yul\":2306:2377   */\n      tag_55\n      jump\t// in\n    tag_97:\n        /* \"#utility.yul\":2162:2384   */\n      swap3\n      swap2\n      pop\n      pop\n      jump\t// out\n        /* \"#utility.yul\":2390:2559   */\n    tag_56:\n        /* \"#utility.yul\":2474:2485   */\n      0x00\n        /* \"#utility.yul\":2508:2514   */\n      dup3\n        /* \"#utility.yul\":2503:2506   */\n      dup3\n        /* \"#utility.yul\":2496:2515   */\n      mstore\n        /* \"#utility.yul\":2548:2552   */\n      0x20\n        /* \"#utility.yul\":2543:2546   */\n      dup3\n        /* \"#utility.yul\":2539:2553   */\n      add\n        /* \"#utility.yul\":2524:2553   */\n      swap1\n      pop\n        /* \"#utility.yul\":2390:2559   */\n      swap3\n      swap2\n      pop\n      pop\n      jump\t// out\n        /* \"#utility.yul\":2565:2724   */\n    tag_57:\n        /* \"#utility.yul\":2705:2716   */\n      0x6974277320746f6f200000000000000000000000000000000000000000000000\n        /* \"#utility.yul\":2701:2702   */\n      0x00\n        /* \"#utility.yul\":2693:2699   */\n      dup3\n        /* \"#utility.yul\":2689:2703   */\n      add\n        /* \"#utility.yul\":2682:2717   */\n      mstore\n        /* \"#utility.yul\":2565:2724   */\n      pop\n      jump\t// out\n        /* \"#utility.yul\":2730:3095   */\n    tag_58:\n        /* \"#utility.yul\":2872:2875   */\n      0x00\n        /* \"#utility.yul\":2893:2959   */\n      tag_101\n        /* \"#utility.yul\":2957:2958   */\n      0x09\n        /* \"#utility.yul\":2952:2955   */\n      dup4\n        /* \"#utility.yul\":2893:2959   */\n      tag_56\n      jump\t// in\n    tag_101:\n        /* \"#utility.yul\":2886:2959   */\n      swap2\n      pop\n        /* \"#utility.yul\":2968:3061   */\n      tag_102\n        /* \"#utility.yul\":3057:3060   */\n      dup3\n        /* \"#utility.yul\":2968:3061   */\n      tag_57\n      jump\t// in\n    tag_102:\n        /* \"#utility.yul\":3086:3088   */\n      0x20\n        /* \"#utility.yul\":3081:3084   */\n      dup3\n        /* \"#utility.yul\":3077:3089   */\n      add\n        /* \"#utility.yul\":3070:3089   */\n      swap1\n      pop\n        /* \"#utility.yul\":2730:3095   */\n      swap2\n      swap1\n      pop\n      jump\t// out\n        /* \"#utility.yul\":3101:3520   */\n    tag_31:\n        /* \"#utility.yul\":3267:3271   */\n      0x00\n        /* \"#utility.yul\":3305:3307   */\n      0x20\n        /* \"#utility.yul\":3294:3303   */\n      dup3\n        /* \"#utility.yul\":3290:3308   */\n      add\n        /* \"#utility.yul\":3282:3308   */\n      swap1\n      pop\n        /* \"#utility.yul\":3354:3363   */\n      dup2\n        /* \"#utility.yul\":3348:3352   */\n      dup2\n        /* \"#utility.yul\":3344:3364   */\n      sub\n        /* \"#utility.yul\":3340:3341   */\n      0x00\n        /* \"#utility.yul\":3329:3338   */\n      dup4\n        /* \"#utility.yul\":3325:3342   */\n      add\n        /* \"#utility.yul\":3318:3365   */\n      mstore\n        /* \"#utility.yul\":3382:3513   */\n      tag_104\n        /* \"#utility.yul\":3508:3512   */\n      dup2\n        /* \"#utility.yul\":3382:3513   */\n      tag_58\n      jump\t// in\n    tag_104:\n        /* \"#utility.yul\":3374:3513   */\n      swap1\n      pop\n        /* \"#utility.yul\":3101:3520   */\n      swap2\n      swap1\n      pop\n      jump\t// out\n        /* \"#utility.yul\":3526:3631   */\n    tag_59:\n        /* \"#utility.yul\":3562:3569   */\n      0x00\n        /* \"#utility.yul\":3602:3624   */\n      0xffffffffffffffffffff\n        /* \"#utility.yul\":3595:3600   */\n      dup3\n        /* \"#utility.yul\":3591:3625   */\n      and\n        /* \"#utility.yul\":3580:3625   */\n      swap1\n      pop\n        /* \"#utility.yul\":3526:3631   */\n      swap2\n      swap1\n      pop\n      jump\t// out\n        /* \"#utility.yul\":3637:3757   */\n    tag_60:\n        /* \"#utility.yul\":3709:3732   */\n      tag_107\n        /* \"#utility.yul\":3726:3731   */\n      dup2\n        /* \"#utility.yul\":3709:3732   */\n      tag_59\n      jump\t// in\n    tag_107:\n        /* \"#utility.yul\":3702:3707   */\n      dup2\n        /* \"#utility.yul\":3699:3733   */\n      eq\n        /* \"#utility.yul\":3689:3751   */\n      tag_108\n      jumpi\n        /* \"#utility.yul\":3747:3748   */\n      0x00\n        /* \"#utility.yul\":3744:3745   */\n      0x00\n        /* \"#utility.yul\":3737:3749   */\n      revert\n        /* \"#utility.yul\":3689:3751   */\n    tag_108:\n        /* \"#utility.yul\":3637:3757   */\n      pop\n      jump\t// out\n        /* \"#utility.yul\":3763:3904   */\n    tag_61:\n        /* \"#utility.yul\":3819:3824   */\n      0x00\n        /* \"#utility.yul\":3850:3856   */\n      dup2\n        /* \"#utility.yul\":3844:3857   */\n      mload\n        /* \"#utility.yul\":3835:3857   */\n      swap1\n      pop\n        /* \"#utility.yul\":3866:3898   */\n      tag_110\n        /* \"#utility.yul\":3892:3897   */\n      dup2\n        /* \"#utility.yul\":3866:3898   */\n      tag_60\n      jump\t// in\n    tag_110:\n        /* \"#utility.yul\":3763:3904   */\n      swap3\n      swap2\n      pop\n      pop\n      jump\t// out\n        /* \"#utility.yul\":3910:4030   */\n    tag_62:\n        /* \"#utility.yul\":3982:4005   */\n      tag_112\n        /* \"#utility.yul\":3999:4004   */\n      dup2\n        /* \"#utility.yul\":3982:4005   */\n      tag_47\n      jump\t// in\n    tag_112:\n        /* \"#utility.yul\":3975:3980   */\n      dup2\n        /* \"#utility.yul\":3972:4006   */\n      eq\n        /* \"#utility.yul\":3962:4024   */\n      tag_113\n      jumpi\n        /* \"#utility.yul\":4020:4021   */\n      0x00\n        /* \"#utility.yul\":4017:4018   */\n      0x00\n        /* \"#utility.yul\":4010:4022   */\n      revert\n        /* \"#utility.yul\":3962:4024   */\n    tag_113:\n        /* \"#utility.yul\":3910:4030   */\n      pop\n      jump\t// out\n        /* \"#utility.yul\":4036:4177   */\n    tag_63:\n        /* \"#utility.yul\":4092:4097   */\n      0x00\n        /* \"#utility.yul\":4123:4129   */\n      dup2\n        /* \"#utility.yul\":4117:4130   */\n      mload\n        /* \"#utility.yul\":4108:4130   */\n      swap1\n      pop\n        /* \"#utility.yul\":4139:4171   */\n      tag_115\n        /* \"#utility.yul\":4165:4170   */\n      dup2\n        /* \"#utility.yul\":4139:4171   */\n      tag_62\n      jump\t// in\n    tag_115:\n        /* \"#utility.yul\":4036:4177   */\n      swap3\n      swap2\n      pop\n      pop\n      jump\t// out\n        /* \"#utility.yul\":4183:4305   */\n    tag_64:\n        /* \"#utility.yul\":4256:4280   */\n      tag_117\n        /* \"#utility.yul\":4274:4279   */\n      dup2\n        /* \"#utility.yul\":4256:4280   */\n      tag_54\n      jump\t// in\n    tag_117:\n        /* \"#utility.yul\":4249:4254   */\n      dup2\n        /* \"#utility.yul\":4246:4281   */\n      eq\n        /* \"#utility.yul\":4236:4299   */\n      tag_118\n      jumpi\n        /* \"#utility.yul\":4295:4296   */\n      0x00\n        /* \"#utility.yul\":4292:4293   */\n      0x00\n        /* \"#utility.yul\":4285:4297   */\n      revert\n        /* \"#utility.yul\":4236:4299   */\n    tag_118:\n        /* \"#utility.yul\":4183:4305   */\n      pop\n      jump\t// out\n        /* \"#utility.yul\":4311:4454   */\n    tag_65:\n        /* \"#utility.yul\":4368:4373   */\n      0x00\n        /* \"#utility.yul\":4399:4405   */\n      dup2\n        /* \"#utility.yul\":4393:4406   */\n      mload\n        /* \"#utility.yul\":4384:4406   */\n      swap1\n      pop\n        /* \"#utility.yul\":4415:4448   */\n      tag_120\n        /* \"#utility.yul\":4442:4447   */\n      dup2\n        /* \"#utility.yul\":4415:4448   */\n      tag_64\n      jump\t// in\n    tag_120:\n        /* \"#utility.yul\":4311:4454   */\n      swap3\n      swap2\n      pop\n      pop\n      jump\t// out\n        /* \"#utility.yul\":4460:5431   */\n    tag_36:\n        /* \"#utility.yul\":4563:4569   */\n      0x00\n        /* \"#utility.yul\":4571:4577   */\n      0x00\n        /* \"#utility.yul\":4579:4585   */\n      0x00\n        /* \"#utility.yul\":4587:4593   */\n      0x00\n        /* \"#utility.yul\":4595:4601   */\n      0x00\n        /* \"#utility.yul\":4644:4647   */\n      0xa0\n        /* \"#utility.yul\":4632:4641   */\n      dup7\n        /* \"#utility.yul\":4623:4630   */\n      dup9\n        /* \"#utility.yul\":4619:4642   */\n      sub\n        /* \"#utility.yul\":4615:4648   */\n      slt\n        /* \"#utility.yul\":4612:4732   */\n      iszero\n      tag_122\n      jumpi\n        /* \"#utility.yul\":4651:4730   */\n      tag_123\n      tag_50\n      jump\t// in\n    tag_123:\n        /* \"#utility.yul\":4612:4732   */\n    tag_122:\n        /* \"#utility.yul\":4771:4772   */\n      0x00\n        /* \"#utility.yul\":4796:4859   */\n      tag_124\n        /* \"#utility.yul\":4851:4858   */\n      dup9\n        /* \"#utility.yul\":4842:4848   */\n      dup3\n        /* \"#utility.yul\":4831:4840   */\n      dup10\n        /* \"#utility.yul\":4827:4849   */\n      add\n        /* \"#utility.yul\":4796:4859   */\n      tag_61\n      jump\t// in\n    tag_124:\n        /* \"#utility.yul\":4786:4859   */\n      swap6\n      pop\n        /* \"#utility.yul\":4742:4869   */\n      pop\n        /* \"#utility.yul\":4908:4910   */\n      0x20\n        /* \"#utility.yul\":4934:4997   */\n      tag_125\n        /* \"#utility.yul\":4989:4996   */\n      dup9\n        /* \"#utility.yul\":4980:4986   */\n      dup3\n        /* \"#utility.yul\":4969:4978   */\n      dup10\n        /* \"#utility.yul\":4965:4987   */\n      add\n        /* \"#utility.yul\":4934:4997   */\n      tag_63\n      jump\t// in\n    tag_125:\n        /* \"#utility.yul\":4924:4997   */\n      swap5\n      pop\n        /* \"#utility.yul\":4879:5007   */\n      pop\n        /* \"#utility.yul\":5046:5048   */\n      0x40\n        /* \"#utility.yul\":5072:5136   */\n      tag_126\n        /* \"#utility.yul\":5128:5135   */\n      dup9\n        /* \"#utility.yul\":5119:5125   */\n      dup3\n        /* \"#utility.yul\":5108:5117   */\n      dup10\n        /* \"#utility.yul\":5104:5126   */\n      add\n        /* \"#utility.yul\":5072:5136   */\n      tag_65\n      jump\t// in\n    tag_126:\n        /* \"#utility.yul\":5062:5136   */\n      swap4\n      pop\n        /* \"#utility.yul\":5017:5146   */\n      pop\n        /* \"#utility.yul\":5185:5187   */\n      0x60\n        /* \"#utility.yul\":5211:5275   */\n      tag_127\n        /* \"#utility.yul\":5267:5274   */\n      dup9\n        /* \"#utility.yul\":5258:5264   */\n      dup3\n        /* \"#utility.yul\":5247:5256   */\n      dup10\n        /* \"#utility.yul\":5243:5265   */\n      add\n        /* \"#utility.yul\":5211:5275   */\n      tag_65\n      jump\t// in\n    tag_127:\n        /* \"#utility.yul\":5201:5275   */\n      swap3\n      pop\n        /* \"#utility.yul\":5156:5285   */\n      pop\n        /* \"#utility.yul\":5324:5327   */\n      0x80\n        /* \"#utility.yul\":5351:5414   */\n      tag_128\n        /* \"#utility.yul\":5406:5413   */\n      dup9\n        /* \"#utility.yul\":5397:5403   */\n      dup3\n        /* \"#utility.yul\":5386:5395   */\n      dup10\n        /* \"#utility.yul\":5382:5404   */\n      add\n        /* \"#utility.yul\":5351:5414   */\n      tag_61\n      jump\t// in\n    tag_128:\n        /* \"#utility.yul\":5341:5414   */\n      swap2\n      pop\n        /* \"#utility.yul\":5295:5424   */\n      pop\n        /* \"#utility.yul\":4460:5431   */\n      swap3\n      swap6\n      pop\n      swap3\n      swap6\n      swap1\n      swap4\n      pop\n      jump\t// out\n        /* \"#utility.yul\":5437:5617   */\n    tag_66:\n        /* \"#utility.yul\":5485:5562   */\n      0x4e487b7100000000000000000000000000000000000000000000000000000000\n        /* \"#utility.yul\":5482:5483   */\n      0x00\n        /* \"#utility.yul\":5475:5563   */\n      mstore\n        /* \"#utility.yul\":5582:5586   */\n      0x11\n        /* \"#utility.yul\":5579:5580   */\n      0x04\n        /* \"#utility.yul\":5572:5587   */\n      mstore\n        /* \"#utility.yul\":5606:5610   */\n      0x24\n        /* \"#utility.yul\":5603:5604   */\n      0x00\n        /* \"#utility.yul\":5596:5611   */\n      revert\n        /* \"#utility.yul\":5623:6033   */\n    tag_41:\n        /* \"#utility.yul\":5663:5670   */\n      0x00\n        /* \"#utility.yul\":5686:5706   */\n      tag_131\n        /* \"#utility.yul\":5704:5705   */\n      dup3\n        /* \"#utility.yul\":5686:5706   */\n      tag_54\n      jump\t// in\n    tag_131:\n        /* \"#utility.yul\":5681:5706   */\n      swap2\n      pop\n        /* \"#utility.yul\":5720:5740   */\n      tag_132\n        /* \"#utility.yul\":5738:5739   */\n      dup4\n        /* \"#utility.yul\":5720:5740   */\n      tag_54\n      jump\t// in\n    tag_132:\n        /* \"#utility.yul\":5715:5740   */\n      swap3\n      pop\n        /* \"#utility.yul\":5775:5776   */\n      dup3\n        /* \"#utility.yul\":5772:5773   */\n      dup3\n        /* \"#utility.yul\":5768:5777   */\n      mul\n        /* \"#utility.yul\":5797:5827   */\n      tag_133\n        /* \"#utility.yul\":5815:5826   */\n      dup2\n        /* \"#utility.yul\":5797:5827   */\n      tag_54\n      jump\t// in\n    tag_133:\n        /* \"#utility.yul\":5786:5827   */\n      swap2\n      pop\n        /* \"#utility.yul\":5976:5977   */\n      dup3\n        /* \"#utility.yul\":5967:5974   */\n      dup3\n        /* \"#utility.yul\":5963:5978   */\n      div\n        /* \"#utility.yul\":5960:5961   */\n      dup5\n        /* \"#utility.yul\":5957:5979   */\n      eq\n        /* \"#utility.yul\":5937:5938   */\n      dup4\n        /* \"#utility.yul\":5930:5939   */\n      iszero\n        /* \"#utility.yul\":5910:5993   */\n      or\n        /* \"#utility.yul\":5887:6026   */\n      tag_134\n      jumpi\n        /* \"#utility.yul\":6006:6024   */\n      tag_135\n      tag_66\n      jump\t// in\n    tag_135:\n        /* \"#utility.yul\":5887:6026   */\n    tag_134:\n        /* \"#utility.yul\":5671:6033   */\n      pop\n        /* \"#utility.yul\":5623:6033   */\n      swap3\n      swap2\n      pop\n      pop\n      jump\t// out\n        /* \"#utility.yul\":6039:6219   */\n    tag_67:\n        /* \"#utility.yul\":6087:6164   */\n      0x4e487b7100000000000000000000000000000000000000000000000000000000\n        /* \"#utility.yul\":6084:6085   */\n      0x00\n        /* \"#utility.yul\":6077:6165   */\n      mstore\n        /* \"#utility.yul\":6184:6188   */\n      0x12\n        /* \"#utility.yul\":6181:6182   */\n      0x04\n        /* \"#utility.yul\":6174:6189   */\n      mstore\n        /* \"#utility.yul\":6208:6212   */\n      0x24\n        /* \"#utility.yul\":6205:6206   */\n      0x00\n        /* \"#utility.yul\":6198:6213   */\n      revert\n        /* \"#utility.yul\":6225:6410   */\n    tag_43:\n        /* \"#utility.yul\":6265:6266   */\n      0x00\n        /* \"#utility.yul\":6282:6302   */\n      tag_138\n        /* \"#utility.yul\":6300:6301   */\n      dup3\n        /* \"#utility.yul\":6282:6302   */\n      tag_54\n      jump\t// in\n    tag_138:\n        /* \"#utility.yul\":6277:6302   */\n      swap2\n      pop\n        /* \"#utility.yul\":6316:6336   */\n      tag_139\n        /* \"#utility.yul\":6334:6335   */\n      dup4\n        /* \"#utility.yul\":6316:6336   */\n      tag_54\n      jump\t// in\n    tag_139:\n        /* \"#utility.yul\":6311:6336   */\n      swap3\n      pop\n        /* \"#utility.yul\":6355:6356   */\n      dup3\n        /* \"#utility.yul\":6345:6380   */\n      tag_140\n      jumpi\n        /* \"#utility.yul\":6360:6378   */\n      tag_141\n      tag_67\n      jump\t// in\n    tag_141:\n        /* \"#utility.yul\":6345:6380   */\n    tag_140:\n        /* \"#utility.yul\":6402:6403   */\n      dup3\n        /* \"#utility.yul\":6399:6400   */\n      dup3\n        /* \"#utility.yul\":6395:6404   */\n      div\n        /* \"#utility.yul\":6390:6404   */\n      swap1\n      pop\n        /* \"#utility.yul\":6225:6410   */\n      swap3\n      swap2\n      pop\n      pop\n      jump\t// out\n\n    auxdata: 0xa264697066735822122050506890ea01e57af69d04e43b4596572927f9840ffff92fc36eff844a5e2f9464736f6c634300081e0033\n}\n",
				"bytecode": {
					"linkReferences": {},
					"object": "60806040526402540be40060015568056bc75e2d631000006002553480156024575f5ffd5b503360045f6101000a81548173ffffffffffffffffffffffffffffffffffffffff021916908373ffffffffffffffffffffffffffffffffffffffff16021790555060045f9054906101000a900473ffffffffffffffffffffffffffffffffffffffff1660035f6101000a81548173ffffffffffffffffffffffffffffffffffffffff021916908373ffffffffffffffffffffffffffffffffffffffff16021790555061063a806100d35f395ff3fe60806040526004361061003e575f3560e01c80631721681c14610042578063b60d42881461006c578063bea4dfb514610076578063dc1f031a146100a0575b5f5ffd5b34801561004d575f5ffd5b506100566100dc565b60405161006391906102e3565b60405180910390f35b610074610104565b005b348015610081575f5ffd5b5061008a610193565b6040516100979190610314565b60405180910390f35b3480156100ab575f5ffd5b506100c660048036038101906100c1919061035b565b610230565b6040516100d3919061039e565b60405180910390f35b5f60045f9054906101000a900473ffffffffffffffffffffffffffffffffffffffff16905090565b60025461011034610275565b10610150576040517f08c379a000000000000000000000000000000000000000000000000000000000815260040161014790610411565b60405180910390fd5b345f5f3373ffffffffffffffffffffffffffffffffffffffff1673ffffffffffffffffffffffffffffffffffffffff1681526020019081526020015f2081905550565b5f5f60035f9054906101000a900473ffffffffffffffffffffffffffffffffffffffff1673ffffffffffffffffffffffffffffffffffffffff1663feaf968c6040518163ffffffff1660e01b815260040160a060405180830381865afa1580156101ff573d5f5f3e3d5ffd5b505050506040513d601f19601f8201168201806040525081019061022391906104c2565b5050509150508091505090565b5f5f5f8373ffffffffffffffffffffffffffffffffffffffff1673ffffffffffffffffffffffffffffffffffffffff1681526020019081526020015f20549050919050565b5f5f61027f610193565b90506305f5e10081846102929190610566565b61029c91906105d4565b915050919050565b5f73ffffffffffffffffffffffffffffffffffffffff82169050919050565b5f6102cd826102a4565b9050919050565b6102dd816102c3565b82525050565b5f6020820190506102f65f8301846102d4565b92915050565b5f819050919050565b61030e816102fc565b82525050565b5f6020820190506103275f830184610305565b92915050565b5f5ffd5b61033a816102c3565b8114610344575f5ffd5b50565b5f8135905061035581610331565b92915050565b5f602082840312156103705761036f61032d565b5b5f61037d84828501610347565b91505092915050565b5f819050919050565b61039881610386565b82525050565b5f6020820190506103b15f83018461038f565b92915050565b5f82825260208201905092915050565b7f6974277320746f6f2000000000000000000000000000000000000000000000005f82015250565b5f6103fb6009836103b7565b9150610406826103c7565b602082019050919050565b5f6020820190508181035f830152610428816103ef565b9050919050565b5f69ffffffffffffffffffff82169050919050565b61044d8161042f565b8114610457575f5ffd5b50565b5f8151905061046881610444565b92915050565b610477816102fc565b8114610481575f5ffd5b50565b5f815190506104928161046e565b92915050565b6104a181610386565b81146104ab575f5ffd5b50565b5f815190506104bc81610498565b92915050565b5f5f5f5f5f60a086880312156104db576104da61032d565b5b5f6104e88882890161045a565b95505060206104f988828901610484565b945050604061050a888289016104ae565b935050606061051b888289016104ae565b925050608061052c8882890161045a565b9150509295509295909350565b7f4e487b71000000000000000000000000000000000000000000000000000000005f52601160045260245ffd5b5f61057082610386565b915061057b83610386565b925082820261058981610386565b915082820484148315176105a05761059f610539565b5b5092915050565b7f4e487b71000000000000000000000000000000000000000000000000000000005f52601260045260245ffd5b5f6105de82610386565b91506105e983610386565b9250826105f9576105f86105a7565b5b82820490509291505056fea264697066735822122050506890ea01e57af69d04e43b4596572927f9840ffff92fc36eff844a5e2f9464736f6c634300081e0033",
					"opcodes": "PUSH1 0x80 PUSH1 0x40 MSTORE PUSH5 0x2540BE400 PUSH1 0x1 SSTORE PUSH9 0x56BC75E2D63100000 PUSH1 0x2 SSTORE CALLVALUE DUP1 ISZERO PUSH1 0x24 JUMPI PUSH0 PUSH0 REVERT JUMPDEST POP CALLER PUSH1 0x4 PUSH0 PUSH2 0x100 EXP DUP2 SLOAD DUP2 PUSH20 0xFFFFFFFFFFFFFFFFFFFFFFFFFFFFFFFFFFFFFFFF MUL NOT AND SWAP1 DUP4 PUSH20 0xFFFFFFFFFFFFFFFFFFFFFFFFFFFFFFFFFFFFFFFF AND MUL OR SWAP1 SSTORE POP PUSH1 0x4 PUSH0 SWAP1 SLOAD SWAP1 PUSH2 0x100 EXP SWAP1 DIV PUSH20 0xFFFFFFFFFFFFFFFFFFFFFFFFFFFFFFFFFFFFFFFF AND PUSH1 0x3 PUSH0 PUSH2 0x100 EXP DUP2 SLOAD DUP2 PUSH20 0xFFFFFFFFFFFFFFFFFFFFFFFFFFFFFFFFFFFFFFFF MUL NOT AND SWAP1 DUP4 PUSH20 0xFFFFFFFFFFFFFFFFFFFFFFFFFFFFFFFFFFFFFFFF AND MUL OR SWAP1 SSTORE POP PUSH2 0x63A DUP1 PUSH2 0xD3 PUSH0 CODECOPY PUSH0 RETURN INVALID PUSH1 0x80 PUSH1 0x40 MSTORE PUSH1 0x4 CALLDATASIZE LT PUSH2 0x3E JUMPI PUSH0 CALLDATALOAD PUSH1 0xE0 SHR DUP1 PUSH4 0x1721681C EQ PUSH2 0x42 JUMPI DUP1 PUSH4 0xB60D4288 EQ PUSH2 0x6C JUMPI DUP1 PUSH4 0xBEA4DFB5 EQ PUSH2 0x76 JUMPI DUP1 PUSH4 0xDC1F031A EQ PUSH2 0xA0 JUMPI JUMPDEST PUSH0 PUSH0 REVERT JUMPDEST CALLVALUE DUP1 ISZERO PUSH2 0x4D JUMPI PUSH0 PUSH0 REVERT JUMPDEST POP PUSH2 0x56 PUSH2 0xDC JUMP JUMPDEST PUSH1 0x40 MLOAD PUSH2 0x63 SWAP2 SWAP1 PUSH2 0x2E3 JUMP JUMPDEST PUSH1 0x40 MLOAD DUP1 SWAP2 SUB SWAP1 RETURN JUMPDEST PUSH2 0x74 PUSH2 0x104 JUMP JUMPDEST STOP JUMPDEST CALLVALUE DUP1 ISZERO PUSH2 0x81 JUMPI PUSH0 PUSH0 REVERT JUMPDEST POP PUSH2 0x8A PUSH2 0x193 JUMP JUMPDEST PUSH1 0x40 MLOAD PUSH2 0x97 SWAP2 SWAP1 PUSH2 0x314 JUMP JUMPDEST PUSH1 0x40 MLOAD DUP1 SWAP2 SUB SWAP1 RETURN JUMPDEST CALLVALUE DUP1 ISZERO PUSH2 0xAB JUMPI PUSH0 PUSH0 REVERT JUMPDEST POP PUSH2 0xC6 PUSH1 0x4 DUP1 CALLDATASIZE SUB DUP2 ADD SWAP1 PUSH2 0xC1 SWAP2 SWAP1 PUSH2 0x35B JUMP JUMPDEST PUSH2 0x230 JUMP JUMPDEST PUSH1 0x40 MLOAD PUSH2 0xD3 SWAP2 SWAP1 PUSH2 0x39E JUMP JUMPDEST PUSH1 0x40 MLOAD DUP1 SWAP2 SUB SWAP1 RETURN JUMPDEST PUSH0 PUSH1 0x4 PUSH0 SWAP1 SLOAD SWAP1 PUSH2 0x100 EXP SWAP1 DIV PUSH20 0xFFFFFFFFFFFFFFFFFFFFFFFFFFFFFFFFFFFFFFFF AND SWAP1 POP SWAP1 JUMP JUMPDEST PUSH1 0x2 SLOAD PUSH2 0x110 CALLVALUE PUSH2 0x275 JUMP JUMPDEST LT PUSH2 0x150 JUMPI PUSH1 0x40 MLOAD PUSH32 0x8C379A000000000000000000000000000000000000000000000000000000000 DUP2 MSTORE PUSH1 0x4 ADD PUSH2 0x147 SWAP1 PUSH2 0x411 JUMP JUMPDEST PUSH1 0x40 MLOAD DUP1 SWAP2 SUB SWAP1 REVERT JUMPDEST CALLVALUE PUSH0 PUSH0 CALLER PUSH20 0xFFFFFFFFFFFFFFFFFFFFFFFFFFFFFFFFFFFFFFFF AND PUSH20 0xFFFFFFFFFFFFFFFFFFFFFFFFFFFFFFFFFFFFFFFF AND DUP2 MSTORE PUSH1 0x20 ADD SWAP1 DUP2 MSTORE PUSH1 0x20 ADD PUSH0 KECCAK256 DUP2 SWAP1 SSTORE POP JUMP JUMPDEST PUSH0 PUSH0 PUSH1 0x3 PUSH0 SWAP1 SLOAD SWAP1 PUSH2 0x100 EXP SWAP1 DIV PUSH20 0xFFFFFFFFFFFFFFFFFFFFFFFFFFFFFFFFFFFFFFFF AND PUSH20 0xFFFFFFFFFFFFFFFFFFFFFFFFFFFFFFFFFFFFFFFF AND PUSH4 0xFEAF968C PUSH1 0x40 MLOAD DUP2 PUSH4 0xFFFFFFFF AND PUSH1 0xE0 SHL DUP2 MSTORE PUSH1 0x4 ADD PUSH1 0xA0 PUSH1 0x40 MLOAD DUP1 DUP4 SUB DUP2 DUP7 GAS STATICCALL ISZERO DUP1 ISZERO PUSH2 0x1FF JUMPI RETURNDATASIZE PUSH0 PUSH0 RETURNDATACOPY RETURNDATASIZE PUSH0 REVERT JUMPDEST POP POP POP POP PUSH1 0x40 MLOAD RETURNDATASIZE PUSH1 0x1F NOT PUSH1 0x1F DUP3 ADD AND DUP3 ADD DUP1 PUSH1 0x40 MSTORE POP DUP2 ADD SWAP1 PUSH2 0x223 SWAP2 SWAP1 PUSH2 0x4C2 JUMP JUMPDEST POP POP POP SWAP2 POP POP DUP1 SWAP2 POP POP SWAP1 JUMP JUMPDEST PUSH0 PUSH0 PUSH0 DUP4 PUSH20 0xFFFFFFFFFFFFFFFFFFFFFFFFFFFFFFFFFFFFFFFF AND PUSH20 0xFFFFFFFFFFFFFFFFFFFFFFFFFFFFFFFFFFFFFFFF AND DUP2 MSTORE PUSH1 0x20 ADD SWAP1 DUP2 MSTORE PUSH1 0x20 ADD PUSH0 KECCAK256 SLOAD SWAP1 POP SWAP2 SWAP1 POP JUMP JUMPDEST PUSH0 PUSH0 PUSH2 0x27F PUSH2 0x193 JUMP JUMPDEST SWAP1 POP PUSH4 0x5F5E100 DUP2 DUP5 PUSH2 0x292 SWAP2 SWAP1 PUSH2 0x566 JUMP JUMPDEST PUSH2 0x29C SWAP2 SWAP1 PUSH2 0x5D4 JUMP JUMPDEST SWAP2 POP POP SWAP2 SWAP1 POP JUMP JUMPDEST PUSH0 PUSH20 0xFFFFFFFFFFFFFFFFFFFFFFFFFFFFFFFFFFFFFFFF DUP3 AND SWAP1 POP SWAP2 SWAP1 POP JUMP JUMPDEST PUSH0 PUSH2 0x2CD DUP3 PUSH2 0x2A4 JUMP JUMPDEST SWAP1 POP SWAP2 SWAP1 POP JUMP JUMPDEST PUSH2 0x2DD DUP2 PUSH2 0x2C3 JUMP JUMPDEST DUP3 MSTORE POP POP JUMP JUMPDEST PUSH0 PUSH1 0x20 DUP3 ADD SWAP1 POP PUSH2 0x2F6 PUSH0 DUP4 ADD DUP5 PUSH2 0x2D4 JUMP JUMPDEST SWAP3 SWAP2 POP POP JUMP JUMPDEST PUSH0 DUP2 SWAP1 POP SWAP2 SWAP1 POP JUMP JUMPDEST PUSH2 0x30E DUP2 PUSH2 0x2FC JUMP JUMPDEST DUP3 MSTORE POP POP JUMP JUMPDEST PUSH0 PUSH1 0x20 DUP3 ADD SWAP1 POP PUSH2 0x327 PUSH0 DUP4 ADD DUP5 PUSH2 0x305 JUMP JUMPDEST SWAP3 SWAP2 POP POP JUMP JUMPDEST PUSH0 PUSH0 REVERT JUMPDEST PUSH2 0x33A DUP2 PUSH2 0x2C3 JUMP JUMPDEST DUP2 EQ PUSH2 0x344 JUMPI PUSH0 PUSH0 REVERT JUMPDEST POP JUMP JUMPDEST PUSH0 DUP2 CALLDATALOAD SWAP1 POP PUSH2 0x355 DUP2 PUSH2 0x331 JUMP JUMPDEST SWAP3 SWAP2 POP POP JUMP JUMPDEST PUSH0 PUSH1 0x20 DUP3 DUP5 SUB SLT ISZERO PUSH2 0x370 JUMPI PUSH2 0x36F PUSH2 0x32D JUMP JUMPDEST JUMPDEST PUSH0 PUSH2 0x37D DUP5 DUP3 DUP6 ADD PUSH2 0x347 JUMP JUMPDEST SWAP2 POP POP SWAP3 SWAP2 POP POP JUMP JUMPDEST PUSH0 DUP2 SWAP1 POP SWAP2 SWAP1 POP JUMP JUMPDEST PUSH2 0x398 DUP2 PUSH2 0x386 JUMP JUMPDEST DUP3 MSTORE POP POP JUMP JUMPDEST PUSH0 PUSH1 0x20 DUP3 ADD SWAP1 POP PUSH2 0x3B1 PUSH0 DUP4 ADD DUP5 PUSH2 0x38F JUMP JUMPDEST SWAP3 SWAP2 POP POP JUMP JUMPDEST PUSH0 DUP3 DUP3 MSTORE PUSH1 0x20 DUP3 ADD SWAP1 POP SWAP3 SWAP2 POP POP JUMP JUMPDEST PUSH32 0x6974277320746F6F200000000000000000000000000000000000000000000000 PUSH0 DUP3 ADD MSTORE POP JUMP JUMPDEST PUSH0 PUSH2 0x3FB PUSH1 0x9 DUP4 PUSH2 0x3B7 JUMP JUMPDEST SWAP2 POP PUSH2 0x406 DUP3 PUSH2 0x3C7 JUMP JUMPDEST PUSH1 0x20 DUP3 ADD SWAP1 POP SWAP2 SWAP1 POP JUMP JUMPDEST PUSH0 PUSH1 0x20 DUP3 ADD SWAP1 POP DUP2 DUP2 SUB PUSH0 DUP4 ADD MSTORE PUSH2 0x428 DUP2 PUSH2 0x3EF JUMP JUMPDEST SWAP1 POP SWAP2 SWAP1 POP JUMP JUMPDEST PUSH0 PUSH10 0xFFFFFFFFFFFFFFFFFFFF DUP3 AND SWAP1 POP SWAP2 SWAP1 POP JUMP JUMPDEST PUSH2 0x44D DUP2 PUSH2 0x42F JUMP JUMPDEST DUP2 EQ PUSH2 0x457 JUMPI PUSH0 PUSH0 REVERT JUMPDEST POP JUMP JUMPDEST PUSH0 DUP2 MLOAD SWAP1 POP PUSH2 0x468 DUP2 PUSH2 0x444 JUMP JUMPDEST SWAP3 SWAP2 POP POP JUMP JUMPDEST PUSH2 0x477 DUP2 PUSH2 0x2FC JUMP JUMPDEST DUP2 EQ PUSH2 0x481 JUMPI PUSH0 PUSH0 REVERT JUMPDEST POP JUMP JUMPDEST PUSH0 DUP2 MLOAD SWAP1 POP PUSH2 0x492 DUP2 PUSH2 0x46E JUMP JUMPDEST SWAP3 SWAP2 POP POP JUMP JUMPDEST PUSH2 0x4A1 DUP2 PUSH2 0x386 JUMP JUMPDEST DUP2 EQ PUSH2 0x4AB JUMPI PUSH0 PUSH0 REVERT JUMPDEST POP JUMP JUMPDEST PUSH0 DUP2 MLOAD SWAP1 POP PUSH2 0x4BC DUP2 PUSH2 0x498 JUMP JUMPDEST SWAP3 SWAP2 POP POP JUMP JUMPDEST PUSH0 PUSH0 PUSH0 PUSH0 PUSH0 PUSH1 0xA0 DUP7 DUP9 SUB SLT ISZERO PUSH2 0x4DB JUMPI PUSH2 0x4DA PUSH2 0x32D JUMP JUMPDEST JUMPDEST PUSH0 PUSH2 0x4E8 DUP9 DUP3 DUP10 ADD PUSH2 0x45A JUMP JUMPDEST SWAP6 POP POP PUSH1 0x20 PUSH2 0x4F9 DUP9 DUP3 DUP10 ADD PUSH2 0x484 JUMP JUMPDEST SWAP5 POP POP PUSH1 0x40 PUSH2 0x50A DUP9 DUP3 DUP10 ADD PUSH2 0x4AE JUMP JUMPDEST SWAP4 POP POP PUSH1 0x60 PUSH2 0x51B DUP9 DUP3 DUP10 ADD PUSH2 0x4AE JUMP JUMPDEST SWAP3 POP POP PUSH1 0x80 PUSH2 0x52C DUP9 DUP3 DUP10 ADD PUSH2 0x45A JUMP JUMPDEST SWAP2 POP POP SWAP3 SWAP6 POP SWAP3 SWAP6 SWAP1 SWAP4 POP JUMP JUMPDEST PUSH32 0x4E487B7100000000000000000000000000000000000000000000000000000000 PUSH0 MSTORE PUSH1 0x11 PUSH1 0x4 MSTORE PUSH1 0x24 PUSH0 REVERT JUMPDEST PUSH0 PUSH2 0x570 DUP3 PUSH2 0x386 JUMP JUMPDEST SWAP2 POP PUSH2 0x57B DUP4 PUSH2 0x386 JUMP JUMPDEST SWAP3 POP DUP3 DUP3 MUL PUSH2 0x589 DUP2 PUSH2 0x386 JUMP JUMPDEST SWAP2 POP DUP3 DUP3 DIV DUP5 EQ DUP4 ISZERO OR PUSH2 0x5A0 JUMPI PUSH2 0x59F PUSH2 0x539 JUMP JUMPDEST JUMPDEST POP SWAP3 SWAP2 POP POP JUMP JUMPDEST PUSH32 0x4E487B7100000000000000000000000000000000000000000000000000000000 PUSH0 MSTORE PUSH1 0x12 PUSH1 0x4 MSTORE PUSH1 0x24 PUSH0 REVERT JUMPDEST PUSH0 PUSH2 0x5DE DUP3 PUSH2 0x386 JUMP JUMPDEST SWAP2 POP PUSH2 0x5E9 DUP4 PUSH2 0x386 JUMP JUMPDEST SWAP3 POP DUP3 PUSH2 0x5F9 JUMPI PUSH2 0x5F8 PUSH2 0x5A7 JUMP JUMPDEST JUMPDEST DUP3 DUP3 DIV SWAP1 POP SWAP3 SWAP2 POP POP JUMP INVALID LOG2 PUSH5 0x6970667358 0x22 SLT KECCAK256 POP POP PUSH9 0x90EA01E57AF69D04E4 EXTCODESIZE GASLIMIT SWAP7 JUMPI 0x29 0x27 EXTDELEGATECALL DUP5 0xF SELFDESTRUCT EXTDELEGATECALL 0x2F 0xC3 PUSH15 0xFF844A5E2F9464736F6C634300081E STOP CALLER "
				},
				"gasEstimates": {
					"creation": {
						"codeDepositCost": "318800",
						"executionCost": "95231",
						"totalCost": "414031"
					},
					"external": {
						"found(address)": "2872",
						"foundContractUser()": "2493",
						"fund()": "infinite",
						"getChainlinkDataFeedLatestAnswer()": "infinite"
					},
					"internal": {
						"calculateUsdPrice(uint256)": "infinite"
					}
				},
				"methodIdentifiers": {
					"found(address)": "dc1f031a",
					"foundContractUser()": "1721681c",
					"fund()": "b60d4288",
					"getChainlinkDataFeedLatestAnswer()": "bea4dfb5"
				}
			},
			"storageLayout": {
				"storage": [
					{
						"astId": 53,
						"contract": "my_contracts/FundMe.sol:FundMe",
						"label": "funderMap",
						"offset": 0,
						"slot": "0",
						"type": "t_mapping(t_address,t_uint256)"
					},
					{
						"astId": 60,
						"contract": "my_contracts/FundMe.sol:FundMe",
						"label": "MINIMUM_VALUE",
						"offset": 0,
						"slot": "1",
						"type": "t_uint256"
					},
					{
						"astId": 67,
						"contract": "my_contracts/FundMe.sol:FundMe",
						"label": "MINIMUM_USD_VALUE",
						"offset": 0,
						"slot": "2",
						"type": "t_uint256"
					},
					{
						"astId": 70,
						"contract": "my_contracts/FundMe.sol:FundMe",
						"label": "dataFeed",
						"offset": 0,
						"slot": "3",
						"type": "t_contract(AggregatorV3Interface)45"
					},
					{
						"astId": 72,
						"contract": "my_contracts/FundMe.sol:FundMe",
						"label": "owner",
						"offset": 0,
						"slot": "4",
						"type": "t_address"
					}
				],
				"types": {
					"t_address": {
						"encoding": "inplace",
						"label": "address",
						"numberOfBytes": "20"
					},
					"t_contract(AggregatorV3Interface)45": {
						"encoding": "inplace",
						"label": "contract AggregatorV3Interface",
						"numberOfBytes": "20"
					},
					"t_mapping(t_address,t_uint256)": {
						"encoding": "mapping",
						"key": "t_address",
						"label": "mapping(address => uint256)",
						"numberOfBytes": "32",
						"value": "t_uint256"
					},
					"t_uint256": {
						"encoding": "inplace",
						"label": "uint256",
						"numberOfBytes": "32"
					}
				}
			},
			"userdoc": {
				"kind": "user",
				"methods": {},
				"version": 1
			}
		}
	}
}