{
	"my_contracts/FundMe.sol": {
		"FundMe": {
			"abi": [
				{
					"inputs": [
						{
							"internalType": "uint256",
							"name": "_lockTime",
							"type": "uint256"
						}
					],
					"stateMutability": "nonpayable",
					"type": "constructor"
				},
				{
					"inputs": [
						{
							"internalType": "address",
							"name": "account",
							"type": "address"
						},
						{
							"internalType": "uint256",
							"name": "amount",
							"type": "uint256"
						}
					],
					"name": "amountMintDecrease",
					"outputs": [],
					"stateMutability": "nonpayable",
					"type": "function"
				},
				{
					"inputs": [
						{
							"internalType": "address",
							"name": "_user",
							"type": "address"
						}
					],
					"name": "found",
					"outputs": [
						{
							"internalType": "uint256",
							"name": "",
							"type": "uint256"
						}
					],
					"stateMutability": "view",
					"type": "function"
				},
				{
					"inputs": [],
					"name": "foundContractUser",
					"outputs": [
						{
							"internalType": "address",
							"name": "",
							"type": "address"
						}
					],
					"stateMutability": "view",
					"type": "function"
				},
				{
					"inputs": [],
					"name": "fund",
					"outputs": [],
					"stateMutability": "payable",
					"type": "function"
				},
				{
					"inputs": [],
					"name": "getChainlinkDataFeedLatestAnswer",
					"outputs": [
						{
							"internalType": "int256",
							"name": "",
							"type": "int256"
						}
					],
					"stateMutability": "view",
					"type": "function"
				},
				{
					"inputs": [],
					"name": "getFund",
					"outputs": [],
					"stateMutability": "nonpayable",
					"type": "function"
				},
				{
					"inputs": [],
					"name": "isFundSuccess",
					"outputs": [
						{
							"internalType": "bool",
							"name": "",
							"type": "bool"
						}
					],
					"stateMutability": "view",
					"type": "function"
				},
				{
					"inputs": [],
					"name": "refund",
					"outputs": [],
					"stateMutability": "nonpayable",
					"type": "function"
				},
				{
					"inputs": [
						{
							"internalType": "address",
							"name": "tokenAddress",
							"type": "address"
						}
					],
					"name": "setERC20Address",
					"outputs": [],
					"stateMutability": "nonpayable",
					"type": "function"
				},
				{
					"inputs": [
						{
							"internalType": "address",
							"name": "_newOwner",
							"type": "address"
						}
					],
					"name": "transferOwnerShip",
					"outputs": [],
					"stateMutability": "nonpayable",
					"type": "function"
				}
			],
			"devdoc": {
				"kind": "dev",
				"methods": {},
				"version": 1
			},
			"evm": {
				"assembly": "    /* \"my_contracts/FundMe.sol\":373:5299  contract FundMe{... */\n  mstore(0x40, 0x80)\n    /* \"my_contracts/FundMe.sol\":757:769  4 * 10 ** 10 */\n  0x09502f9000\n    /* \"my_contracts/FundMe.sol\":734:769  uint256 MAXMUM_VALUE = 4 * 10 ** 10 */\n  0x01\n  sstore\n    /* \"my_contracts/FundMe.sol\":990:995  false */\n  0x00\n    /* \"my_contracts/FundMe.sol\":962:995  bool public isFundSuccess = false */\n  0x04\n  exp(0x0100, 0x14)\n  dup2\n  sload\n  dup2\n  0xff\n  mul\n  not\n  and\n  swap1\n  dup4\n  iszero\n  iszero\n  mul\n  or\n  swap1\n  sstore\n  pop\n    /* \"my_contracts/FundMe.sol\":1068:1529  constructor(uint256 _lockTime){... */\n  callvalue\n  dup1\n  iszero\n  tag_1\n  jumpi\n  revert(0x00, 0x00)\ntag_1:\n  pop\n  mload(0x40)\n  sub(codesize, bytecodeSize)\n  dup1\n  bytecodeSize\n  dup4\n  codecopy\n  dup2\n  dup2\n  add\n  0x40\n  mstore\n  dup2\n  add\n  swap1\n  tag_2\n  swap2\n  swap1\n  tag_3\n  jump\t// in\ntag_2:\n    /* \"my_contracts/FundMe.sol\":1116:1126  msg.sender */\n  caller\n    /* \"my_contracts/FundMe.sol\":1108:1113  owner */\n  0x06\n  0x00\n    /* \"my_contracts/FundMe.sol\":1108:1126  owner = msg.sender */\n  0x0100\n  exp\n  dup2\n  sload\n  dup2\n  0xffffffffffffffffffffffffffffffffffffffff\n  mul\n  not\n  and\n  swap1\n  dup4\n  0xffffffffffffffffffffffffffffffffffffffff\n  and\n  mul\n  or\n  swap1\n  sstore\n  pop\n    /* \"my_contracts/FundMe.sol\":1374:1379  owner */\n  0x06\n  0x00\n  swap1\n  sload\n  swap1\n  0x0100\n  exp\n  swap1\n  div\n  0xffffffffffffffffffffffffffffffffffffffff\n  and\n    /* \"my_contracts/FundMe.sol\":1341:1349  dataFeed */\n  0x05\n  0x00\n    /* \"my_contracts/FundMe.sol\":1341:1380  dataFeed = AggregatorV3Interface(owner) */\n  0x0100\n  exp\n  dup2\n  sload\n  dup2\n  0xffffffffffffffffffffffffffffffffffffffff\n  mul\n  not\n  and\n  swap1\n  dup4\n  0xffffffffffffffffffffffffffffffffffffffff\n  and\n  mul\n  or\n  swap1\n  sstore\n  pop\n    /* \"my_contracts/FundMe.sol\":1412:1427  block.timestamp */\n  timestamp\n    /* \"my_contracts/FundMe.sol\":1390:1409  deploymentTimestamp */\n  0x02\n    /* \"my_contracts/FundMe.sol\":1390:1427  deploymentTimestamp = block.timestamp */\n  dup2\n  swap1\n  sstore\n  pop\n    /* \"my_contracts/FundMe.sol\":1482:1491  _lockTime */\n  dup1\n    /* \"my_contracts/FundMe.sol\":1471:1479  lockTime */\n  0x03\n    /* \"my_contracts/FundMe.sol\":1471:1491  lockTime = _lockTime */\n  dup2\n  swap1\n  sstore\n  pop\n    /* \"my_contracts/FundMe.sol\":1068:1529  constructor(uint256 _lockTime){... */\n  pop\n    /* \"my_contracts/FundMe.sol\":373:5299  contract FundMe{... */\n  jump(tag_6)\n    /* \"#utility.yul\":88:205   */\ntag_8:\n    /* \"#utility.yul\":197:198   */\n  0x00\n    /* \"#utility.yul\":194:195   */\n  0x00\n    /* \"#utility.yul\":187:199   */\n  revert\n    /* \"#utility.yul\":334:411   */\ntag_10:\n    /* \"#utility.yul\":371:378   */\n  0x00\n    /* \"#utility.yul\":400:405   */\n  dup2\n    /* \"#utility.yul\":389:405   */\n  swap1\n  pop\n    /* \"#utility.yul\":334:411   */\n  swap2\n  swap1\n  pop\n  jump\t// out\n    /* \"#utility.yul\":417:539   */\ntag_11:\n    /* \"#utility.yul\":490:514   */\n  tag_19\n    /* \"#utility.yul\":508:513   */\n  dup2\n    /* \"#utility.yul\":490:514   */\n  tag_10\n  jump\t// in\ntag_19:\n    /* \"#utility.yul\":483:488   */\n  dup2\n    /* \"#utility.yul\":480:515   */\n  eq\n    /* \"#utility.yul\":470:533   */\n  tag_20\n  jumpi\n    /* \"#utility.yul\":529:530   */\n  0x00\n    /* \"#utility.yul\":526:527   */\n  0x00\n    /* \"#utility.yul\":519:531   */\n  revert\n    /* \"#utility.yul\":470:533   */\ntag_20:\n    /* \"#utility.yul\":417:539   */\n  pop\n  jump\t// out\n    /* \"#utility.yul\":545:688   */\ntag_12:\n    /* \"#utility.yul\":602:607   */\n  0x00\n    /* \"#utility.yul\":633:639   */\n  dup2\n    /* \"#utility.yul\":627:640   */\n  mload\n    /* \"#utility.yul\":618:640   */\n  swap1\n  pop\n    /* \"#utility.yul\":649:682   */\n  tag_22\n    /* \"#utility.yul\":676:681   */\n  dup2\n    /* \"#utility.yul\":649:682   */\n  tag_11\n  jump\t// in\ntag_22:\n    /* \"#utility.yul\":545:688   */\n  swap3\n  swap2\n  pop\n  pop\n  jump\t// out\n    /* \"#utility.yul\":694:1045   */\ntag_3:\n    /* \"#utility.yul\":764:770   */\n  0x00\n    /* \"#utility.yul\":813:815   */\n  0x20\n    /* \"#utility.yul\":801:810   */\n  dup3\n    /* \"#utility.yul\":792:799   */\n  dup5\n    /* \"#utility.yul\":788:811   */\n  sub\n    /* \"#utility.yul\":784:816   */\n  slt\n    /* \"#utility.yul\":781:900   */\n  iszero\n  tag_24\n  jumpi\n    /* \"#utility.yul\":819:898   */\n  tag_25\n  tag_8\n  jump\t// in\ntag_25:\n    /* \"#utility.yul\":781:900   */\ntag_24:\n    /* \"#utility.yul\":939:940   */\n  0x00\n    /* \"#utility.yul\":964:1028   */\n  tag_26\n    /* \"#utility.yul\":1020:1027   */\n  dup5\n    /* \"#utility.yul\":1011:1017   */\n  dup3\n    /* \"#utility.yul\":1000:1009   */\n  dup6\n    /* \"#utility.yul\":996:1018   */\n  add\n    /* \"#utility.yul\":964:1028   */\n  tag_12\n  jump\t// in\ntag_26:\n    /* \"#utility.yul\":954:1028   */\n  swap2\n  pop\n    /* \"#utility.yul\":910:1038   */\n  pop\n    /* \"#utility.yul\":694:1045   */\n  swap3\n  swap2\n  pop\n  pop\n  jump\t// out\n    /* \"my_contracts/FundMe.sol\":373:5299  contract FundMe{... */\ntag_6:\n  dataSize(sub_0)\n  dup1\n  dataOffset(sub_0)\n  0x00\n  codecopy\n  0x00\n  return\nstop\n\nsub_0: assembly {\n        /* \"my_contracts/FundMe.sol\":373:5299  contract FundMe{... */\n      mstore(0x40, 0x80)\n      jumpi(tag_1, lt(calldatasize, 0x04))\n      shr(0xe0, calldataload(0x00))\n      dup1\n      0x8863dd1a\n      gt\n      tag_12\n      jumpi\n      dup1\n      0x8863dd1a\n      eq\n      tag_7\n      jumpi\n      dup1\n      0x8edd6eb6\n      eq\n      tag_8\n      jumpi\n      dup1\n      0xb60d4288\n      eq\n      tag_9\n      jumpi\n      dup1\n      0xbea4dfb5\n      eq\n      tag_10\n      jumpi\n      dup1\n      0xdc1f031a\n      eq\n      tag_11\n      jumpi\n      jump(tag_1)\n    tag_12:\n      dup1\n      0x0698ff51\n      eq\n      tag_2\n      jumpi\n      dup1\n      0x1721681c\n      eq\n      tag_3\n      jumpi\n      dup1\n      0x41bec0d2\n      eq\n      tag_4\n      jumpi\n      dup1\n      0x5863b06f\n      eq\n      tag_5\n      jumpi\n      dup1\n      0x590e1ae3\n      eq\n      tag_6\n      jumpi\n    tag_1:\n      revert(0x00, 0x00)\n        /* \"my_contracts/FundMe.sol\":3715:3897  function amountMintDecrease(address account, uint256 amount) public {... */\n    tag_2:\n      callvalue\n      dup1\n      iszero\n      tag_13\n      jumpi\n      revert(0x00, 0x00)\n    tag_13:\n      pop\n      tag_14\n      0x04\n      dup1\n      calldatasize\n      sub\n      dup2\n      add\n      swap1\n      tag_15\n      swap2\n      swap1\n      tag_16\n      jump\t// in\n    tag_15:\n      tag_17\n      jump\t// in\n    tag_14:\n      stop\n        /* \"my_contracts/FundMe.sol\":4070:4158  function foundContractUser() public view returns(address) {... */\n    tag_3:\n      callvalue\n      dup1\n      iszero\n      tag_18\n      jumpi\n      revert(0x00, 0x00)\n    tag_18:\n      pop\n      tag_19\n      tag_20\n      jump\t// in\n    tag_19:\n      mload(0x40)\n      tag_21\n      swap2\n      swap1\n      tag_22\n      jump\t// in\n    tag_21:\n      mload(0x40)\n      dup1\n      swap2\n      sub\n      swap1\n      return\n        /* \"my_contracts/FundMe.sol\":3932:4035  function setERC20Address(address tokenAddress) public isOwner {... */\n    tag_4:\n      callvalue\n      dup1\n      iszero\n      tag_23\n      jumpi\n      revert(0x00, 0x00)\n    tag_23:\n      pop\n      tag_24\n      0x04\n      dup1\n      calldatasize\n      sub\n      dup2\n      add\n      swap1\n      tag_25\n      swap2\n      swap1\n      tag_26\n      jump\t// in\n    tag_25:\n      tag_27\n      jump\t// in\n    tag_24:\n      stop\n        /* \"my_contracts/FundMe.sol\":962:995  bool public isFundSuccess = false */\n    tag_5:\n      callvalue\n      dup1\n      iszero\n      tag_28\n      jumpi\n      revert(0x00, 0x00)\n    tag_28:\n      pop\n      tag_29\n      tag_30\n      jump\t// in\n    tag_29:\n      mload(0x40)\n      tag_31\n      swap2\n      swap1\n      tag_32\n      jump\t// in\n    tag_31:\n      mload(0x40)\n      dup1\n      swap2\n      sub\n      swap1\n      return\n        /* \"my_contracts/FundMe.sol\":3085:3683  function refund() external {... */\n    tag_6:\n      callvalue\n      dup1\n      iszero\n      tag_33\n      jumpi\n      revert(0x00, 0x00)\n    tag_33:\n      pop\n      tag_34\n      tag_35\n      jump\t// in\n    tag_34:\n      stop\n        /* \"my_contracts/FundMe.sol\":4193:4288  function transferOwnerShip(address _newOwner) public  isOwner{... */\n    tag_7:\n      callvalue\n      dup1\n      iszero\n      tag_36\n      jumpi\n      revert(0x00, 0x00)\n    tag_36:\n      pop\n      tag_37\n      0x04\n      dup1\n      calldatasize\n      sub\n      dup2\n      add\n      swap1\n      tag_38\n      swap2\n      swap1\n      tag_26\n      jump\t// in\n    tag_38:\n      tag_39\n      jump\t// in\n    tag_37:\n      stop\n        /* \"my_contracts/FundMe.sol\":2259:3065  function getFund() external isOwner{... */\n    tag_8:\n      callvalue\n      dup1\n      iszero\n      tag_40\n      jumpi\n      revert(0x00, 0x00)\n    tag_40:\n      pop\n      tag_41\n      tag_42\n      jump\t// in\n    tag_41:\n      stop\n        /* \"my_contracts/FundMe.sol\":1575:2095  function fund() external payable {... */\n    tag_9:\n      tag_43\n      tag_44\n      jump\t// in\n    tag_43:\n      stop\n        /* \"my_contracts/FundMe.sol\":4323:4670  function getChainlinkDataFeedLatestAnswer() public view returns (int) {... */\n    tag_10:\n      callvalue\n      dup1\n      iszero\n      tag_45\n      jumpi\n      revert(0x00, 0x00)\n    tag_45:\n      pop\n      tag_46\n      tag_47\n      jump\t// in\n    tag_46:\n      mload(0x40)\n      tag_48\n      swap2\n      swap1\n      tag_49\n      jump\t// in\n    tag_48:\n      mload(0x40)\n      dup1\n      swap2\n      sub\n      swap1\n      return\n        /* \"my_contracts/FundMe.sol\":2140:2239  function found(address _user) public view returns(uint256) {... */\n    tag_11:\n      callvalue\n      dup1\n      iszero\n      tag_50\n      jumpi\n      revert(0x00, 0x00)\n    tag_50:\n      pop\n      tag_51\n      0x04\n      dup1\n      calldatasize\n      sub\n      dup2\n      add\n      swap1\n      tag_52\n      swap2\n      swap1\n      tag_26\n      jump\t// in\n    tag_52:\n      tag_53\n      jump\t// in\n    tag_51:\n      mload(0x40)\n      tag_54\n      swap2\n      swap1\n      tag_55\n      jump\t// in\n    tag_54:\n      mload(0x40)\n      dup1\n      swap2\n      sub\n      swap1\n      return\n        /* \"my_contracts/FundMe.sol\":3715:3897  function amountMintDecrease(address account, uint256 amount) public {... */\n    tag_17:\n        /* \"my_contracts/FundMe.sol\":3815:3822  account */\n      dup2\n        /* \"my_contracts/FundMe.sol\":3801:3822  msg.sender == account */\n      0xffffffffffffffffffffffffffffffffffffffff\n      and\n        /* \"my_contracts/FundMe.sol\":3801:3811  msg.sender */\n      caller\n        /* \"my_contracts/FundMe.sol\":3801:3822  msg.sender == account */\n      0xffffffffffffffffffffffffffffffffffffffff\n      and\n      eq\n        /* \"my_contracts/FundMe.sol\":3793:3853  require(msg.sender == account, \"you do not have permission\") */\n      tag_57\n      jumpi\n      mload(0x40)\n      0x08c379a000000000000000000000000000000000000000000000000000000000\n      dup2\n      mstore\n      0x04\n      add\n      tag_58\n      swap1\n      tag_59\n      jump\t// in\n    tag_58:\n      mload(0x40)\n      dup1\n      swap2\n      sub\n      swap1\n      revert\n    tag_57:\n        /* \"my_contracts/FundMe.sol\":3884:3890  amount */\n      dup1\n        /* \"my_contracts/FundMe.sol\":3863:3872  funderMap */\n      0x00\n        /* \"my_contracts/FundMe.sol\":3863:3881  funderMap[account] */\n      0x00\n        /* \"my_contracts/FundMe.sol\":3873:3880  account */\n      dup5\n        /* \"my_contracts/FundMe.sol\":3863:3881  funderMap[account] */\n      0xffffffffffffffffffffffffffffffffffffffff\n      and\n      0xffffffffffffffffffffffffffffffffffffffff\n      and\n      dup2\n      mstore\n      0x20\n      add\n      swap1\n      dup2\n      mstore\n      0x20\n      add\n      0x00\n      keccak256\n        /* \"my_contracts/FundMe.sol\":3863:3890  funderMap[account] = amount */\n      dup2\n      swap1\n      sstore\n      pop\n        /* \"my_contracts/FundMe.sol\":3715:3897  function amountMintDecrease(address account, uint256 amount) public {... */\n      pop\n      pop\n      jump\t// out\n        /* \"my_contracts/FundMe.sol\":4070:4158  function foundContractUser() public view returns(address) {... */\n    tag_20:\n        /* \"my_contracts/FundMe.sol\":4119:4126  address */\n      0x00\n        /* \"my_contracts/FundMe.sol\":4145:4150  owner */\n      0x06\n      0x00\n      swap1\n      sload\n      swap1\n      0x0100\n      exp\n      swap1\n      div\n      0xffffffffffffffffffffffffffffffffffffffff\n      and\n        /* \"my_contracts/FundMe.sol\":4138:4150  return owner */\n      swap1\n      pop\n        /* \"my_contracts/FundMe.sol\":4070:4158  function foundContractUser() public view returns(address) {... */\n      swap1\n      jump\t// out\n        /* \"my_contracts/FundMe.sol\":3932:4035  function setERC20Address(address tokenAddress) public isOwner {... */\n    tag_27:\n        /* \"my_contracts/FundMe.sol\":5092:5097  owner */\n      0x06\n      0x00\n      swap1\n      sload\n      swap1\n      0x0100\n      exp\n      swap1\n      div\n      0xffffffffffffffffffffffffffffffffffffffff\n      and\n        /* \"my_contracts/FundMe.sol\":5078:5097  msg.sender == owner */\n      0xffffffffffffffffffffffffffffffffffffffff\n      and\n        /* \"my_contracts/FundMe.sol\":5078:5088  msg.sender */\n      caller\n        /* \"my_contracts/FundMe.sol\":5078:5097  msg.sender == owner */\n      0xffffffffffffffffffffffffffffffffffffffff\n      and\n      eq\n        /* \"my_contracts/FundMe.sol\":5070:5127  require(msg.sender == owner, \"you don't have permission\") */\n      tag_62\n      jumpi\n      mload(0x40)\n      0x08c379a000000000000000000000000000000000000000000000000000000000\n      dup2\n      mstore\n      0x04\n      add\n      tag_63\n      swap1\n      tag_64\n      jump\t// in\n    tag_63:\n      mload(0x40)\n      dup1\n      swap2\n      sub\n      swap1\n      revert\n    tag_62:\n        /* \"my_contracts/FundMe.sol\":4016:4028  tokenAddress */\n      dup1\n        /* \"my_contracts/FundMe.sol\":4004:4013  erc20Addr */\n      0x04\n      0x00\n        /* \"my_contracts/FundMe.sol\":4004:4028  erc20Addr = tokenAddress */\n      0x0100\n      exp\n      dup2\n      sload\n      dup2\n      0xffffffffffffffffffffffffffffffffffffffff\n      mul\n      not\n      and\n      swap1\n      dup4\n      0xffffffffffffffffffffffffffffffffffffffff\n      and\n      mul\n      or\n      swap1\n      sstore\n      pop\n        /* \"my_contracts/FundMe.sol\":3932:4035  function setERC20Address(address tokenAddress) public isOwner {... */\n      pop\n      jump\t// out\n        /* \"my_contracts/FundMe.sol\":962:995  bool public isFundSuccess = false */\n    tag_30:\n      0x04\n      0x14\n      swap1\n      sload\n      swap1\n      0x0100\n      exp\n      swap1\n      div\n      0xff\n      and\n      dup2\n      jump\t// out\n        /* \"my_contracts/FundMe.sol\":3085:3683  function refund() external {... */\n    tag_35:\n        /* \"my_contracts/FundMe.sol\":3199:3211  MAXMUM_VALUE */\n      sload(0x01)\n        /* \"my_contracts/FundMe.sol\":3175:3196  address(this).balance */\n      selfbalance\n        /* \"my_contracts/FundMe.sol\":3175:3211  address(this).balance < MAXMUM_VALUE */\n      lt\n        /* \"my_contracts/FundMe.sol\":3167:3233  require(address(this).balance < MAXMUM_VALUE, \"target is reached\") */\n      tag_67\n      jumpi\n      mload(0x40)\n      0x08c379a000000000000000000000000000000000000000000000000000000000\n      dup2\n      mstore\n      0x04\n      add\n      tag_68\n      swap1\n      tag_69\n      jump\t// in\n    tag_68:\n      mload(0x40)\n      dup1\n      swap2\n      sub\n      swap1\n      revert\n    tag_67:\n        /* \"my_contracts/FundMe.sol\":3292:3300  lockTime */\n      sload(0x03)\n        /* \"my_contracts/FundMe.sol\":3270:3289  deploymentTimestamp */\n      sload(0x02)\n        /* \"my_contracts/FundMe.sol\":3270:3300  deploymentTimestamp + lockTime */\n      tag_70\n      swap2\n      swap1\n      tag_71\n      jump\t// in\n    tag_70:\n        /* \"my_contracts/FundMe.sol\":3251:3266  block.timestamp */\n      timestamp\n        /* \"my_contracts/FundMe.sol\":3251:3300  block.timestamp >= deploymentTimestamp + lockTime */\n      lt\n      iszero\n        /* \"my_contracts/FundMe.sol\":3243:3304  require(block.timestamp >= deploymentTimestamp + lockTime,\"\") */\n      tag_72\n      jumpi\n      mload(0x40)\n      0x08c379a000000000000000000000000000000000000000000000000000000000\n      dup2\n      mstore\n      0x04\n      add\n      tag_73\n      swap1\n      tag_74\n      jump\t// in\n    tag_73:\n      mload(0x40)\n      dup1\n      swap2\n      sub\n      swap1\n      revert\n    tag_72:\n        /* \"my_contracts/FundMe.sol\":3350:3364  uint256 amount */\n      0x00\n        /* \"my_contracts/FundMe.sol\":3367:3384  found(msg.sender) */\n      tag_75\n        /* \"my_contracts/FundMe.sol\":3373:3383  msg.sender */\n      caller\n        /* \"my_contracts/FundMe.sol\":3367:3372  found */\n      tag_53\n        /* \"my_contracts/FundMe.sol\":3367:3384  found(msg.sender) */\n      jump\t// in\n    tag_75:\n        /* \"my_contracts/FundMe.sol\":3350:3384  uint256 amount = found(msg.sender) */\n      swap1\n      pop\n        /* \"my_contracts/FundMe.sol\":3412:3413  0 */\n      0x00\n        /* \"my_contracts/FundMe.sol\":3402:3408  amount */\n      dup2\n        /* \"my_contracts/FundMe.sol\":3402:3413  amount != 0 */\n      sub\n        /* \"my_contracts/FundMe.sol\":3394:3441  require(amount != 0,\"there is no fund for you\") */\n      tag_76\n      jumpi\n      mload(0x40)\n      0x08c379a000000000000000000000000000000000000000000000000000000000\n      dup2\n      mstore\n      0x04\n      add\n      tag_77\n      swap1\n      tag_78\n      jump\t// in\n    tag_77:\n      mload(0x40)\n      dup1\n      swap2\n      sub\n      swap1\n      revert\n    tag_76:\n        /* \"my_contracts/FundMe.sol\":3451:3463  bool success */\n      0x00\n        /* \"my_contracts/FundMe.sol\":3494:3504  msg.sender */\n      caller\n        /* \"my_contracts/FundMe.sol\":3486:3510  payable(msg.sender).call */\n      0xffffffffffffffffffffffffffffffffffffffff\n      and\n        /* \"my_contracts/FundMe.sol\":3518:3524  amount */\n      dup3\n        /* \"my_contracts/FundMe.sol\":3486:3529  payable(msg.sender).call{value: amount}(\"\") */\n      mload(0x40)\n      tag_79\n      swap1\n      tag_80\n      jump\t// in\n    tag_79:\n      0x00\n      mload(0x40)\n      dup1\n      dup4\n      sub\n      dup2\n      dup6\n      dup8\n      gas\n      call\n      swap3\n      pop\n      pop\n      pop\n      returndatasize\n      dup1\n      0x00\n      dup2\n      eq\n      tag_83\n      jumpi\n      mload(0x40)\n      swap2\n      pop\n      and(add(returndatasize, 0x3f), not(0x1f))\n      dup3\n      add\n      0x40\n      mstore\n      returndatasize\n      dup3\n      mstore\n      returndatasize\n      0x00\n      0x20\n      dup5\n      add\n      returndatacopy\n      jump(tag_82)\n    tag_83:\n      0x60\n      swap2\n      pop\n    tag_82:\n      pop\n        /* \"my_contracts/FundMe.sol\":3473:3529  (success,) = payable(msg.sender).call{value: amount}(\"\") */\n      pop\n      dup1\n      swap2\n      pop\n      pop\n        /* \"my_contracts/FundMe.sol\":3547:3554  success */\n      dup1\n        /* \"my_contracts/FundMe.sol\":3539:3577  require(success, \"transfer is failed\") */\n      tag_84\n      jumpi\n      mload(0x40)\n      0x08c379a000000000000000000000000000000000000000000000000000000000\n      dup2\n      mstore\n      0x04\n      add\n      tag_85\n      swap1\n      tag_86\n      jump\t// in\n    tag_85:\n      mload(0x40)\n      dup1\n      swap2\n      sub\n      swap1\n      revert\n    tag_84:\n        /* \"my_contracts/FundMe.sol\":3675:3676  0 */\n      0x00\n        /* \"my_contracts/FundMe.sol\":3651:3660  funderMap */\n      0x00\n        /* \"my_contracts/FundMe.sol\":3651:3672  funderMap[msg.sender] */\n      0x00\n        /* \"my_contracts/FundMe.sol\":3661:3671  msg.sender */\n      caller\n        /* \"my_contracts/FundMe.sol\":3651:3672  funderMap[msg.sender] */\n      0xffffffffffffffffffffffffffffffffffffffff\n      and\n      0xffffffffffffffffffffffffffffffffffffffff\n      and\n      dup2\n      mstore\n      0x20\n      add\n      swap1\n      dup2\n      mstore\n      0x20\n      add\n      0x00\n      keccak256\n        /* \"my_contracts/FundMe.sol\":3651:3676  funderMap[msg.sender] = 0 */\n      dup2\n      swap1\n      sstore\n      pop\n        /* \"my_contracts/FundMe.sol\":3112:3683  {... */\n      pop\n      pop\n        /* \"my_contracts/FundMe.sol\":3085:3683  function refund() external {... */\n      jump\t// out\n        /* \"my_contracts/FundMe.sol\":4193:4288  function transferOwnerShip(address _newOwner) public  isOwner{... */\n    tag_39:\n        /* \"my_contracts/FundMe.sol\":5092:5097  owner */\n      0x06\n      0x00\n      swap1\n      sload\n      swap1\n      0x0100\n      exp\n      swap1\n      div\n      0xffffffffffffffffffffffffffffffffffffffff\n      and\n        /* \"my_contracts/FundMe.sol\":5078:5097  msg.sender == owner */\n      0xffffffffffffffffffffffffffffffffffffffff\n      and\n        /* \"my_contracts/FundMe.sol\":5078:5088  msg.sender */\n      caller\n        /* \"my_contracts/FundMe.sol\":5078:5097  msg.sender == owner */\n      0xffffffffffffffffffffffffffffffffffffffff\n      and\n      eq\n        /* \"my_contracts/FundMe.sol\":5070:5127  require(msg.sender == owner, \"you don't have permission\") */\n      tag_88\n      jumpi\n      mload(0x40)\n      0x08c379a000000000000000000000000000000000000000000000000000000000\n      dup2\n      mstore\n      0x04\n      add\n      tag_89\n      swap1\n      tag_64\n      jump\t// in\n    tag_89:\n      mload(0x40)\n      dup1\n      swap2\n      sub\n      swap1\n      revert\n    tag_88:\n        /* \"my_contracts/FundMe.sol\":4272:4281  _newOwner */\n      dup1\n        /* \"my_contracts/FundMe.sol\":4264:4269  owner */\n      0x06\n      0x00\n        /* \"my_contracts/FundMe.sol\":4264:4281  owner = _newOwner */\n      0x0100\n      exp\n      dup2\n      sload\n      dup2\n      0xffffffffffffffffffffffffffffffffffffffff\n      mul\n      not\n      and\n      swap1\n      dup4\n      0xffffffffffffffffffffffffffffffffffffffff\n      and\n      mul\n      or\n      swap1\n      sstore\n      pop\n        /* \"my_contracts/FundMe.sol\":4193:4288  function transferOwnerShip(address _newOwner) public  isOwner{... */\n      pop\n      jump\t// out\n        /* \"my_contracts/FundMe.sol\":2259:3065  function getFund() external isOwner{... */\n    tag_42:\n        /* \"my_contracts/FundMe.sol\":5092:5097  owner */\n      0x06\n      0x00\n      swap1\n      sload\n      swap1\n      0x0100\n      exp\n      swap1\n      div\n      0xffffffffffffffffffffffffffffffffffffffff\n      and\n        /* \"my_contracts/FundMe.sol\":5078:5097  msg.sender == owner */\n      0xffffffffffffffffffffffffffffffffffffffff\n      and\n        /* \"my_contracts/FundMe.sol\":5078:5088  msg.sender */\n      caller\n        /* \"my_contracts/FundMe.sol\":5078:5097  msg.sender == owner */\n      0xffffffffffffffffffffffffffffffffffffffff\n      and\n      eq\n        /* \"my_contracts/FundMe.sol\":5070:5127  require(msg.sender == owner, \"you don't have permission\") */\n      tag_92\n      jumpi\n      mload(0x40)\n      0x08c379a000000000000000000000000000000000000000000000000000000000\n      dup2\n      mstore\n      0x04\n      add\n      tag_93\n      swap1\n      tag_64\n      jump\t// in\n    tag_93:\n      mload(0x40)\n      dup1\n      swap2\n      sub\n      swap1\n      revert\n    tag_92:\n        /* \"my_contracts/FundMe.sol\":2381:2393  MAXMUM_VALUE */\n      sload(0x01)\n        /* \"my_contracts/FundMe.sol\":2356:2377  address(this).balance */\n      selfbalance\n        /* \"my_contracts/FundMe.sol\":2356:2393  address(this).balance >= MAXMUM_VALUE */\n      lt\n      iszero\n        /* \"my_contracts/FundMe.sol\":2348:2419  require(address(this).balance >= MAXMUM_VALUE, \"target is not reached\") */\n      tag_95\n      jumpi\n      mload(0x40)\n      0x08c379a000000000000000000000000000000000000000000000000000000000\n      dup2\n      mstore\n      0x04\n      add\n      tag_96\n      swap1\n      tag_97\n      jump\t// in\n    tag_96:\n      mload(0x40)\n      dup1\n      swap2\n      sub\n      swap1\n      revert\n    tag_95:\n        /* \"my_contracts/FundMe.sol\":2478:2486  lockTime */\n      sload(0x03)\n        /* \"my_contracts/FundMe.sol\":2456:2475  deploymentTimestamp */\n      sload(0x02)\n        /* \"my_contracts/FundMe.sol\":2456:2486  deploymentTimestamp + lockTime */\n      tag_98\n      swap2\n      swap1\n      tag_71\n      jump\t// in\n    tag_98:\n        /* \"my_contracts/FundMe.sol\":2437:2452  block.timestamp */\n      timestamp\n        /* \"my_contracts/FundMe.sol\":2437:2486  block.timestamp >= deploymentTimestamp + lockTime */\n      lt\n      iszero\n        /* \"my_contracts/FundMe.sol\":2429:2511  require(block.timestamp >= deploymentTimestamp + lockTime, \"window is not closed\") */\n      tag_99\n      jumpi\n      mload(0x40)\n      0x08c379a000000000000000000000000000000000000000000000000000000000\n      dup2\n      mstore\n      0x04\n      add\n      tag_100\n      swap1\n      tag_101\n      jump\t// in\n    tag_100:\n      mload(0x40)\n      dup1\n      swap2\n      sub\n      swap1\n      revert\n    tag_99:\n        /* \"my_contracts/FundMe.sol\":2888:2898  msg.sender */\n      caller\n        /* \"my_contracts/FundMe.sol\":2880:2908  payable(msg.sender).transfer */\n      0xffffffffffffffffffffffffffffffffffffffff\n      and\n        /* \"my_contracts/FundMe.sol\":2880:2931  payable(msg.sender).transfer(address(this).balance) */\n      0x08fc\n        /* \"my_contracts/FundMe.sol\":2909:2930  address(this).balance */\n      selfbalance\n        /* \"my_contracts/FundMe.sol\":2880:2931  payable(msg.sender).transfer(address(this).balance) */\n      swap1\n      dup2\n      iszero\n      mul\n      swap1\n      mload(0x40)\n      0x00\n      mload(0x40)\n      dup1\n      dup4\n      sub\n      dup2\n      dup6\n      dup9\n      dup9\n      call\n      swap4\n      pop\n      pop\n      pop\n      pop\n      iszero\n      dup1\n      iszero\n      tag_103\n      jumpi\n      returndatacopy(0x00, 0x00, returndatasize)\n      revert(0x00, returndatasize)\n    tag_103:\n      pop\n        /* \"my_contracts/FundMe.sol\":3054:3058  true */\n      0x01\n        /* \"my_contracts/FundMe.sol\":3038:3051  isFundSuccess */\n      0x04\n      0x14\n        /* \"my_contracts/FundMe.sol\":3038:3058  isFundSuccess = true */\n      0x0100\n      exp\n      dup2\n      sload\n      dup2\n      0xff\n      mul\n      not\n      and\n      swap1\n      dup4\n      iszero\n      iszero\n      mul\n      or\n      swap1\n      sstore\n      pop\n        /* \"my_contracts/FundMe.sol\":2259:3065  function getFund() external isOwner{... */\n      jump\t// out\n        /* \"my_contracts/FundMe.sol\":1575:2095  function fund() external payable {... */\n    tag_44:\n        /* \"my_contracts/FundMe.sol\":640:654  100 * 10 ** 18 */\n      0x056bc75e2d63100000\n        /* \"my_contracts/FundMe.sol\":1626:1635  msg.value */\n      callvalue\n        /* \"my_contracts/FundMe.sol\":1626:1655  msg.value < MINIMUM_USD_VALUE */\n      lt\n        /* \"my_contracts/FundMe.sol\":1618:1669  require(msg.value < MINIMUM_USD_VALUE, \"it's too \") */\n      tag_105\n      jumpi\n      mload(0x40)\n      0x08c379a000000000000000000000000000000000000000000000000000000000\n      dup2\n      mstore\n      0x04\n      add\n      tag_106\n      swap1\n      tag_107\n      jump\t// in\n    tag_106:\n      mload(0x40)\n      dup1\n      swap2\n      sub\n      swap1\n      revert\n    tag_105:\n        /* \"my_contracts/FundMe.sol\":2016:2024  lockTime */\n      sload(0x03)\n        /* \"my_contracts/FundMe.sol\":1994:2013  deploymentTimestamp */\n      sload(0x02)\n        /* \"my_contracts/FundMe.sol\":1994:2024  deploymentTimestamp + lockTime */\n      tag_108\n      swap2\n      swap1\n      tag_71\n      jump\t// in\n    tag_108:\n        /* \"my_contracts/FundMe.sol\":1976:1991  block.timestamp */\n      timestamp\n        /* \"my_contracts/FundMe.sol\":1976:2024  block.timestamp < deploymentTimestamp + lockTime */\n      lt\n        /* \"my_contracts/FundMe.sol\":1968:2045  require(block.timestamp < deploymentTimestamp + lockTime, \"window is closed\") */\n      tag_109\n      jumpi\n      mload(0x40)\n      0x08c379a000000000000000000000000000000000000000000000000000000000\n      dup2\n      mstore\n      0x04\n      add\n      tag_110\n      swap1\n      tag_111\n      jump\t// in\n    tag_110:\n      mload(0x40)\n      dup1\n      swap2\n      sub\n      swap1\n      revert\n    tag_109:\n        /* \"my_contracts/FundMe.sol\":2079:2088  msg.value */\n      callvalue\n        /* \"my_contracts/FundMe.sol\":2055:2064  funderMap */\n      0x00\n        /* \"my_contracts/FundMe.sol\":2055:2076  funderMap[msg.sender] */\n      0x00\n        /* \"my_contracts/FundMe.sol\":2065:2075  msg.sender */\n      caller\n        /* \"my_contracts/FundMe.sol\":2055:2076  funderMap[msg.sender] */\n      0xffffffffffffffffffffffffffffffffffffffff\n      and\n      0xffffffffffffffffffffffffffffffffffffffff\n      and\n      dup2\n      mstore\n      0x20\n      add\n      swap1\n      dup2\n      mstore\n      0x20\n      add\n      0x00\n      keccak256\n        /* \"my_contracts/FundMe.sol\":2055:2088  funderMap[msg.sender] = msg.value */\n      dup2\n      swap1\n      sstore\n      pop\n        /* \"my_contracts/FundMe.sol\":1575:2095  function fund() external payable {... */\n      jump\t// out\n        /* \"my_contracts/FundMe.sol\":4323:4670  function getChainlinkDataFeedLatestAnswer() public view returns (int) {... */\n    tag_47:\n        /* \"my_contracts/FundMe.sol\":4388:4391  int */\n      0x00\n        /* \"my_contracts/FundMe.sol\":4478:4491  int256 answer */\n      0x00\n        /* \"my_contracts/FundMe.sol\":4614:4622  dataFeed */\n      0x05\n      0x00\n      swap1\n      sload\n      swap1\n      0x0100\n      exp\n      swap1\n      div\n      0xffffffffffffffffffffffffffffffffffffffff\n      and\n        /* \"my_contracts/FundMe.sol\":4614:4638  dataFeed.latestRoundData */\n      0xffffffffffffffffffffffffffffffffffffffff\n      and\n      0xfeaf968c\n        /* \"my_contracts/FundMe.sol\":4614:4640  dataFeed.latestRoundData() */\n      mload(0x40)\n      dup2\n      0xffffffff\n      and\n      0xe0\n      shl\n      dup2\n      mstore\n      0x04\n      add\n      0xa0\n      mload(0x40)\n      dup1\n      dup4\n      sub\n      dup2\n      dup7\n      gas\n      staticcall\n      iszero\n      dup1\n      iszero\n      tag_114\n      jumpi\n      returndatacopy(0x00, 0x00, returndatasize)\n      revert(0x00, returndatasize)\n    tag_114:\n      pop\n      pop\n      pop\n      pop\n      mload(0x40)\n      returndatasize\n      not(0x1f)\n      0x1f\n      dup3\n      add\n      and\n      dup3\n      add\n      dup1\n      0x40\n      mstore\n      pop\n      dup2\n      add\n      swap1\n      tag_115\n      swap2\n      swap1\n      tag_116\n      jump\t// in\n    tag_115:\n        /* \"my_contracts/FundMe.sol\":4430:4640  (... */\n      pop\n      pop\n      pop\n      swap2\n      pop\n      pop\n        /* \"my_contracts/FundMe.sol\":4657:4663  answer */\n      dup1\n        /* \"my_contracts/FundMe.sol\":4650:4663  return answer */\n      swap2\n      pop\n      pop\n        /* \"my_contracts/FundMe.sol\":4323:4670  function getChainlinkDataFeedLatestAnswer() public view returns (int) {... */\n      swap1\n      jump\t// out\n        /* \"my_contracts/FundMe.sol\":2140:2239  function found(address _user) public view returns(uint256) {... */\n    tag_53:\n        /* \"my_contracts/FundMe.sol\":2190:2197  uint256 */\n      0x00\n        /* \"my_contracts/FundMe.sol\":2216:2225  funderMap */\n      0x00\n        /* \"my_contracts/FundMe.sol\":2216:2232  funderMap[_user] */\n      0x00\n        /* \"my_contracts/FundMe.sol\":2226:2231  _user */\n      dup4\n        /* \"my_contracts/FundMe.sol\":2216:2232  funderMap[_user] */\n      0xffffffffffffffffffffffffffffffffffffffff\n      and\n      0xffffffffffffffffffffffffffffffffffffffff\n      and\n      dup2\n      mstore\n      0x20\n      add\n      swap1\n      dup2\n      mstore\n      0x20\n      add\n      0x00\n      keccak256\n      sload\n        /* \"my_contracts/FundMe.sol\":2209:2232  return funderMap[_user] */\n      swap1\n      pop\n        /* \"my_contracts/FundMe.sol\":2140:2239  function found(address _user) public view returns(uint256) {... */\n      swap2\n      swap1\n      pop\n      jump\t// out\n        /* \"#utility.yul\":88:205   */\n    tag_119:\n        /* \"#utility.yul\":197:198   */\n      0x00\n        /* \"#utility.yul\":194:195   */\n      0x00\n        /* \"#utility.yul\":187:199   */\n      revert\n        /* \"#utility.yul\":334:460   */\n    tag_121:\n        /* \"#utility.yul\":371:378   */\n      0x00\n        /* \"#utility.yul\":411:453   */\n      0xffffffffffffffffffffffffffffffffffffffff\n        /* \"#utility.yul\":404:409   */\n      dup3\n        /* \"#utility.yul\":400:454   */\n      and\n        /* \"#utility.yul\":389:454   */\n      swap1\n      pop\n        /* \"#utility.yul\":334:460   */\n      swap2\n      swap1\n      pop\n      jump\t// out\n        /* \"#utility.yul\":466:562   */\n    tag_122:\n        /* \"#utility.yul\":503:510   */\n      0x00\n        /* \"#utility.yul\":532:556   */\n      tag_170\n        /* \"#utility.yul\":550:555   */\n      dup3\n        /* \"#utility.yul\":532:556   */\n      tag_121\n      jump\t// in\n    tag_170:\n        /* \"#utility.yul\":521:556   */\n      swap1\n      pop\n        /* \"#utility.yul\":466:562   */\n      swap2\n      swap1\n      pop\n      jump\t// out\n        /* \"#utility.yul\":568:690   */\n    tag_123:\n        /* \"#utility.yul\":641:665   */\n      tag_172\n        /* \"#utility.yul\":659:664   */\n      dup2\n        /* \"#utility.yul\":641:665   */\n      tag_122\n      jump\t// in\n    tag_172:\n        /* \"#utility.yul\":634:639   */\n      dup2\n        /* \"#utility.yul\":631:666   */\n      eq\n        /* \"#utility.yul\":621:684   */\n      tag_173\n      jumpi\n        /* \"#utility.yul\":680:681   */\n      0x00\n        /* \"#utility.yul\":677:678   */\n      0x00\n        /* \"#utility.yul\":670:682   */\n      revert\n        /* \"#utility.yul\":621:684   */\n    tag_173:\n        /* \"#utility.yul\":568:690   */\n      pop\n      jump\t// out\n        /* \"#utility.yul\":696:835   */\n    tag_124:\n        /* \"#utility.yul\":742:747   */\n      0x00\n        /* \"#utility.yul\":780:786   */\n      dup2\n        /* \"#utility.yul\":767:787   */\n      calldataload\n        /* \"#utility.yul\":758:787   */\n      swap1\n      pop\n        /* \"#utility.yul\":796:829   */\n      tag_175\n        /* \"#utility.yul\":823:828   */\n      dup2\n        /* \"#utility.yul\":796:829   */\n      tag_123\n      jump\t// in\n    tag_175:\n        /* \"#utility.yul\":696:835   */\n      swap3\n      swap2\n      pop\n      pop\n      jump\t// out\n        /* \"#utility.yul\":841:918   */\n    tag_125:\n        /* \"#utility.yul\":878:885   */\n      0x00\n        /* \"#utility.yul\":907:912   */\n      dup2\n        /* \"#utility.yul\":896:912   */\n      swap1\n      pop\n        /* \"#utility.yul\":841:918   */\n      swap2\n      swap1\n      pop\n      jump\t// out\n        /* \"#utility.yul\":924:1046   */\n    tag_126:\n        /* \"#utility.yul\":997:1021   */\n      tag_178\n        /* \"#utility.yul\":1015:1020   */\n      dup2\n        /* \"#utility.yul\":997:1021   */\n      tag_125\n      jump\t// in\n    tag_178:\n        /* \"#utility.yul\":990:995   */\n      dup2\n        /* \"#utility.yul\":987:1022   */\n      eq\n        /* \"#utility.yul\":977:1040   */\n      tag_179\n      jumpi\n        /* \"#utility.yul\":1036:1037   */\n      0x00\n        /* \"#utility.yul\":1033:1034   */\n      0x00\n        /* \"#utility.yul\":1026:1038   */\n      revert\n        /* \"#utility.yul\":977:1040   */\n    tag_179:\n        /* \"#utility.yul\":924:1046   */\n      pop\n      jump\t// out\n        /* \"#utility.yul\":1052:1191   */\n    tag_127:\n        /* \"#utility.yul\":1098:1103   */\n      0x00\n        /* \"#utility.yul\":1136:1142   */\n      dup2\n        /* \"#utility.yul\":1123:1143   */\n      calldataload\n        /* \"#utility.yul\":1114:1143   */\n      swap1\n      pop\n        /* \"#utility.yul\":1152:1185   */\n      tag_181\n        /* \"#utility.yul\":1179:1184   */\n      dup2\n        /* \"#utility.yul\":1152:1185   */\n      tag_126\n      jump\t// in\n    tag_181:\n        /* \"#utility.yul\":1052:1191   */\n      swap3\n      swap2\n      pop\n      pop\n      jump\t// out\n        /* \"#utility.yul\":1197:1671   */\n    tag_16:\n        /* \"#utility.yul\":1265:1271   */\n      0x00\n        /* \"#utility.yul\":1273:1279   */\n      0x00\n        /* \"#utility.yul\":1322:1324   */\n      0x40\n        /* \"#utility.yul\":1310:1319   */\n      dup4\n        /* \"#utility.yul\":1301:1308   */\n      dup6\n        /* \"#utility.yul\":1297:1320   */\n      sub\n        /* \"#utility.yul\":1293:1325   */\n      slt\n        /* \"#utility.yul\":1290:1409   */\n      iszero\n      tag_183\n      jumpi\n        /* \"#utility.yul\":1328:1407   */\n      tag_184\n      tag_119\n      jump\t// in\n    tag_184:\n        /* \"#utility.yul\":1290:1409   */\n    tag_183:\n        /* \"#utility.yul\":1448:1449   */\n      0x00\n        /* \"#utility.yul\":1473:1526   */\n      tag_185\n        /* \"#utility.yul\":1518:1525   */\n      dup6\n        /* \"#utility.yul\":1509:1515   */\n      dup3\n        /* \"#utility.yul\":1498:1507   */\n      dup7\n        /* \"#utility.yul\":1494:1516   */\n      add\n        /* \"#utility.yul\":1473:1526   */\n      tag_124\n      jump\t// in\n    tag_185:\n        /* \"#utility.yul\":1463:1526   */\n      swap3\n      pop\n        /* \"#utility.yul\":1419:1536   */\n      pop\n        /* \"#utility.yul\":1575:1577   */\n      0x20\n        /* \"#utility.yul\":1601:1654   */\n      tag_186\n        /* \"#utility.yul\":1646:1653   */\n      dup6\n        /* \"#utility.yul\":1637:1643   */\n      dup3\n        /* \"#utility.yul\":1626:1635   */\n      dup7\n        /* \"#utility.yul\":1622:1644   */\n      add\n        /* \"#utility.yul\":1601:1654   */\n      tag_127\n      jump\t// in\n    tag_186:\n        /* \"#utility.yul\":1591:1654   */\n      swap2\n      pop\n        /* \"#utility.yul\":1546:1664   */\n      pop\n        /* \"#utility.yul\":1197:1671   */\n      swap3\n      pop\n      swap3\n      swap1\n      pop\n      jump\t// out\n        /* \"#utility.yul\":1677:1795   */\n    tag_128:\n        /* \"#utility.yul\":1764:1788   */\n      tag_188\n        /* \"#utility.yul\":1782:1787   */\n      dup2\n        /* \"#utility.yul\":1764:1788   */\n      tag_122\n      jump\t// in\n    tag_188:\n        /* \"#utility.yul\":1759:1762   */\n      dup3\n        /* \"#utility.yul\":1752:1789   */\n      mstore\n        /* \"#utility.yul\":1677:1795   */\n      pop\n      pop\n      jump\t// out\n        /* \"#utility.yul\":1801:2023   */\n    tag_22:\n        /* \"#utility.yul\":1894:1898   */\n      0x00\n        /* \"#utility.yul\":1932:1934   */\n      0x20\n        /* \"#utility.yul\":1921:1930   */\n      dup3\n        /* \"#utility.yul\":1917:1935   */\n      add\n        /* \"#utility.yul\":1909:1935   */\n      swap1\n      pop\n        /* \"#utility.yul\":1945:2016   */\n      tag_190\n        /* \"#utility.yul\":2013:2014   */\n      0x00\n        /* \"#utility.yul\":2002:2011   */\n      dup4\n        /* \"#utility.yul\":1998:2015   */\n      add\n        /* \"#utility.yul\":1989:1995   */\n      dup5\n        /* \"#utility.yul\":1945:2016   */\n      tag_128\n      jump\t// in\n    tag_190:\n        /* \"#utility.yul\":1801:2023   */\n      swap3\n      swap2\n      pop\n      pop\n      jump\t// out\n        /* \"#utility.yul\":2029:2358   */\n    tag_26:\n        /* \"#utility.yul\":2088:2094   */\n      0x00\n        /* \"#utility.yul\":2137:2139   */\n      0x20\n        /* \"#utility.yul\":2125:2134   */\n      dup3\n        /* \"#utility.yul\":2116:2123   */\n      dup5\n        /* \"#utility.yul\":2112:2135   */\n      sub\n        /* \"#utility.yul\":2108:2140   */\n      slt\n        /* \"#utility.yul\":2105:2224   */\n      iszero\n      tag_192\n      jumpi\n        /* \"#utility.yul\":2143:2222   */\n      tag_193\n      tag_119\n      jump\t// in\n    tag_193:\n        /* \"#utility.yul\":2105:2224   */\n    tag_192:\n        /* \"#utility.yul\":2263:2264   */\n      0x00\n        /* \"#utility.yul\":2288:2341   */\n      tag_194\n        /* \"#utility.yul\":2333:2340   */\n      dup5\n        /* \"#utility.yul\":2324:2330   */\n      dup3\n        /* \"#utility.yul\":2313:2322   */\n      dup6\n        /* \"#utility.yul\":2309:2331   */\n      add\n        /* \"#utility.yul\":2288:2341   */\n      tag_124\n      jump\t// in\n    tag_194:\n        /* \"#utility.yul\":2278:2341   */\n      swap2\n      pop\n        /* \"#utility.yul\":2234:2351   */\n      pop\n        /* \"#utility.yul\":2029:2358   */\n      swap3\n      swap2\n      pop\n      pop\n      jump\t// out\n        /* \"#utility.yul\":2364:2454   */\n    tag_129:\n        /* \"#utility.yul\":2398:2405   */\n      0x00\n        /* \"#utility.yul\":2441:2446   */\n      dup2\n        /* \"#utility.yul\":2434:2447   */\n      iszero\n        /* \"#utility.yul\":2427:2448   */\n      iszero\n        /* \"#utility.yul\":2416:2448   */\n      swap1\n      pop\n        /* \"#utility.yul\":2364:2454   */\n      swap2\n      swap1\n      pop\n      jump\t// out\n        /* \"#utility.yul\":2460:2569   */\n    tag_130:\n        /* \"#utility.yul\":2541:2562   */\n      tag_197\n        /* \"#utility.yul\":2556:2561   */\n      dup2\n        /* \"#utility.yul\":2541:2562   */\n      tag_129\n      jump\t// in\n    tag_197:\n        /* \"#utility.yul\":2536:2539   */\n      dup3\n        /* \"#utility.yul\":2529:2563   */\n      mstore\n        /* \"#utility.yul\":2460:2569   */\n      pop\n      pop\n      jump\t// out\n        /* \"#utility.yul\":2575:2785   */\n    tag_32:\n        /* \"#utility.yul\":2662:2666   */\n      0x00\n        /* \"#utility.yul\":2700:2702   */\n      0x20\n        /* \"#utility.yul\":2689:2698   */\n      dup3\n        /* \"#utility.yul\":2685:2703   */\n      add\n        /* \"#utility.yul\":2677:2703   */\n      swap1\n      pop\n        /* \"#utility.yul\":2713:2778   */\n      tag_199\n        /* \"#utility.yul\":2775:2776   */\n      0x00\n        /* \"#utility.yul\":2764:2773   */\n      dup4\n        /* \"#utility.yul\":2760:2777   */\n      add\n        /* \"#utility.yul\":2751:2757   */\n      dup5\n        /* \"#utility.yul\":2713:2778   */\n      tag_130\n      jump\t// in\n    tag_199:\n        /* \"#utility.yul\":2575:2785   */\n      swap3\n      swap2\n      pop\n      pop\n      jump\t// out\n        /* \"#utility.yul\":2791:2867   */\n    tag_131:\n        /* \"#utility.yul\":2827:2834   */\n      0x00\n        /* \"#utility.yul\":2856:2861   */\n      dup2\n        /* \"#utility.yul\":2845:2861   */\n      swap1\n      pop\n        /* \"#utility.yul\":2791:2867   */\n      swap2\n      swap1\n      pop\n      jump\t// out\n        /* \"#utility.yul\":2873:2988   */\n    tag_132:\n        /* \"#utility.yul\":2958:2981   */\n      tag_202\n        /* \"#utility.yul\":2975:2980   */\n      dup2\n        /* \"#utility.yul\":2958:2981   */\n      tag_131\n      jump\t// in\n    tag_202:\n        /* \"#utility.yul\":2953:2956   */\n      dup3\n        /* \"#utility.yul\":2946:2982   */\n      mstore\n        /* \"#utility.yul\":2873:2988   */\n      pop\n      pop\n      jump\t// out\n        /* \"#utility.yul\":2994:3212   */\n    tag_49:\n        /* \"#utility.yul\":3085:3089   */\n      0x00\n        /* \"#utility.yul\":3123:3125   */\n      0x20\n        /* \"#utility.yul\":3112:3121   */\n      dup3\n        /* \"#utility.yul\":3108:3126   */\n      add\n        /* \"#utility.yul\":3100:3126   */\n      swap1\n      pop\n        /* \"#utility.yul\":3136:3205   */\n      tag_204\n        /* \"#utility.yul\":3202:3203   */\n      0x00\n        /* \"#utility.yul\":3191:3200   */\n      dup4\n        /* \"#utility.yul\":3187:3204   */\n      add\n        /* \"#utility.yul\":3178:3184   */\n      dup5\n        /* \"#utility.yul\":3136:3205   */\n      tag_132\n      jump\t// in\n    tag_204:\n        /* \"#utility.yul\":2994:3212   */\n      swap3\n      swap2\n      pop\n      pop\n      jump\t// out\n        /* \"#utility.yul\":3218:3336   */\n    tag_133:\n        /* \"#utility.yul\":3305:3329   */\n      tag_206\n        /* \"#utility.yul\":3323:3328   */\n      dup2\n        /* \"#utility.yul\":3305:3329   */\n      tag_125\n      jump\t// in\n    tag_206:\n        /* \"#utility.yul\":3300:3303   */\n      dup3\n        /* \"#utility.yul\":3293:3330   */\n      mstore\n        /* \"#utility.yul\":3218:3336   */\n      pop\n      pop\n      jump\t// out\n        /* \"#utility.yul\":3342:3564   */\n    tag_55:\n        /* \"#utility.yul\":3435:3439   */\n      0x00\n        /* \"#utility.yul\":3473:3475   */\n      0x20\n        /* \"#utility.yul\":3462:3471   */\n      dup3\n        /* \"#utility.yul\":3458:3476   */\n      add\n        /* \"#utility.yul\":3450:3476   */\n      swap1\n      pop\n        /* \"#utility.yul\":3486:3557   */\n      tag_208\n        /* \"#utility.yul\":3554:3555   */\n      0x00\n        /* \"#utility.yul\":3543:3552   */\n      dup4\n        /* \"#utility.yul\":3539:3556   */\n      add\n        /* \"#utility.yul\":3530:3536   */\n      dup5\n        /* \"#utility.yul\":3486:3557   */\n      tag_133\n      jump\t// in\n    tag_208:\n        /* \"#utility.yul\":3342:3564   */\n      swap3\n      swap2\n      pop\n      pop\n      jump\t// out\n        /* \"#utility.yul\":3570:3739   */\n    tag_134:\n        /* \"#utility.yul\":3654:3665   */\n      0x00\n        /* \"#utility.yul\":3688:3694   */\n      dup3\n        /* \"#utility.yul\":3683:3686   */\n      dup3\n        /* \"#utility.yul\":3676:3695   */\n      mstore\n        /* \"#utility.yul\":3728:3732   */\n      0x20\n        /* \"#utility.yul\":3723:3726   */\n      dup3\n        /* \"#utility.yul\":3719:3733   */\n      add\n        /* \"#utility.yul\":3704:3733   */\n      swap1\n      pop\n        /* \"#utility.yul\":3570:3739   */\n      swap3\n      swap2\n      pop\n      pop\n      jump\t// out\n        /* \"#utility.yul\":3745:3921   */\n    tag_135:\n        /* \"#utility.yul\":3885:3913   */\n      0x796f7520646f206e6f742068617665207065726d697373696f6e000000000000\n        /* \"#utility.yul\":3881:3882   */\n      0x00\n        /* \"#utility.yul\":3873:3879   */\n      dup3\n        /* \"#utility.yul\":3869:3883   */\n      add\n        /* \"#utility.yul\":3862:3914   */\n      mstore\n        /* \"#utility.yul\":3745:3921   */\n      pop\n      jump\t// out\n        /* \"#utility.yul\":3927:4293   */\n    tag_136:\n        /* \"#utility.yul\":4069:4072   */\n      0x00\n        /* \"#utility.yul\":4090:4157   */\n      tag_212\n        /* \"#utility.yul\":4154:4156   */\n      0x1a\n        /* \"#utility.yul\":4149:4152   */\n      dup4\n        /* \"#utility.yul\":4090:4157   */\n      tag_134\n      jump\t// in\n    tag_212:\n        /* \"#utility.yul\":4083:4157   */\n      swap2\n      pop\n        /* \"#utility.yul\":4166:4259   */\n      tag_213\n        /* \"#utility.yul\":4255:4258   */\n      dup3\n        /* \"#utility.yul\":4166:4259   */\n      tag_135\n      jump\t// in\n    tag_213:\n        /* \"#utility.yul\":4284:4286   */\n      0x20\n        /* \"#utility.yul\":4279:4282   */\n      dup3\n        /* \"#utility.yul\":4275:4287   */\n      add\n        /* \"#utility.yul\":4268:4287   */\n      swap1\n      pop\n        /* \"#utility.yul\":3927:4293   */\n      swap2\n      swap1\n      pop\n      jump\t// out\n        /* \"#utility.yul\":4299:4718   */\n    tag_59:\n        /* \"#utility.yul\":4465:4469   */\n      0x00\n        /* \"#utility.yul\":4503:4505   */\n      0x20\n        /* \"#utility.yul\":4492:4501   */\n      dup3\n        /* \"#utility.yul\":4488:4506   */\n      add\n        /* \"#utility.yul\":4480:4506   */\n      swap1\n      pop\n        /* \"#utility.yul\":4552:4561   */\n      dup2\n        /* \"#utility.yul\":4546:4550   */\n      dup2\n        /* \"#utility.yul\":4542:4562   */\n      sub\n        /* \"#utility.yul\":4538:4539   */\n      0x00\n        /* \"#utility.yul\":4527:4536   */\n      dup4\n        /* \"#utility.yul\":4523:4540   */\n      add\n        /* \"#utility.yul\":4516:4563   */\n      mstore\n        /* \"#utility.yul\":4580:4711   */\n      tag_215\n        /* \"#utility.yul\":4706:4710   */\n      dup2\n        /* \"#utility.yul\":4580:4711   */\n      tag_136\n      jump\t// in\n    tag_215:\n        /* \"#utility.yul\":4572:4711   */\n      swap1\n      pop\n        /* \"#utility.yul\":4299:4718   */\n      swap2\n      swap1\n      pop\n      jump\t// out\n        /* \"#utility.yul\":4724:4899   */\n    tag_137:\n        /* \"#utility.yul\":4864:4891   */\n      0x796f7520646f6e27742068617665207065726d697373696f6e00000000000000\n        /* \"#utility.yul\":4860:4861   */\n      0x00\n        /* \"#utility.yul\":4852:4858   */\n      dup3\n        /* \"#utility.yul\":4848:4862   */\n      add\n        /* \"#utility.yul\":4841:4892   */\n      mstore\n        /* \"#utility.yul\":4724:4899   */\n      pop\n      jump\t// out\n        /* \"#utility.yul\":4905:5271   */\n    tag_138:\n        /* \"#utility.yul\":5047:5050   */\n      0x00\n        /* \"#utility.yul\":5068:5135   */\n      tag_218\n        /* \"#utility.yul\":5132:5134   */\n      0x19\n        /* \"#utility.yul\":5127:5130   */\n      dup4\n        /* \"#utility.yul\":5068:5135   */\n      tag_134\n      jump\t// in\n    tag_218:\n        /* \"#utility.yul\":5061:5135   */\n      swap2\n      pop\n        /* \"#utility.yul\":5144:5237   */\n      tag_219\n        /* \"#utility.yul\":5233:5236   */\n      dup3\n        /* \"#utility.yul\":5144:5237   */\n      tag_137\n      jump\t// in\n    tag_219:\n        /* \"#utility.yul\":5262:5264   */\n      0x20\n        /* \"#utility.yul\":5257:5260   */\n      dup3\n        /* \"#utility.yul\":5253:5265   */\n      add\n        /* \"#utility.yul\":5246:5265   */\n      swap1\n      pop\n        /* \"#utility.yul\":4905:5271   */\n      swap2\n      swap1\n      pop\n      jump\t// out\n        /* \"#utility.yul\":5277:5696   */\n    tag_64:\n        /* \"#utility.yul\":5443:5447   */\n      0x00\n        /* \"#utility.yul\":5481:5483   */\n      0x20\n        /* \"#utility.yul\":5470:5479   */\n      dup3\n        /* \"#utility.yul\":5466:5484   */\n      add\n        /* \"#utility.yul\":5458:5484   */\n      swap1\n      pop\n        /* \"#utility.yul\":5530:5539   */\n      dup2\n        /* \"#utility.yul\":5524:5528   */\n      dup2\n        /* \"#utility.yul\":5520:5540   */\n      sub\n        /* \"#utility.yul\":5516:5517   */\n      0x00\n        /* \"#utility.yul\":5505:5514   */\n      dup4\n        /* \"#utility.yul\":5501:5518   */\n      add\n        /* \"#utility.yul\":5494:5541   */\n      mstore\n        /* \"#utility.yul\":5558:5689   */\n      tag_221\n        /* \"#utility.yul\":5684:5688   */\n      dup2\n        /* \"#utility.yul\":5558:5689   */\n      tag_138\n      jump\t// in\n    tag_221:\n        /* \"#utility.yul\":5550:5689   */\n      swap1\n      pop\n        /* \"#utility.yul\":5277:5696   */\n      swap2\n      swap1\n      pop\n      jump\t// out\n        /* \"#utility.yul\":5702:5869   */\n    tag_139:\n        /* \"#utility.yul\":5842:5861   */\n      0x7461726765742069732072656163686564000000000000000000000000000000\n        /* \"#utility.yul\":5838:5839   */\n      0x00\n        /* \"#utility.yul\":5830:5836   */\n      dup3\n        /* \"#utility.yul\":5826:5840   */\n      add\n        /* \"#utility.yul\":5819:5862   */\n      mstore\n        /* \"#utility.yul\":5702:5869   */\n      pop\n      jump\t// out\n        /* \"#utility.yul\":5875:6241   */\n    tag_140:\n        /* \"#utility.yul\":6017:6020   */\n      0x00\n        /* \"#utility.yul\":6038:6105   */\n      tag_224\n        /* \"#utility.yul\":6102:6104   */\n      0x11\n        /* \"#utility.yul\":6097:6100   */\n      dup4\n        /* \"#utility.yul\":6038:6105   */\n      tag_134\n      jump\t// in\n    tag_224:\n        /* \"#utility.yul\":6031:6105   */\n      swap2\n      pop\n        /* \"#utility.yul\":6114:6207   */\n      tag_225\n        /* \"#utility.yul\":6203:6206   */\n      dup3\n        /* \"#utility.yul\":6114:6207   */\n      tag_139\n      jump\t// in\n    tag_225:\n        /* \"#utility.yul\":6232:6234   */\n      0x20\n        /* \"#utility.yul\":6227:6230   */\n      dup3\n        /* \"#utility.yul\":6223:6235   */\n      add\n        /* \"#utility.yul\":6216:6235   */\n      swap1\n      pop\n        /* \"#utility.yul\":5875:6241   */\n      swap2\n      swap1\n      pop\n      jump\t// out\n        /* \"#utility.yul\":6247:6666   */\n    tag_69:\n        /* \"#utility.yul\":6413:6417   */\n      0x00\n        /* \"#utility.yul\":6451:6453   */\n      0x20\n        /* \"#utility.yul\":6440:6449   */\n      dup3\n        /* \"#utility.yul\":6436:6454   */\n      add\n        /* \"#utility.yul\":6428:6454   */\n      swap1\n      pop\n        /* \"#utility.yul\":6500:6509   */\n      dup2\n        /* \"#utility.yul\":6494:6498   */\n      dup2\n        /* \"#utility.yul\":6490:6510   */\n      sub\n        /* \"#utility.yul\":6486:6487   */\n      0x00\n        /* \"#utility.yul\":6475:6484   */\n      dup4\n        /* \"#utility.yul\":6471:6488   */\n      add\n        /* \"#utility.yul\":6464:6511   */\n      mstore\n        /* \"#utility.yul\":6528:6659   */\n      tag_227\n        /* \"#utility.yul\":6654:6658   */\n      dup2\n        /* \"#utility.yul\":6528:6659   */\n      tag_140\n      jump\t// in\n    tag_227:\n        /* \"#utility.yul\":6520:6659   */\n      swap1\n      pop\n        /* \"#utility.yul\":6247:6666   */\n      swap2\n      swap1\n      pop\n      jump\t// out\n        /* \"#utility.yul\":6672:6852   */\n    tag_141:\n        /* \"#utility.yul\":6720:6797   */\n      0x4e487b7100000000000000000000000000000000000000000000000000000000\n        /* \"#utility.yul\":6717:6718   */\n      0x00\n        /* \"#utility.yul\":6710:6798   */\n      mstore\n        /* \"#utility.yul\":6817:6821   */\n      0x11\n        /* \"#utility.yul\":6814:6815   */\n      0x04\n        /* \"#utility.yul\":6807:6822   */\n      mstore\n        /* \"#utility.yul\":6841:6845   */\n      0x24\n        /* \"#utility.yul\":6838:6839   */\n      0x00\n        /* \"#utility.yul\":6831:6846   */\n      revert\n        /* \"#utility.yul\":6858:7049   */\n    tag_71:\n        /* \"#utility.yul\":6898:6901   */\n      0x00\n        /* \"#utility.yul\":6917:6937   */\n      tag_230\n        /* \"#utility.yul\":6935:6936   */\n      dup3\n        /* \"#utility.yul\":6917:6937   */\n      tag_125\n      jump\t// in\n    tag_230:\n        /* \"#utility.yul\":6912:6937   */\n      swap2\n      pop\n        /* \"#utility.yul\":6951:6971   */\n      tag_231\n        /* \"#utility.yul\":6969:6970   */\n      dup4\n        /* \"#utility.yul\":6951:6971   */\n      tag_125\n      jump\t// in\n    tag_231:\n        /* \"#utility.yul\":6946:6971   */\n      swap3\n      pop\n        /* \"#utility.yul\":6994:6995   */\n      dup3\n        /* \"#utility.yul\":6991:6992   */\n      dup3\n        /* \"#utility.yul\":6987:6996   */\n      add\n        /* \"#utility.yul\":6980:6996   */\n      swap1\n      pop\n        /* \"#utility.yul\":7015:7018   */\n      dup1\n        /* \"#utility.yul\":7012:7013   */\n      dup3\n        /* \"#utility.yul\":7009:7019   */\n      gt\n        /* \"#utility.yul\":7006:7042   */\n      iszero\n      tag_232\n      jumpi\n        /* \"#utility.yul\":7022:7040   */\n      tag_233\n      tag_141\n      jump\t// in\n    tag_233:\n        /* \"#utility.yul\":7006:7042   */\n    tag_232:\n        /* \"#utility.yul\":6858:7049   */\n      swap3\n      swap2\n      pop\n      pop\n      jump\t// out\n        /* \"#utility.yul\":7055:7169   */\n    tag_142:\n      pop\n      jump\t// out\n        /* \"#utility.yul\":7175:7539   */\n    tag_143:\n        /* \"#utility.yul\":7317:7320   */\n      0x00\n        /* \"#utility.yul\":7338:7404   */\n      tag_236\n        /* \"#utility.yul\":7402:7403   */\n      0x00\n        /* \"#utility.yul\":7397:7400   */\n      dup4\n        /* \"#utility.yul\":7338:7404   */\n      tag_134\n      jump\t// in\n    tag_236:\n        /* \"#utility.yul\":7331:7404   */\n      swap2\n      pop\n        /* \"#utility.yul\":7413:7506   */\n      tag_237\n        /* \"#utility.yul\":7502:7505   */\n      dup3\n        /* \"#utility.yul\":7413:7506   */\n      tag_142\n      jump\t// in\n    tag_237:\n        /* \"#utility.yul\":7531:7532   */\n      0x00\n        /* \"#utility.yul\":7526:7529   */\n      dup3\n        /* \"#utility.yul\":7522:7533   */\n      add\n        /* \"#utility.yul\":7515:7533   */\n      swap1\n      pop\n        /* \"#utility.yul\":7175:7539   */\n      swap2\n      swap1\n      pop\n      jump\t// out\n        /* \"#utility.yul\":7545:7964   */\n    tag_74:\n        /* \"#utility.yul\":7711:7715   */\n      0x00\n        /* \"#utility.yul\":7749:7751   */\n      0x20\n        /* \"#utility.yul\":7738:7747   */\n      dup3\n        /* \"#utility.yul\":7734:7752   */\n      add\n        /* \"#utility.yul\":7726:7752   */\n      swap1\n      pop\n        /* \"#utility.yul\":7798:7807   */\n      dup2\n        /* \"#utility.yul\":7792:7796   */\n      dup2\n        /* \"#utility.yul\":7788:7808   */\n      sub\n        /* \"#utility.yul\":7784:7785   */\n      0x00\n        /* \"#utility.yul\":7773:7782   */\n      dup4\n        /* \"#utility.yul\":7769:7786   */\n      add\n        /* \"#utility.yul\":7762:7809   */\n      mstore\n        /* \"#utility.yul\":7826:7957   */\n      tag_239\n        /* \"#utility.yul\":7952:7956   */\n      dup2\n        /* \"#utility.yul\":7826:7957   */\n      tag_143\n      jump\t// in\n    tag_239:\n        /* \"#utility.yul\":7818:7957   */\n      swap1\n      pop\n        /* \"#utility.yul\":7545:7964   */\n      swap2\n      swap1\n      pop\n      jump\t// out\n        /* \"#utility.yul\":7970:8144   */\n    tag_144:\n        /* \"#utility.yul\":8110:8136   */\n      0x7468657265206973206e6f2066756e6420666f7220796f750000000000000000\n        /* \"#utility.yul\":8106:8107   */\n      0x00\n        /* \"#utility.yul\":8098:8104   */\n      dup3\n        /* \"#utility.yul\":8094:8108   */\n      add\n        /* \"#utility.yul\":8087:8137   */\n      mstore\n        /* \"#utility.yul\":7970:8144   */\n      pop\n      jump\t// out\n        /* \"#utility.yul\":8150:8516   */\n    tag_145:\n        /* \"#utility.yul\":8292:8295   */\n      0x00\n        /* \"#utility.yul\":8313:8380   */\n      tag_242\n        /* \"#utility.yul\":8377:8379   */\n      0x18\n        /* \"#utility.yul\":8372:8375   */\n      dup4\n        /* \"#utility.yul\":8313:8380   */\n      tag_134\n      jump\t// in\n    tag_242:\n        /* \"#utility.yul\":8306:8380   */\n      swap2\n      pop\n        /* \"#utility.yul\":8389:8482   */\n      tag_243\n        /* \"#utility.yul\":8478:8481   */\n      dup3\n        /* \"#utility.yul\":8389:8482   */\n      tag_144\n      jump\t// in\n    tag_243:\n        /* \"#utility.yul\":8507:8509   */\n      0x20\n        /* \"#utility.yul\":8502:8505   */\n      dup3\n        /* \"#utility.yul\":8498:8510   */\n      add\n        /* \"#utility.yul\":8491:8510   */\n      swap1\n      pop\n        /* \"#utility.yul\":8150:8516   */\n      swap2\n      swap1\n      pop\n      jump\t// out\n        /* \"#utility.yul\":8522:8941   */\n    tag_78:\n        /* \"#utility.yul\":8688:8692   */\n      0x00\n        /* \"#utility.yul\":8726:8728   */\n      0x20\n        /* \"#utility.yul\":8715:8724   */\n      dup3\n        /* \"#utility.yul\":8711:8729   */\n      add\n        /* \"#utility.yul\":8703:8729   */\n      swap1\n      pop\n        /* \"#utility.yul\":8775:8784   */\n      dup2\n        /* \"#utility.yul\":8769:8773   */\n      dup2\n        /* \"#utility.yul\":8765:8785   */\n      sub\n        /* \"#utility.yul\":8761:8762   */\n      0x00\n        /* \"#utility.yul\":8750:8759   */\n      dup4\n        /* \"#utility.yul\":8746:8763   */\n      add\n        /* \"#utility.yul\":8739:8786   */\n      mstore\n        /* \"#utility.yul\":8803:8934   */\n      tag_245\n        /* \"#utility.yul\":8929:8933   */\n      dup2\n        /* \"#utility.yul\":8803:8934   */\n      tag_145\n      jump\t// in\n    tag_245:\n        /* \"#utility.yul\":8795:8934   */\n      swap1\n      pop\n        /* \"#utility.yul\":8522:8941   */\n      swap2\n      swap1\n      pop\n      jump\t// out\n        /* \"#utility.yul\":8947:9094   */\n    tag_146:\n        /* \"#utility.yul\":9048:9059   */\n      0x00\n        /* \"#utility.yul\":9085:9088   */\n      dup2\n        /* \"#utility.yul\":9070:9088   */\n      swap1\n      pop\n        /* \"#utility.yul\":8947:9094   */\n      swap3\n      swap2\n      pop\n      pop\n      jump\t// out\n        /* \"#utility.yul\":9100:9498   */\n    tag_147:\n        /* \"#utility.yul\":9259:9262   */\n      0x00\n        /* \"#utility.yul\":9280:9363   */\n      tag_248\n        /* \"#utility.yul\":9361:9362   */\n      0x00\n        /* \"#utility.yul\":9356:9359   */\n      dup4\n        /* \"#utility.yul\":9280:9363   */\n      tag_146\n      jump\t// in\n    tag_248:\n        /* \"#utility.yul\":9273:9363   */\n      swap2\n      pop\n        /* \"#utility.yul\":9372:9465   */\n      tag_249\n        /* \"#utility.yul\":9461:9464   */\n      dup3\n        /* \"#utility.yul\":9372:9465   */\n      tag_142\n      jump\t// in\n    tag_249:\n        /* \"#utility.yul\":9490:9491   */\n      0x00\n        /* \"#utility.yul\":9485:9488   */\n      dup3\n        /* \"#utility.yul\":9481:9492   */\n      add\n        /* \"#utility.yul\":9474:9492   */\n      swap1\n      pop\n        /* \"#utility.yul\":9100:9498   */\n      swap2\n      swap1\n      pop\n      jump\t// out\n        /* \"#utility.yul\":9504:9883   */\n    tag_80:\n        /* \"#utility.yul\":9688:9691   */\n      0x00\n        /* \"#utility.yul\":9710:9857   */\n      tag_251\n        /* \"#utility.yul\":9853:9856   */\n      dup3\n        /* \"#utility.yul\":9710:9857   */\n      tag_147\n      jump\t// in\n    tag_251:\n        /* \"#utility.yul\":9703:9857   */\n      swap2\n      pop\n        /* \"#utility.yul\":9874:9877   */\n      dup2\n        /* \"#utility.yul\":9867:9877   */\n      swap1\n      pop\n        /* \"#utility.yul\":9504:9883   */\n      swap2\n      swap1\n      pop\n      jump\t// out\n        /* \"#utility.yul\":9889:10057   */\n    tag_148:\n        /* \"#utility.yul\":10029:10049   */\n      0x7472616e73666572206973206661696c65640000000000000000000000000000\n        /* \"#utility.yul\":10025:10026   */\n      0x00\n        /* \"#utility.yul\":10017:10023   */\n      dup3\n        /* \"#utility.yul\":10013:10027   */\n      add\n        /* \"#utility.yul\":10006:10050   */\n      mstore\n        /* \"#utility.yul\":9889:10057   */\n      pop\n      jump\t// out\n        /* \"#utility.yul\":10063:10429   */\n    tag_149:\n        /* \"#utility.yul\":10205:10208   */\n      0x00\n        /* \"#utility.yul\":10226:10293   */\n      tag_254\n        /* \"#utility.yul\":10290:10292   */\n      0x12\n        /* \"#utility.yul\":10285:10288   */\n      dup4\n        /* \"#utility.yul\":10226:10293   */\n      tag_134\n      jump\t// in\n    tag_254:\n        /* \"#utility.yul\":10219:10293   */\n      swap2\n      pop\n        /* \"#utility.yul\":10302:10395   */\n      tag_255\n        /* \"#utility.yul\":10391:10394   */\n      dup3\n        /* \"#utility.yul\":10302:10395   */\n      tag_148\n      jump\t// in\n    tag_255:\n        /* \"#utility.yul\":10420:10422   */\n      0x20\n        /* \"#utility.yul\":10415:10418   */\n      dup3\n        /* \"#utility.yul\":10411:10423   */\n      add\n        /* \"#utility.yul\":10404:10423   */\n      swap1\n      pop\n        /* \"#utility.yul\":10063:10429   */\n      swap2\n      swap1\n      pop\n      jump\t// out\n        /* \"#utility.yul\":10435:10854   */\n    tag_86:\n        /* \"#utility.yul\":10601:10605   */\n      0x00\n        /* \"#utility.yul\":10639:10641   */\n      0x20\n        /* \"#utility.yul\":10628:10637   */\n      dup3\n        /* \"#utility.yul\":10624:10642   */\n      add\n        /* \"#utility.yul\":10616:10642   */\n      swap1\n      pop\n        /* \"#utility.yul\":10688:10697   */\n      dup2\n        /* \"#utility.yul\":10682:10686   */\n      dup2\n        /* \"#utility.yul\":10678:10698   */\n      sub\n        /* \"#utility.yul\":10674:10675   */\n      0x00\n        /* \"#utility.yul\":10663:10672   */\n      dup4\n        /* \"#utility.yul\":10659:10676   */\n      add\n        /* \"#utility.yul\":10652:10699   */\n      mstore\n        /* \"#utility.yul\":10716:10847   */\n      tag_257\n        /* \"#utility.yul\":10842:10846   */\n      dup2\n        /* \"#utility.yul\":10716:10847   */\n      tag_149\n      jump\t// in\n    tag_257:\n        /* \"#utility.yul\":10708:10847   */\n      swap1\n      pop\n        /* \"#utility.yul\":10435:10854   */\n      swap2\n      swap1\n      pop\n      jump\t// out\n        /* \"#utility.yul\":10860:11031   */\n    tag_150:\n        /* \"#utility.yul\":11000:11023   */\n      0x746172676574206973206e6f7420726561636865640000000000000000000000\n        /* \"#utility.yul\":10996:10997   */\n      0x00\n        /* \"#utility.yul\":10988:10994   */\n      dup3\n        /* \"#utility.yul\":10984:10998   */\n      add\n        /* \"#utility.yul\":10977:11024   */\n      mstore\n        /* \"#utility.yul\":10860:11031   */\n      pop\n      jump\t// out\n        /* \"#utility.yul\":11037:11403   */\n    tag_151:\n        /* \"#utility.yul\":11179:11182   */\n      0x00\n        /* \"#utility.yul\":11200:11267   */\n      tag_260\n        /* \"#utility.yul\":11264:11266   */\n      0x15\n        /* \"#utility.yul\":11259:11262   */\n      dup4\n        /* \"#utility.yul\":11200:11267   */\n      tag_134\n      jump\t// in\n    tag_260:\n        /* \"#utility.yul\":11193:11267   */\n      swap2\n      pop\n        /* \"#utility.yul\":11276:11369   */\n      tag_261\n        /* \"#utility.yul\":11365:11368   */\n      dup3\n        /* \"#utility.yul\":11276:11369   */\n      tag_150\n      jump\t// in\n    tag_261:\n        /* \"#utility.yul\":11394:11396   */\n      0x20\n        /* \"#utility.yul\":11389:11392   */\n      dup3\n        /* \"#utility.yul\":11385:11397   */\n      add\n        /* \"#utility.yul\":11378:11397   */\n      swap1\n      pop\n        /* \"#utility.yul\":11037:11403   */\n      swap2\n      swap1\n      pop\n      jump\t// out\n        /* \"#utility.yul\":11409:11828   */\n    tag_97:\n        /* \"#utility.yul\":11575:11579   */\n      0x00\n        /* \"#utility.yul\":11613:11615   */\n      0x20\n        /* \"#utility.yul\":11602:11611   */\n      dup3\n        /* \"#utility.yul\":11598:11616   */\n      add\n        /* \"#utility.yul\":11590:11616   */\n      swap1\n      pop\n        /* \"#utility.yul\":11662:11671   */\n      dup2\n        /* \"#utility.yul\":11656:11660   */\n      dup2\n        /* \"#utility.yul\":11652:11672   */\n      sub\n        /* \"#utility.yul\":11648:11649   */\n      0x00\n        /* \"#utility.yul\":11637:11646   */\n      dup4\n        /* \"#utility.yul\":11633:11650   */\n      add\n        /* \"#utility.yul\":11626:11673   */\n      mstore\n        /* \"#utility.yul\":11690:11821   */\n      tag_263\n        /* \"#utility.yul\":11816:11820   */\n      dup2\n        /* \"#utility.yul\":11690:11821   */\n      tag_151\n      jump\t// in\n    tag_263:\n        /* \"#utility.yul\":11682:11821   */\n      swap1\n      pop\n        /* \"#utility.yul\":11409:11828   */\n      swap2\n      swap1\n      pop\n      jump\t// out\n        /* \"#utility.yul\":11834:12004   */\n    tag_152:\n        /* \"#utility.yul\":11974:11996   */\n      0x77696e646f77206973206e6f7420636c6f736564000000000000000000000000\n        /* \"#utility.yul\":11970:11971   */\n      0x00\n        /* \"#utility.yul\":11962:11968   */\n      dup3\n        /* \"#utility.yul\":11958:11972   */\n      add\n        /* \"#utility.yul\":11951:11997   */\n      mstore\n        /* \"#utility.yul\":11834:12004   */\n      pop\n      jump\t// out\n        /* \"#utility.yul\":12010:12376   */\n    tag_153:\n        /* \"#utility.yul\":12152:12155   */\n      0x00\n        /* \"#utility.yul\":12173:12240   */\n      tag_266\n        /* \"#utility.yul\":12237:12239   */\n      0x14\n        /* \"#utility.yul\":12232:12235   */\n      dup4\n        /* \"#utility.yul\":12173:12240   */\n      tag_134\n      jump\t// in\n    tag_266:\n        /* \"#utility.yul\":12166:12240   */\n      swap2\n      pop\n        /* \"#utility.yul\":12249:12342   */\n      tag_267\n        /* \"#utility.yul\":12338:12341   */\n      dup3\n        /* \"#utility.yul\":12249:12342   */\n      tag_152\n      jump\t// in\n    tag_267:\n        /* \"#utility.yul\":12367:12369   */\n      0x20\n        /* \"#utility.yul\":12362:12365   */\n      dup3\n        /* \"#utility.yul\":12358:12370   */\n      add\n        /* \"#utility.yul\":12351:12370   */\n      swap1\n      pop\n        /* \"#utility.yul\":12010:12376   */\n      swap2\n      swap1\n      pop\n      jump\t// out\n        /* \"#utility.yul\":12382:12801   */\n    tag_101:\n        /* \"#utility.yul\":12548:12552   */\n      0x00\n        /* \"#utility.yul\":12586:12588   */\n      0x20\n        /* \"#utility.yul\":12575:12584   */\n      dup3\n        /* \"#utility.yul\":12571:12589   */\n      add\n        /* \"#utility.yul\":12563:12589   */\n      swap1\n      pop\n        /* \"#utility.yul\":12635:12644   */\n      dup2\n        /* \"#utility.yul\":12629:12633   */\n      dup2\n        /* \"#utility.yul\":12625:12645   */\n      sub\n        /* \"#utility.yul\":12621:12622   */\n      0x00\n        /* \"#utility.yul\":12610:12619   */\n      dup4\n        /* \"#utility.yul\":12606:12623   */\n      add\n        /* \"#utility.yul\":12599:12646   */\n      mstore\n        /* \"#utility.yul\":12663:12794   */\n      tag_269\n        /* \"#utility.yul\":12789:12793   */\n      dup2\n        /* \"#utility.yul\":12663:12794   */\n      tag_153\n      jump\t// in\n    tag_269:\n        /* \"#utility.yul\":12655:12794   */\n      swap1\n      pop\n        /* \"#utility.yul\":12382:12801   */\n      swap2\n      swap1\n      pop\n      jump\t// out\n        /* \"#utility.yul\":12807:12966   */\n    tag_154:\n        /* \"#utility.yul\":12947:12958   */\n      0x6974277320746f6f200000000000000000000000000000000000000000000000\n        /* \"#utility.yul\":12943:12944   */\n      0x00\n        /* \"#utility.yul\":12935:12941   */\n      dup3\n        /* \"#utility.yul\":12931:12945   */\n      add\n        /* \"#utility.yul\":12924:12959   */\n      mstore\n        /* \"#utility.yul\":12807:12966   */\n      pop\n      jump\t// out\n        /* \"#utility.yul\":12972:13337   */\n    tag_155:\n        /* \"#utility.yul\":13114:13117   */\n      0x00\n        /* \"#utility.yul\":13135:13201   */\n      tag_272\n        /* \"#utility.yul\":13199:13200   */\n      0x09\n        /* \"#utility.yul\":13194:13197   */\n      dup4\n        /* \"#utility.yul\":13135:13201   */\n      tag_134\n      jump\t// in\n    tag_272:\n        /* \"#utility.yul\":13128:13201   */\n      swap2\n      pop\n        /* \"#utility.yul\":13210:13303   */\n      tag_273\n        /* \"#utility.yul\":13299:13302   */\n      dup3\n        /* \"#utility.yul\":13210:13303   */\n      tag_154\n      jump\t// in\n    tag_273:\n        /* \"#utility.yul\":13328:13330   */\n      0x20\n        /* \"#utility.yul\":13323:13326   */\n      dup3\n        /* \"#utility.yul\":13319:13331   */\n      add\n        /* \"#utility.yul\":13312:13331   */\n      swap1\n      pop\n        /* \"#utility.yul\":12972:13337   */\n      swap2\n      swap1\n      pop\n      jump\t// out\n        /* \"#utility.yul\":13343:13762   */\n    tag_107:\n        /* \"#utility.yul\":13509:13513   */\n      0x00\n        /* \"#utility.yul\":13547:13549   */\n      0x20\n        /* \"#utility.yul\":13536:13545   */\n      dup3\n        /* \"#utility.yul\":13532:13550   */\n      add\n        /* \"#utility.yul\":13524:13550   */\n      swap1\n      pop\n        /* \"#utility.yul\":13596:13605   */\n      dup2\n        /* \"#utility.yul\":13590:13594   */\n      dup2\n        /* \"#utility.yul\":13586:13606   */\n      sub\n        /* \"#utility.yul\":13582:13583   */\n      0x00\n        /* \"#utility.yul\":13571:13580   */\n      dup4\n        /* \"#utility.yul\":13567:13584   */\n      add\n        /* \"#utility.yul\":13560:13607   */\n      mstore\n        /* \"#utility.yul\":13624:13755   */\n      tag_275\n        /* \"#utility.yul\":13750:13754   */\n      dup2\n        /* \"#utility.yul\":13624:13755   */\n      tag_155\n      jump\t// in\n    tag_275:\n        /* \"#utility.yul\":13616:13755   */\n      swap1\n      pop\n        /* \"#utility.yul\":13343:13762   */\n      swap2\n      swap1\n      pop\n      jump\t// out\n        /* \"#utility.yul\":13768:13934   */\n    tag_156:\n        /* \"#utility.yul\":13908:13926   */\n      0x77696e646f7720697320636c6f73656400000000000000000000000000000000\n        /* \"#utility.yul\":13904:13905   */\n      0x00\n        /* \"#utility.yul\":13896:13902   */\n      dup3\n        /* \"#utility.yul\":13892:13906   */\n      add\n        /* \"#utility.yul\":13885:13927   */\n      mstore\n        /* \"#utility.yul\":13768:13934   */\n      pop\n      jump\t// out\n        /* \"#utility.yul\":13940:14306   */\n    tag_157:\n        /* \"#utility.yul\":14082:14085   */\n      0x00\n        /* \"#utility.yul\":14103:14170   */\n      tag_278\n        /* \"#utility.yul\":14167:14169   */\n      0x10\n        /* \"#utility.yul\":14162:14165   */\n      dup4\n        /* \"#utility.yul\":14103:14170   */\n      tag_134\n      jump\t// in\n    tag_278:\n        /* \"#utility.yul\":14096:14170   */\n      swap2\n      pop\n        /* \"#utility.yul\":14179:14272   */\n      tag_279\n        /* \"#utility.yul\":14268:14271   */\n      dup3\n        /* \"#utility.yul\":14179:14272   */\n      tag_156\n      jump\t// in\n    tag_279:\n        /* \"#utility.yul\":14297:14299   */\n      0x20\n        /* \"#utility.yul\":14292:14295   */\n      dup3\n        /* \"#utility.yul\":14288:14300   */\n      add\n        /* \"#utility.yul\":14281:14300   */\n      swap1\n      pop\n        /* \"#utility.yul\":13940:14306   */\n      swap2\n      swap1\n      pop\n      jump\t// out\n        /* \"#utility.yul\":14312:14731   */\n    tag_111:\n        /* \"#utility.yul\":14478:14482   */\n      0x00\n        /* \"#utility.yul\":14516:14518   */\n      0x20\n        /* \"#utility.yul\":14505:14514   */\n      dup3\n        /* \"#utility.yul\":14501:14519   */\n      add\n        /* \"#utility.yul\":14493:14519   */\n      swap1\n      pop\n        /* \"#utility.yul\":14565:14574   */\n      dup2\n        /* \"#utility.yul\":14559:14563   */\n      dup2\n        /* \"#utility.yul\":14555:14575   */\n      sub\n        /* \"#utility.yul\":14551:14552   */\n      0x00\n        /* \"#utility.yul\":14540:14549   */\n      dup4\n        /* \"#utility.yul\":14536:14553   */\n      add\n        /* \"#utility.yul\":14529:14576   */\n      mstore\n        /* \"#utility.yul\":14593:14724   */\n      tag_281\n        /* \"#utility.yul\":14719:14723   */\n      dup2\n        /* \"#utility.yul\":14593:14724   */\n      tag_157\n      jump\t// in\n    tag_281:\n        /* \"#utility.yul\":14585:14724   */\n      swap1\n      pop\n        /* \"#utility.yul\":14312:14731   */\n      swap2\n      swap1\n      pop\n      jump\t// out\n        /* \"#utility.yul\":14737:14842   */\n    tag_158:\n        /* \"#utility.yul\":14773:14780   */\n      0x00\n        /* \"#utility.yul\":14813:14835   */\n      0xffffffffffffffffffff\n        /* \"#utility.yul\":14806:14811   */\n      dup3\n        /* \"#utility.yul\":14802:14836   */\n      and\n        /* \"#utility.yul\":14791:14836   */\n      swap1\n      pop\n        /* \"#utility.yul\":14737:14842   */\n      swap2\n      swap1\n      pop\n      jump\t// out\n        /* \"#utility.yul\":14848:14968   */\n    tag_159:\n        /* \"#utility.yul\":14920:14943   */\n      tag_284\n        /* \"#utility.yul\":14937:14942   */\n      dup2\n        /* \"#utility.yul\":14920:14943   */\n      tag_158\n      jump\t// in\n    tag_284:\n        /* \"#utility.yul\":14913:14918   */\n      dup2\n        /* \"#utility.yul\":14910:14944   */\n      eq\n        /* \"#utility.yul\":14900:14962   */\n      tag_285\n      jumpi\n        /* \"#utility.yul\":14958:14959   */\n      0x00\n        /* \"#utility.yul\":14955:14956   */\n      0x00\n        /* \"#utility.yul\":14948:14960   */\n      revert\n        /* \"#utility.yul\":14900:14962   */\n    tag_285:\n        /* \"#utility.yul\":14848:14968   */\n      pop\n      jump\t// out\n        /* \"#utility.yul\":14974:15115   */\n    tag_160:\n        /* \"#utility.yul\":15030:15035   */\n      0x00\n        /* \"#utility.yul\":15061:15067   */\n      dup2\n        /* \"#utility.yul\":15055:15068   */\n      mload\n        /* \"#utility.yul\":15046:15068   */\n      swap1\n      pop\n        /* \"#utility.yul\":15077:15109   */\n      tag_287\n        /* \"#utility.yul\":15103:15108   */\n      dup2\n        /* \"#utility.yul\":15077:15109   */\n      tag_159\n      jump\t// in\n    tag_287:\n        /* \"#utility.yul\":14974:15115   */\n      swap3\n      swap2\n      pop\n      pop\n      jump\t// out\n        /* \"#utility.yul\":15121:15241   */\n    tag_161:\n        /* \"#utility.yul\":15193:15216   */\n      tag_289\n        /* \"#utility.yul\":15210:15215   */\n      dup2\n        /* \"#utility.yul\":15193:15216   */\n      tag_131\n      jump\t// in\n    tag_289:\n        /* \"#utility.yul\":15186:15191   */\n      dup2\n        /* \"#utility.yul\":15183:15217   */\n      eq\n        /* \"#utility.yul\":15173:15235   */\n      tag_290\n      jumpi\n        /* \"#utility.yul\":15231:15232   */\n      0x00\n        /* \"#utility.yul\":15228:15229   */\n      0x00\n        /* \"#utility.yul\":15221:15233   */\n      revert\n        /* \"#utility.yul\":15173:15235   */\n    tag_290:\n        /* \"#utility.yul\":15121:15241   */\n      pop\n      jump\t// out\n        /* \"#utility.yul\":15247:15388   */\n    tag_162:\n        /* \"#utility.yul\":15303:15308   */\n      0x00\n        /* \"#utility.yul\":15334:15340   */\n      dup2\n        /* \"#utility.yul\":15328:15341   */\n      mload\n        /* \"#utility.yul\":15319:15341   */\n      swap1\n      pop\n        /* \"#utility.yul\":15350:15382   */\n      tag_292\n        /* \"#utility.yul\":15376:15381   */\n      dup2\n        /* \"#utility.yul\":15350:15382   */\n      tag_161\n      jump\t// in\n    tag_292:\n        /* \"#utility.yul\":15247:15388   */\n      swap3\n      swap2\n      pop\n      pop\n      jump\t// out\n        /* \"#utility.yul\":15394:15537   */\n    tag_163:\n        /* \"#utility.yul\":15451:15456   */\n      0x00\n        /* \"#utility.yul\":15482:15488   */\n      dup2\n        /* \"#utility.yul\":15476:15489   */\n      mload\n        /* \"#utility.yul\":15467:15489   */\n      swap1\n      pop\n        /* \"#utility.yul\":15498:15531   */\n      tag_294\n        /* \"#utility.yul\":15525:15530   */\n      dup2\n        /* \"#utility.yul\":15498:15531   */\n      tag_126\n      jump\t// in\n    tag_294:\n        /* \"#utility.yul\":15394:15537   */\n      swap3\n      swap2\n      pop\n      pop\n      jump\t// out\n        /* \"#utility.yul\":15543:16514   */\n    tag_116:\n        /* \"#utility.yul\":15646:15652   */\n      0x00\n        /* \"#utility.yul\":15654:15660   */\n      0x00\n        /* \"#utility.yul\":15662:15668   */\n      0x00\n        /* \"#utility.yul\":15670:15676   */\n      0x00\n        /* \"#utility.yul\":15678:15684   */\n      0x00\n        /* \"#utility.yul\":15727:15730   */\n      0xa0\n        /* \"#utility.yul\":15715:15724   */\n      dup7\n        /* \"#utility.yul\":15706:15713   */\n      dup9\n        /* \"#utility.yul\":15702:15725   */\n      sub\n        /* \"#utility.yul\":15698:15731   */\n      slt\n        /* \"#utility.yul\":15695:15815   */\n      iszero\n      tag_296\n      jumpi\n        /* \"#utility.yul\":15734:15813   */\n      tag_297\n      tag_119\n      jump\t// in\n    tag_297:\n        /* \"#utility.yul\":15695:15815   */\n    tag_296:\n        /* \"#utility.yul\":15854:15855   */\n      0x00\n        /* \"#utility.yul\":15879:15942   */\n      tag_298\n        /* \"#utility.yul\":15934:15941   */\n      dup9\n        /* \"#utility.yul\":15925:15931   */\n      dup3\n        /* \"#utility.yul\":15914:15923   */\n      dup10\n        /* \"#utility.yul\":15910:15932   */\n      add\n        /* \"#utility.yul\":15879:15942   */\n      tag_160\n      jump\t// in\n    tag_298:\n        /* \"#utility.yul\":15869:15942   */\n      swap6\n      pop\n        /* \"#utility.yul\":15825:15952   */\n      pop\n        /* \"#utility.yul\":15991:15993   */\n      0x20\n        /* \"#utility.yul\":16017:16080   */\n      tag_299\n        /* \"#utility.yul\":16072:16079   */\n      dup9\n        /* \"#utility.yul\":16063:16069   */\n      dup3\n        /* \"#utility.yul\":16052:16061   */\n      dup10\n        /* \"#utility.yul\":16048:16070   */\n      add\n        /* \"#utility.yul\":16017:16080   */\n      tag_162\n      jump\t// in\n    tag_299:\n        /* \"#utility.yul\":16007:16080   */\n      swap5\n      pop\n        /* \"#utility.yul\":15962:16090   */\n      pop\n        /* \"#utility.yul\":16129:16131   */\n      0x40\n        /* \"#utility.yul\":16155:16219   */\n      tag_300\n        /* \"#utility.yul\":16211:16218   */\n      dup9\n        /* \"#utility.yul\":16202:16208   */\n      dup3\n        /* \"#utility.yul\":16191:16200   */\n      dup10\n        /* \"#utility.yul\":16187:16209   */\n      add\n        /* \"#utility.yul\":16155:16219   */\n      tag_163\n      jump\t// in\n    tag_300:\n        /* \"#utility.yul\":16145:16219   */\n      swap4\n      pop\n        /* \"#utility.yul\":16100:16229   */\n      pop\n        /* \"#utility.yul\":16268:16270   */\n      0x60\n        /* \"#utility.yul\":16294:16358   */\n      tag_301\n        /* \"#utility.yul\":16350:16357   */\n      dup9\n        /* \"#utility.yul\":16341:16347   */\n      dup3\n        /* \"#utility.yul\":16330:16339   */\n      dup10\n        /* \"#utility.yul\":16326:16348   */\n      add\n        /* \"#utility.yul\":16294:16358   */\n      tag_163\n      jump\t// in\n    tag_301:\n        /* \"#utility.yul\":16284:16358   */\n      swap3\n      pop\n        /* \"#utility.yul\":16239:16368   */\n      pop\n        /* \"#utility.yul\":16407:16410   */\n      0x80\n        /* \"#utility.yul\":16434:16497   */\n      tag_302\n        /* \"#utility.yul\":16489:16496   */\n      dup9\n        /* \"#utility.yul\":16480:16486   */\n      dup3\n        /* \"#utility.yul\":16469:16478   */\n      dup10\n        /* \"#utility.yul\":16465:16487   */\n      add\n        /* \"#utility.yul\":16434:16497   */\n      tag_160\n      jump\t// in\n    tag_302:\n        /* \"#utility.yul\":16424:16497   */\n      swap2\n      pop\n        /* \"#utility.yul\":16378:16507   */\n      pop\n        /* \"#utility.yul\":15543:16514   */\n      swap3\n      swap6\n      pop\n      swap3\n      swap6\n      swap1\n      swap4\n      pop\n      jump\t// out\n\n    auxdata: 0xa264697066735822122072b0c356f24e073e35eb9fa25dd99d77807e9e0b3a9e6064ea383ce318a949d864736f6c634300081e0033\n}\n",
				"bytecode": {
					"linkReferences": {},
					"object": "60806040526409502f90006001555f600460146101000a81548160ff021916908315150217905550348015610032575f5ffd5b5060405161129038038061129083398181016040528101906100549190610140565b3360065f6101000a81548173ffffffffffffffffffffffffffffffffffffffff021916908373ffffffffffffffffffffffffffffffffffffffff16021790555060065f9054906101000a900473ffffffffffffffffffffffffffffffffffffffff1660055f6101000a81548173ffffffffffffffffffffffffffffffffffffffff021916908373ffffffffffffffffffffffffffffffffffffffff16021790555042600281905550806003819055505061016b565b5f5ffd5b5f819050919050565b61011f8161010d565b8114610129575f5ffd5b50565b5f8151905061013a81610116565b92915050565b5f6020828403121561015557610154610109565b5b5f6101628482850161012c565b91505092915050565b611118806101785f395ff3fe608060405260043610610090575f3560e01c80638863dd1a116100585780638863dd1a1461014e5780638edd6eb614610176578063b60d42881461018c578063bea4dfb514610196578063dc1f031a146101c057610090565b80630698ff51146100945780631721681c146100bc57806341bec0d2146100e65780635863b06f1461010e578063590e1ae314610138575b5f5ffd5b34801561009f575f5ffd5b506100ba60048036038101906100b59190610a3a565b6101fc565b005b3480156100c7575f5ffd5b506100d06102af565b6040516100dd9190610a87565b60405180910390f35b3480156100f1575f5ffd5b5061010c60048036038101906101079190610aa0565b6102d7565b005b348015610119575f5ffd5b506101226103a9565b60405161012f9190610ae5565b60405180910390f35b348015610143575f5ffd5b5061014c6103bc565b005b348015610159575f5ffd5b50610174600480360381019061016f9190610aa0565b61058f565b005b348015610181575f5ffd5b5061018a610661565b005b6101946107e8565b005b3480156101a1575f5ffd5b506101aa6108c7565b6040516101b79190610b16565b60405180910390f35b3480156101cb575f5ffd5b506101e660048036038101906101e19190610aa0565b610964565b6040516101f39190610b3e565b60405180910390f35b8173ffffffffffffffffffffffffffffffffffffffff163373ffffffffffffffffffffffffffffffffffffffff161461026a576040517f08c379a000000000000000000000000000000000000000000000000000000000815260040161026190610bb1565b60405180910390fd5b805f5f8473ffffffffffffffffffffffffffffffffffffffff1673ffffffffffffffffffffffffffffffffffffffff1681526020019081526020015f20819055505050565b5f60065f9054906101000a900473ffffffffffffffffffffffffffffffffffffffff16905090565b60065f9054906101000a900473ffffffffffffffffffffffffffffffffffffffff1673ffffffffffffffffffffffffffffffffffffffff163373ffffffffffffffffffffffffffffffffffffffff1614610366576040517f08c379a000000000000000000000000000000000000000000000000000000000815260040161035d90610c19565b60405180910390fd5b8060045f6101000a81548173ffffffffffffffffffffffffffffffffffffffff021916908373ffffffffffffffffffffffffffffffffffffffff16021790555050565b600460149054906101000a900460ff1681565b6001544710610400576040517f08c379a00000000000000000000000000000000000000000000000000000000081526004016103f790610c81565b60405180910390fd5b6003546002546104109190610ccc565b421015610452576040517f08c379a000000000000000000000000000000000000000000000000000000000815260040161044990610d22565b60405180910390fd5b5f61045c33610964565b90505f81036104a0576040517f08c379a000000000000000000000000000000000000000000000000000000000815260040161049790610d8a565b60405180910390fd5b5f3373ffffffffffffffffffffffffffffffffffffffff16826040516104c590610dd2565b5f6040518083038185875af1925050503d805f81146104ff576040519150601f19603f3d011682016040523d82523d5f602084013e610504565b606091505b5050809150508061054a576040517f08c379a000000000000000000000000000000000000000000000000000000000815260040161054190610e30565b60405180910390fd5b5f5f5f3373ffffffffffffffffffffffffffffffffffffffff1673ffffffffffffffffffffffffffffffffffffffff1681526020019081526020015f20819055505050565b60065f9054906101000a900473ffffffffffffffffffffffffffffffffffffffff1673ffffffffffffffffffffffffffffffffffffffff163373ffffffffffffffffffffffffffffffffffffffff161461061e576040517f08c379a000000000000000000000000000000000000000000000000000000000815260040161061590610c19565b60405180910390fd5b8060065f6101000a81548173ffffffffffffffffffffffffffffffffffffffff021916908373ffffffffffffffffffffffffffffffffffffffff16021790555050565b60065f9054906101000a900473ffffffffffffffffffffffffffffffffffffffff1673ffffffffffffffffffffffffffffffffffffffff163373ffffffffffffffffffffffffffffffffffffffff16146106f0576040517f08c379a00000000000000000000000000000000000000000000000000000000081526004016106e790610c19565b60405180910390fd5b600154471015610735576040517f08c379a000000000000000000000000000000000000000000000000000000000815260040161072c90610e98565b60405180910390fd5b6003546002546107459190610ccc565b421015610787576040517f08c379a000000000000000000000000000000000000000000000000000000000815260040161077e90610f00565b60405180910390fd5b3373ffffffffffffffffffffffffffffffffffffffff166108fc4790811502906040515f60405180830381858888f193505050501580156107ca573d5f5f3e3d5ffd5b506001600460146101000a81548160ff021916908315150217905550565b68056bc75e2d631000003410610833576040517f08c379a000000000000000000000000000000000000000000000000000000000815260040161082a90610f68565b60405180910390fd5b6003546002546108439190610ccc565b4210610884576040517f08c379a000000000000000000000000000000000000000000000000000000000815260040161087b90610fd0565b60405180910390fd5b345f5f3373ffffffffffffffffffffffffffffffffffffffff1673ffffffffffffffffffffffffffffffffffffffff1681526020019081526020015f2081905550565b5f5f60055f9054906101000a900473ffffffffffffffffffffffffffffffffffffffff1673ffffffffffffffffffffffffffffffffffffffff1663feaf968c6040518163ffffffff1660e01b815260040160a060405180830381865afa158015610933573d5f5f3e3d5ffd5b505050506040513d601f19601f82011682018060405250810190610957919061106b565b5050509150508091505090565b5f5f5f8373ffffffffffffffffffffffffffffffffffffffff1673ffffffffffffffffffffffffffffffffffffffff1681526020019081526020015f20549050919050565b5f5ffd5b5f73ffffffffffffffffffffffffffffffffffffffff82169050919050565b5f6109d6826109ad565b9050919050565b6109e6816109cc565b81146109f0575f5ffd5b50565b5f81359050610a01816109dd565b92915050565b5f819050919050565b610a1981610a07565b8114610a23575f5ffd5b50565b5f81359050610a3481610a10565b92915050565b5f5f60408385031215610a5057610a4f6109a9565b5b5f610a5d858286016109f3565b9250506020610a6e85828601610a26565b9150509250929050565b610a81816109cc565b82525050565b5f602082019050610a9a5f830184610a78565b92915050565b5f60208284031215610ab557610ab46109a9565b5b5f610ac2848285016109f3565b91505092915050565b5f8115159050919050565b610adf81610acb565b82525050565b5f602082019050610af85f830184610ad6565b92915050565b5f819050919050565b610b1081610afe565b82525050565b5f602082019050610b295f830184610b07565b92915050565b610b3881610a07565b82525050565b5f602082019050610b515f830184610b2f565b92915050565b5f82825260208201905092915050565b7f796f7520646f206e6f742068617665207065726d697373696f6e0000000000005f82015250565b5f610b9b601a83610b57565b9150610ba682610b67565b602082019050919050565b5f6020820190508181035f830152610bc881610b8f565b9050919050565b7f796f7520646f6e27742068617665207065726d697373696f6e000000000000005f82015250565b5f610c03601983610b57565b9150610c0e82610bcf565b602082019050919050565b5f6020820190508181035f830152610c3081610bf7565b9050919050565b7f74617267657420697320726561636865640000000000000000000000000000005f82015250565b5f610c6b601183610b57565b9150610c7682610c37565b602082019050919050565b5f6020820190508181035f830152610c9881610c5f565b9050919050565b7f4e487b71000000000000000000000000000000000000000000000000000000005f52601160045260245ffd5b5f610cd682610a07565b9150610ce183610a07565b9250828201905080821115610cf957610cf8610c9f565b5b92915050565b50565b5f610d0d5f83610b57565b9150610d1882610cff565b5f82019050919050565b5f6020820190508181035f830152610d3981610d02565b9050919050565b7f7468657265206973206e6f2066756e6420666f7220796f7500000000000000005f82015250565b5f610d74601883610b57565b9150610d7f82610d40565b602082019050919050565b5f6020820190508181035f830152610da181610d68565b9050919050565b5f81905092915050565b5f610dbd5f83610da8565b9150610dc882610cff565b5f82019050919050565b5f610ddc82610db2565b9150819050919050565b7f7472616e73666572206973206661696c656400000000000000000000000000005f82015250565b5f610e1a601283610b57565b9150610e2582610de6565b602082019050919050565b5f6020820190508181035f830152610e4781610e0e565b9050919050565b7f746172676574206973206e6f74207265616368656400000000000000000000005f82015250565b5f610e82601583610b57565b9150610e8d82610e4e565b602082019050919050565b5f6020820190508181035f830152610eaf81610e76565b9050919050565b7f77696e646f77206973206e6f7420636c6f7365640000000000000000000000005f82015250565b5f610eea601483610b57565b9150610ef582610eb6565b602082019050919050565b5f6020820190508181035f830152610f1781610ede565b9050919050565b7f6974277320746f6f2000000000000000000000000000000000000000000000005f82015250565b5f610f52600983610b57565b9150610f5d82610f1e565b602082019050919050565b5f6020820190508181035f830152610f7f81610f46565b9050919050565b7f77696e646f7720697320636c6f736564000000000000000000000000000000005f82015250565b5f610fba601083610b57565b9150610fc582610f86565b602082019050919050565b5f6020820190508181035f830152610fe781610fae565b9050919050565b5f69ffffffffffffffffffff82169050919050565b61100c81610fee565b8114611016575f5ffd5b50565b5f8151905061102781611003565b92915050565b61103681610afe565b8114611040575f5ffd5b50565b5f815190506110518161102d565b92915050565b5f8151905061106581610a10565b92915050565b5f5f5f5f5f60a08688031215611084576110836109a9565b5b5f61109188828901611019565b95505060206110a288828901611043565b94505060406110b388828901611057565b93505060606110c488828901611057565b92505060806110d588828901611019565b915050929550929590935056fea264697066735822122072b0c356f24e073e35eb9fa25dd99d77807e9e0b3a9e6064ea383ce318a949d864736f6c634300081e0033",
					"opcodes": "PUSH1 0x80 PUSH1 0x40 MSTORE PUSH5 0x9502F9000 PUSH1 0x1 SSTORE PUSH0 PUSH1 0x4 PUSH1 0x14 PUSH2 0x100 EXP DUP2 SLOAD DUP2 PUSH1 0xFF MUL NOT AND SWAP1 DUP4 ISZERO ISZERO MUL OR SWAP1 SSTORE POP CALLVALUE DUP1 ISZERO PUSH2 0x32 JUMPI PUSH0 PUSH0 REVERT JUMPDEST POP PUSH1 0x40 MLOAD PUSH2 0x1290 CODESIZE SUB DUP1 PUSH2 0x1290 DUP4 CODECOPY DUP2 DUP2 ADD PUSH1 0x40 MSTORE DUP2 ADD SWAP1 PUSH2 0x54 SWAP2 SWAP1 PUSH2 0x140 JUMP JUMPDEST CALLER PUSH1 0x6 PUSH0 PUSH2 0x100 EXP DUP2 SLOAD DUP2 PUSH20 0xFFFFFFFFFFFFFFFFFFFFFFFFFFFFFFFFFFFFFFFF MUL NOT AND SWAP1 DUP4 PUSH20 0xFFFFFFFFFFFFFFFFFFFFFFFFFFFFFFFFFFFFFFFF AND MUL OR SWAP1 SSTORE POP PUSH1 0x6 PUSH0 SWAP1 SLOAD SWAP1 PUSH2 0x100 EXP SWAP1 DIV PUSH20 0xFFFFFFFFFFFFFFFFFFFFFFFFFFFFFFFFFFFFFFFF AND PUSH1 0x5 PUSH0 PUSH2 0x100 EXP DUP2 SLOAD DUP2 PUSH20 0xFFFFFFFFFFFFFFFFFFFFFFFFFFFFFFFFFFFFFFFF MUL NOT AND SWAP1 DUP4 PUSH20 0xFFFFFFFFFFFFFFFFFFFFFFFFFFFFFFFFFFFFFFFF AND MUL OR SWAP1 SSTORE POP TIMESTAMP PUSH1 0x2 DUP2 SWAP1 SSTORE POP DUP1 PUSH1 0x3 DUP2 SWAP1 SSTORE POP POP PUSH2 0x16B JUMP JUMPDEST PUSH0 PUSH0 REVERT JUMPDEST PUSH0 DUP2 SWAP1 POP SWAP2 SWAP1 POP JUMP JUMPDEST PUSH2 0x11F DUP2 PUSH2 0x10D JUMP JUMPDEST DUP2 EQ PUSH2 0x129 JUMPI PUSH0 PUSH0 REVERT JUMPDEST POP JUMP JUMPDEST PUSH0 DUP2 MLOAD SWAP1 POP PUSH2 0x13A DUP2 PUSH2 0x116 JUMP JUMPDEST SWAP3 SWAP2 POP POP JUMP JUMPDEST PUSH0 PUSH1 0x20 DUP3 DUP5 SUB SLT ISZERO PUSH2 0x155 JUMPI PUSH2 0x154 PUSH2 0x109 JUMP JUMPDEST JUMPDEST PUSH0 PUSH2 0x162 DUP5 DUP3 DUP6 ADD PUSH2 0x12C JUMP JUMPDEST SWAP2 POP POP SWAP3 SWAP2 POP POP JUMP JUMPDEST PUSH2 0x1118 DUP1 PUSH2 0x178 PUSH0 CODECOPY PUSH0 RETURN INVALID PUSH1 0x80 PUSH1 0x40 MSTORE PUSH1 0x4 CALLDATASIZE LT PUSH2 0x90 JUMPI PUSH0 CALLDATALOAD PUSH1 0xE0 SHR DUP1 PUSH4 0x8863DD1A GT PUSH2 0x58 JUMPI DUP1 PUSH4 0x8863DD1A EQ PUSH2 0x14E JUMPI DUP1 PUSH4 0x8EDD6EB6 EQ PUSH2 0x176 JUMPI DUP1 PUSH4 0xB60D4288 EQ PUSH2 0x18C JUMPI DUP1 PUSH4 0xBEA4DFB5 EQ PUSH2 0x196 JUMPI DUP1 PUSH4 0xDC1F031A EQ PUSH2 0x1C0 JUMPI PUSH2 0x90 JUMP JUMPDEST DUP1 PUSH4 0x698FF51 EQ PUSH2 0x94 JUMPI DUP1 PUSH4 0x1721681C EQ PUSH2 0xBC JUMPI DUP1 PUSH4 0x41BEC0D2 EQ PUSH2 0xE6 JUMPI DUP1 PUSH4 0x5863B06F EQ PUSH2 0x10E JUMPI DUP1 PUSH4 0x590E1AE3 EQ PUSH2 0x138 JUMPI JUMPDEST PUSH0 PUSH0 REVERT JUMPDEST CALLVALUE DUP1 ISZERO PUSH2 0x9F JUMPI PUSH0 PUSH0 REVERT JUMPDEST POP PUSH2 0xBA PUSH1 0x4 DUP1 CALLDATASIZE SUB DUP2 ADD SWAP1 PUSH2 0xB5 SWAP2 SWAP1 PUSH2 0xA3A JUMP JUMPDEST PUSH2 0x1FC JUMP JUMPDEST STOP JUMPDEST CALLVALUE DUP1 ISZERO PUSH2 0xC7 JUMPI PUSH0 PUSH0 REVERT JUMPDEST POP PUSH2 0xD0 PUSH2 0x2AF JUMP JUMPDEST PUSH1 0x40 MLOAD PUSH2 0xDD SWAP2 SWAP1 PUSH2 0xA87 JUMP JUMPDEST PUSH1 0x40 MLOAD DUP1 SWAP2 SUB SWAP1 RETURN JUMPDEST CALLVALUE DUP1 ISZERO PUSH2 0xF1 JUMPI PUSH0 PUSH0 REVERT JUMPDEST POP PUSH2 0x10C PUSH1 0x4 DUP1 CALLDATASIZE SUB DUP2 ADD SWAP1 PUSH2 0x107 SWAP2 SWAP1 PUSH2 0xAA0 JUMP JUMPDEST PUSH2 0x2D7 JUMP JUMPDEST STOP JUMPDEST CALLVALUE DUP1 ISZERO PUSH2 0x119 JUMPI PUSH0 PUSH0 REVERT JUMPDEST POP PUSH2 0x122 PUSH2 0x3A9 JUMP JUMPDEST PUSH1 0x40 MLOAD PUSH2 0x12F SWAP2 SWAP1 PUSH2 0xAE5 JUMP JUMPDEST PUSH1 0x40 MLOAD DUP1 SWAP2 SUB SWAP1 RETURN JUMPDEST CALLVALUE DUP1 ISZERO PUSH2 0x143 JUMPI PUSH0 PUSH0 REVERT JUMPDEST POP PUSH2 0x14C PUSH2 0x3BC JUMP JUMPDEST STOP JUMPDEST CALLVALUE DUP1 ISZERO PUSH2 0x159 JUMPI PUSH0 PUSH0 REVERT JUMPDEST POP PUSH2 0x174 PUSH1 0x4 DUP1 CALLDATASIZE SUB DUP2 ADD SWAP1 PUSH2 0x16F SWAP2 SWAP1 PUSH2 0xAA0 JUMP JUMPDEST PUSH2 0x58F JUMP JUMPDEST STOP JUMPDEST CALLVALUE DUP1 ISZERO PUSH2 0x181 JUMPI PUSH0 PUSH0 REVERT JUMPDEST POP PUSH2 0x18A PUSH2 0x661 JUMP JUMPDEST STOP JUMPDEST PUSH2 0x194 PUSH2 0x7E8 JUMP JUMPDEST STOP JUMPDEST CALLVALUE DUP1 ISZERO PUSH2 0x1A1 JUMPI PUSH0 PUSH0 REVERT JUMPDEST POP PUSH2 0x1AA PUSH2 0x8C7 JUMP JUMPDEST PUSH1 0x40 MLOAD PUSH2 0x1B7 SWAP2 SWAP1 PUSH2 0xB16 JUMP JUMPDEST PUSH1 0x40 MLOAD DUP1 SWAP2 SUB SWAP1 RETURN JUMPDEST CALLVALUE DUP1 ISZERO PUSH2 0x1CB JUMPI PUSH0 PUSH0 REVERT JUMPDEST POP PUSH2 0x1E6 PUSH1 0x4 DUP1 CALLDATASIZE SUB DUP2 ADD SWAP1 PUSH2 0x1E1 SWAP2 SWAP1 PUSH2 0xAA0 JUMP JUMPDEST PUSH2 0x964 JUMP JUMPDEST PUSH1 0x40 MLOAD PUSH2 0x1F3 SWAP2 SWAP1 PUSH2 0xB3E JUMP JUMPDEST PUSH1 0x40 MLOAD DUP1 SWAP2 SUB SWAP1 RETURN JUMPDEST DUP2 PUSH20 0xFFFFFFFFFFFFFFFFFFFFFFFFFFFFFFFFFFFFFFFF AND CALLER PUSH20 0xFFFFFFFFFFFFFFFFFFFFFFFFFFFFFFFFFFFFFFFF AND EQ PUSH2 0x26A JUMPI PUSH1 0x40 MLOAD PUSH32 0x8C379A000000000000000000000000000000000000000000000000000000000 DUP2 MSTORE PUSH1 0x4 ADD PUSH2 0x261 SWAP1 PUSH2 0xBB1 JUMP JUMPDEST PUSH1 0x40 MLOAD DUP1 SWAP2 SUB SWAP1 REVERT JUMPDEST DUP1 PUSH0 PUSH0 DUP5 PUSH20 0xFFFFFFFFFFFFFFFFFFFFFFFFFFFFFFFFFFFFFFFF AND PUSH20 0xFFFFFFFFFFFFFFFFFFFFFFFFFFFFFFFFFFFFFFFF AND DUP2 MSTORE PUSH1 0x20 ADD SWAP1 DUP2 MSTORE PUSH1 0x20 ADD PUSH0 KECCAK256 DUP2 SWAP1 SSTORE POP POP POP JUMP JUMPDEST PUSH0 PUSH1 0x6 PUSH0 SWAP1 SLOAD SWAP1 PUSH2 0x100 EXP SWAP1 DIV PUSH20 0xFFFFFFFFFFFFFFFFFFFFFFFFFFFFFFFFFFFFFFFF AND SWAP1 POP SWAP1 JUMP JUMPDEST PUSH1 0x6 PUSH0 SWAP1 SLOAD SWAP1 PUSH2 0x100 EXP SWAP1 DIV PUSH20 0xFFFFFFFFFFFFFFFFFFFFFFFFFFFFFFFFFFFFFFFF AND PUSH20 0xFFFFFFFFFFFFFFFFFFFFFFFFFFFFFFFFFFFFFFFF AND CALLER PUSH20 0xFFFFFFFFFFFFFFFFFFFFFFFFFFFFFFFFFFFFFFFF AND EQ PUSH2 0x366 JUMPI PUSH1 0x40 MLOAD PUSH32 0x8C379A000000000000000000000000000000000000000000000000000000000 DUP2 MSTORE PUSH1 0x4 ADD PUSH2 0x35D SWAP1 PUSH2 0xC19 JUMP JUMPDEST PUSH1 0x40 MLOAD DUP1 SWAP2 SUB SWAP1 REVERT JUMPDEST DUP1 PUSH1 0x4 PUSH0 PUSH2 0x100 EXP DUP2 SLOAD DUP2 PUSH20 0xFFFFFFFFFFFFFFFFFFFFFFFFFFFFFFFFFFFFFFFF MUL NOT AND SWAP1 DUP4 PUSH20 0xFFFFFFFFFFFFFFFFFFFFFFFFFFFFFFFFFFFFFFFF AND MUL OR SWAP1 SSTORE POP POP JUMP JUMPDEST PUSH1 0x4 PUSH1 0x14 SWAP1 SLOAD SWAP1 PUSH2 0x100 EXP SWAP1 DIV PUSH1 0xFF AND DUP2 JUMP JUMPDEST PUSH1 0x1 SLOAD SELFBALANCE LT PUSH2 0x400 JUMPI PUSH1 0x40 MLOAD PUSH32 0x8C379A000000000000000000000000000000000000000000000000000000000 DUP2 MSTORE PUSH1 0x4 ADD PUSH2 0x3F7 SWAP1 PUSH2 0xC81 JUMP JUMPDEST PUSH1 0x40 MLOAD DUP1 SWAP2 SUB SWAP1 REVERT JUMPDEST PUSH1 0x3 SLOAD PUSH1 0x2 SLOAD PUSH2 0x410 SWAP2 SWAP1 PUSH2 0xCCC JUMP JUMPDEST TIMESTAMP LT ISZERO PUSH2 0x452 JUMPI PUSH1 0x40 MLOAD PUSH32 0x8C379A000000000000000000000000000000000000000000000000000000000 DUP2 MSTORE PUSH1 0x4 ADD PUSH2 0x449 SWAP1 PUSH2 0xD22 JUMP JUMPDEST PUSH1 0x40 MLOAD DUP1 SWAP2 SUB SWAP1 REVERT JUMPDEST PUSH0 PUSH2 0x45C CALLER PUSH2 0x964 JUMP JUMPDEST SWAP1 POP PUSH0 DUP2 SUB PUSH2 0x4A0 JUMPI PUSH1 0x40 MLOAD PUSH32 0x8C379A000000000000000000000000000000000000000000000000000000000 DUP2 MSTORE PUSH1 0x4 ADD PUSH2 0x497 SWAP1 PUSH2 0xD8A JUMP JUMPDEST PUSH1 0x40 MLOAD DUP1 SWAP2 SUB SWAP1 REVERT JUMPDEST PUSH0 CALLER PUSH20 0xFFFFFFFFFFFFFFFFFFFFFFFFFFFFFFFFFFFFFFFF AND DUP3 PUSH1 0x40 MLOAD PUSH2 0x4C5 SWAP1 PUSH2 0xDD2 JUMP JUMPDEST PUSH0 PUSH1 0x40 MLOAD DUP1 DUP4 SUB DUP2 DUP6 DUP8 GAS CALL SWAP3 POP POP POP RETURNDATASIZE DUP1 PUSH0 DUP2 EQ PUSH2 0x4FF JUMPI PUSH1 0x40 MLOAD SWAP2 POP PUSH1 0x1F NOT PUSH1 0x3F RETURNDATASIZE ADD AND DUP3 ADD PUSH1 0x40 MSTORE RETURNDATASIZE DUP3 MSTORE RETURNDATASIZE PUSH0 PUSH1 0x20 DUP5 ADD RETURNDATACOPY PUSH2 0x504 JUMP JUMPDEST PUSH1 0x60 SWAP2 POP JUMPDEST POP POP DUP1 SWAP2 POP POP DUP1 PUSH2 0x54A JUMPI PUSH1 0x40 MLOAD PUSH32 0x8C379A000000000000000000000000000000000000000000000000000000000 DUP2 MSTORE PUSH1 0x4 ADD PUSH2 0x541 SWAP1 PUSH2 0xE30 JUMP JUMPDEST PUSH1 0x40 MLOAD DUP1 SWAP2 SUB SWAP1 REVERT JUMPDEST PUSH0 PUSH0 PUSH0 CALLER PUSH20 0xFFFFFFFFFFFFFFFFFFFFFFFFFFFFFFFFFFFFFFFF AND PUSH20 0xFFFFFFFFFFFFFFFFFFFFFFFFFFFFFFFFFFFFFFFF AND DUP2 MSTORE PUSH1 0x20 ADD SWAP1 DUP2 MSTORE PUSH1 0x20 ADD PUSH0 KECCAK256 DUP2 SWAP1 SSTORE POP POP POP JUMP JUMPDEST PUSH1 0x6 PUSH0 SWAP1 SLOAD SWAP1 PUSH2 0x100 EXP SWAP1 DIV PUSH20 0xFFFFFFFFFFFFFFFFFFFFFFFFFFFFFFFFFFFFFFFF AND PUSH20 0xFFFFFFFFFFFFFFFFFFFFFFFFFFFFFFFFFFFFFFFF AND CALLER PUSH20 0xFFFFFFFFFFFFFFFFFFFFFFFFFFFFFFFFFFFFFFFF AND EQ PUSH2 0x61E JUMPI PUSH1 0x40 MLOAD PUSH32 0x8C379A000000000000000000000000000000000000000000000000000000000 DUP2 MSTORE PUSH1 0x4 ADD PUSH2 0x615 SWAP1 PUSH2 0xC19 JUMP JUMPDEST PUSH1 0x40 MLOAD DUP1 SWAP2 SUB SWAP1 REVERT JUMPDEST DUP1 PUSH1 0x6 PUSH0 PUSH2 0x100 EXP DUP2 SLOAD DUP2 PUSH20 0xFFFFFFFFFFFFFFFFFFFFFFFFFFFFFFFFFFFFFFFF MUL NOT AND SWAP1 DUP4 PUSH20 0xFFFFFFFFFFFFFFFFFFFFFFFFFFFFFFFFFFFFFFFF AND MUL OR SWAP1 SSTORE POP POP JUMP JUMPDEST PUSH1 0x6 PUSH0 SWAP1 SLOAD SWAP1 PUSH2 0x100 EXP SWAP1 DIV PUSH20 0xFFFFFFFFFFFFFFFFFFFFFFFFFFFFFFFFFFFFFFFF AND PUSH20 0xFFFFFFFFFFFFFFFFFFFFFFFFFFFFFFFFFFFFFFFF AND CALLER PUSH20 0xFFFFFFFFFFFFFFFFFFFFFFFFFFFFFFFFFFFFFFFF AND EQ PUSH2 0x6F0 JUMPI PUSH1 0x40 MLOAD PUSH32 0x8C379A000000000000000000000000000000000000000000000000000000000 DUP2 MSTORE PUSH1 0x4 ADD PUSH2 0x6E7 SWAP1 PUSH2 0xC19 JUMP JUMPDEST PUSH1 0x40 MLOAD DUP1 SWAP2 SUB SWAP1 REVERT JUMPDEST PUSH1 0x1 SLOAD SELFBALANCE LT ISZERO PUSH2 0x735 JUMPI PUSH1 0x40 MLOAD PUSH32 0x8C379A000000000000000000000000000000000000000000000000000000000 DUP2 MSTORE PUSH1 0x4 ADD PUSH2 0x72C SWAP1 PUSH2 0xE98 JUMP JUMPDEST PUSH1 0x40 MLOAD DUP1 SWAP2 SUB SWAP1 REVERT JUMPDEST PUSH1 0x3 SLOAD PUSH1 0x2 SLOAD PUSH2 0x745 SWAP2 SWAP1 PUSH2 0xCCC JUMP JUMPDEST TIMESTAMP LT ISZERO PUSH2 0x787 JUMPI PUSH1 0x40 MLOAD PUSH32 0x8C379A000000000000000000000000000000000000000000000000000000000 DUP2 MSTORE PUSH1 0x4 ADD PUSH2 0x77E SWAP1 PUSH2 0xF00 JUMP JUMPDEST PUSH1 0x40 MLOAD DUP1 SWAP2 SUB SWAP1 REVERT JUMPDEST CALLER PUSH20 0xFFFFFFFFFFFFFFFFFFFFFFFFFFFFFFFFFFFFFFFF AND PUSH2 0x8FC SELFBALANCE SWAP1 DUP2 ISZERO MUL SWAP1 PUSH1 0x40 MLOAD PUSH0 PUSH1 0x40 MLOAD DUP1 DUP4 SUB DUP2 DUP6 DUP9 DUP9 CALL SWAP4 POP POP POP POP ISZERO DUP1 ISZERO PUSH2 0x7CA JUMPI RETURNDATASIZE PUSH0 PUSH0 RETURNDATACOPY RETURNDATASIZE PUSH0 REVERT JUMPDEST POP PUSH1 0x1 PUSH1 0x4 PUSH1 0x14 PUSH2 0x100 EXP DUP2 SLOAD DUP2 PUSH1 0xFF MUL NOT AND SWAP1 DUP4 ISZERO ISZERO MUL OR SWAP1 SSTORE POP JUMP JUMPDEST PUSH9 0x56BC75E2D63100000 CALLVALUE LT PUSH2 0x833 JUMPI PUSH1 0x40 MLOAD PUSH32 0x8C379A000000000000000000000000000000000000000000000000000000000 DUP2 MSTORE PUSH1 0x4 ADD PUSH2 0x82A SWAP1 PUSH2 0xF68 JUMP JUMPDEST PUSH1 0x40 MLOAD DUP1 SWAP2 SUB SWAP1 REVERT JUMPDEST PUSH1 0x3 SLOAD PUSH1 0x2 SLOAD PUSH2 0x843 SWAP2 SWAP1 PUSH2 0xCCC JUMP JUMPDEST TIMESTAMP LT PUSH2 0x884 JUMPI PUSH1 0x40 MLOAD PUSH32 0x8C379A000000000000000000000000000000000000000000000000000000000 DUP2 MSTORE PUSH1 0x4 ADD PUSH2 0x87B SWAP1 PUSH2 0xFD0 JUMP JUMPDEST PUSH1 0x40 MLOAD DUP1 SWAP2 SUB SWAP1 REVERT JUMPDEST CALLVALUE PUSH0 PUSH0 CALLER PUSH20 0xFFFFFFFFFFFFFFFFFFFFFFFFFFFFFFFFFFFFFFFF AND PUSH20 0xFFFFFFFFFFFFFFFFFFFFFFFFFFFFFFFFFFFFFFFF AND DUP2 MSTORE PUSH1 0x20 ADD SWAP1 DUP2 MSTORE PUSH1 0x20 ADD PUSH0 KECCAK256 DUP2 SWAP1 SSTORE POP JUMP JUMPDEST PUSH0 PUSH0 PUSH1 0x5 PUSH0 SWAP1 SLOAD SWAP1 PUSH2 0x100 EXP SWAP1 DIV PUSH20 0xFFFFFFFFFFFFFFFFFFFFFFFFFFFFFFFFFFFFFFFF AND PUSH20 0xFFFFFFFFFFFFFFFFFFFFFFFFFFFFFFFFFFFFFFFF AND PUSH4 0xFEAF968C PUSH1 0x40 MLOAD DUP2 PUSH4 0xFFFFFFFF AND PUSH1 0xE0 SHL DUP2 MSTORE PUSH1 0x4 ADD PUSH1 0xA0 PUSH1 0x40 MLOAD DUP1 DUP4 SUB DUP2 DUP7 GAS STATICCALL ISZERO DUP1 ISZERO PUSH2 0x933 JUMPI RETURNDATASIZE PUSH0 PUSH0 RETURNDATACOPY RETURNDATASIZE PUSH0 REVERT JUMPDEST POP POP POP POP PUSH1 0x40 MLOAD RETURNDATASIZE PUSH1 0x1F NOT PUSH1 0x1F DUP3 ADD AND DUP3 ADD DUP1 PUSH1 0x40 MSTORE POP DUP2 ADD SWAP1 PUSH2 0x957 SWAP2 SWAP1 PUSH2 0x106B JUMP JUMPDEST POP POP POP SWAP2 POP POP DUP1 SWAP2 POP POP SWAP1 JUMP JUMPDEST PUSH0 PUSH0 PUSH0 DUP4 PUSH20 0xFFFFFFFFFFFFFFFFFFFFFFFFFFFFFFFFFFFFFFFF AND PUSH20 0xFFFFFFFFFFFFFFFFFFFFFFFFFFFFFFFFFFFFFFFF AND DUP2 MSTORE PUSH1 0x20 ADD SWAP1 DUP2 MSTORE PUSH1 0x20 ADD PUSH0 KECCAK256 SLOAD SWAP1 POP SWAP2 SWAP1 POP JUMP JUMPDEST PUSH0 PUSH0 REVERT JUMPDEST PUSH0 PUSH20 0xFFFFFFFFFFFFFFFFFFFFFFFFFFFFFFFFFFFFFFFF DUP3 AND SWAP1 POP SWAP2 SWAP1 POP JUMP JUMPDEST PUSH0 PUSH2 0x9D6 DUP3 PUSH2 0x9AD JUMP JUMPDEST SWAP1 POP SWAP2 SWAP1 POP JUMP JUMPDEST PUSH2 0x9E6 DUP2 PUSH2 0x9CC JUMP JUMPDEST DUP2 EQ PUSH2 0x9F0 JUMPI PUSH0 PUSH0 REVERT JUMPDEST POP JUMP JUMPDEST PUSH0 DUP2 CALLDATALOAD SWAP1 POP PUSH2 0xA01 DUP2 PUSH2 0x9DD JUMP JUMPDEST SWAP3 SWAP2 POP POP JUMP JUMPDEST PUSH0 DUP2 SWAP1 POP SWAP2 SWAP1 POP JUMP JUMPDEST PUSH2 0xA19 DUP2 PUSH2 0xA07 JUMP JUMPDEST DUP2 EQ PUSH2 0xA23 JUMPI PUSH0 PUSH0 REVERT JUMPDEST POP JUMP JUMPDEST PUSH0 DUP2 CALLDATALOAD SWAP1 POP PUSH2 0xA34 DUP2 PUSH2 0xA10 JUMP JUMPDEST SWAP3 SWAP2 POP POP JUMP JUMPDEST PUSH0 PUSH0 PUSH1 0x40 DUP4 DUP6 SUB SLT ISZERO PUSH2 0xA50 JUMPI PUSH2 0xA4F PUSH2 0x9A9 JUMP JUMPDEST JUMPDEST PUSH0 PUSH2 0xA5D DUP6 DUP3 DUP7 ADD PUSH2 0x9F3 JUMP JUMPDEST SWAP3 POP POP PUSH1 0x20 PUSH2 0xA6E DUP6 DUP3 DUP7 ADD PUSH2 0xA26 JUMP JUMPDEST SWAP2 POP POP SWAP3 POP SWAP3 SWAP1 POP JUMP JUMPDEST PUSH2 0xA81 DUP2 PUSH2 0x9CC JUMP JUMPDEST DUP3 MSTORE POP POP JUMP JUMPDEST PUSH0 PUSH1 0x20 DUP3 ADD SWAP1 POP PUSH2 0xA9A PUSH0 DUP4 ADD DUP5 PUSH2 0xA78 JUMP JUMPDEST SWAP3 SWAP2 POP POP JUMP JUMPDEST PUSH0 PUSH1 0x20 DUP3 DUP5 SUB SLT ISZERO PUSH2 0xAB5 JUMPI PUSH2 0xAB4 PUSH2 0x9A9 JUMP JUMPDEST JUMPDEST PUSH0 PUSH2 0xAC2 DUP5 DUP3 DUP6 ADD PUSH2 0x9F3 JUMP JUMPDEST SWAP2 POP POP SWAP3 SWAP2 POP POP JUMP JUMPDEST PUSH0 DUP2 ISZERO ISZERO SWAP1 POP SWAP2 SWAP1 POP JUMP JUMPDEST PUSH2 0xADF DUP2 PUSH2 0xACB JUMP JUMPDEST DUP3 MSTORE POP POP JUMP JUMPDEST PUSH0 PUSH1 0x20 DUP3 ADD SWAP1 POP PUSH2 0xAF8 PUSH0 DUP4 ADD DUP5 PUSH2 0xAD6 JUMP JUMPDEST SWAP3 SWAP2 POP POP JUMP JUMPDEST PUSH0 DUP2 SWAP1 POP SWAP2 SWAP1 POP JUMP JUMPDEST PUSH2 0xB10 DUP2 PUSH2 0xAFE JUMP JUMPDEST DUP3 MSTORE POP POP JUMP JUMPDEST PUSH0 PUSH1 0x20 DUP3 ADD SWAP1 POP PUSH2 0xB29 PUSH0 DUP4 ADD DUP5 PUSH2 0xB07 JUMP JUMPDEST SWAP3 SWAP2 POP POP JUMP JUMPDEST PUSH2 0xB38 DUP2 PUSH2 0xA07 JUMP JUMPDEST DUP3 MSTORE POP POP JUMP JUMPDEST PUSH0 PUSH1 0x20 DUP3 ADD SWAP1 POP PUSH2 0xB51 PUSH0 DUP4 ADD DUP5 PUSH2 0xB2F JUMP JUMPDEST SWAP3 SWAP2 POP POP JUMP JUMPDEST PUSH0 DUP3 DUP3 MSTORE PUSH1 0x20 DUP3 ADD SWAP1 POP SWAP3 SWAP2 POP POP JUMP JUMPDEST PUSH32 0x796F7520646F206E6F742068617665207065726D697373696F6E000000000000 PUSH0 DUP3 ADD MSTORE POP JUMP JUMPDEST PUSH0 PUSH2 0xB9B PUSH1 0x1A DUP4 PUSH2 0xB57 JUMP JUMPDEST SWAP2 POP PUSH2 0xBA6 DUP3 PUSH2 0xB67 JUMP JUMPDEST PUSH1 0x20 DUP3 ADD SWAP1 POP SWAP2 SWAP1 POP JUMP JUMPDEST PUSH0 PUSH1 0x20 DUP3 ADD SWAP1 POP DUP2 DUP2 SUB PUSH0 DUP4 ADD MSTORE PUSH2 0xBC8 DUP2 PUSH2 0xB8F JUMP JUMPDEST SWAP1 POP SWAP2 SWAP1 POP JUMP JUMPDEST PUSH32 0x796F7520646F6E27742068617665207065726D697373696F6E00000000000000 PUSH0 DUP3 ADD MSTORE POP JUMP JUMPDEST PUSH0 PUSH2 0xC03 PUSH1 0x19 DUP4 PUSH2 0xB57 JUMP JUMPDEST SWAP2 POP PUSH2 0xC0E DUP3 PUSH2 0xBCF JUMP JUMPDEST PUSH1 0x20 DUP3 ADD SWAP1 POP SWAP2 SWAP1 POP JUMP JUMPDEST PUSH0 PUSH1 0x20 DUP3 ADD SWAP1 POP DUP2 DUP2 SUB PUSH0 DUP4 ADD MSTORE PUSH2 0xC30 DUP2 PUSH2 0xBF7 JUMP JUMPDEST SWAP1 POP SWAP2 SWAP1 POP JUMP JUMPDEST PUSH32 0x7461726765742069732072656163686564000000000000000000000000000000 PUSH0 DUP3 ADD MSTORE POP JUMP JUMPDEST PUSH0 PUSH2 0xC6B PUSH1 0x11 DUP4 PUSH2 0xB57 JUMP JUMPDEST SWAP2 POP PUSH2 0xC76 DUP3 PUSH2 0xC37 JUMP JUMPDEST PUSH1 0x20 DUP3 ADD SWAP1 POP SWAP2 SWAP1 POP JUMP JUMPDEST PUSH0 PUSH1 0x20 DUP3 ADD SWAP1 POP DUP2 DUP2 SUB PUSH0 DUP4 ADD MSTORE PUSH2 0xC98 DUP2 PUSH2 0xC5F JUMP JUMPDEST SWAP1 POP SWAP2 SWAP1 POP JUMP JUMPDEST PUSH32 0x4E487B7100000000000000000000000000000000000000000000000000000000 PUSH0 MSTORE PUSH1 0x11 PUSH1 0x4 MSTORE PUSH1 0x24 PUSH0 REVERT JUMPDEST PUSH0 PUSH2 0xCD6 DUP3 PUSH2 0xA07 JUMP JUMPDEST SWAP2 POP PUSH2 0xCE1 DUP4 PUSH2 0xA07 JUMP JUMPDEST SWAP3 POP DUP3 DUP3 ADD SWAP1 POP DUP1 DUP3 GT ISZERO PUSH2 0xCF9 JUMPI PUSH2 0xCF8 PUSH2 0xC9F JUMP JUMPDEST JUMPDEST SWAP3 SWAP2 POP POP JUMP JUMPDEST POP JUMP JUMPDEST PUSH0 PUSH2 0xD0D PUSH0 DUP4 PUSH2 0xB57 JUMP JUMPDEST SWAP2 POP PUSH2 0xD18 DUP3 PUSH2 0xCFF JUMP JUMPDEST PUSH0 DUP3 ADD SWAP1 POP SWAP2 SWAP1 POP JUMP JUMPDEST PUSH0 PUSH1 0x20 DUP3 ADD SWAP1 POP DUP2 DUP2 SUB PUSH0 DUP4 ADD MSTORE PUSH2 0xD39 DUP2 PUSH2 0xD02 JUMP JUMPDEST SWAP1 POP SWAP2 SWAP1 POP JUMP JUMPDEST PUSH32 0x7468657265206973206E6F2066756E6420666F7220796F750000000000000000 PUSH0 DUP3 ADD MSTORE POP JUMP JUMPDEST PUSH0 PUSH2 0xD74 PUSH1 0x18 DUP4 PUSH2 0xB57 JUMP JUMPDEST SWAP2 POP PUSH2 0xD7F DUP3 PUSH2 0xD40 JUMP JUMPDEST PUSH1 0x20 DUP3 ADD SWAP1 POP SWAP2 SWAP1 POP JUMP JUMPDEST PUSH0 PUSH1 0x20 DUP3 ADD SWAP1 POP DUP2 DUP2 SUB PUSH0 DUP4 ADD MSTORE PUSH2 0xDA1 DUP2 PUSH2 0xD68 JUMP JUMPDEST SWAP1 POP SWAP2 SWAP1 POP JUMP JUMPDEST PUSH0 DUP2 SWAP1 POP SWAP3 SWAP2 POP POP JUMP JUMPDEST PUSH0 PUSH2 0xDBD PUSH0 DUP4 PUSH2 0xDA8 JUMP JUMPDEST SWAP2 POP PUSH2 0xDC8 DUP3 PUSH2 0xCFF JUMP JUMPDEST PUSH0 DUP3 ADD SWAP1 POP SWAP2 SWAP1 POP JUMP JUMPDEST PUSH0 PUSH2 0xDDC DUP3 PUSH2 0xDB2 JUMP JUMPDEST SWAP2 POP DUP2 SWAP1 POP SWAP2 SWAP1 POP JUMP JUMPDEST PUSH32 0x7472616E73666572206973206661696C65640000000000000000000000000000 PUSH0 DUP3 ADD MSTORE POP JUMP JUMPDEST PUSH0 PUSH2 0xE1A PUSH1 0x12 DUP4 PUSH2 0xB57 JUMP JUMPDEST SWAP2 POP PUSH2 0xE25 DUP3 PUSH2 0xDE6 JUMP JUMPDEST PUSH1 0x20 DUP3 ADD SWAP1 POP SWAP2 SWAP1 POP JUMP JUMPDEST PUSH0 PUSH1 0x20 DUP3 ADD SWAP1 POP DUP2 DUP2 SUB PUSH0 DUP4 ADD MSTORE PUSH2 0xE47 DUP2 PUSH2 0xE0E JUMP JUMPDEST SWAP1 POP SWAP2 SWAP1 POP JUMP JUMPDEST PUSH32 0x746172676574206973206E6F7420726561636865640000000000000000000000 PUSH0 DUP3 ADD MSTORE POP JUMP JUMPDEST PUSH0 PUSH2 0xE82 PUSH1 0x15 DUP4 PUSH2 0xB57 JUMP JUMPDEST SWAP2 POP PUSH2 0xE8D DUP3 PUSH2 0xE4E JUMP JUMPDEST PUSH1 0x20 DUP3 ADD SWAP1 POP SWAP2 SWAP1 POP JUMP JUMPDEST PUSH0 PUSH1 0x20 DUP3 ADD SWAP1 POP DUP2 DUP2 SUB PUSH0 DUP4 ADD MSTORE PUSH2 0xEAF DUP2 PUSH2 0xE76 JUMP JUMPDEST SWAP1 POP SWAP2 SWAP1 POP JUMP JUMPDEST PUSH32 0x77696E646F77206973206E6F7420636C6F736564000000000000000000000000 PUSH0 DUP3 ADD MSTORE POP JUMP JUMPDEST PUSH0 PUSH2 0xEEA PUSH1 0x14 DUP4 PUSH2 0xB57 JUMP JUMPDEST SWAP2 POP PUSH2 0xEF5 DUP3 PUSH2 0xEB6 JUMP JUMPDEST PUSH1 0x20 DUP3 ADD SWAP1 POP SWAP2 SWAP1 POP JUMP JUMPDEST PUSH0 PUSH1 0x20 DUP3 ADD SWAP1 POP DUP2 DUP2 SUB PUSH0 DUP4 ADD MSTORE PUSH2 0xF17 DUP2 PUSH2 0xEDE JUMP JUMPDEST SWAP1 POP SWAP2 SWAP1 POP JUMP JUMPDEST PUSH32 0x6974277320746F6F200000000000000000000000000000000000000000000000 PUSH0 DUP3 ADD MSTORE POP JUMP JUMPDEST PUSH0 PUSH2 0xF52 PUSH1 0x9 DUP4 PUSH2 0xB57 JUMP JUMPDEST SWAP2 POP PUSH2 0xF5D DUP3 PUSH2 0xF1E JUMP JUMPDEST PUSH1 0x20 DUP3 ADD SWAP1 POP SWAP2 SWAP1 POP JUMP JUMPDEST PUSH0 PUSH1 0x20 DUP3 ADD SWAP1 POP DUP2 DUP2 SUB PUSH0 DUP4 ADD MSTORE PUSH2 0xF7F DUP2 PUSH2 0xF46 JUMP JUMPDEST SWAP1 POP SWAP2 SWAP1 POP JUMP JUMPDEST PUSH32 0x77696E646F7720697320636C6F73656400000000000000000000000000000000 PUSH0 DUP3 ADD MSTORE POP JUMP JUMPDEST PUSH0 PUSH2 0xFBA PUSH1 0x10 DUP4 PUSH2 0xB57 JUMP JUMPDEST SWAP2 POP PUSH2 0xFC5 DUP3 PUSH2 0xF86 JUMP JUMPDEST PUSH1 0x20 DUP3 ADD SWAP1 POP SWAP2 SWAP1 POP JUMP JUMPDEST PUSH0 PUSH1 0x20 DUP3 ADD SWAP1 POP DUP2 DUP2 SUB PUSH0 DUP4 ADD MSTORE PUSH2 0xFE7 DUP2 PUSH2 0xFAE JUMP JUMPDEST SWAP1 POP SWAP2 SWAP1 POP JUMP JUMPDEST PUSH0 PUSH10 0xFFFFFFFFFFFFFFFFFFFF DUP3 AND SWAP1 POP SWAP2 SWAP1 POP JUMP JUMPDEST PUSH2 0x100C DUP2 PUSH2 0xFEE JUMP JUMPDEST DUP2 EQ PUSH2 0x1016 JUMPI PUSH0 PUSH0 REVERT JUMPDEST POP JUMP JUMPDEST PUSH0 DUP2 MLOAD SWAP1 POP PUSH2 0x1027 DUP2 PUSH2 0x1003 JUMP JUMPDEST SWAP3 SWAP2 POP POP JUMP JUMPDEST PUSH2 0x1036 DUP2 PUSH2 0xAFE JUMP JUMPDEST DUP2 EQ PUSH2 0x1040 JUMPI PUSH0 PUSH0 REVERT JUMPDEST POP JUMP JUMPDEST PUSH0 DUP2 MLOAD SWAP1 POP PUSH2 0x1051 DUP2 PUSH2 0x102D JUMP JUMPDEST SWAP3 SWAP2 POP POP JUMP JUMPDEST PUSH0 DUP2 MLOAD SWAP1 POP PUSH2 0x1065 DUP2 PUSH2 0xA10 JUMP JUMPDEST SWAP3 SWAP2 POP POP JUMP JUMPDEST PUSH0 PUSH0 PUSH0 PUSH0 PUSH0 PUSH1 0xA0 DUP7 DUP9 SUB SLT ISZERO PUSH2 0x1084 JUMPI PUSH2 0x1083 PUSH2 0x9A9 JUMP JUMPDEST JUMPDEST PUSH0 PUSH2 0x1091 DUP9 DUP3 DUP10 ADD PUSH2 0x1019 JUMP JUMPDEST SWAP6 POP POP PUSH1 0x20 PUSH2 0x10A2 DUP9 DUP3 DUP10 ADD PUSH2 0x1043 JUMP JUMPDEST SWAP5 POP POP PUSH1 0x40 PUSH2 0x10B3 DUP9 DUP3 DUP10 ADD PUSH2 0x1057 JUMP JUMPDEST SWAP4 POP POP PUSH1 0x60 PUSH2 0x10C4 DUP9 DUP3 DUP10 ADD PUSH2 0x1057 JUMP JUMPDEST SWAP3 POP POP PUSH1 0x80 PUSH2 0x10D5 DUP9 DUP3 DUP10 ADD PUSH2 0x1019 JUMP JUMPDEST SWAP2 POP POP SWAP3 SWAP6 POP SWAP3 SWAP6 SWAP1 SWAP4 POP JUMP INVALID LOG2 PUSH5 0x6970667358 0x22 SLT KECCAK256 PUSH19 0xB0C356F24E073E35EB9FA25DD99D77807E9E0B GASPRICE SWAP15 PUSH1 0x64 0xEA CODESIZE EXTCODECOPY CALLF 0x18A9 BLOBHASH 0xD8 PUSH5 0x736F6C6343 STOP ADDMOD 0x1E STOP CALLER "
				},
				"gasEstimates": {
					"creation": {
						"codeDepositCost": "875200",
						"executionCost": "infinite",
						"totalCost": "infinite"
					},
					"external": {
						"amountMintDecrease(address,uint256)": "22855",
						"found(address)": "2916",
						"foundContractUser()": "2538",
						"fund()": "infinite",
						"getChainlinkDataFeedLatestAnswer()": "infinite",
						"getFund()": "infinite",
						"isFundSuccess()": "2584",
						"refund()": "infinite",
						"setERC20Address(address)": "26929",
						"transferOwnerShip(address)": "26884"
					},
					"internal": {
						"calculateUsdPrice(uint256)": "infinite"
					}
				},
				"methodIdentifiers": {
					"amountMintDecrease(address,uint256)": "0698ff51",
					"found(address)": "dc1f031a",
					"foundContractUser()": "1721681c",
					"fund()": "b60d4288",
					"getChainlinkDataFeedLatestAnswer()": "bea4dfb5",
					"getFund()": "8edd6eb6",
					"isFundSuccess()": "5863b06f",
					"refund()": "590e1ae3",
					"setERC20Address(address)": "41bec0d2",
					"transferOwnerShip(address)": "8863dd1a"
				}
			},
			"storageLayout": {
				"storage": [
					{
						"astId": 53,
						"contract": "my_contracts/FundMe.sol:FundMe",
						"label": "funderMap",
						"offset": 0,
						"slot": "0",
						"type": "t_mapping(t_address,t_uint256)"
					},
					{
						"astId": 74,
						"contract": "my_contracts/FundMe.sol:FundMe",
						"label": "MAXMUM_VALUE",
						"offset": 0,
						"slot": "1",
						"type": "t_uint256"
					},
					{
						"astId": 76,
						"contract": "my_contracts/FundMe.sol:FundMe",
						"label": "deploymentTimestamp",
						"offset": 0,
						"slot": "2",
						"type": "t_uint256"
					},
					{
						"astId": 78,
						"contract": "my_contracts/FundMe.sol:FundMe",
						"label": "lockTime",
						"offset": 0,
						"slot": "3",
						"type": "t_uint256"
					},
					{
						"astId": 80,
						"contract": "my_contracts/FundMe.sol:FundMe",
						"label": "erc20Addr",
						"offset": 0,
						"slot": "4",
						"type": "t_address"
					},
					{
						"astId": 83,
						"contract": "my_contracts/FundMe.sol:FundMe",
						"label": "isFundSuccess",
						"offset": 20,
						"slot": "4",
						"type": "t_bool"
					},
					{
						"astId": 86,
						"contract": "my_contracts/FundMe.sol:FundMe",
						"label": "dataFeed",
						"offset": 0,
						"slot": "5",
						"type": "t_contract(AggregatorV3Interface)45"
					},
					{
						"astId": 88,
						"contract": "my_contracts/FundMe.sol:FundMe",
						"label": "owner",
						"offset": 0,
						"slot": "6",
						"type": "t_address"
					}
				],
				"types": {
					"t_address": {
						"encoding": "inplace",
						"label": "address",
						"numberOfBytes": "20"
					},
					"t_bool": {
						"encoding": "inplace",
						"label": "bool",
						"numberOfBytes": "1"
					},
					"t_contract(AggregatorV3Interface)45": {
						"encoding": "inplace",
						"label": "contract AggregatorV3Interface",
						"numberOfBytes": "20"
					},
					"t_mapping(t_address,t_uint256)": {
						"encoding": "mapping",
						"key": "t_address",
						"label": "mapping(address => uint256)",
						"numberOfBytes": "32",
						"value": "t_uint256"
					},
					"t_uint256": {
						"encoding": "inplace",
						"label": "uint256",
						"numberOfBytes": "32"
					}
				}
			},
			"userdoc": {
				"kind": "user",
				"methods": {},
				"version": 1
			}
		}
	}
}