{
	"data": {
		"bytecode": {
			"linkReferences": {},
			"object": "60806040526409502f9000600155348015610018575f5ffd5b50604051610f3b380380610f3b833981810160405281019061003a9190610126565b3360055f6101000a81548173ffffffffffffffffffffffffffffffffffffffff021916908373ffffffffffffffffffffffffffffffffffffffff16021790555060055f9054906101000a900473ffffffffffffffffffffffffffffffffffffffff1660045f6101000a81548173ffffffffffffffffffffffffffffffffffffffff021916908373ffffffffffffffffffffffffffffffffffffffff160217905550426002819055508060038190555050610151565b5f5ffd5b5f819050919050565b610105816100f3565b811461010f575f5ffd5b50565b5f81519050610120816100fc565b92915050565b5f6020828403121561013b5761013a6100ef565b5b5f61014884828501610112565b91505092915050565b610ddd8061015e5f395ff3fe60806040526004361061006f575f3560e01c80638edd6eb61161004d5780638edd6eb6146100db578063b60d4288146100f1578063bea4dfb5146100fb578063dc1f031a146101255761006f565b80631721681c14610073578063590e1ae31461009d5780638863dd1a146100b3575b5f5ffd5b34801561007e575f5ffd5b50610087610161565b604051610094919061079a565b60405180910390f35b3480156100a8575f5ffd5b506100b1610189565b005b3480156100be575f5ffd5b506100d960048036038101906100d491906107e1565b61035c565b005b3480156100e6575f5ffd5b506100ef61042e565b005b6100f961059a565b005b348015610106575f5ffd5b5061010f610679565b60405161011c9190610824565b60405180910390f35b348015610130575f5ffd5b5061014b600480360381019061014691906107e1565b610716565b6040516101589190610855565b60405180910390f35b5f60055f9054906101000a900473ffffffffffffffffffffffffffffffffffffffff16905090565b60015447106101cd576040517f08c379a00000000000000000000000000000000000000000000000000000000081526004016101c4906108c8565b60405180910390fd5b6003546002546101dd9190610913565b42101561021f576040517f08c379a000000000000000000000000000000000000000000000000000000000815260040161021690610969565b60405180910390fd5b5f61022933610716565b90505f810361026d576040517f08c379a0000000000000000000000000000000000000000000000000000000008152600401610264906109d1565b60405180910390fd5b5f3373ffffffffffffffffffffffffffffffffffffffff168260405161029290610a19565b5f6040518083038185875af1925050503d805f81146102cc576040519150601f19603f3d011682016040523d82523d5f602084013e6102d1565b606091505b50508091505080610317576040517f08c379a000000000000000000000000000000000000000000000000000000000815260040161030e90610a77565b60405180910390fd5b5f5f5f3373ffffffffffffffffffffffffffffffffffffffff1673ffffffffffffffffffffffffffffffffffffffff1681526020019081526020015f20819055505050565b60055f9054906101000a900473ffffffffffffffffffffffffffffffffffffffff1673ffffffffffffffffffffffffffffffffffffffff163373ffffffffffffffffffffffffffffffffffffffff16146103eb576040517f08c379a00000000000000000000000000000000000000000000000000000000081526004016103e290610adf565b60405180910390fd5b8060055f6101000a81548173ffffffffffffffffffffffffffffffffffffffff021916908373ffffffffffffffffffffffffffffffffffffffff16021790555050565b60055f9054906101000a900473ffffffffffffffffffffffffffffffffffffffff1673ffffffffffffffffffffffffffffffffffffffff163373ffffffffffffffffffffffffffffffffffffffff16146104bd576040517f08c379a00000000000000000000000000000000000000000000000000000000081526004016104b490610adf565b60405180910390fd5b600154471015610502576040517f08c379a00000000000000000000000000000000000000000000000000000000081526004016104f990610b47565b60405180910390fd5b6003546002546105129190610913565b421015610554576040517f08c379a000000000000000000000000000000000000000000000000000000000815260040161054b90610baf565b60405180910390fd5b3373ffffffffffffffffffffffffffffffffffffffff166108fc4790811502906040515f60405180830381858888f19350505050158015610597573d5f5f3e3d5ffd5b50565b68056bc75e2d6310000034106105e5576040517f08c379a00000000000000000000000000000000000000000000000000000000081526004016105dc90610c17565b60405180910390fd5b6003546002546105f59190610913565b4210610636576040517f08c379a000000000000000000000000000000000000000000000000000000000815260040161062d90610c7f565b60405180910390fd5b345f5f3373ffffffffffffffffffffffffffffffffffffffff1673ffffffffffffffffffffffffffffffffffffffff1681526020019081526020015f2081905550565b5f5f60045f9054906101000a900473ffffffffffffffffffffffffffffffffffffffff1673ffffffffffffffffffffffffffffffffffffffff1663feaf968c6040518163ffffffff1660e01b815260040160a060405180830381865afa1580156106e5573d5f5f3e3d5ffd5b505050506040513d601f19601f820116820180604052508101906107099190610d30565b5050509150508091505090565b5f5f5f8373ffffffffffffffffffffffffffffffffffffffff1673ffffffffffffffffffffffffffffffffffffffff1681526020019081526020015f20549050919050565b5f73ffffffffffffffffffffffffffffffffffffffff82169050919050565b5f6107848261075b565b9050919050565b6107948161077a565b82525050565b5f6020820190506107ad5f83018461078b565b92915050565b5f5ffd5b6107c08161077a565b81146107ca575f5ffd5b50565b5f813590506107db816107b7565b92915050565b5f602082840312156107f6576107f56107b3565b5b5f610803848285016107cd565b91505092915050565b5f819050919050565b61081e8161080c565b82525050565b5f6020820190506108375f830184610815565b92915050565b5f819050919050565b61084f8161083d565b82525050565b5f6020820190506108685f830184610846565b92915050565b5f82825260208201905092915050565b7f74617267657420697320726561636865640000000000000000000000000000005f82015250565b5f6108b260118361086e565b91506108bd8261087e565b602082019050919050565b5f6020820190508181035f8301526108df816108a6565b9050919050565b7f4e487b71000000000000000000000000000000000000000000000000000000005f52601160045260245ffd5b5f61091d8261083d565b91506109288361083d565b92508282019050808211156109405761093f6108e6565b5b92915050565b50565b5f6109545f8361086e565b915061095f82610946565b5f82019050919050565b5f6020820190508181035f83015261098081610949565b9050919050565b7f7468657265206973206e6f2066756e6420666f7220796f7500000000000000005f82015250565b5f6109bb60188361086e565b91506109c682610987565b602082019050919050565b5f6020820190508181035f8301526109e8816109af565b9050919050565b5f81905092915050565b5f610a045f836109ef565b9150610a0f82610946565b5f82019050919050565b5f610a23826109f9565b9150819050919050565b7f7472616e73666572206973206661696c656400000000000000000000000000005f82015250565b5f610a6160128361086e565b9150610a6c82610a2d565b602082019050919050565b5f6020820190508181035f830152610a8e81610a55565b9050919050565b7f796f7520646f6e27742068617665207065726d697373696f6e000000000000005f82015250565b5f610ac960198361086e565b9150610ad482610a95565b602082019050919050565b5f6020820190508181035f830152610af681610abd565b9050919050565b7f746172676574206973206e6f74207265616368656400000000000000000000005f82015250565b5f610b3160158361086e565b9150610b3c82610afd565b602082019050919050565b5f6020820190508181035f830152610b5e81610b25565b9050919050565b7f77696e646f77206973206e6f7420636c6f7365640000000000000000000000005f82015250565b5f610b9960148361086e565b9150610ba482610b65565b602082019050919050565b5f6020820190508181035f830152610bc681610b8d565b9050919050565b7f6974277320746f6f2000000000000000000000000000000000000000000000005f82015250565b5f610c0160098361086e565b9150610c0c82610bcd565b602082019050919050565b5f6020820190508181035f830152610c2e81610bf5565b9050919050565b7f77696e646f7720697320636c6f736564000000000000000000000000000000005f82015250565b5f610c6960108361086e565b9150610c7482610c35565b602082019050919050565b5f6020820190508181035f830152610c9681610c5d565b9050919050565b5f69ffffffffffffffffffff82169050919050565b610cbb81610c9d565b8114610cc5575f5ffd5b50565b5f81519050610cd681610cb2565b92915050565b610ce58161080c565b8114610cef575f5ffd5b50565b5f81519050610d0081610cdc565b92915050565b610d0f8161083d565b8114610d19575f5ffd5b50565b5f81519050610d2a81610d06565b92915050565b5f5f5f5f5f60a08688031215610d4957610d486107b3565b5b5f610d5688828901610cc8565b9550506020610d6788828901610cf2565b9450506040610d7888828901610d1c565b9350506060610d8988828901610d1c565b9250506080610d9a88828901610cc8565b915050929550929590935056fea2646970667358221220f70603176fc86363eea75991ce376db6a1b1170eac844cc32932233b017ce69964736f6c634300081e0033",
			"opcodes": "PUSH1 0x80 PUSH1 0x40 MSTORE PUSH5 0x9502F9000 PUSH1 0x1 SSTORE CALLVALUE DUP1 ISZERO PUSH2 0x18 JUMPI PUSH0 PUSH0 REVERT JUMPDEST POP PUSH1 0x40 MLOAD PUSH2 0xF3B CODESIZE SUB DUP1 PUSH2 0xF3B DUP4 CODECOPY DUP2 DUP2 ADD PUSH1 0x40 MSTORE DUP2 ADD SWAP1 PUSH2 0x3A SWAP2 SWAP1 PUSH2 0x126 JUMP JUMPDEST CALLER PUSH1 0x5 PUSH0 PUSH2 0x100 EXP DUP2 SLOAD DUP2 PUSH20 0xFFFFFFFFFFFFFFFFFFFFFFFFFFFFFFFFFFFFFFFF MUL NOT AND SWAP1 DUP4 PUSH20 0xFFFFFFFFFFFFFFFFFFFFFFFFFFFFFFFFFFFFFFFF AND MUL OR SWAP1 SSTORE POP PUSH1 0x5 PUSH0 SWAP1 SLOAD SWAP1 PUSH2 0x100 EXP SWAP1 DIV PUSH20 0xFFFFFFFFFFFFFFFFFFFFFFFFFFFFFFFFFFFFFFFF AND PUSH1 0x4 PUSH0 PUSH2 0x100 EXP DUP2 SLOAD DUP2 PUSH20 0xFFFFFFFFFFFFFFFFFFFFFFFFFFFFFFFFFFFFFFFF MUL NOT AND SWAP1 DUP4 PUSH20 0xFFFFFFFFFFFFFFFFFFFFFFFFFFFFFFFFFFFFFFFF AND MUL OR SWAP1 SSTORE POP TIMESTAMP PUSH1 0x2 DUP2 SWAP1 SSTORE POP DUP1 PUSH1 0x3 DUP2 SWAP1 SSTORE POP POP PUSH2 0x151 JUMP JUMPDEST PUSH0 PUSH0 REVERT JUMPDEST PUSH0 DUP2 SWAP1 POP SWAP2 SWAP1 POP JUMP JUMPDEST PUSH2 0x105 DUP2 PUSH2 0xF3 JUMP JUMPDEST DUP2 EQ PUSH2 0x10F JUMPI PUSH0 PUSH0 REVERT JUMPDEST POP JUMP JUMPDEST PUSH0 DUP2 MLOAD SWAP1 POP PUSH2 0x120 DUP2 PUSH2 0xFC JUMP JUMPDEST SWAP3 SWAP2 POP POP JUMP JUMPDEST PUSH0 PUSH1 0x20 DUP3 DUP5 SUB SLT ISZERO PUSH2 0x13B JUMPI PUSH2 0x13A PUSH2 0xEF JUMP JUMPDEST JUMPDEST PUSH0 PUSH2 0x148 DUP5 DUP3 DUP6 ADD PUSH2 0x112 JUMP JUMPDEST SWAP2 POP POP SWAP3 SWAP2 POP POP JUMP JUMPDEST PUSH2 0xDDD DUP1 PUSH2 0x15E PUSH0 CODECOPY PUSH0 RETURN INVALID PUSH1 0x80 PUSH1 0x40 MSTORE PUSH1 0x4 CALLDATASIZE LT PUSH2 0x6F JUMPI PUSH0 CALLDATALOAD PUSH1 0xE0 SHR DUP1 PUSH4 0x8EDD6EB6 GT PUSH2 0x4D JUMPI DUP1 PUSH4 0x8EDD6EB6 EQ PUSH2 0xDB JUMPI DUP1 PUSH4 0xB60D4288 EQ PUSH2 0xF1 JUMPI DUP1 PUSH4 0xBEA4DFB5 EQ PUSH2 0xFB JUMPI DUP1 PUSH4 0xDC1F031A EQ PUSH2 0x125 JUMPI PUSH2 0x6F JUMP JUMPDEST DUP1 PUSH4 0x1721681C EQ PUSH2 0x73 JUMPI DUP1 PUSH4 0x590E1AE3 EQ PUSH2 0x9D JUMPI DUP1 PUSH4 0x8863DD1A EQ PUSH2 0xB3 JUMPI JUMPDEST PUSH0 PUSH0 REVERT JUMPDEST CALLVALUE DUP1 ISZERO PUSH2 0x7E JUMPI PUSH0 PUSH0 REVERT JUMPDEST POP PUSH2 0x87 PUSH2 0x161 JUMP JUMPDEST PUSH1 0x40 MLOAD PUSH2 0x94 SWAP2 SWAP1 PUSH2 0x79A JUMP JUMPDEST PUSH1 0x40 MLOAD DUP1 SWAP2 SUB SWAP1 RETURN JUMPDEST CALLVALUE DUP1 ISZERO PUSH2 0xA8 JUMPI PUSH0 PUSH0 REVERT JUMPDEST POP PUSH2 0xB1 PUSH2 0x189 JUMP JUMPDEST STOP JUMPDEST CALLVALUE DUP1 ISZERO PUSH2 0xBE JUMPI PUSH0 PUSH0 REVERT JUMPDEST POP PUSH2 0xD9 PUSH1 0x4 DUP1 CALLDATASIZE SUB DUP2 ADD SWAP1 PUSH2 0xD4 SWAP2 SWAP1 PUSH2 0x7E1 JUMP JUMPDEST PUSH2 0x35C JUMP JUMPDEST STOP JUMPDEST CALLVALUE DUP1 ISZERO PUSH2 0xE6 JUMPI PUSH0 PUSH0 REVERT JUMPDEST POP PUSH2 0xEF PUSH2 0x42E JUMP JUMPDEST STOP JUMPDEST PUSH2 0xF9 PUSH2 0x59A JUMP JUMPDEST STOP JUMPDEST CALLVALUE DUP1 ISZERO PUSH2 0x106 JUMPI PUSH0 PUSH0 REVERT JUMPDEST POP PUSH2 0x10F PUSH2 0x679 JUMP JUMPDEST PUSH1 0x40 MLOAD PUSH2 0x11C SWAP2 SWAP1 PUSH2 0x824 JUMP JUMPDEST PUSH1 0x40 MLOAD DUP1 SWAP2 SUB SWAP1 RETURN JUMPDEST CALLVALUE DUP1 ISZERO PUSH2 0x130 JUMPI PUSH0 PUSH0 REVERT JUMPDEST POP PUSH2 0x14B PUSH1 0x4 DUP1 CALLDATASIZE SUB DUP2 ADD SWAP1 PUSH2 0x146 SWAP2 SWAP1 PUSH2 0x7E1 JUMP JUMPDEST PUSH2 0x716 JUMP JUMPDEST PUSH1 0x40 MLOAD PUSH2 0x158 SWAP2 SWAP1 PUSH2 0x855 JUMP JUMPDEST PUSH1 0x40 MLOAD DUP1 SWAP2 SUB SWAP1 RETURN JUMPDEST PUSH0 PUSH1 0x5 PUSH0 SWAP1 SLOAD SWAP1 PUSH2 0x100 EXP SWAP1 DIV PUSH20 0xFFFFFFFFFFFFFFFFFFFFFFFFFFFFFFFFFFFFFFFF AND SWAP1 POP SWAP1 JUMP JUMPDEST PUSH1 0x1 SLOAD SELFBALANCE LT PUSH2 0x1CD JUMPI PUSH1 0x40 MLOAD PUSH32 0x8C379A000000000000000000000000000000000000000000000000000000000 DUP2 MSTORE PUSH1 0x4 ADD PUSH2 0x1C4 SWAP1 PUSH2 0x8C8 JUMP JUMPDEST PUSH1 0x40 MLOAD DUP1 SWAP2 SUB SWAP1 REVERT JUMPDEST PUSH1 0x3 SLOAD PUSH1 0x2 SLOAD PUSH2 0x1DD SWAP2 SWAP1 PUSH2 0x913 JUMP JUMPDEST TIMESTAMP LT ISZERO PUSH2 0x21F JUMPI PUSH1 0x40 MLOAD PUSH32 0x8C379A000000000000000000000000000000000000000000000000000000000 DUP2 MSTORE PUSH1 0x4 ADD PUSH2 0x216 SWAP1 PUSH2 0x969 JUMP JUMPDEST PUSH1 0x40 MLOAD DUP1 SWAP2 SUB SWAP1 REVERT JUMPDEST PUSH0 PUSH2 0x229 CALLER PUSH2 0x716 JUMP JUMPDEST SWAP1 POP PUSH0 DUP2 SUB PUSH2 0x26D JUMPI PUSH1 0x40 MLOAD PUSH32 0x8C379A000000000000000000000000000000000000000000000000000000000 DUP2 MSTORE PUSH1 0x4 ADD PUSH2 0x264 SWAP1 PUSH2 0x9D1 JUMP JUMPDEST PUSH1 0x40 MLOAD DUP1 SWAP2 SUB SWAP1 REVERT JUMPDEST PUSH0 CALLER PUSH20 0xFFFFFFFFFFFFFFFFFFFFFFFFFFFFFFFFFFFFFFFF AND DUP3 PUSH1 0x40 MLOAD PUSH2 0x292 SWAP1 PUSH2 0xA19 JUMP JUMPDEST PUSH0 PUSH1 0x40 MLOAD DUP1 DUP4 SUB DUP2 DUP6 DUP8 GAS CALL SWAP3 POP POP POP RETURNDATASIZE DUP1 PUSH0 DUP2 EQ PUSH2 0x2CC JUMPI PUSH1 0x40 MLOAD SWAP2 POP PUSH1 0x1F NOT PUSH1 0x3F RETURNDATASIZE ADD AND DUP3 ADD PUSH1 0x40 MSTORE RETURNDATASIZE DUP3 MSTORE RETURNDATASIZE PUSH0 PUSH1 0x20 DUP5 ADD RETURNDATACOPY PUSH2 0x2D1 JUMP JUMPDEST PUSH1 0x60 SWAP2 POP JUMPDEST POP POP DUP1 SWAP2 POP POP DUP1 PUSH2 0x317 JUMPI PUSH1 0x40 MLOAD PUSH32 0x8C379A000000000000000000000000000000000000000000000000000000000 DUP2 MSTORE PUSH1 0x4 ADD PUSH2 0x30E SWAP1 PUSH2 0xA77 JUMP JUMPDEST PUSH1 0x40 MLOAD DUP1 SWAP2 SUB SWAP1 REVERT JUMPDEST PUSH0 PUSH0 PUSH0 CALLER PUSH20 0xFFFFFFFFFFFFFFFFFFFFFFFFFFFFFFFFFFFFFFFF AND PUSH20 0xFFFFFFFFFFFFFFFFFFFFFFFFFFFFFFFFFFFFFFFF AND DUP2 MSTORE PUSH1 0x20 ADD SWAP1 DUP2 MSTORE PUSH1 0x20 ADD PUSH0 KECCAK256 DUP2 SWAP1 SSTORE POP POP POP JUMP JUMPDEST PUSH1 0x5 PUSH0 SWAP1 SLOAD SWAP1 PUSH2 0x100 EXP SWAP1 DIV PUSH20 0xFFFFFFFFFFFFFFFFFFFFFFFFFFFFFFFFFFFFFFFF AND PUSH20 0xFFFFFFFFFFFFFFFFFFFFFFFFFFFFFFFFFFFFFFFF AND CALLER PUSH20 0xFFFFFFFFFFFFFFFFFFFFFFFFFFFFFFFFFFFFFFFF AND EQ PUSH2 0x3EB JUMPI PUSH1 0x40 MLOAD PUSH32 0x8C379A000000000000000000000000000000000000000000000000000000000 DUP2 MSTORE PUSH1 0x4 ADD PUSH2 0x3E2 SWAP1 PUSH2 0xADF JUMP JUMPDEST PUSH1 0x40 MLOAD DUP1 SWAP2 SUB SWAP1 REVERT JUMPDEST DUP1 PUSH1 0x5 PUSH0 PUSH2 0x100 EXP DUP2 SLOAD DUP2 PUSH20 0xFFFFFFFFFFFFFFFFFFFFFFFFFFFFFFFFFFFFFFFF MUL NOT AND SWAP1 DUP4 PUSH20 0xFFFFFFFFFFFFFFFFFFFFFFFFFFFFFFFFFFFFFFFF AND MUL OR SWAP1 SSTORE POP POP JUMP JUMPDEST PUSH1 0x5 PUSH0 SWAP1 SLOAD SWAP1 PUSH2 0x100 EXP SWAP1 DIV PUSH20 0xFFFFFFFFFFFFFFFFFFFFFFFFFFFFFFFFFFFFFFFF AND PUSH20 0xFFFFFFFFFFFFFFFFFFFFFFFFFFFFFFFFFFFFFFFF AND CALLER PUSH20 0xFFFFFFFFFFFFFFFFFFFFFFFFFFFFFFFFFFFFFFFF AND EQ PUSH2 0x4BD JUMPI PUSH1 0x40 MLOAD PUSH32 0x8C379A000000000000000000000000000000000000000000000000000000000 DUP2 MSTORE PUSH1 0x4 ADD PUSH2 0x4B4 SWAP1 PUSH2 0xADF JUMP JUMPDEST PUSH1 0x40 MLOAD DUP1 SWAP2 SUB SWAP1 REVERT JUMPDEST PUSH1 0x1 SLOAD SELFBALANCE LT ISZERO PUSH2 0x502 JUMPI PUSH1 0x40 MLOAD PUSH32 0x8C379A000000000000000000000000000000000000000000000000000000000 DUP2 MSTORE PUSH1 0x4 ADD PUSH2 0x4F9 SWAP1 PUSH2 0xB47 JUMP JUMPDEST PUSH1 0x40 MLOAD DUP1 SWAP2 SUB SWAP1 REVERT JUMPDEST PUSH1 0x3 SLOAD PUSH1 0x2 SLOAD PUSH2 0x512 SWAP2 SWAP1 PUSH2 0x913 JUMP JUMPDEST TIMESTAMP LT ISZERO PUSH2 0x554 JUMPI PUSH1 0x40 MLOAD PUSH32 0x8C379A000000000000000000000000000000000000000000000000000000000 DUP2 MSTORE PUSH1 0x4 ADD PUSH2 0x54B SWAP1 PUSH2 0xBAF JUMP JUMPDEST PUSH1 0x40 MLOAD DUP1 SWAP2 SUB SWAP1 REVERT JUMPDEST CALLER PUSH20 0xFFFFFFFFFFFFFFFFFFFFFFFFFFFFFFFFFFFFFFFF AND PUSH2 0x8FC SELFBALANCE SWAP1 DUP2 ISZERO MUL SWAP1 PUSH1 0x40 MLOAD PUSH0 PUSH1 0x40 MLOAD DUP1 DUP4 SUB DUP2 DUP6 DUP9 DUP9 CALL SWAP4 POP POP POP POP ISZERO DUP1 ISZERO PUSH2 0x597 JUMPI RETURNDATASIZE PUSH0 PUSH0 RETURNDATACOPY RETURNDATASIZE PUSH0 REVERT JUMPDEST POP JUMP JUMPDEST PUSH9 0x56BC75E2D63100000 CALLVALUE LT PUSH2 0x5E5 JUMPI PUSH1 0x40 MLOAD PUSH32 0x8C379A000000000000000000000000000000000000000000000000000000000 DUP2 MSTORE PUSH1 0x4 ADD PUSH2 0x5DC SWAP1 PUSH2 0xC17 JUMP JUMPDEST PUSH1 0x40 MLOAD DUP1 SWAP2 SUB SWAP1 REVERT JUMPDEST PUSH1 0x3 SLOAD PUSH1 0x2 SLOAD PUSH2 0x5F5 SWAP2 SWAP1 PUSH2 0x913 JUMP JUMPDEST TIMESTAMP LT PUSH2 0x636 JUMPI PUSH1 0x40 MLOAD PUSH32 0x8C379A000000000000000000000000000000000000000000000000000000000 DUP2 MSTORE PUSH1 0x4 ADD PUSH2 0x62D SWAP1 PUSH2 0xC7F JUMP JUMPDEST PUSH1 0x40 MLOAD DUP1 SWAP2 SUB SWAP1 REVERT JUMPDEST CALLVALUE PUSH0 PUSH0 CALLER PUSH20 0xFFFFFFFFFFFFFFFFFFFFFFFFFFFFFFFFFFFFFFFF AND PUSH20 0xFFFFFFFFFFFFFFFFFFFFFFFFFFFFFFFFFFFFFFFF AND DUP2 MSTORE PUSH1 0x20 ADD SWAP1 DUP2 MSTORE PUSH1 0x20 ADD PUSH0 KECCAK256 DUP2 SWAP1 SSTORE POP JUMP JUMPDEST PUSH0 PUSH0 PUSH1 0x4 PUSH0 SWAP1 SLOAD SWAP1 PUSH2 0x100 EXP SWAP1 DIV PUSH20 0xFFFFFFFFFFFFFFFFFFFFFFFFFFFFFFFFFFFFFFFF AND PUSH20 0xFFFFFFFFFFFFFFFFFFFFFFFFFFFFFFFFFFFFFFFF AND PUSH4 0xFEAF968C PUSH1 0x40 MLOAD DUP2 PUSH4 0xFFFFFFFF AND PUSH1 0xE0 SHL DUP2 MSTORE PUSH1 0x4 ADD PUSH1 0xA0 PUSH1 0x40 MLOAD DUP1 DUP4 SUB DUP2 DUP7 GAS STATICCALL ISZERO DUP1 ISZERO PUSH2 0x6E5 JUMPI RETURNDATASIZE PUSH0 PUSH0 RETURNDATACOPY RETURNDATASIZE PUSH0 REVERT JUMPDEST POP POP POP POP PUSH1 0x40 MLOAD RETURNDATASIZE PUSH1 0x1F NOT PUSH1 0x1F DUP3 ADD AND DUP3 ADD DUP1 PUSH1 0x40 MSTORE POP DUP2 ADD SWAP1 PUSH2 0x709 SWAP2 SWAP1 PUSH2 0xD30 JUMP JUMPDEST POP POP POP SWAP2 POP POP DUP1 SWAP2 POP POP SWAP1 JUMP JUMPDEST PUSH0 PUSH0 PUSH0 DUP4 PUSH20 0xFFFFFFFFFFFFFFFFFFFFFFFFFFFFFFFFFFFFFFFF AND PUSH20 0xFFFFFFFFFFFFFFFFFFFFFFFFFFFFFFFFFFFFFFFF AND DUP2 MSTORE PUSH1 0x20 ADD SWAP1 DUP2 MSTORE PUSH1 0x20 ADD PUSH0 KECCAK256 SLOAD SWAP1 POP SWAP2 SWAP1 POP JUMP JUMPDEST PUSH0 PUSH20 0xFFFFFFFFFFFFFFFFFFFFFFFFFFFFFFFFFFFFFFFF DUP3 AND SWAP1 POP SWAP2 SWAP1 POP JUMP JUMPDEST PUSH0 PUSH2 0x784 DUP3 PUSH2 0x75B JUMP JUMPDEST SWAP1 POP SWAP2 SWAP1 POP JUMP JUMPDEST PUSH2 0x794 DUP2 PUSH2 0x77A JUMP JUMPDEST DUP3 MSTORE POP POP JUMP JUMPDEST PUSH0 PUSH1 0x20 DUP3 ADD SWAP1 POP PUSH2 0x7AD PUSH0 DUP4 ADD DUP5 PUSH2 0x78B JUMP JUMPDEST SWAP3 SWAP2 POP POP JUMP JUMPDEST PUSH0 PUSH0 REVERT JUMPDEST PUSH2 0x7C0 DUP2 PUSH2 0x77A JUMP JUMPDEST DUP2 EQ PUSH2 0x7CA JUMPI PUSH0 PUSH0 REVERT JUMPDEST POP JUMP JUMPDEST PUSH0 DUP2 CALLDATALOAD SWAP1 POP PUSH2 0x7DB DUP2 PUSH2 0x7B7 JUMP JUMPDEST SWAP3 SWAP2 POP POP JUMP JUMPDEST PUSH0 PUSH1 0x20 DUP3 DUP5 SUB SLT ISZERO PUSH2 0x7F6 JUMPI PUSH2 0x7F5 PUSH2 0x7B3 JUMP JUMPDEST JUMPDEST PUSH0 PUSH2 0x803 DUP5 DUP3 DUP6 ADD PUSH2 0x7CD JUMP JUMPDEST SWAP2 POP POP SWAP3 SWAP2 POP POP JUMP JUMPDEST PUSH0 DUP2 SWAP1 POP SWAP2 SWAP1 POP JUMP JUMPDEST PUSH2 0x81E DUP2 PUSH2 0x80C JUMP JUMPDEST DUP3 MSTORE POP POP JUMP JUMPDEST PUSH0 PUSH1 0x20 DUP3 ADD SWAP1 POP PUSH2 0x837 PUSH0 DUP4 ADD DUP5 PUSH2 0x815 JUMP JUMPDEST SWAP3 SWAP2 POP POP JUMP JUMPDEST PUSH0 DUP2 SWAP1 POP SWAP2 SWAP1 POP JUMP JUMPDEST PUSH2 0x84F DUP2 PUSH2 0x83D JUMP JUMPDEST DUP3 MSTORE POP POP JUMP JUMPDEST PUSH0 PUSH1 0x20 DUP3 ADD SWAP1 POP PUSH2 0x868 PUSH0 DUP4 ADD DUP5 PUSH2 0x846 JUMP JUMPDEST SWAP3 SWAP2 POP POP JUMP JUMPDEST PUSH0 DUP3 DUP3 MSTORE PUSH1 0x20 DUP3 ADD SWAP1 POP SWAP3 SWAP2 POP POP JUMP JUMPDEST PUSH32 0x7461726765742069732072656163686564000000000000000000000000000000 PUSH0 DUP3 ADD MSTORE POP JUMP JUMPDEST PUSH0 PUSH2 0x8B2 PUSH1 0x11 DUP4 PUSH2 0x86E JUMP JUMPDEST SWAP2 POP PUSH2 0x8BD DUP3 PUSH2 0x87E JUMP JUMPDEST PUSH1 0x20 DUP3 ADD SWAP1 POP SWAP2 SWAP1 POP JUMP JUMPDEST PUSH0 PUSH1 0x20 DUP3 ADD SWAP1 POP DUP2 DUP2 SUB PUSH0 DUP4 ADD MSTORE PUSH2 0x8DF DUP2 PUSH2 0x8A6 JUMP JUMPDEST SWAP1 POP SWAP2 SWAP1 POP JUMP JUMPDEST PUSH32 0x4E487B7100000000000000000000000000000000000000000000000000000000 PUSH0 MSTORE PUSH1 0x11 PUSH1 0x4 MSTORE PUSH1 0x24 PUSH0 REVERT JUMPDEST PUSH0 PUSH2 0x91D DUP3 PUSH2 0x83D JUMP JUMPDEST SWAP2 POP PUSH2 0x928 DUP4 PUSH2 0x83D JUMP JUMPDEST SWAP3 POP DUP3 DUP3 ADD SWAP1 POP DUP1 DUP3 GT ISZERO PUSH2 0x940 JUMPI PUSH2 0x93F PUSH2 0x8E6 JUMP JUMPDEST JUMPDEST SWAP3 SWAP2 POP POP JUMP JUMPDEST POP JUMP JUMPDEST PUSH0 PUSH2 0x954 PUSH0 DUP4 PUSH2 0x86E JUMP JUMPDEST SWAP2 POP PUSH2 0x95F DUP3 PUSH2 0x946 JUMP JUMPDEST PUSH0 DUP3 ADD SWAP1 POP SWAP2 SWAP1 POP JUMP JUMPDEST PUSH0 PUSH1 0x20 DUP3 ADD SWAP1 POP DUP2 DUP2 SUB PUSH0 DUP4 ADD MSTORE PUSH2 0x980 DUP2 PUSH2 0x949 JUMP JUMPDEST SWAP1 POP SWAP2 SWAP1 POP JUMP JUMPDEST PUSH32 0x7468657265206973206E6F2066756E6420666F7220796F750000000000000000 PUSH0 DUP3 ADD MSTORE POP JUMP JUMPDEST PUSH0 PUSH2 0x9BB PUSH1 0x18 DUP4 PUSH2 0x86E JUMP JUMPDEST SWAP2 POP PUSH2 0x9C6 DUP3 PUSH2 0x987 JUMP JUMPDEST PUSH1 0x20 DUP3 ADD SWAP1 POP SWAP2 SWAP1 POP JUMP JUMPDEST PUSH0 PUSH1 0x20 DUP3 ADD SWAP1 POP DUP2 DUP2 SUB PUSH0 DUP4 ADD MSTORE PUSH2 0x9E8 DUP2 PUSH2 0x9AF JUMP JUMPDEST SWAP1 POP SWAP2 SWAP1 POP JUMP JUMPDEST PUSH0 DUP2 SWAP1 POP SWAP3 SWAP2 POP POP JUMP JUMPDEST PUSH0 PUSH2 0xA04 PUSH0 DUP4 PUSH2 0x9EF JUMP JUMPDEST SWAP2 POP PUSH2 0xA0F DUP3 PUSH2 0x946 JUMP JUMPDEST PUSH0 DUP3 ADD SWAP1 POP SWAP2 SWAP1 POP JUMP JUMPDEST PUSH0 PUSH2 0xA23 DUP3 PUSH2 0x9F9 JUMP JUMPDEST SWAP2 POP DUP2 SWAP1 POP SWAP2 SWAP1 POP JUMP JUMPDEST PUSH32 0x7472616E73666572206973206661696C65640000000000000000000000000000 PUSH0 DUP3 ADD MSTORE POP JUMP JUMPDEST PUSH0 PUSH2 0xA61 PUSH1 0x12 DUP4 PUSH2 0x86E JUMP JUMPDEST SWAP2 POP PUSH2 0xA6C DUP3 PUSH2 0xA2D JUMP JUMPDEST PUSH1 0x20 DUP3 ADD SWAP1 POP SWAP2 SWAP1 POP JUMP JUMPDEST PUSH0 PUSH1 0x20 DUP3 ADD SWAP1 POP DUP2 DUP2 SUB PUSH0 DUP4 ADD MSTORE PUSH2 0xA8E DUP2 PUSH2 0xA55 JUMP JUMPDEST SWAP1 POP SWAP2 SWAP1 POP JUMP JUMPDEST PUSH32 0x796F7520646F6E27742068617665207065726D697373696F6E00000000000000 PUSH0 DUP3 ADD MSTORE POP JUMP JUMPDEST PUSH0 PUSH2 0xAC9 PUSH1 0x19 DUP4 PUSH2 0x86E JUMP JUMPDEST SWAP2 POP PUSH2 0xAD4 DUP3 PUSH2 0xA95 JUMP JUMPDEST PUSH1 0x20 DUP3 ADD SWAP1 POP SWAP2 SWAP1 POP JUMP JUMPDEST PUSH0 PUSH1 0x20 DUP3 ADD SWAP1 POP DUP2 DUP2 SUB PUSH0 DUP4 ADD MSTORE PUSH2 0xAF6 DUP2 PUSH2 0xABD JUMP JUMPDEST SWAP1 POP SWAP2 SWAP1 POP JUMP JUMPDEST PUSH32 0x746172676574206973206E6F7420726561636865640000000000000000000000 PUSH0 DUP3 ADD MSTORE POP JUMP JUMPDEST PUSH0 PUSH2 0xB31 PUSH1 0x15 DUP4 PUSH2 0x86E JUMP JUMPDEST SWAP2 POP PUSH2 0xB3C DUP3 PUSH2 0xAFD JUMP JUMPDEST PUSH1 0x20 DUP3 ADD SWAP1 POP SWAP2 SWAP1 POP JUMP JUMPDEST PUSH0 PUSH1 0x20 DUP3 ADD SWAP1 POP DUP2 DUP2 SUB PUSH0 DUP4 ADD MSTORE PUSH2 0xB5E DUP2 PUSH2 0xB25 JUMP JUMPDEST SWAP1 POP SWAP2 SWAP1 POP JUMP JUMPDEST PUSH32 0x77696E646F77206973206E6F7420636C6F736564000000000000000000000000 PUSH0 DUP3 ADD MSTORE POP JUMP JUMPDEST PUSH0 PUSH2 0xB99 PUSH1 0x14 DUP4 PUSH2 0x86E JUMP JUMPDEST SWAP2 POP PUSH2 0xBA4 DUP3 PUSH2 0xB65 JUMP JUMPDEST PUSH1 0x20 DUP3 ADD SWAP1 POP SWAP2 SWAP1 POP JUMP JUMPDEST PUSH0 PUSH1 0x20 DUP3 ADD SWAP1 POP DUP2 DUP2 SUB PUSH0 DUP4 ADD MSTORE PUSH2 0xBC6 DUP2 PUSH2 0xB8D JUMP JUMPDEST SWAP1 POP SWAP2 SWAP1 POP JUMP JUMPDEST PUSH32 0x6974277320746F6F200000000000000000000000000000000000000000000000 PUSH0 DUP3 ADD MSTORE POP JUMP JUMPDEST PUSH0 PUSH2 0xC01 PUSH1 0x9 DUP4 PUSH2 0x86E JUMP JUMPDEST SWAP2 POP PUSH2 0xC0C DUP3 PUSH2 0xBCD JUMP JUMPDEST PUSH1 0x20 DUP3 ADD SWAP1 POP SWAP2 SWAP1 POP JUMP JUMPDEST PUSH0 PUSH1 0x20 DUP3 ADD SWAP1 POP DUP2 DUP2 SUB PUSH0 DUP4 ADD MSTORE PUSH2 0xC2E DUP2 PUSH2 0xBF5 JUMP JUMPDEST SWAP1 POP SWAP2 SWAP1 POP JUMP JUMPDEST PUSH32 0x77696E646F7720697320636C6F73656400000000000000000000000000000000 PUSH0 DUP3 ADD MSTORE POP JUMP JUMPDEST PUSH0 PUSH2 0xC69 PUSH1 0x10 DUP4 PUSH2 0x86E JUMP JUMPDEST SWAP2 POP PUSH2 0xC74 DUP3 PUSH2 0xC35 JUMP JUMPDEST PUSH1 0x20 DUP3 ADD SWAP1 POP SWAP2 SWAP1 POP JUMP JUMPDEST PUSH0 PUSH1 0x20 DUP3 ADD SWAP1 POP DUP2 DUP2 SUB PUSH0 DUP4 ADD MSTORE PUSH2 0xC96 DUP2 PUSH2 0xC5D JUMP JUMPDEST SWAP1 POP SWAP2 SWAP1 POP JUMP JUMPDEST PUSH0 PUSH10 0xFFFFFFFFFFFFFFFFFFFF DUP3 AND SWAP1 POP SWAP2 SWAP1 POP JUMP JUMPDEST PUSH2 0xCBB DUP2 PUSH2 0xC9D JUMP JUMPDEST DUP2 EQ PUSH2 0xCC5 JUMPI PUSH0 PUSH0 REVERT JUMPDEST POP JUMP JUMPDEST PUSH0 DUP2 MLOAD SWAP1 POP PUSH2 0xCD6 DUP2 PUSH2 0xCB2 JUMP JUMPDEST SWAP3 SWAP2 POP POP JUMP JUMPDEST PUSH2 0xCE5 DUP2 PUSH2 0x80C JUMP JUMPDEST DUP2 EQ PUSH2 0xCEF JUMPI PUSH0 PUSH0 REVERT JUMPDEST POP JUMP JUMPDEST PUSH0 DUP2 MLOAD SWAP1 POP PUSH2 0xD00 DUP2 PUSH2 0xCDC JUMP JUMPDEST SWAP3 SWAP2 POP POP JUMP JUMPDEST PUSH2 0xD0F DUP2 PUSH2 0x83D JUMP JUMPDEST DUP2 EQ PUSH2 0xD19 JUMPI PUSH0 PUSH0 REVERT JUMPDEST POP JUMP JUMPDEST PUSH0 DUP2 MLOAD SWAP1 POP PUSH2 0xD2A DUP2 PUSH2 0xD06 JUMP JUMPDEST SWAP3 SWAP2 POP POP JUMP JUMPDEST PUSH0 PUSH0 PUSH0 PUSH0 PUSH0 PUSH1 0xA0 DUP7 DUP9 SUB SLT ISZERO PUSH2 0xD49 JUMPI PUSH2 0xD48 PUSH2 0x7B3 JUMP JUMPDEST JUMPDEST PUSH0 PUSH2 0xD56 DUP9 DUP3 DUP10 ADD PUSH2 0xCC8 JUMP JUMPDEST SWAP6 POP POP PUSH1 0x20 PUSH2 0xD67 DUP9 DUP3 DUP10 ADD PUSH2 0xCF2 JUMP JUMPDEST SWAP5 POP POP PUSH1 0x40 PUSH2 0xD78 DUP9 DUP3 DUP10 ADD PUSH2 0xD1C JUMP JUMPDEST SWAP4 POP POP PUSH1 0x60 PUSH2 0xD89 DUP9 DUP3 DUP10 ADD PUSH2 0xD1C JUMP JUMPDEST SWAP3 POP POP PUSH1 0x80 PUSH2 0xD9A DUP9 DUP3 DUP10 ADD PUSH2 0xCC8 JUMP JUMPDEST SWAP2 POP POP SWAP3 SWAP6 POP SWAP3 SWAP6 SWAP1 SWAP4 POP JUMP INVALID LOG2 PUSH5 0x6970667358 0x22 SLT KECCAK256 0xF7 MOD SUB OR PUSH16 0xC86363EEA75991CE376DB6A1B1170EAC DUP5 0x4C 0xC3 0x29 ORIGIN 0x23 EXTCODESIZE ADD PUSH29 0xE69964736F6C634300081E003300000000000000000000000000000000 "
		},
		"gasEstimates": {
			"creation": {
				"codeDepositCost": "709800",
				"executionCost": "infinite",
				"totalCost": "infinite"
			},
			"external": {
				"found(address)": "2894",
				"foundContractUser()": "2516",
				"fund()": "infinite",
				"getChainlinkDataFeedLatestAnswer()": "infinite",
				"getFund()": "infinite",
				"refund()": "infinite",
				"transferOwnerShip(address)": "26929"
			},
			"internal": {
				"calculateUsdPrice(uint256)": "infinite"
			}
		},
		"methodIdentifiers": {
			"found(address)": "dc1f031a",
			"foundContractUser()": "1721681c",
			"fund()": "b60d4288",
			"getChainlinkDataFeedLatestAnswer()": "bea4dfb5",
			"getFund()": "8edd6eb6",
			"refund()": "590e1ae3",
			"transferOwnerShip(address)": "8863dd1a"
		}
	},
	"abi": [
		{
			"inputs": [
				{
					"internalType": "uint256",
					"name": "_lockTime",
					"type": "uint256"
				}
			],
			"stateMutability": "nonpayable",
			"type": "constructor"
		},
		{
			"inputs": [
				{
					"internalType": "address",
					"name": "_user",
					"type": "address"
				}
			],
			"name": "found",
			"outputs": [
				{
					"internalType": "uint256",
					"name": "",
					"type": "uint256"
				}
			],
			"stateMutability": "view",
			"type": "function"
		},
		{
			"inputs": [],
			"name": "foundContractUser",
			"outputs": [
				{
					"internalType": "address",
					"name": "",
					"type": "address"
				}
			],
			"stateMutability": "view",
			"type": "function"
		},
		{
			"inputs": [],
			"name": "fund",
			"outputs": [],
			"stateMutability": "payable",
			"type": "function"
		},
		{
			"inputs": [],
			"name": "getChainlinkDataFeedLatestAnswer",
			"outputs": [
				{
					"internalType": "int256",
					"name": "",
					"type": "int256"
				}
			],
			"stateMutability": "view",
			"type": "function"
		},
		{
			"inputs": [],
			"name": "getFund",
			"outputs": [],
			"stateMutability": "nonpayable",
			"type": "function"
		},
		{
			"inputs": [],
			"name": "refund",
			"outputs": [],
			"stateMutability": "nonpayable",
			"type": "function"
		},
		{
			"inputs": [
				{
					"internalType": "address",
					"name": "_newOwner",
					"type": "address"
				}
			],
			"name": "transferOwnerShip",
			"outputs": [],
			"stateMutability": "nonpayable",
			"type": "function"
		}
	]
}