{
	"data": {
		"bytecode": {
			"linkReferences": {},
			"object": "6080604052348015600e575f5ffd5b5061160b8061001c5f395ff3fe608060405234801561000f575f5ffd5b506004361061004a575f3560e01c80637435b74b1461004e578063abf63c781461007e578063cbccc2db146100ae578063e1608cbc146100b8575b5f5ffd5b61006860048036038101906100639190610365565b6100d4565b604051610075919061040a565b60405180910390f35b61009860048036038101906100939190610423565b610122565b6040516100a591906104d1565b60405180910390f35b6100b66101af565b005b6100d260048036038101906100cd919061061d565b610295565b005b5f60018267ffffffffffffffff16815481106100f3576100f2610689565b5b905f5260205f20015f9054906101000a900473ffffffffffffffffffffffffffffffffffffffff169050919050565b606061012d836100d4565b73ffffffffffffffffffffffffffffffffffffffff1663bc520848836040518263ffffffff1660e01b815260040161016591906106c5565b5f60405180830381865afa15801561017f573d5f5f3e3d5ffd5b505050506040513d5f823e3d601f19601f820116820180604052508101906101a7919061074c565b905092915050565b6040516101bb9061030a565b604051809103905ff0801580156101d4573d5f5f3e3d5ffd5b505f5f6101000a81548173ffffffffffffffffffffffffffffffffffffffff021916908373ffffffffffffffffffffffffffffffffffffffff16021790555060015f5f9054906101000a900473ffffffffffffffffffffffffffffffffffffffff16908060018154018082558091505060019003905f5260205f20015f9091909190916101000a81548173ffffffffffffffffffffffffffffffffffffffff021916908373ffffffffffffffffffffffffffffffffffffffff160217905550565b61029e836100d4565b73ffffffffffffffffffffffffffffffffffffffff1663782cc36382846040518363ffffffff1660e01b81526004016102d8929190610793565b5f604051808303815f87803b1580156102ef575f5ffd5b505af1158015610301573d5f5f3e3d5ffd5b50505050505050565b610e14806107c283390190565b5f604051905090565b5f5ffd5b5f5ffd5b5f67ffffffffffffffff82169050919050565b61034481610328565b811461034e575f5ffd5b50565b5f8135905061035f8161033b565b92915050565b5f6020828403121561037a57610379610320565b5b5f61038784828501610351565b91505092915050565b5f73ffffffffffffffffffffffffffffffffffffffff82169050919050565b5f819050919050565b5f6103d26103cd6103c884610390565b6103af565b610390565b9050919050565b5f6103e3826103b8565b9050919050565b5f6103f4826103d9565b9050919050565b610404816103ea565b82525050565b5f60208201905061041d5f8301846103fb565b92915050565b5f5f6040838503121561043957610438610320565b5b5f61044685828601610351565b925050602061045785828601610351565b9150509250929050565b5f81519050919050565b5f82825260208201905092915050565b8281835e5f83830152505050565b5f601f19601f8301169050919050565b5f6104a382610461565b6104ad818561046b565b93506104bd81856020860161047b565b6104c681610489565b840191505092915050565b5f6020820190508181035f8301526104e98184610499565b905092915050565b5f5ffd5b5f5ffd5b7f4e487b71000000000000000000000000000000000000000000000000000000005f52604160045260245ffd5b61052f82610489565b810181811067ffffffffffffffff8211171561054e5761054d6104f9565b5b80604052505050565b5f610560610317565b905061056c8282610526565b919050565b5f67ffffffffffffffff82111561058b5761058a6104f9565b5b61059482610489565b9050602081019050919050565b828183375f83830152505050565b5f6105c16105bc84610571565b610557565b9050828152602081018484840111156105dd576105dc6104f5565b5b6105e88482856105a1565b509392505050565b5f82601f830112610604576106036104f1565b5b81356106148482602086016105af565b91505092915050565b5f5f5f6060848603121561063457610633610320565b5b5f61064186828701610351565b935050602061065286828701610351565b925050604084013567ffffffffffffffff81111561067357610672610324565b5b61067f868287016105f0565b9150509250925092565b7f4e487b71000000000000000000000000000000000000000000000000000000005f52603260045260245ffd5b6106bf81610328565b82525050565b5f6020820190506106d85f8301846106b6565b92915050565b5f6106f06106eb84610571565b610557565b90508281526020810184848401111561070c5761070b6104f5565b5b61071784828561047b565b509392505050565b5f82601f830112610733576107326104f1565b5b81516107438482602086016106de565b91505092915050565b5f6020828403121561076157610760610320565b5b5f82015167ffffffffffffffff81111561077e5761077d610324565b5b61078a8482850161071f565b91505092915050565b5f6040820190508181035f8301526107ab8185610499565b90506107ba60208301846106b6565b939250505056fe60806040526040518060400160405280600581526020017f48656c6c6f0000000000000000000000000000000000000000000000000000008152505f90816100479190610296565b50348015610053575f5ffd5b50610365565b5f81519050919050565b7f4e487b71000000000000000000000000000000000000000000000000000000005f52604160045260245ffd5b7f4e487b71000000000000000000000000000000000000000000000000000000005f52602260045260245ffd5b5f60028204905060018216806100d457607f821691505b6020821081036100e7576100e6610090565b5b50919050565b5f819050815f5260205f209050919050565b5f6020601f8301049050919050565b5f82821b905092915050565b5f600883026101497fffffffffffffffffffffffffffffffffffffffffffffffffffffffffffffffff8261010e565b610153868361010e565b95508019841693508086168417925050509392505050565b5f819050919050565b5f819050919050565b5f61019761019261018d8461016b565b610174565b61016b565b9050919050565b5f819050919050565b6101b08361017d565b6101c46101bc8261019e565b84845461011a565b825550505050565b5f5f905090565b6101db6101cc565b6101e68184846101a7565b505050565b5b81811015610209576101fe5f826101d3565b6001810190506101ec565b5050565b601f82111561024e5761021f816100ed565b610228846100ff565b81016020851015610237578190505b61024b610243856100ff565b8301826101eb565b50505b505050565b5f82821c905092915050565b5f61026e5f1984600802610253565b1980831691505092915050565b5f610286838361025f565b9150826002028217905092915050565b61029f82610059565b67ffffffffffffffff8111156102b8576102b7610063565b5b6102c282546100bd565b6102cd82828561020d565b5f60209050601f8311600181146102fe575f84156102ec578287015190505b6102f6858261027b565b86555061035d565b601f19841661030c866100ed565b5f5b828110156103335784890151825560018201915060208501945060208101905061030e565b86831015610350578489015161034c601f89168261025f565b8355505b6001600288020188555050505b505050505050565b610aa2806103725f395ff3fe608060405234801561000f575f5ffd5b5060043610610034575f3560e01c8063782cc36314610038578063bc52084814610054575b5f5ffd5b610052600480360381019061004d919061060d565b610084565b005b61006e60048036038101906100699190610667565b61022b565b60405161007b91906106f2565b60405180910390f35b5f60405180606001604052808367ffffffffffffffff1681526020018481526020013373ffffffffffffffffffffffffffffffffffffffff168152509050600181908060018154018082558091505060019003905f5260205f2090600302015f909190919091505f820151815f015f6101000a81548167ffffffffffffffff021916908367ffffffffffffffff160217905550602082015181600101908161012c9190610918565b506040820151816002015f6101000a81548173ffffffffffffffffffffffffffffffffffffffff021916908373ffffffffffffffffffffffffffffffffffffffff16021790555050508060025f8467ffffffffffffffff1667ffffffffffffffff1681526020019081526020015f205f820151815f015f6101000a81548167ffffffffffffffff021916908367ffffffffffffffff16021790555060208201518160010190816101dc9190610918565b506040820151816002015f6101000a81548173ffffffffffffffffffffffffffffffffffffffff021916908373ffffffffffffffffffffffffffffffffffffffff160217905550905050505050565b60605f60025f8467ffffffffffffffff1667ffffffffffffffff1681526020019081526020015f206040518060600160405290815f82015f9054906101000a900467ffffffffffffffff1667ffffffffffffffff1667ffffffffffffffff16815260200160018201805461029e9061073f565b80601f01602080910402602001604051908101604052809291908181526020018280546102ca9061073f565b80156103155780601f106102ec57610100808354040283529160200191610315565b820191905f5260205f20905b8154815290600101906020018083116102f857829003601f168201915b50505050508152602001600282015f9054906101000a900473ffffffffffffffffffffffffffffffffffffffff1673ffffffffffffffffffffffffffffffffffffffff1673ffffffffffffffffffffffffffffffffffffffff168152505090505f73ffffffffffffffffffffffffffffffffffffffff16816040015173ffffffffffffffffffffffffffffffffffffffff16036104445761043c5f80546103bb9061073f565b80601f01602080910402602001604051908101604052809291908181526020018280546103e79061073f565b80156104325780601f1061040957610100808354040283529160200191610432565b820191905f5260205f20905b81548152906001019060200180831161041557829003601f168201915b505050505061045a565b915050610455565b610451816020015161045a565b9150505b919050565b60608160405160200161046d9190610a47565b6040516020818303038152906040529050919050565b5f604051905090565b5f5ffd5b5f5ffd5b5f5ffd5b5f5ffd5b5f601f19601f8301169050919050565b7f4e487b71000000000000000000000000000000000000000000000000000000005f52604160045260245ffd5b6104e28261049c565b810181811067ffffffffffffffff82111715610501576105006104ac565b5b80604052505050565b5f610513610483565b905061051f82826104d9565b919050565b5f67ffffffffffffffff82111561053e5761053d6104ac565b5b6105478261049c565b9050602081019050919050565b828183375f83830152505050565b5f61057461056f84610524565b61050a565b9050828152602081018484840111156105905761058f610498565b5b61059b848285610554565b509392505050565b5f82601f8301126105b7576105b6610494565b5b81356105c7848260208601610562565b91505092915050565b5f67ffffffffffffffff82169050919050565b6105ec816105d0565b81146105f6575f5ffd5b50565b5f81359050610607816105e3565b92915050565b5f5f604083850312156106235761062261048c565b5b5f83013567ffffffffffffffff8111156106405761063f610490565b5b61064c858286016105a3565b925050602061065d858286016105f9565b9150509250929050565b5f6020828403121561067c5761067b61048c565b5b5f610689848285016105f9565b91505092915050565b5f81519050919050565b5f82825260208201905092915050565b8281835e5f83830152505050565b5f6106c482610692565b6106ce818561069c565b93506106de8185602086016106ac565b6106e78161049c565b840191505092915050565b5f6020820190508181035f83015261070a81846106ba565b905092915050565b7f4e487b71000000000000000000000000000000000000000000000000000000005f52602260045260245ffd5b5f600282049050600182168061075657607f821691505b60208210810361076957610768610712565b5b50919050565b5f819050815f5260205f209050919050565b5f6020601f8301049050919050565b5f82821b905092915050565b5f600883026107cb7fffffffffffffffffffffffffffffffffffffffffffffffffffffffffffffffff82610790565b6107d58683610790565b95508019841693508086168417925050509392505050565b5f819050919050565b5f819050919050565b5f61081961081461080f846107ed565b6107f6565b6107ed565b9050919050565b5f819050919050565b610832836107ff565b61084661083e82610820565b84845461079c565b825550505050565b5f5f905090565b61085d61084e565b610868818484610829565b505050565b5b8181101561088b576108805f82610855565b60018101905061086e565b5050565b601f8211156108d0576108a18161076f565b6108aa84610781565b810160208510156108b9578190505b6108cd6108c585610781565b83018261086d565b50505b505050565b5f82821c905092915050565b5f6108f05f19846008026108d5565b1980831691505092915050565b5f61090883836108e1565b9150826002028217905092915050565b61092182610692565b67ffffffffffffffff81111561093a576109396104ac565b5b610944825461073f565b61094f82828561088f565b5f60209050601f831160018114610980575f841561096e578287015190505b61097885826108fd565b8655506109df565b601f19841661098e8661076f565b5f5b828110156109b557848901518255600182019150602085019450602081019050610990565b868310156109d257848901516109ce601f8916826108e1565b8355505b6001600288020188555050505b505050505050565b5f81905092915050565b5f6109fb82610692565b610a0581856109e7565b9350610a158185602086016106ac565b80840191505092915050565b7f2066726f6d2072656d6978206d65737361676500000000000000000000000000815250565b5f610a5282846109f1565b9150610a5d82610a21565b6013820191508190509291505056fea264697066735822122097f4f7d756e6dc10cadd69c43a7717446baa3a0538b16f824a871ae28b6d609164736f6c634300081e0033a264697066735822122063eedad3b673e52f3bb9111f4b02a328eec83da96dcfa09116c99b72f2887c1564736f6c634300081e0033",
			"opcodes": "PUSH1 0x80 PUSH1 0x40 MSTORE CALLVALUE DUP1 ISZERO PUSH1 0xE JUMPI PUSH0 PUSH0 REVERT JUMPDEST POP PUSH2 0x160B DUP1 PUSH2 0x1C PUSH0 CODECOPY PUSH0 RETURN INVALID PUSH1 0x80 PUSH1 0x40 MSTORE CALLVALUE DUP1 ISZERO PUSH2 0xF JUMPI PUSH0 PUSH0 REVERT JUMPDEST POP PUSH1 0x4 CALLDATASIZE LT PUSH2 0x4A JUMPI PUSH0 CALLDATALOAD PUSH1 0xE0 SHR DUP1 PUSH4 0x7435B74B EQ PUSH2 0x4E JUMPI DUP1 PUSH4 0xABF63C78 EQ PUSH2 0x7E JUMPI DUP1 PUSH4 0xCBCCC2DB EQ PUSH2 0xAE JUMPI DUP1 PUSH4 0xE1608CBC EQ PUSH2 0xB8 JUMPI JUMPDEST PUSH0 PUSH0 REVERT JUMPDEST PUSH2 0x68 PUSH1 0x4 DUP1 CALLDATASIZE SUB DUP2 ADD SWAP1 PUSH2 0x63 SWAP2 SWAP1 PUSH2 0x365 JUMP JUMPDEST PUSH2 0xD4 JUMP JUMPDEST PUSH1 0x40 MLOAD PUSH2 0x75 SWAP2 SWAP1 PUSH2 0x40A JUMP JUMPDEST PUSH1 0x40 MLOAD DUP1 SWAP2 SUB SWAP1 RETURN JUMPDEST PUSH2 0x98 PUSH1 0x4 DUP1 CALLDATASIZE SUB DUP2 ADD SWAP1 PUSH2 0x93 SWAP2 SWAP1 PUSH2 0x423 JUMP JUMPDEST PUSH2 0x122 JUMP JUMPDEST PUSH1 0x40 MLOAD PUSH2 0xA5 SWAP2 SWAP1 PUSH2 0x4D1 JUMP JUMPDEST PUSH1 0x40 MLOAD DUP1 SWAP2 SUB SWAP1 RETURN JUMPDEST PUSH2 0xB6 PUSH2 0x1AF JUMP JUMPDEST STOP JUMPDEST PUSH2 0xD2 PUSH1 0x4 DUP1 CALLDATASIZE SUB DUP2 ADD SWAP1 PUSH2 0xCD SWAP2 SWAP1 PUSH2 0x61D JUMP JUMPDEST PUSH2 0x295 JUMP JUMPDEST STOP JUMPDEST PUSH0 PUSH1 0x1 DUP3 PUSH8 0xFFFFFFFFFFFFFFFF AND DUP2 SLOAD DUP2 LT PUSH2 0xF3 JUMPI PUSH2 0xF2 PUSH2 0x689 JUMP JUMPDEST JUMPDEST SWAP1 PUSH0 MSTORE PUSH1 0x20 PUSH0 KECCAK256 ADD PUSH0 SWAP1 SLOAD SWAP1 PUSH2 0x100 EXP SWAP1 DIV PUSH20 0xFFFFFFFFFFFFFFFFFFFFFFFFFFFFFFFFFFFFFFFF AND SWAP1 POP SWAP2 SWAP1 POP JUMP JUMPDEST PUSH1 0x60 PUSH2 0x12D DUP4 PUSH2 0xD4 JUMP JUMPDEST PUSH20 0xFFFFFFFFFFFFFFFFFFFFFFFFFFFFFFFFFFFFFFFF AND PUSH4 0xBC520848 DUP4 PUSH1 0x40 MLOAD DUP3 PUSH4 0xFFFFFFFF AND PUSH1 0xE0 SHL DUP2 MSTORE PUSH1 0x4 ADD PUSH2 0x165 SWAP2 SWAP1 PUSH2 0x6C5 JUMP JUMPDEST PUSH0 PUSH1 0x40 MLOAD DUP1 DUP4 SUB DUP2 DUP7 GAS STATICCALL ISZERO DUP1 ISZERO PUSH2 0x17F JUMPI RETURNDATASIZE PUSH0 PUSH0 RETURNDATACOPY RETURNDATASIZE PUSH0 REVERT JUMPDEST POP POP POP POP PUSH1 0x40 MLOAD RETURNDATASIZE PUSH0 DUP3 RETURNDATACOPY RETURNDATASIZE PUSH1 0x1F NOT PUSH1 0x1F DUP3 ADD AND DUP3 ADD DUP1 PUSH1 0x40 MSTORE POP DUP2 ADD SWAP1 PUSH2 0x1A7 SWAP2 SWAP1 PUSH2 0x74C JUMP JUMPDEST SWAP1 POP SWAP3 SWAP2 POP POP JUMP JUMPDEST PUSH1 0x40 MLOAD PUSH2 0x1BB SWAP1 PUSH2 0x30A JUMP JUMPDEST PUSH1 0x40 MLOAD DUP1 SWAP2 SUB SWAP1 PUSH0 CREATE DUP1 ISZERO DUP1 ISZERO PUSH2 0x1D4 JUMPI RETURNDATASIZE PUSH0 PUSH0 RETURNDATACOPY RETURNDATASIZE PUSH0 REVERT JUMPDEST POP PUSH0 PUSH0 PUSH2 0x100 EXP DUP2 SLOAD DUP2 PUSH20 0xFFFFFFFFFFFFFFFFFFFFFFFFFFFFFFFFFFFFFFFF MUL NOT AND SWAP1 DUP4 PUSH20 0xFFFFFFFFFFFFFFFFFFFFFFFFFFFFFFFFFFFFFFFF AND MUL OR SWAP1 SSTORE POP PUSH1 0x1 PUSH0 PUSH0 SWAP1 SLOAD SWAP1 PUSH2 0x100 EXP SWAP1 DIV PUSH20 0xFFFFFFFFFFFFFFFFFFFFFFFFFFFFFFFFFFFFFFFF AND SWAP1 DUP1 PUSH1 0x1 DUP2 SLOAD ADD DUP1 DUP3 SSTORE DUP1 SWAP2 POP POP PUSH1 0x1 SWAP1 SUB SWAP1 PUSH0 MSTORE PUSH1 0x20 PUSH0 KECCAK256 ADD PUSH0 SWAP1 SWAP2 SWAP1 SWAP2 SWAP1 SWAP2 PUSH2 0x100 EXP DUP2 SLOAD DUP2 PUSH20 0xFFFFFFFFFFFFFFFFFFFFFFFFFFFFFFFFFFFFFFFF MUL NOT AND SWAP1 DUP4 PUSH20 0xFFFFFFFFFFFFFFFFFFFFFFFFFFFFFFFFFFFFFFFF AND MUL OR SWAP1 SSTORE POP JUMP JUMPDEST PUSH2 0x29E DUP4 PUSH2 0xD4 JUMP JUMPDEST PUSH20 0xFFFFFFFFFFFFFFFFFFFFFFFFFFFFFFFFFFFFFFFF AND PUSH4 0x782CC363 DUP3 DUP5 PUSH1 0x40 MLOAD DUP4 PUSH4 0xFFFFFFFF AND PUSH1 0xE0 SHL DUP2 MSTORE PUSH1 0x4 ADD PUSH2 0x2D8 SWAP3 SWAP2 SWAP1 PUSH2 0x793 JUMP JUMPDEST PUSH0 PUSH1 0x40 MLOAD DUP1 DUP4 SUB DUP2 PUSH0 DUP8 DUP1 EXTCODESIZE ISZERO DUP1 ISZERO PUSH2 0x2EF JUMPI PUSH0 PUSH0 REVERT JUMPDEST POP GAS CALL ISZERO DUP1 ISZERO PUSH2 0x301 JUMPI RETURNDATASIZE PUSH0 PUSH0 RETURNDATACOPY RETURNDATASIZE PUSH0 REVERT JUMPDEST POP POP POP POP POP POP POP JUMP JUMPDEST PUSH2 0xE14 DUP1 PUSH2 0x7C2 DUP4 CODECOPY ADD SWAP1 JUMP JUMPDEST PUSH0 PUSH1 0x40 MLOAD SWAP1 POP SWAP1 JUMP JUMPDEST PUSH0 PUSH0 REVERT JUMPDEST PUSH0 PUSH0 REVERT JUMPDEST PUSH0 PUSH8 0xFFFFFFFFFFFFFFFF DUP3 AND SWAP1 POP SWAP2 SWAP1 POP JUMP JUMPDEST PUSH2 0x344 DUP2 PUSH2 0x328 JUMP JUMPDEST DUP2 EQ PUSH2 0x34E JUMPI PUSH0 PUSH0 REVERT JUMPDEST POP JUMP JUMPDEST PUSH0 DUP2 CALLDATALOAD SWAP1 POP PUSH2 0x35F DUP2 PUSH2 0x33B JUMP JUMPDEST SWAP3 SWAP2 POP POP JUMP JUMPDEST PUSH0 PUSH1 0x20 DUP3 DUP5 SUB SLT ISZERO PUSH2 0x37A JUMPI PUSH2 0x379 PUSH2 0x320 JUMP JUMPDEST JUMPDEST PUSH0 PUSH2 0x387 DUP5 DUP3 DUP6 ADD PUSH2 0x351 JUMP JUMPDEST SWAP2 POP POP SWAP3 SWAP2 POP POP JUMP JUMPDEST PUSH0 PUSH20 0xFFFFFFFFFFFFFFFFFFFFFFFFFFFFFFFFFFFFFFFF DUP3 AND SWAP1 POP SWAP2 SWAP1 POP JUMP JUMPDEST PUSH0 DUP2 SWAP1 POP SWAP2 SWAP1 POP JUMP JUMPDEST PUSH0 PUSH2 0x3D2 PUSH2 0x3CD PUSH2 0x3C8 DUP5 PUSH2 0x390 JUMP JUMPDEST PUSH2 0x3AF JUMP JUMPDEST PUSH2 0x390 JUMP JUMPDEST SWAP1 POP SWAP2 SWAP1 POP JUMP JUMPDEST PUSH0 PUSH2 0x3E3 DUP3 PUSH2 0x3B8 JUMP JUMPDEST SWAP1 POP SWAP2 SWAP1 POP JUMP JUMPDEST PUSH0 PUSH2 0x3F4 DUP3 PUSH2 0x3D9 JUMP JUMPDEST SWAP1 POP SWAP2 SWAP1 POP JUMP JUMPDEST PUSH2 0x404 DUP2 PUSH2 0x3EA JUMP JUMPDEST DUP3 MSTORE POP POP JUMP JUMPDEST PUSH0 PUSH1 0x20 DUP3 ADD SWAP1 POP PUSH2 0x41D PUSH0 DUP4 ADD DUP5 PUSH2 0x3FB JUMP JUMPDEST SWAP3 SWAP2 POP POP JUMP JUMPDEST PUSH0 PUSH0 PUSH1 0x40 DUP4 DUP6 SUB SLT ISZERO PUSH2 0x439 JUMPI PUSH2 0x438 PUSH2 0x320 JUMP JUMPDEST JUMPDEST PUSH0 PUSH2 0x446 DUP6 DUP3 DUP7 ADD PUSH2 0x351 JUMP JUMPDEST SWAP3 POP POP PUSH1 0x20 PUSH2 0x457 DUP6 DUP3 DUP7 ADD PUSH2 0x351 JUMP JUMPDEST SWAP2 POP POP SWAP3 POP SWAP3 SWAP1 POP JUMP JUMPDEST PUSH0 DUP2 MLOAD SWAP1 POP SWAP2 SWAP1 POP JUMP JUMPDEST PUSH0 DUP3 DUP3 MSTORE PUSH1 0x20 DUP3 ADD SWAP1 POP SWAP3 SWAP2 POP POP JUMP JUMPDEST DUP3 DUP2 DUP4 MCOPY PUSH0 DUP4 DUP4 ADD MSTORE POP POP POP JUMP JUMPDEST PUSH0 PUSH1 0x1F NOT PUSH1 0x1F DUP4 ADD AND SWAP1 POP SWAP2 SWAP1 POP JUMP JUMPDEST PUSH0 PUSH2 0x4A3 DUP3 PUSH2 0x461 JUMP JUMPDEST PUSH2 0x4AD DUP2 DUP6 PUSH2 0x46B JUMP JUMPDEST SWAP4 POP PUSH2 0x4BD DUP2 DUP6 PUSH1 0x20 DUP7 ADD PUSH2 0x47B JUMP JUMPDEST PUSH2 0x4C6 DUP2 PUSH2 0x489 JUMP JUMPDEST DUP5 ADD SWAP2 POP POP SWAP3 SWAP2 POP POP JUMP JUMPDEST PUSH0 PUSH1 0x20 DUP3 ADD SWAP1 POP DUP2 DUP2 SUB PUSH0 DUP4 ADD MSTORE PUSH2 0x4E9 DUP2 DUP5 PUSH2 0x499 JUMP JUMPDEST SWAP1 POP SWAP3 SWAP2 POP POP JUMP JUMPDEST PUSH0 PUSH0 REVERT JUMPDEST PUSH0 PUSH0 REVERT JUMPDEST PUSH32 0x4E487B7100000000000000000000000000000000000000000000000000000000 PUSH0 MSTORE PUSH1 0x41 PUSH1 0x4 MSTORE PUSH1 0x24 PUSH0 REVERT JUMPDEST PUSH2 0x52F DUP3 PUSH2 0x489 JUMP JUMPDEST DUP2 ADD DUP2 DUP2 LT PUSH8 0xFFFFFFFFFFFFFFFF DUP3 GT OR ISZERO PUSH2 0x54E JUMPI PUSH2 0x54D PUSH2 0x4F9 JUMP JUMPDEST JUMPDEST DUP1 PUSH1 0x40 MSTORE POP POP POP JUMP JUMPDEST PUSH0 PUSH2 0x560 PUSH2 0x317 JUMP JUMPDEST SWAP1 POP PUSH2 0x56C DUP3 DUP3 PUSH2 0x526 JUMP JUMPDEST SWAP2 SWAP1 POP JUMP JUMPDEST PUSH0 PUSH8 0xFFFFFFFFFFFFFFFF DUP3 GT ISZERO PUSH2 0x58B JUMPI PUSH2 0x58A PUSH2 0x4F9 JUMP JUMPDEST JUMPDEST PUSH2 0x594 DUP3 PUSH2 0x489 JUMP JUMPDEST SWAP1 POP PUSH1 0x20 DUP2 ADD SWAP1 POP SWAP2 SWAP1 POP JUMP JUMPDEST DUP3 DUP2 DUP4 CALLDATACOPY PUSH0 DUP4 DUP4 ADD MSTORE POP POP POP JUMP JUMPDEST PUSH0 PUSH2 0x5C1 PUSH2 0x5BC DUP5 PUSH2 0x571 JUMP JUMPDEST PUSH2 0x557 JUMP JUMPDEST SWAP1 POP DUP3 DUP2 MSTORE PUSH1 0x20 DUP2 ADD DUP5 DUP5 DUP5 ADD GT ISZERO PUSH2 0x5DD JUMPI PUSH2 0x5DC PUSH2 0x4F5 JUMP JUMPDEST JUMPDEST PUSH2 0x5E8 DUP5 DUP3 DUP6 PUSH2 0x5A1 JUMP JUMPDEST POP SWAP4 SWAP3 POP POP POP JUMP JUMPDEST PUSH0 DUP3 PUSH1 0x1F DUP4 ADD SLT PUSH2 0x604 JUMPI PUSH2 0x603 PUSH2 0x4F1 JUMP JUMPDEST JUMPDEST DUP2 CALLDATALOAD PUSH2 0x614 DUP5 DUP3 PUSH1 0x20 DUP7 ADD PUSH2 0x5AF JUMP JUMPDEST SWAP2 POP POP SWAP3 SWAP2 POP POP JUMP JUMPDEST PUSH0 PUSH0 PUSH0 PUSH1 0x60 DUP5 DUP7 SUB SLT ISZERO PUSH2 0x634 JUMPI PUSH2 0x633 PUSH2 0x320 JUMP JUMPDEST JUMPDEST PUSH0 PUSH2 0x641 DUP7 DUP3 DUP8 ADD PUSH2 0x351 JUMP JUMPDEST SWAP4 POP POP PUSH1 0x20 PUSH2 0x652 DUP7 DUP3 DUP8 ADD PUSH2 0x351 JUMP JUMPDEST SWAP3 POP POP PUSH1 0x40 DUP5 ADD CALLDATALOAD PUSH8 0xFFFFFFFFFFFFFFFF DUP2 GT ISZERO PUSH2 0x673 JUMPI PUSH2 0x672 PUSH2 0x324 JUMP JUMPDEST JUMPDEST PUSH2 0x67F DUP7 DUP3 DUP8 ADD PUSH2 0x5F0 JUMP JUMPDEST SWAP2 POP POP SWAP3 POP SWAP3 POP SWAP3 JUMP JUMPDEST PUSH32 0x4E487B7100000000000000000000000000000000000000000000000000000000 PUSH0 MSTORE PUSH1 0x32 PUSH1 0x4 MSTORE PUSH1 0x24 PUSH0 REVERT JUMPDEST PUSH2 0x6BF DUP2 PUSH2 0x328 JUMP JUMPDEST DUP3 MSTORE POP POP JUMP JUMPDEST PUSH0 PUSH1 0x20 DUP3 ADD SWAP1 POP PUSH2 0x6D8 PUSH0 DUP4 ADD DUP5 PUSH2 0x6B6 JUMP JUMPDEST SWAP3 SWAP2 POP POP JUMP JUMPDEST PUSH0 PUSH2 0x6F0 PUSH2 0x6EB DUP5 PUSH2 0x571 JUMP JUMPDEST PUSH2 0x557 JUMP JUMPDEST SWAP1 POP DUP3 DUP2 MSTORE PUSH1 0x20 DUP2 ADD DUP5 DUP5 DUP5 ADD GT ISZERO PUSH2 0x70C JUMPI PUSH2 0x70B PUSH2 0x4F5 JUMP JUMPDEST JUMPDEST PUSH2 0x717 DUP5 DUP3 DUP6 PUSH2 0x47B JUMP JUMPDEST POP SWAP4 SWAP3 POP POP POP JUMP JUMPDEST PUSH0 DUP3 PUSH1 0x1F DUP4 ADD SLT PUSH2 0x733 JUMPI PUSH2 0x732 PUSH2 0x4F1 JUMP JUMPDEST JUMPDEST DUP2 MLOAD PUSH2 0x743 DUP5 DUP3 PUSH1 0x20 DUP7 ADD PUSH2 0x6DE JUMP JUMPDEST SWAP2 POP POP SWAP3 SWAP2 POP POP JUMP JUMPDEST PUSH0 PUSH1 0x20 DUP3 DUP5 SUB SLT ISZERO PUSH2 0x761 JUMPI PUSH2 0x760 PUSH2 0x320 JUMP JUMPDEST JUMPDEST PUSH0 DUP3 ADD MLOAD PUSH8 0xFFFFFFFFFFFFFFFF DUP2 GT ISZERO PUSH2 0x77E JUMPI PUSH2 0x77D PUSH2 0x324 JUMP JUMPDEST JUMPDEST PUSH2 0x78A DUP5 DUP3 DUP6 ADD PUSH2 0x71F JUMP JUMPDEST SWAP2 POP POP SWAP3 SWAP2 POP POP JUMP JUMPDEST PUSH0 PUSH1 0x40 DUP3 ADD SWAP1 POP DUP2 DUP2 SUB PUSH0 DUP4 ADD MSTORE PUSH2 0x7AB DUP2 DUP6 PUSH2 0x499 JUMP JUMPDEST SWAP1 POP PUSH2 0x7BA PUSH1 0x20 DUP4 ADD DUP5 PUSH2 0x6B6 JUMP JUMPDEST SWAP4 SWAP3 POP POP POP JUMP INVALID PUSH1 0x80 PUSH1 0x40 MSTORE PUSH1 0x40 MLOAD DUP1 PUSH1 0x40 ADD PUSH1 0x40 MSTORE DUP1 PUSH1 0x5 DUP2 MSTORE PUSH1 0x20 ADD PUSH32 0x48656C6C6F000000000000000000000000000000000000000000000000000000 DUP2 MSTORE POP PUSH0 SWAP1 DUP2 PUSH2 0x47 SWAP2 SWAP1 PUSH2 0x296 JUMP JUMPDEST POP CALLVALUE DUP1 ISZERO PUSH2 0x53 JUMPI PUSH0 PUSH0 REVERT JUMPDEST POP PUSH2 0x365 JUMP JUMPDEST PUSH0 DUP2 MLOAD SWAP1 POP SWAP2 SWAP1 POP JUMP JUMPDEST PUSH32 0x4E487B7100000000000000000000000000000000000000000000000000000000 PUSH0 MSTORE PUSH1 0x41 PUSH1 0x4 MSTORE PUSH1 0x24 PUSH0 REVERT JUMPDEST PUSH32 0x4E487B7100000000000000000000000000000000000000000000000000000000 PUSH0 MSTORE PUSH1 0x22 PUSH1 0x4 MSTORE PUSH1 0x24 PUSH0 REVERT JUMPDEST PUSH0 PUSH1 0x2 DUP3 DIV SWAP1 POP PUSH1 0x1 DUP3 AND DUP1 PUSH2 0xD4 JUMPI PUSH1 0x7F DUP3 AND SWAP2 POP JUMPDEST PUSH1 0x20 DUP3 LT DUP2 SUB PUSH2 0xE7 JUMPI PUSH2 0xE6 PUSH2 0x90 JUMP JUMPDEST JUMPDEST POP SWAP2 SWAP1 POP JUMP JUMPDEST PUSH0 DUP2 SWAP1 POP DUP2 PUSH0 MSTORE PUSH1 0x20 PUSH0 KECCAK256 SWAP1 POP SWAP2 SWAP1 POP JUMP JUMPDEST PUSH0 PUSH1 0x20 PUSH1 0x1F DUP4 ADD DIV SWAP1 POP SWAP2 SWAP1 POP JUMP JUMPDEST PUSH0 DUP3 DUP3 SHL SWAP1 POP SWAP3 SWAP2 POP POP JUMP JUMPDEST PUSH0 PUSH1 0x8 DUP4 MUL PUSH2 0x149 PUSH32 0xFFFFFFFFFFFFFFFFFFFFFFFFFFFFFFFFFFFFFFFFFFFFFFFFFFFFFFFFFFFFFFFF DUP3 PUSH2 0x10E JUMP JUMPDEST PUSH2 0x153 DUP7 DUP4 PUSH2 0x10E JUMP JUMPDEST SWAP6 POP DUP1 NOT DUP5 AND SWAP4 POP DUP1 DUP7 AND DUP5 OR SWAP3 POP POP POP SWAP4 SWAP3 POP POP POP JUMP JUMPDEST PUSH0 DUP2 SWAP1 POP SWAP2 SWAP1 POP JUMP JUMPDEST PUSH0 DUP2 SWAP1 POP SWAP2 SWAP1 POP JUMP JUMPDEST PUSH0 PUSH2 0x197 PUSH2 0x192 PUSH2 0x18D DUP5 PUSH2 0x16B JUMP JUMPDEST PUSH2 0x174 JUMP JUMPDEST PUSH2 0x16B JUMP JUMPDEST SWAP1 POP SWAP2 SWAP1 POP JUMP JUMPDEST PUSH0 DUP2 SWAP1 POP SWAP2 SWAP1 POP JUMP JUMPDEST PUSH2 0x1B0 DUP4 PUSH2 0x17D JUMP JUMPDEST PUSH2 0x1C4 PUSH2 0x1BC DUP3 PUSH2 0x19E JUMP JUMPDEST DUP5 DUP5 SLOAD PUSH2 0x11A JUMP JUMPDEST DUP3 SSTORE POP POP POP POP JUMP JUMPDEST PUSH0 PUSH0 SWAP1 POP SWAP1 JUMP JUMPDEST PUSH2 0x1DB PUSH2 0x1CC JUMP JUMPDEST PUSH2 0x1E6 DUP2 DUP5 DUP5 PUSH2 0x1A7 JUMP JUMPDEST POP POP POP JUMP JUMPDEST JUMPDEST DUP2 DUP2 LT ISZERO PUSH2 0x209 JUMPI PUSH2 0x1FE PUSH0 DUP3 PUSH2 0x1D3 JUMP JUMPDEST PUSH1 0x1 DUP2 ADD SWAP1 POP PUSH2 0x1EC JUMP JUMPDEST POP POP JUMP JUMPDEST PUSH1 0x1F DUP3 GT ISZERO PUSH2 0x24E JUMPI PUSH2 0x21F DUP2 PUSH2 0xED JUMP JUMPDEST PUSH2 0x228 DUP5 PUSH2 0xFF JUMP JUMPDEST DUP2 ADD PUSH1 0x20 DUP6 LT ISZERO PUSH2 0x237 JUMPI DUP2 SWAP1 POP JUMPDEST PUSH2 0x24B PUSH2 0x243 DUP6 PUSH2 0xFF JUMP JUMPDEST DUP4 ADD DUP3 PUSH2 0x1EB JUMP JUMPDEST POP POP JUMPDEST POP POP POP JUMP JUMPDEST PUSH0 DUP3 DUP3 SHR SWAP1 POP SWAP3 SWAP2 POP POP JUMP JUMPDEST PUSH0 PUSH2 0x26E PUSH0 NOT DUP5 PUSH1 0x8 MUL PUSH2 0x253 JUMP JUMPDEST NOT DUP1 DUP4 AND SWAP2 POP POP SWAP3 SWAP2 POP POP JUMP JUMPDEST PUSH0 PUSH2 0x286 DUP4 DUP4 PUSH2 0x25F JUMP JUMPDEST SWAP2 POP DUP3 PUSH1 0x2 MUL DUP3 OR SWAP1 POP SWAP3 SWAP2 POP POP JUMP JUMPDEST PUSH2 0x29F DUP3 PUSH2 0x59 JUMP JUMPDEST PUSH8 0xFFFFFFFFFFFFFFFF DUP2 GT ISZERO PUSH2 0x2B8 JUMPI PUSH2 0x2B7 PUSH2 0x63 JUMP JUMPDEST JUMPDEST PUSH2 0x2C2 DUP3 SLOAD PUSH2 0xBD JUMP JUMPDEST PUSH2 0x2CD DUP3 DUP3 DUP6 PUSH2 0x20D JUMP JUMPDEST PUSH0 PUSH1 0x20 SWAP1 POP PUSH1 0x1F DUP4 GT PUSH1 0x1 DUP2 EQ PUSH2 0x2FE JUMPI PUSH0 DUP5 ISZERO PUSH2 0x2EC JUMPI DUP3 DUP8 ADD MLOAD SWAP1 POP JUMPDEST PUSH2 0x2F6 DUP6 DUP3 PUSH2 0x27B JUMP JUMPDEST DUP7 SSTORE POP PUSH2 0x35D JUMP JUMPDEST PUSH1 0x1F NOT DUP5 AND PUSH2 0x30C DUP7 PUSH2 0xED JUMP JUMPDEST PUSH0 JUMPDEST DUP3 DUP2 LT ISZERO PUSH2 0x333 JUMPI DUP5 DUP10 ADD MLOAD DUP3 SSTORE PUSH1 0x1 DUP3 ADD SWAP2 POP PUSH1 0x20 DUP6 ADD SWAP5 POP PUSH1 0x20 DUP2 ADD SWAP1 POP PUSH2 0x30E JUMP JUMPDEST DUP7 DUP4 LT ISZERO PUSH2 0x350 JUMPI DUP5 DUP10 ADD MLOAD PUSH2 0x34C PUSH1 0x1F DUP10 AND DUP3 PUSH2 0x25F JUMP JUMPDEST DUP4 SSTORE POP JUMPDEST PUSH1 0x1 PUSH1 0x2 DUP9 MUL ADD DUP9 SSTORE POP POP POP JUMPDEST POP POP POP POP POP POP JUMP JUMPDEST PUSH2 0xAA2 DUP1 PUSH2 0x372 PUSH0 CODECOPY PUSH0 RETURN INVALID PUSH1 0x80 PUSH1 0x40 MSTORE CALLVALUE DUP1 ISZERO PUSH2 0xF JUMPI PUSH0 PUSH0 REVERT JUMPDEST POP PUSH1 0x4 CALLDATASIZE LT PUSH2 0x34 JUMPI PUSH0 CALLDATALOAD PUSH1 0xE0 SHR DUP1 PUSH4 0x782CC363 EQ PUSH2 0x38 JUMPI DUP1 PUSH4 0xBC520848 EQ PUSH2 0x54 JUMPI JUMPDEST PUSH0 PUSH0 REVERT JUMPDEST PUSH2 0x52 PUSH1 0x4 DUP1 CALLDATASIZE SUB DUP2 ADD SWAP1 PUSH2 0x4D SWAP2 SWAP1 PUSH2 0x60D JUMP JUMPDEST PUSH2 0x84 JUMP JUMPDEST STOP JUMPDEST PUSH2 0x6E PUSH1 0x4 DUP1 CALLDATASIZE SUB DUP2 ADD SWAP1 PUSH2 0x69 SWAP2 SWAP1 PUSH2 0x667 JUMP JUMPDEST PUSH2 0x22B JUMP JUMPDEST PUSH1 0x40 MLOAD PUSH2 0x7B SWAP2 SWAP1 PUSH2 0x6F2 JUMP JUMPDEST PUSH1 0x40 MLOAD DUP1 SWAP2 SUB SWAP1 RETURN JUMPDEST PUSH0 PUSH1 0x40 MLOAD DUP1 PUSH1 0x60 ADD PUSH1 0x40 MSTORE DUP1 DUP4 PUSH8 0xFFFFFFFFFFFFFFFF AND DUP2 MSTORE PUSH1 0x20 ADD DUP5 DUP2 MSTORE PUSH1 0x20 ADD CALLER PUSH20 0xFFFFFFFFFFFFFFFFFFFFFFFFFFFFFFFFFFFFFFFF AND DUP2 MSTORE POP SWAP1 POP PUSH1 0x1 DUP2 SWAP1 DUP1 PUSH1 0x1 DUP2 SLOAD ADD DUP1 DUP3 SSTORE DUP1 SWAP2 POP POP PUSH1 0x1 SWAP1 SUB SWAP1 PUSH0 MSTORE PUSH1 0x20 PUSH0 KECCAK256 SWAP1 PUSH1 0x3 MUL ADD PUSH0 SWAP1 SWAP2 SWAP1 SWAP2 SWAP1 SWAP2 POP PUSH0 DUP3 ADD MLOAD DUP2 PUSH0 ADD PUSH0 PUSH2 0x100 EXP DUP2 SLOAD DUP2 PUSH8 0xFFFFFFFFFFFFFFFF MUL NOT AND SWAP1 DUP4 PUSH8 0xFFFFFFFFFFFFFFFF AND MUL OR SWAP1 SSTORE POP PUSH1 0x20 DUP3 ADD MLOAD DUP2 PUSH1 0x1 ADD SWAP1 DUP2 PUSH2 0x12C SWAP2 SWAP1 PUSH2 0x918 JUMP JUMPDEST POP PUSH1 0x40 DUP3 ADD MLOAD DUP2 PUSH1 0x2 ADD PUSH0 PUSH2 0x100 EXP DUP2 SLOAD DUP2 PUSH20 0xFFFFFFFFFFFFFFFFFFFFFFFFFFFFFFFFFFFFFFFF MUL NOT AND SWAP1 DUP4 PUSH20 0xFFFFFFFFFFFFFFFFFFFFFFFFFFFFFFFFFFFFFFFF AND MUL OR SWAP1 SSTORE POP POP POP DUP1 PUSH1 0x2 PUSH0 DUP5 PUSH8 0xFFFFFFFFFFFFFFFF AND PUSH8 0xFFFFFFFFFFFFFFFF AND DUP2 MSTORE PUSH1 0x20 ADD SWAP1 DUP2 MSTORE PUSH1 0x20 ADD PUSH0 KECCAK256 PUSH0 DUP3 ADD MLOAD DUP2 PUSH0 ADD PUSH0 PUSH2 0x100 EXP DUP2 SLOAD DUP2 PUSH8 0xFFFFFFFFFFFFFFFF MUL NOT AND SWAP1 DUP4 PUSH8 0xFFFFFFFFFFFFFFFF AND MUL OR SWAP1 SSTORE POP PUSH1 0x20 DUP3 ADD MLOAD DUP2 PUSH1 0x1 ADD SWAP1 DUP2 PUSH2 0x1DC SWAP2 SWAP1 PUSH2 0x918 JUMP JUMPDEST POP PUSH1 0x40 DUP3 ADD MLOAD DUP2 PUSH1 0x2 ADD PUSH0 PUSH2 0x100 EXP DUP2 SLOAD DUP2 PUSH20 0xFFFFFFFFFFFFFFFFFFFFFFFFFFFFFFFFFFFFFFFF MUL NOT AND SWAP1 DUP4 PUSH20 0xFFFFFFFFFFFFFFFFFFFFFFFFFFFFFFFFFFFFFFFF AND MUL OR SWAP1 SSTORE POP SWAP1 POP POP POP POP POP JUMP JUMPDEST PUSH1 0x60 PUSH0 PUSH1 0x2 PUSH0 DUP5 PUSH8 0xFFFFFFFFFFFFFFFF AND PUSH8 0xFFFFFFFFFFFFFFFF AND DUP2 MSTORE PUSH1 0x20 ADD SWAP1 DUP2 MSTORE PUSH1 0x20 ADD PUSH0 KECCAK256 PUSH1 0x40 MLOAD DUP1 PUSH1 0x60 ADD PUSH1 0x40 MSTORE SWAP1 DUP2 PUSH0 DUP3 ADD PUSH0 SWAP1 SLOAD SWAP1 PUSH2 0x100 EXP SWAP1 DIV PUSH8 0xFFFFFFFFFFFFFFFF AND PUSH8 0xFFFFFFFFFFFFFFFF AND PUSH8 0xFFFFFFFFFFFFFFFF AND DUP2 MSTORE PUSH1 0x20 ADD PUSH1 0x1 DUP3 ADD DUP1 SLOAD PUSH2 0x29E SWAP1 PUSH2 0x73F JUMP JUMPDEST DUP1 PUSH1 0x1F ADD PUSH1 0x20 DUP1 SWAP2 DIV MUL PUSH1 0x20 ADD PUSH1 0x40 MLOAD SWAP1 DUP2 ADD PUSH1 0x40 MSTORE DUP1 SWAP3 SWAP2 SWAP1 DUP2 DUP2 MSTORE PUSH1 0x20 ADD DUP3 DUP1 SLOAD PUSH2 0x2CA SWAP1 PUSH2 0x73F JUMP JUMPDEST DUP1 ISZERO PUSH2 0x315 JUMPI DUP1 PUSH1 0x1F LT PUSH2 0x2EC JUMPI PUSH2 0x100 DUP1 DUP4 SLOAD DIV MUL DUP4 MSTORE SWAP2 PUSH1 0x20 ADD SWAP2 PUSH2 0x315 JUMP JUMPDEST DUP3 ADD SWAP2 SWAP1 PUSH0 MSTORE PUSH1 0x20 PUSH0 KECCAK256 SWAP1 JUMPDEST DUP2 SLOAD DUP2 MSTORE SWAP1 PUSH1 0x1 ADD SWAP1 PUSH1 0x20 ADD DUP1 DUP4 GT PUSH2 0x2F8 JUMPI DUP3 SWAP1 SUB PUSH1 0x1F AND DUP3 ADD SWAP2 JUMPDEST POP POP POP POP POP DUP2 MSTORE PUSH1 0x20 ADD PUSH1 0x2 DUP3 ADD PUSH0 SWAP1 SLOAD SWAP1 PUSH2 0x100 EXP SWAP1 DIV PUSH20 0xFFFFFFFFFFFFFFFFFFFFFFFFFFFFFFFFFFFFFFFF AND PUSH20 0xFFFFFFFFFFFFFFFFFFFFFFFFFFFFFFFFFFFFFFFF AND PUSH20 0xFFFFFFFFFFFFFFFFFFFFFFFFFFFFFFFFFFFFFFFF AND DUP2 MSTORE POP POP SWAP1 POP PUSH0 PUSH20 0xFFFFFFFFFFFFFFFFFFFFFFFFFFFFFFFFFFFFFFFF AND DUP2 PUSH1 0x40 ADD MLOAD PUSH20 0xFFFFFFFFFFFFFFFFFFFFFFFFFFFFFFFFFFFFFFFF AND SUB PUSH2 0x444 JUMPI PUSH2 0x43C PUSH0 DUP1 SLOAD PUSH2 0x3BB SWAP1 PUSH2 0x73F JUMP JUMPDEST DUP1 PUSH1 0x1F ADD PUSH1 0x20 DUP1 SWAP2 DIV MUL PUSH1 0x20 ADD PUSH1 0x40 MLOAD SWAP1 DUP2 ADD PUSH1 0x40 MSTORE DUP1 SWAP3 SWAP2 SWAP1 DUP2 DUP2 MSTORE PUSH1 0x20 ADD DUP3 DUP1 SLOAD PUSH2 0x3E7 SWAP1 PUSH2 0x73F JUMP JUMPDEST DUP1 ISZERO PUSH2 0x432 JUMPI DUP1 PUSH1 0x1F LT PUSH2 0x409 JUMPI PUSH2 0x100 DUP1 DUP4 SLOAD DIV MUL DUP4 MSTORE SWAP2 PUSH1 0x20 ADD SWAP2 PUSH2 0x432 JUMP JUMPDEST DUP3 ADD SWAP2 SWAP1 PUSH0 MSTORE PUSH1 0x20 PUSH0 KECCAK256 SWAP1 JUMPDEST DUP2 SLOAD DUP2 MSTORE SWAP1 PUSH1 0x1 ADD SWAP1 PUSH1 0x20 ADD DUP1 DUP4 GT PUSH2 0x415 JUMPI DUP3 SWAP1 SUB PUSH1 0x1F AND DUP3 ADD SWAP2 JUMPDEST POP POP POP POP POP PUSH2 0x45A JUMP JUMPDEST SWAP2 POP POP PUSH2 0x455 JUMP JUMPDEST PUSH2 0x451 DUP2 PUSH1 0x20 ADD MLOAD PUSH2 0x45A JUMP JUMPDEST SWAP2 POP POP JUMPDEST SWAP2 SWAP1 POP JUMP JUMPDEST PUSH1 0x60 DUP2 PUSH1 0x40 MLOAD PUSH1 0x20 ADD PUSH2 0x46D SWAP2 SWAP1 PUSH2 0xA47 JUMP JUMPDEST PUSH1 0x40 MLOAD PUSH1 0x20 DUP2 DUP4 SUB SUB DUP2 MSTORE SWAP1 PUSH1 0x40 MSTORE SWAP1 POP SWAP2 SWAP1 POP JUMP JUMPDEST PUSH0 PUSH1 0x40 MLOAD SWAP1 POP SWAP1 JUMP JUMPDEST PUSH0 PUSH0 REVERT JUMPDEST PUSH0 PUSH0 REVERT JUMPDEST PUSH0 PUSH0 REVERT JUMPDEST PUSH0 PUSH0 REVERT JUMPDEST PUSH0 PUSH1 0x1F NOT PUSH1 0x1F DUP4 ADD AND SWAP1 POP SWAP2 SWAP1 POP JUMP JUMPDEST PUSH32 0x4E487B7100000000000000000000000000000000000000000000000000000000 PUSH0 MSTORE PUSH1 0x41 PUSH1 0x4 MSTORE PUSH1 0x24 PUSH0 REVERT JUMPDEST PUSH2 0x4E2 DUP3 PUSH2 0x49C JUMP JUMPDEST DUP2 ADD DUP2 DUP2 LT PUSH8 0xFFFFFFFFFFFFFFFF DUP3 GT OR ISZERO PUSH2 0x501 JUMPI PUSH2 0x500 PUSH2 0x4AC JUMP JUMPDEST JUMPDEST DUP1 PUSH1 0x40 MSTORE POP POP POP JUMP JUMPDEST PUSH0 PUSH2 0x513 PUSH2 0x483 JUMP JUMPDEST SWAP1 POP PUSH2 0x51F DUP3 DUP3 PUSH2 0x4D9 JUMP JUMPDEST SWAP2 SWAP1 POP JUMP JUMPDEST PUSH0 PUSH8 0xFFFFFFFFFFFFFFFF DUP3 GT ISZERO PUSH2 0x53E JUMPI PUSH2 0x53D PUSH2 0x4AC JUMP JUMPDEST JUMPDEST PUSH2 0x547 DUP3 PUSH2 0x49C JUMP JUMPDEST SWAP1 POP PUSH1 0x20 DUP2 ADD SWAP1 POP SWAP2 SWAP1 POP JUMP JUMPDEST DUP3 DUP2 DUP4 CALLDATACOPY PUSH0 DUP4 DUP4 ADD MSTORE POP POP POP JUMP JUMPDEST PUSH0 PUSH2 0x574 PUSH2 0x56F DUP5 PUSH2 0x524 JUMP JUMPDEST PUSH2 0x50A JUMP JUMPDEST SWAP1 POP DUP3 DUP2 MSTORE PUSH1 0x20 DUP2 ADD DUP5 DUP5 DUP5 ADD GT ISZERO PUSH2 0x590 JUMPI PUSH2 0x58F PUSH2 0x498 JUMP JUMPDEST JUMPDEST PUSH2 0x59B DUP5 DUP3 DUP6 PUSH2 0x554 JUMP JUMPDEST POP SWAP4 SWAP3 POP POP POP JUMP JUMPDEST PUSH0 DUP3 PUSH1 0x1F DUP4 ADD SLT PUSH2 0x5B7 JUMPI PUSH2 0x5B6 PUSH2 0x494 JUMP JUMPDEST JUMPDEST DUP2 CALLDATALOAD PUSH2 0x5C7 DUP5 DUP3 PUSH1 0x20 DUP7 ADD PUSH2 0x562 JUMP JUMPDEST SWAP2 POP POP SWAP3 SWAP2 POP POP JUMP JUMPDEST PUSH0 PUSH8 0xFFFFFFFFFFFFFFFF DUP3 AND SWAP1 POP SWAP2 SWAP1 POP JUMP JUMPDEST PUSH2 0x5EC DUP2 PUSH2 0x5D0 JUMP JUMPDEST DUP2 EQ PUSH2 0x5F6 JUMPI PUSH0 PUSH0 REVERT JUMPDEST POP JUMP JUMPDEST PUSH0 DUP2 CALLDATALOAD SWAP1 POP PUSH2 0x607 DUP2 PUSH2 0x5E3 JUMP JUMPDEST SWAP3 SWAP2 POP POP JUMP JUMPDEST PUSH0 PUSH0 PUSH1 0x40 DUP4 DUP6 SUB SLT ISZERO PUSH2 0x623 JUMPI PUSH2 0x622 PUSH2 0x48C JUMP JUMPDEST JUMPDEST PUSH0 DUP4 ADD CALLDATALOAD PUSH8 0xFFFFFFFFFFFFFFFF DUP2 GT ISZERO PUSH2 0x640 JUMPI PUSH2 0x63F PUSH2 0x490 JUMP JUMPDEST JUMPDEST PUSH2 0x64C DUP6 DUP3 DUP7 ADD PUSH2 0x5A3 JUMP JUMPDEST SWAP3 POP POP PUSH1 0x20 PUSH2 0x65D DUP6 DUP3 DUP7 ADD PUSH2 0x5F9 JUMP JUMPDEST SWAP2 POP POP SWAP3 POP SWAP3 SWAP1 POP JUMP JUMPDEST PUSH0 PUSH1 0x20 DUP3 DUP5 SUB SLT ISZERO PUSH2 0x67C JUMPI PUSH2 0x67B PUSH2 0x48C JUMP JUMPDEST JUMPDEST PUSH0 PUSH2 0x689 DUP5 DUP3 DUP6 ADD PUSH2 0x5F9 JUMP JUMPDEST SWAP2 POP POP SWAP3 SWAP2 POP POP JUMP JUMPDEST PUSH0 DUP2 MLOAD SWAP1 POP SWAP2 SWAP1 POP JUMP JUMPDEST PUSH0 DUP3 DUP3 MSTORE PUSH1 0x20 DUP3 ADD SWAP1 POP SWAP3 SWAP2 POP POP JUMP JUMPDEST DUP3 DUP2 DUP4 MCOPY PUSH0 DUP4 DUP4 ADD MSTORE POP POP POP JUMP JUMPDEST PUSH0 PUSH2 0x6C4 DUP3 PUSH2 0x692 JUMP JUMPDEST PUSH2 0x6CE DUP2 DUP6 PUSH2 0x69C JUMP JUMPDEST SWAP4 POP PUSH2 0x6DE DUP2 DUP6 PUSH1 0x20 DUP7 ADD PUSH2 0x6AC JUMP JUMPDEST PUSH2 0x6E7 DUP2 PUSH2 0x49C JUMP JUMPDEST DUP5 ADD SWAP2 POP POP SWAP3 SWAP2 POP POP JUMP JUMPDEST PUSH0 PUSH1 0x20 DUP3 ADD SWAP1 POP DUP2 DUP2 SUB PUSH0 DUP4 ADD MSTORE PUSH2 0x70A DUP2 DUP5 PUSH2 0x6BA JUMP JUMPDEST SWAP1 POP SWAP3 SWAP2 POP POP JUMP JUMPDEST PUSH32 0x4E487B7100000000000000000000000000000000000000000000000000000000 PUSH0 MSTORE PUSH1 0x22 PUSH1 0x4 MSTORE PUSH1 0x24 PUSH0 REVERT JUMPDEST PUSH0 PUSH1 0x2 DUP3 DIV SWAP1 POP PUSH1 0x1 DUP3 AND DUP1 PUSH2 0x756 JUMPI PUSH1 0x7F DUP3 AND SWAP2 POP JUMPDEST PUSH1 0x20 DUP3 LT DUP2 SUB PUSH2 0x769 JUMPI PUSH2 0x768 PUSH2 0x712 JUMP JUMPDEST JUMPDEST POP SWAP2 SWAP1 POP JUMP JUMPDEST PUSH0 DUP2 SWAP1 POP DUP2 PUSH0 MSTORE PUSH1 0x20 PUSH0 KECCAK256 SWAP1 POP SWAP2 SWAP1 POP JUMP JUMPDEST PUSH0 PUSH1 0x20 PUSH1 0x1F DUP4 ADD DIV SWAP1 POP SWAP2 SWAP1 POP JUMP JUMPDEST PUSH0 DUP3 DUP3 SHL SWAP1 POP SWAP3 SWAP2 POP POP JUMP JUMPDEST PUSH0 PUSH1 0x8 DUP4 MUL PUSH2 0x7CB PUSH32 0xFFFFFFFFFFFFFFFFFFFFFFFFFFFFFFFFFFFFFFFFFFFFFFFFFFFFFFFFFFFFFFFF DUP3 PUSH2 0x790 JUMP JUMPDEST PUSH2 0x7D5 DUP7 DUP4 PUSH2 0x790 JUMP JUMPDEST SWAP6 POP DUP1 NOT DUP5 AND SWAP4 POP DUP1 DUP7 AND DUP5 OR SWAP3 POP POP POP SWAP4 SWAP3 POP POP POP JUMP JUMPDEST PUSH0 DUP2 SWAP1 POP SWAP2 SWAP1 POP JUMP JUMPDEST PUSH0 DUP2 SWAP1 POP SWAP2 SWAP1 POP JUMP JUMPDEST PUSH0 PUSH2 0x819 PUSH2 0x814 PUSH2 0x80F DUP5 PUSH2 0x7ED JUMP JUMPDEST PUSH2 0x7F6 JUMP JUMPDEST PUSH2 0x7ED JUMP JUMPDEST SWAP1 POP SWAP2 SWAP1 POP JUMP JUMPDEST PUSH0 DUP2 SWAP1 POP SWAP2 SWAP1 POP JUMP JUMPDEST PUSH2 0x832 DUP4 PUSH2 0x7FF JUMP JUMPDEST PUSH2 0x846 PUSH2 0x83E DUP3 PUSH2 0x820 JUMP JUMPDEST DUP5 DUP5 SLOAD PUSH2 0x79C JUMP JUMPDEST DUP3 SSTORE POP POP POP POP JUMP JUMPDEST PUSH0 PUSH0 SWAP1 POP SWAP1 JUMP JUMPDEST PUSH2 0x85D PUSH2 0x84E JUMP JUMPDEST PUSH2 0x868 DUP2 DUP5 DUP5 PUSH2 0x829 JUMP JUMPDEST POP POP POP JUMP JUMPDEST JUMPDEST DUP2 DUP2 LT ISZERO PUSH2 0x88B JUMPI PUSH2 0x880 PUSH0 DUP3 PUSH2 0x855 JUMP JUMPDEST PUSH1 0x1 DUP2 ADD SWAP1 POP PUSH2 0x86E JUMP JUMPDEST POP POP JUMP JUMPDEST PUSH1 0x1F DUP3 GT ISZERO PUSH2 0x8D0 JUMPI PUSH2 0x8A1 DUP2 PUSH2 0x76F JUMP JUMPDEST PUSH2 0x8AA DUP5 PUSH2 0x781 JUMP JUMPDEST DUP2 ADD PUSH1 0x20 DUP6 LT ISZERO PUSH2 0x8B9 JUMPI DUP2 SWAP1 POP JUMPDEST PUSH2 0x8CD PUSH2 0x8C5 DUP6 PUSH2 0x781 JUMP JUMPDEST DUP4 ADD DUP3 PUSH2 0x86D JUMP JUMPDEST POP POP JUMPDEST POP POP POP JUMP JUMPDEST PUSH0 DUP3 DUP3 SHR SWAP1 POP SWAP3 SWAP2 POP POP JUMP JUMPDEST PUSH0 PUSH2 0x8F0 PUSH0 NOT DUP5 PUSH1 0x8 MUL PUSH2 0x8D5 JUMP JUMPDEST NOT DUP1 DUP4 AND SWAP2 POP POP SWAP3 SWAP2 POP POP JUMP JUMPDEST PUSH0 PUSH2 0x908 DUP4 DUP4 PUSH2 0x8E1 JUMP JUMPDEST SWAP2 POP DUP3 PUSH1 0x2 MUL DUP3 OR SWAP1 POP SWAP3 SWAP2 POP POP JUMP JUMPDEST PUSH2 0x921 DUP3 PUSH2 0x692 JUMP JUMPDEST PUSH8 0xFFFFFFFFFFFFFFFF DUP2 GT ISZERO PUSH2 0x93A JUMPI PUSH2 0x939 PUSH2 0x4AC JUMP JUMPDEST JUMPDEST PUSH2 0x944 DUP3 SLOAD PUSH2 0x73F JUMP JUMPDEST PUSH2 0x94F DUP3 DUP3 DUP6 PUSH2 0x88F JUMP JUMPDEST PUSH0 PUSH1 0x20 SWAP1 POP PUSH1 0x1F DUP4 GT PUSH1 0x1 DUP2 EQ PUSH2 0x980 JUMPI PUSH0 DUP5 ISZERO PUSH2 0x96E JUMPI DUP3 DUP8 ADD MLOAD SWAP1 POP JUMPDEST PUSH2 0x978 DUP6 DUP3 PUSH2 0x8FD JUMP JUMPDEST DUP7 SSTORE POP PUSH2 0x9DF JUMP JUMPDEST PUSH1 0x1F NOT DUP5 AND PUSH2 0x98E DUP7 PUSH2 0x76F JUMP JUMPDEST PUSH0 JUMPDEST DUP3 DUP2 LT ISZERO PUSH2 0x9B5 JUMPI DUP5 DUP10 ADD MLOAD DUP3 SSTORE PUSH1 0x1 DUP3 ADD SWAP2 POP PUSH1 0x20 DUP6 ADD SWAP5 POP PUSH1 0x20 DUP2 ADD SWAP1 POP PUSH2 0x990 JUMP JUMPDEST DUP7 DUP4 LT ISZERO PUSH2 0x9D2 JUMPI DUP5 DUP10 ADD MLOAD PUSH2 0x9CE PUSH1 0x1F DUP10 AND DUP3 PUSH2 0x8E1 JUMP JUMPDEST DUP4 SSTORE POP JUMPDEST PUSH1 0x1 PUSH1 0x2 DUP9 MUL ADD DUP9 SSTORE POP POP POP JUMPDEST POP POP POP POP POP POP JUMP JUMPDEST PUSH0 DUP2 SWAP1 POP SWAP3 SWAP2 POP POP JUMP JUMPDEST PUSH0 PUSH2 0x9FB DUP3 PUSH2 0x692 JUMP JUMPDEST PUSH2 0xA05 DUP2 DUP6 PUSH2 0x9E7 JUMP JUMPDEST SWAP4 POP PUSH2 0xA15 DUP2 DUP6 PUSH1 0x20 DUP7 ADD PUSH2 0x6AC JUMP JUMPDEST DUP1 DUP5 ADD SWAP2 POP POP SWAP3 SWAP2 POP POP JUMP JUMPDEST PUSH32 0x2066726F6D2072656D6978206D65737361676500000000000000000000000000 DUP2 MSTORE POP JUMP JUMPDEST PUSH0 PUSH2 0xA52 DUP3 DUP5 PUSH2 0x9F1 JUMP JUMPDEST SWAP2 POP PUSH2 0xA5D DUP3 PUSH2 0xA21 JUMP JUMPDEST PUSH1 0x13 DUP3 ADD SWAP2 POP DUP2 SWAP1 POP SWAP3 SWAP2 POP POP JUMP INVALID LOG2 PUSH5 0x6970667358 0x22 SLT KECCAK256 SWAP8 DELEGATECALL 0xF7 0xD7 JUMP DUPN 0xDC LT 0xCA 0xDD PUSH10 0xC43A7717446BAA3A0538 0xB1 PUSH16 0x824A871AE28B6D609164736F6C634300 ADDMOD 0x1E STOP CALLER LOG2 PUSH5 0x6970667358 0x22 SLT KECCAK256 PUSH4 0xEEDAD3B6 PUSH20 0xE52F3BB9111F4B02A328EEC83DA96DCFA09116C9 SWAP12 PUSH19 0xF2887C1564736F6C634300081E003300000000 "
		},
		"gasEstimates": {
			"creation": {
				"codeDepositCost": "1128600",
				"executionCost": "1172",
				"totalCost": "1129772"
			},
			"external": {
				"createHWcontract()": "infinite",
				"getHelloWorldByIndex(uint64)": "infinite",
				"sayHelloFromContract(uint64,uint64)": "infinite",
				"setHelloPhrase(uint64,uint64,string)": "infinite"
			}
		},
		"methodIdentifiers": {
			"createHWcontract()": "cbccc2db",
			"getHelloWorldByIndex(uint64)": "7435b74b",
			"sayHelloFromContract(uint64,uint64)": "abf63c78",
			"setHelloPhrase(uint64,uint64,string)": "e1608cbc"
		}
	},
	"abi": [
		{
			"inputs": [],
			"name": "createHWcontract",
			"outputs": [],
			"stateMutability": "nonpayable",
			"type": "function"
		},
		{
			"inputs": [
				{
					"internalType": "uint64",
					"name": "_index",
					"type": "uint64"
				}
			],
			"name": "getHelloWorldByIndex",
			"outputs": [
				{
					"internalType": "contract HelloWorld",
					"name": "",
					"type": "address"
				}
			],
			"stateMutability": "view",
			"type": "function"
		},
		{
			"inputs": [
				{
					"internalType": "uint64",
					"name": "_index",
					"type": "uint64"
				},
				{
					"internalType": "uint64",
					"name": "_id",
					"type": "uint64"
				}
			],
			"name": "sayHelloFromContract",
			"outputs": [
				{
					"internalType": "string",
					"name": "",
					"type": "string"
				}
			],
			"stateMutability": "view",
			"type": "function"
		},
		{
			"inputs": [
				{
					"internalType": "uint64",
					"name": "_index",
					"type": "uint64"
				},
				{
					"internalType": "uint64",
					"name": "_id",
					"type": "uint64"
				},
				{
					"internalType": "string",
					"name": "_str",
					"type": "string"
				}
			],
			"name": "setHelloPhrase",
			"outputs": [],
			"stateMutability": "nonpayable",
			"type": "function"
		}
	]
}